:020000040800F2
:1000000000000120C10B0008C90B0008CB0B000841
:10001000CD0B0008CF0B0008D10B0008000000003A
:10002000000000000000000000000000FD0A0008C1
:10003000D50B000800000000890B0008990B000890
:10004000DB0B0008DB0B0008DB0B0008DB0B0008F8
:10005000DB0B0008DB0B0008DB0B0008DB0B0008E8
:10006000DB0B0008DB0B0008DB0B0008BD4E0008B3
:10007000C14E0008ED4E00082D4F0008454F000806
:10008000474F0008494F0008DB0B0008AD4E000841
:100090008D4E0008DB0B00089D4E0008DB0B0008AE
:1000A000DB0B0008DB0B0008DB0B0008DB0B000898
:1000B000DB0B00080000000000000000DB0B000864
:1000C000DB0B00080000000000000000DB0B000854
:1000D00000000000DB0B0008DB0B00080000000044
:1000E000DB0B0008DB0B0008000000000000000034
:1000F0000000000000000000000000000000000000
:10010000000000000000000000000000DB0B000801
:100110000000000000000000DB0B0008DB0B000803
:10012000614F0008794F0008914F0008934F000875
:10013000954F0008000000000000000000000000D3
:10014000DB0B0008DB0B0008DB0B0008DB0B0008F7
:10015000974F0008994F0008DB0B0008DB0B0008E5
:10016000DB0B0008DB0B0008DB0B000800000000C5
:10017000DB0B0008DB0B00080000000000000000A3
:10018000DB0B0008DB0B0008DB0B000800F002F8BB
:1001900017F002F90AA090E8000C82448344AAF107
:1001A0000107DA4501D117F0F7F8AFF2090EBAE806
:1001B0000F0013F0010F18BFFB1A43F0010318479B
:1001C000780F0200980F02000A444FF0000C10F85C
:1001D000013B13F0070408BF10F8014B1D1108BFC5
:1001E00010F8015B641E05D010F8016B641E01F865
:1001F000016BF9D113F0080F1EBF10F8014BAD1CB5
:100200000C1B09D16D1E58BF01F801CBFAD505E0D2
:1002100014F8016B01F8016B6D1EF9D59142D6D32C
:10022000704700000023002400250026103A28BF54
:1002300078C1FBD8520728BF30C148BF0B60704758
:100240006E2901F08785702900F03F8766291FF02D
:10025000BC8465291FF0B98467291FF0B684612921
:100260001FF0B58403681B0A28BF41F0800169298B
:1002700000F0B086642900F0AD86752900F0AA86EA
:100280006F2901F07886782900F00B87E92901F0C1
:100290001386E42901F01086F52901F00D86EF2977
:1002A00001F07586F82900F00A870368DB0928BF8A
:1002B00041F08001632901F09085732901F0958553
:1002C000E32903F0FD80F32903F002810020704749
:1002D0001FB51FF06DFC9DE8030001F08DFC01F0DF
:1002E0006EFC0400002000211CF090FD401C6060AA
:1002F000002000211CF0A0FDE06002F073FB01F083
:1003000031FC1FBD0246D2E84F0FC2E8431F03B1C4
:10031000F9E77047024652E8000F40EA010042E860
:10032000000303B1F7E7704710B5024652E8000F2B
:1003300020EA010442E8004303B1F7E710BD10B51D
:10034000024652E8000F00EA01048C4203D0BFF3DA
:100350002F8F002010BD20EA010442E8004303B1C2
:10036000EFE710BD10B5024652E8000F084203D176
:10037000BFF32F8F002010BD20EA010442E80043A4
:1003800003B1F1E710BD024652E8000F411C42E8FC
:10039000001303B1F8E7704710B5024652E8000FAA
:1003A000814202D8BFF32F8F10BD441C42E80043A6
:1003B00003B1F3E710BD10B50246D2E85F0F8142EA
:1003C00002D8BFF32F8F10BD441CC2E8534F03B1B6
:1003D000F3E710BD10B50246D2E85F0F441CA142FE
:1003E00000D80024C2E8534F03B1F5E710BD024620
:1003F00052E8000F10B9BFF32F8F7047411E42E83B
:10040000001303B1F4E770470246D2E85F0F10B95A
:10041000BFF32F8F7047411EC2E8531F03B1F4E7AB
:100420007047024652E8000F10B9BFF32F8F704794
:10043000016842E8001303B1F4E7704702680A60FC
:10044000BFF35F8F50E8002F0B689342F6D140E86E
:10045000001303B1F2E770470246D2E84F0FC2E83B
:10046000431F03B1F9E77047024652E8000F40EA24
:10047000010042E8000303B1F7E7704710B50246F8
:1004800052E8000F20EA010442E8004303B1F7E715
:1004900010BD10B5024652E8000F00EA01048C427C
:1004A00003D0BFF32F8F002010BD20EA010442E8E3
:1004B000004303B1EFE710BD10B5024652E8000F4C
:1004C000084203D1BFF32F8F002010BD20EA0104A2
:1004D00042E8004303B1F1E710BD024652E8000FC5
:1004E000411C42E8001303B1F8E7704710B502461B
:1004F00052E8000F814202D8BFF32F8F10BD441C79
:1005000042E8004303B1F3E710BD10B50246D2E85C
:100510005F0F814202D8BFF32F8F10BD441CC2E889
:10052000534F03B1F3E710BD10B50246D2E85F0F99
:10053000441CA14200D80024C2E8534F03B1F5E7A0
:1005400010BD024652E8000F10B9BFF32F8F70475D
:10055000411E42E8001303B1F4E770470246D2E8B7
:100560005F0F10B9BFF32F8F7047411EC2E8531FB2
:1005700003B1F4E77047024652E8000F10B9BFF329
:100580002F8F7047016842E8001303B1F4E770470A
:1005900002680A60BFF35F8F50E8002F0B68934238
:1005A000F6D140E8001303B1F2E770470246D2E803
:1005B0004F0FC2E8431F03B1F9E77047024652E804
:1005C000000F40EA010042E8000303B1F7E770477B
:1005D00010B5024652E8000F20EA010442E8004349
:1005E00003B1F7E710BD10B5024652E8000F00EA6C
:1005F00001048C4203D0BFF32F8F002010BD20EAEE
:10060000010442E8004303B1EFE710BD10B5024614
:1006100052E8000F084203D1BFF32F8F002010BD16
:1006200020EA010442E8004303B1F1E710BD0246AD
:1006300052E8000F411C42E8001303B1F8E770478D
:1006400010B5024652E8000F814202D8BFF32F8F47
:1006500010BD441C42E8004303B1F3E710BD10B5E0
:100660000246D2E85F0F814202D8BFF32F8F10BD40
:10067000441CC2E8534F03B1F3E710BD10B5024666
:10068000D2E85F0F441CA14200D80024C2E8534FB7
:1006900003B1F5E710BD024652E8000F10B9BFF3F1
:1006A0002F8F7047411E42E8001303B1F4E77047F3
:1006B0000246D2E85F0F10B9BFF32F8F7047411E7B
:1006C000C2E8531F03B1F4E77047024652E8000F37
:1006D00010B9BFF32F8F7047016842E8001303B1D0
:1006E000F4E7704702680A60BFF35F8F50E8002F9D
:1006F0000B689342F6D140E8001303B1F2E770476C
:100700000246D2E84F0FC2E8431F03B1F9E7704732
:10071000024652E8000F40EA010042E8000303B13C
:10072000F7E7704710B5024652E8000F20EA0104CF
:1007300042E8004303B1F7E710BD10B5024652E8A6
:10074000000F00EA01048C4203D0BFF32F8F00207A
:1007500010BD20EA010442E8004303B1EFE710BDF9
:1007600010B5024652E8000F084203D1BFF32F8FA5
:10077000002010BD20EA010442E8004303B1F1E784
:1007800010BD024652E8000F411C42E8001303B1BD
:10079000F8E7704710B5024652E8000F814202D8D0
:1007A000BFF32F8F10BD441C42E8004303B1F3E7B1
:1007B00010BD10B50246D2E85F0F814202D8BFF3E8
:1007C0002F8F10BD441CC2E8534F03B1F3E710BD97
:1007D00010B50246D2E85F0F441CA14200D80024A5
:1007E000C2E8534F03B1F5E710BD024652E8000FCF
:1007F00010B9BFF32F8F7047411E42E8001303B1B9
:10080000F4E770470246D2E85F0F10B9BFF32F8FAD
:100810007047411EC2E8531F03B1F4E77047024618
:1008200052E8000F10B9BFF32F8F7047016842E8FC
:10083000001303B1F4E7704702680A60BFF35F8FEB
:1008400050E8002F0B689342F6D140E8001303B143
:10085000F2E770470246D2E84F0FC2E8431F03B1E8
:10086000F9E77047024652E8000F40EA010042E80B
:10087000000303B1F7E7704710B5024652E8000FD6
:1008800020EA010442E8004303B1F7E710BD10B5C8
:10089000024652E8000F00EA01048C4203D0BFF385
:1008A0002F8F002010BD20EA010442E8004303B16D
:1008B000EFE710BD10B5024652E8000F084203D121
:1008C000BFF32F8F002010BD20EA010442E800434F
:1008D00003B1F1E710BD024652E8000F411C42E8A7
:1008E000001303B1F8E7704710B5024652E8000F55
:1008F000814202D8BFF32F8F10BD441C42E8004351
:1009000003B1F3E710BD10B50246D2E85F0F814294
:1009100002D8BFF32F8F10BD441CC2E8534F03B160
:10092000F3E710BD10B50246D2E85F0F441CA142A8
:1009300000D80024C2E8534F03B1F5E710BD0246CA
:1009400052E8000F10B9BFF32F8F7047411E42E8E5
:10095000001303B1F4E770470246D2E85F0F10B905
:10096000BFF32F8F7047411EC2E8531F03B1F4E756
:100970007047024652E8000F10B9BFF32F8F70473F
:10098000016842E8001303B1F4E7704702680A60A7
:10099000BFF35F8F50E8002F0B689342F6D140E819
:1009A000001303B1F2E770470246D2E84F0FC2E8E6
:1009B000431F03B1F9E77047024652E8000F40EACF
:1009C000010042E8000303B1F7E7704710B50246A3
:1009D00052E8000F20EA010442E8004303B1F7E7C0
:1009E00010BD10B5024652E8000F00EA01048C4227
:1009F00003D0BFF32F8F002010BD20EA010442E88E
:100A0000004303B1EFE710BD10B5024652E8000FF6
:100A1000084203D1BFF32F8F002010BD20EA01044C
:100A200042E8004303B1F1E710BD024652E8000F6F
:100A3000411C42E8001303B1F8E7704710B50246C5
:100A400052E8000F814202D8BFF32F8F10BD441C23
:100A500042E8004303B1F3E710BD10B50246D2E807
:100A60005F0F814202D8BFF32F8F10BD441CC2E834
:100A7000534F03B1F3E710BD10B50246D2E85F0F44
:100A8000441CA14200D80024C2E8534F03B1F5E74B
:100A900010BD024652E8000F10B9BFF32F8F704708
:100AA000411E42E8001303B1F4E770470246D2E862
:100AB0005F0F10B9BFF32F8F7047411EC2E8531F5D
:100AC00003B1F4E77047024652E8000F10B9BFF3D4
:100AD0002F8F7047016842E8001303B1F4E77047B5
:100AE00002680A60BFF35F8F50E8002F0B689342E3
:100AF000F6D140E8001303B1F2E77047EFF3098045
:100B0000816911F8021C91BB01B590E80F10E04714
:100B1000BDE800508CE80300234B93E806009142A7
:100B200008BF704741B91EF0100F10D11F49086867
:100B300020F0010008600AE02CE9F00F1EF0100F11
:100B400008BF2CED108AC1F838C081F822E01A6085
:100B500092F82210906B61F0FF0E1EF0100F08BF8C
:100B600000F028B8B0E8F00F80F30988704710B59E
:100B70000F4A1368994206D852F821400FC8A0477F
:100B8000EFF30984206010BD10B519F0DBF9BDE862
:100B90001040EFF3098CBFE710B519F0B9FCBDE8C0
:100BA0001040EFF3098CB7E73C0D002034EF00E074
:100BB00038020208B0EC088AB0EC08CAFFF7D2BFCE
:100BC0000648804706480047FEE7FEE7FEE7FEE7E7
:100BD000FEE7FEE7FEE7FEE7FEE7FEE71593000807
:100BE0008D01000810B500F0EAFF001D10BD00BF28
:100BF0001DC2010016F04EBD0B3020F007007047FB
:100C00002DE9F04117460E460446FFF7F5FFA042D6
:100C1000054633D9002F1CBF06F10C0016F0CCFDA1
:100C200030467468F4B12168A94217D305F108026F
:100C300091423CBF6168416007D3626861194A60B4
:100C40002268521B0A6041602560002F1CBF06F11C
:100C50000C0016F00DFE201DBDE8F08120466468F2
:100C6000002CE0D12946304600F0B2FF0028D7D151
:100C7000002F1CBF06F10C0016F0FAFD0020BDE8A5
:100C8000F08110B5044600F095FF01682046BDE8EC
:100C900010400122B4E770B516460D46041F002827
:100CA00008BF70BD002E1CBF05F10C0016F084FDBE
:100CB0002B465868002818BFA04238BF0346F8D317
:100CC0001968CA18A24218BF5C6003D122681C468A
:100CD0001144196021680A19824218BF606004D16A
:100CE00042686260006808442060002E1CBF05F165
:100CF0000C0016F0BDFD70BD10B5044600F05AFFA3
:100D000001682046BDE810400122C4E753EA020C06
:100D100000F069802DE9F04B4FF00006002B1FBF5B
:100D2000B3FA83F503FA05F424FA05F65E4012BF20
:100D30001643B2FA82F502FA05F4C5F120051EBF8A
:100D400022FA05FC44EA0C04203556EA044C4FEA2A
:100D5000144418BF641C4FF000084FF00009904283
:100D600071EB030C39D3002919BFB1FA81F701FAED
:100D700007F6B0FA80F700FA07F6C7F120071EBFA2
:100D800020FA07FC46EA0C062037B6FBF4FCA7EB7A
:100D90000507103F07F01F0BCBF120060CFA0BFBE9
:100DA0002CFA06F644BFB3460026202FA4BF5E46A9
:100DB0004FF0000B5BEA060C08BF4FF0010B19EB7C
:100DC0000B09ABFB027C48EB0608C01B06FB02CC00
:100DD0000BFB03CC71EB0C01C1E70B46024641460D
:100DE0004846BDE8F08B13B54FF000004FF000010E
:100DF000AFF30080BDE81C407047B2F120030AD574
:100E0000C2F1200301FA02F120FA03F300FA02F022
:100E100041EA0301704700FA03F14FF00000704708
:100E20007CB51D4616460C00009001D02044401EA3
:100E3000074B7B442A4669460190304600F0A3FFE9
:100E400005461CB10020694600F0B0FF28467CBD75
:100E5000810F00000B460146184602F007BB000058
:100E60001CB50C46064B7B4469460090204600F0BA
:100E70008AFF04460020694600F098FF20461CBD0A
:100E8000430F00007CB51D4616460C00009001D0B3
:100E90002044401E074B7B442A4669460190304659
:100EA00000F071FF05461CB10020694600F07EFF8E
:100EB00028467CBD1D0F00000FB4044910B503AADD
:100EC000029802F0D3FA10BC5DF814FBBC2C002091
:100ED0000FB41CB5084B06AA7B44694600900598E0
:100EE00000F051FF04460020694600F05FFF2046F5
:100EF0001CBC5DF814FB0000D10E00000FB47CB5E3
:100F00000C0009AA009001D02044401E084B7B44ED
:100F100069460190089800F036FF05461CB1002094
:100F2000694600F043FF28467CBC5DF814FB0000D6
:100F3000A50E000070B5044685690068C10601D59C
:100F4000302600E02026C00707D070BDD4E901217B
:100F500030469047206A401C20626D1EF6D570BD59
:100F600070B5044685690078C00707D170BDD4E923
:100F7000012120209047206A401C20626D1EF6D57A
:100F800070BD70B50C460546012A05D0287880064C
:100F900000D5EA69002302E0012305E05B1C9342CF
:100FA00002D2E05C0028F9D1A869E618C01AA8614D
:100FB000286A184428622846FFF7BCFF04E0D5E9F8
:100FC000012114F8010B9047B442F8D32846FFF7EB
:100FD000C7FF70BD2DE9F041064600241068752951
:100FE000314616A510D000F04AFE002802DA404231
:100FF00013A507E031688A0701D512A502E0490769
:1010000004D511A5012401E000F042FE00210A22CE
:1010100006F1240709E0B0FBF2FCB0FBF2F302FB9F
:101020001C00303078541846491C0028F3D1234660
:101030002A463046BDE8F04100F033BE0000000013
:101040002D0000002B00000020000000F0B40D4631
:101050000188090502D5214C7C4402E01F4C7C44E8
:101060000E34002100F1240608E002F00F071209F7
:10107000E75D42EA03721B097754491C52EA0307F1
:10108000F3D102780023120704D5702D06D009B1E0
:10109000022311342246F0BC00F003BE01231034B9
:1010A000F8E770B504460D462146106800F0F0FDE3
:1010B000024629462046BDE870400023C6E7D21DFF
:1010C00022F00703D3E90023C0E70368126843F066
:1010D000200303600823C3610023B7E768F401001D
:1010E0002DE9F05F894604464FF0000ADFF874B13D
:1010F000FB44C0F820A02046E1688847002874D04F
:10110000252806D0D4E901219047206A401C20629E
:10111000F1E700265F462046E1688847202805461B
:1011200007DB312D05D2781910F8200C08B10643E1
:10113000F1E7B00701D526F00406C4F81CA000278B
:10114000C4F818A02A2D09D0284616F019FB38B388
:1011500004EB8708303DC8F8185019E059F8041B13
:10116000204604EB87029161E1688847012F05461C
:1011700018D1E069002820DA26F020061DE0D8F812
:10118000180000EB800005EB40003038C8F818006C
:101190002046E1688847054616F0F2FA0028EED1AD
:1011A000012F0AD02E2D08D12046E16888477F1CE8
:1011B0000546022F46F02006C4DBA069002803DAAA
:1011C000404246F00106A061F00701D026F010066B
:1011D0006C2D0BD0682D09D04C2D39D06A2D35D00F
:1011E000742D35D07A2D33D016E038E0E1682F46E3
:1011F00020468847B842054609D16C2F26D04FF4C7
:101200008060E168064320468847054604E06C2F6D
:101210001AD04FF4807006430DB3A5F14100192890
:1012200002D8203546F400664A4629462046266004
:101230004E46FFF705F880B101280BD0F61D26F0C9
:10124000070000F1080956E74020E4E78020D8E7CE
:101250000020D6E706F104094DE7284652E7206A48
:1012600000F002B8F8F3010030BCBDE8C09F0000F8
:101270000FB400B58DB010A9099000910B904FF0FC
:10128000FF300A9000200C900648784406900648EB
:1012900078446A4607900F9909A800F0B9FF0DB08D
:1012A0005DF814FBA30F0000BB0F000000B58DB06C
:1012B000099000920B904FF0FF300A9000200C90A4
:1012C000054878440690054878446A46079009A87E
:1012D00000F09EFF0DB000BD6B0F0000830F0000FB
:1012E0000FB400B58DB010A9099000910B904FF08C
:1012F000FF300A9000200C9006487844069006487B
:1013000078446A4607900F9909A800F081FF0DB054
:101310005DF814FB330F00004B0F00002DE9FF5F59
:101320001D464FF0FF3B91464FF000085F46D5E960
:101330000146A96901987F1C8847296A8246884727
:101340000028F6D1BAF1FF3F0CD0002E24F4C0647F
:1013500019DD600614D5BAF12B0F09D0BAF12D0FA3
:101360000ED103E0584604B000F07EB844F4806427
:10137000A96901987F1C8847761E8246002E02DDEF
:10138000BAF1300F03D0B9F1000F26D032E0A969CD
:10139000761E01987F1C44F400748847002E824614
:1013A00005DDBAF1780F06D0BAF1580F03D0B9F1C4
:1013B000000F10D01EE0B9F1000F02D0B9F1100FEC
:1013C00018D1A969761E01987F1C24F400748847FF
:1013D0008246102002E0082000E00A20814609E051
:1013E000A96908FB0908761E01987F1C44F4007463
:1013F00088478246002E05DD4946504600F0D2FD62
:101400000028EDDAE96901988847A00502D46FF059
:101410000100A8E7E00725D1600613D5600502D5D5
:10142000C8F1000000E0404629680A1D2A600968EA
:10143000220501D5087015E0220701D5088011E0CA
:1014400008600FE02868011D29600068210502D5A9
:1014500080F8008006E0210702D5A0F8008001E0B6
:10146000C0F8008038467EE730BCBDE8C09F70B54C
:101470000646FFF7BFFB0468054630460A220021F6
:1014800000F0F6FE2C6070BD2DE9F04704464FF0E9
:1014900000094FF0FF37C568D4E90486A80707D0D4
:1014A000204601F027FA304616F0F0F9002802DA5B
:1014B0003846BDE8F087280502D54046FFF71CFCFA
:1014C0004C21204600F0B7FA206D20F00100206585
:1014D0004846EEE72DE9F041044600F14C07384656
:1014E00016F06AF9E068810712D0800601D5A66A75
:1014F00004E0A169606808442169461A204601F0A9
:10150000F9F9002205463146204601F043F900E092
:101510000025384616F0ACF92846BDE8F0812DE9E3
:10152000F04118B1BDE8F041FFF7D4BF0B4E0025E4
:10153000304616F041F90A4C6F1E07E02046FFF7CF
:10154000C9FF00B13D46206D20F00104002CF5D10B
:10155000304616F08DF92846DFE70000EC0C00203D
:10156000682C00202DE9F04716468846814602F196
:101570004C07384616F020F93046FFF785FF18F87B
:10158000010B61280AD0722802D077283FD102E0EF
:101590000125002405E00225042402E0082448F285
:1015A000020518F8010B2B2806D0622809D018F87C
:1015B000010C74280AD00BE045F0030544F0020446
:1015C000EFE745F0040544F00104EAE744F01004B5
:1015D0004846214616F0CEF9411C18D00021316151
:1015E00071604FF40071F560F1617061200704D5FE
:1015F00030460222002101F0CDF8306D40F00100AC
:101600003065384616F034F93046BDE8F0870026DC
:10161000F7E72DE9F04115460E460746204C2046D7
:1016200016F0CAF82A4631463846FFF79BFF0546B2
:10163000204616F01DF92846BDE8F0812DE9F0415D
:101640000E468046164D284616F0B6F8154C206D0D
:10165000C10704D0410804D020F00104F7E7224676
:1016600012E05420FFF70DFB070017D0206D47F064
:101670000101084354212065384600F0DCF907F1E8
:101680004C0016F0ABF83A4631464046FFF76AFF89
:101690000446284616F0ECF82046CDE70024F8E78B
:1016A000EC0C0020682C0020014A01F087BA0000F1
:1016B000E80C0020401ECAB210F8011F8A4202D076
:1016C0000029F9D10020704730B503461D781DB1BF
:1016D0000A4603E0AC4201D1181A30BD12F8014BA2
:1016E000002CF7D15B1CF1E730B505460B462A46C6
:1016F00013F8014B12F8010B08B1A042F8D01CB14D
:10170000002802D06D1CF1E7284630BD40EA0103F5
:1017100010B59B070FD1042A0DD310C808C9121F9A
:101720009C42F8D020BA19BA884201D9012010BDD4
:101730004FF0FF3010BD1AB1D30703D0521C07E0A1
:10174000002010BD10F8013B11F8014B1B1B07D105
:1017500010F8013B11F8014B1B1B01D1921EF1D176
:10176000184610BD40EA0103024630B59B0710D170
:101770004FF0013400E008C208C91D1B9D4315EA63
:10178000C41FF8D013F0FF0102F8011B0DD01B0A93
:10179000F8E711F8013B002B02F8013B05D011F8E6
:1017A000013B002B02F8013BF3D130BD10B5431CC7
:1017B00002E010F8011B71B18107FAD14FF001323C
:1017C00002C88C1A8C4314EAC211F9D0C01A0A0656
:1017D00003D0C01E10BDC01A10BD0A0401D0801E67
:1017E00010BD0902FCD0401E10BD40EA010370B5D7
:1017F0009B072ED14FF00136042A2AD308C810C9FE
:101800009D1B9D43121F15EAC61517D0D8B2E1B231
:10181000401A50EA056110D198B2A1B2401A50EABC
:1018200005410AD123F07F4024F07F41401A50EA5D
:10183000052102D1180EA0EB146070BDA342DBD0CD
:1018400018BA21BA884201D9012070BD4FF0FF308B
:1018500070BD0AB9002070BD10F8013B11F8014BB2
:1018600063B1A3420AD1521E08D010F8013B11F80F
:10187000014B1BB1A34201D1521EEDD1181B70BD0B
:10188000032A40F2308010F0030C00F0158011F8AC
:10189000013BBCF1020F624498BF11F801CB00F884
:1018A000013B38BF11F8013BA2F1040298BF00F8D8
:1018B00001CB38BF00F8013B11F0030300F0678053
:1018C000083AC0F0088051F8043B083A51F804CBBC
:1018D000A0E80810F5E7121D5CBF51F8043B40F882
:1018E000043BAFF30080D20724BF11F8013B11F88D
:1018F00001CB48BF11F8012B24BF00F8013B00F8D1
:1019000001CB48BF00F8012B7047431A28BF9A4209
:101910007FF6B6AF032A1044114440F2268010F03F
:10192000030F1EBF11F8013D521E00F8013D10F0DB
:10193000030F7FF4F6AF11F0030301F07481083A4E
:10194000C0F00B8051F8043D083A51F804CD40F83E
:10195000043D40F804CDFFF7F3BF121D5CBF51F802
:10196000043D40F8043DAFF30080D20724BF11F8D6
:10197000013D11F801CD48BF11F8012C24BF00F83A
:10198000013D00F801CD48BF00F8012C704710B5AB
:10199000203AC0F00B80B1E81850203AA0E8185067
:1019A000B1E81850A0E81850BFF4F5AF5FEA027C28
:1019B00024BFB1E81850A0E8185044BF18C918C097
:1019C000BDE810405FEA827C24BF51F8043B40F838
:1019D000043B08BF7047D20728BF31F8023B48BF1D
:1019E00011F8012B28BF20F8023B48BF00F8012B5B
:1019F00070474FF000020429C0F0128010F0030C71
:101A000000F01B80CCF1040CBCF1020F18BF00F8F1
:101A1000012BA8BF20F8022BA1EB0C0100F00DB8A0
:101A20005FEAC17C24BF00F8012B00F8012B48BFFE
:101A300000F8012B70474FF0000200B513469446A2
:101A40009646203922BFA0E80C50A0E80C50B1F116
:101A50002001BFF4F7AF090728BFA0E80C5048BF2A
:101A60000CC05DF804EB890028BF40F8042B08BFC8
:101A7000704748BF20F8022B11F0804F18BF00F8C4
:101A8000012B704710B5044610F0030F08BF11F08A
:101A9000030F40F015804FF0013E121FC0F20E8080
:101AA00051F8043BA3EB0E0C2CEA030C1CEACE1CF1
:101AB00008BF40F8043BF0D0A1F1040102F1040298
:101AC000521E08DB11F8013B002B00F8013BF7D157
:101AD0001146FFF78EFF204610BD00004FF0013C7D
:101AE00050F8042B51F8043B9A4221D1A2EB0C038D
:101AF000934313EACC1317D150F8042B51F8043B4D
:101B00009A4215D1A2EB0C03934313EACC130BD1E9
:101B100050F8042B51F8043B9A4209D1A2EB0C0374
:101B2000934313EACC13DBD04FF00000704700BFA3
:101B3000D01A01BAB1FA81F101F0180122FA01F0CC
:101B4000CB40C1F12001DBB2C0B2C01A2CFA01F3C4
:101B5000D11A914311EAC311E6D17047704770471B
:101B60007047000070B5064C7C44064D7D4403E090
:101B7000206820448047241DAC42F9D170BD00008C
:101B800028F7010054F701002DE9F04117460E46F1
:101B9000054633B107FB0354E41B2046B047A5427A
:101BA000FAD1A5F10800BDE8F081000000487047B7
:101BB000642D002010B5FFF7F9FF083010BD10B5F7
:101BC000FFF7F4FF203010BD704770477047704733
:101BD00038B504460A4600206946AFF30080002865
:101BE00008BF38BD02460099204601F046F80120A2
:101BF00038BD012002F07EB9F8B5AFF3008005468C
:101C000000200C46102000BF0646A819A0420DD99E
:101C1000324669460020AFF30080070008BF02F09B
:101C200069F90098A04218BF0546C419FFF7C2FF22
:101C300005600746F01D20F007004619284600F011
:101C40000AF8B44208BFF8BDA21B31463868BDE8A7
:101C5000F84001F012B800210160C0E901100C3019
:101C600015F0BCBD1020704710B5FEF7C3FF00682B
:101C700010BD10B50446FEF7BDFF046010BD096835
:101C80004A0501D540B27047C905FCD500B270477E
:101C900009684A0501D5C0B27047C905FCD580B2B4
:101CA00070472DE9F0470D4699469246044600F1EB
:101CB00024080168880604D5E06921F0100121603C
:101CC00000E00120A84201DD471B00E00027A169D8
:101CD0007A1902EB0900081AA0612078C00602D424
:101CE0002046FFF727F9002608E0D4E901211AF879
:101CF00006009047206A401C761C20624E45F4DBAB
:101D00002078C0060AD52046FFF714F906E0D4E98A
:101D1000012130209047206A401C2062381EA7F124
:101D20000107F4DC07E0D4E9012118F80500904729
:101D3000206A401C2062281EA5F10105F3DC204624
:101D4000FFF70EF92078000602D50220BDE8F087E3
:101D50000120FBE711680268006A530501D508708D
:101D60000AE0D30501D5088006E0130603D5C217A3
:101D7000C1E9000200E008600120704701694A1CC7
:101D800002610878704700B58FB0CDE901310021BC
:101D9000059105497944CDE9031011466846FFF7DE
:101DA0009FF90FB000BD0000E5FFFFFF0A6802F8D1
:101DB000010B0A607047D1E900239A4202D2531CFA
:101DC0000B601070704710B5436913B1AFF300801A
:101DD00001E0FFF7D6F8012010BD127800F12401D0
:101DE0000A7000224A700122EDE711684FF0FF32BD
:101DF000E9E700002DE9FF5F15468A460446DFF853
:101E0000AC80F8440027D8E900103E46CDE9001028
:101E100010E03AF816106A4602A802F03FF8411C9A
:101E200007D02178890603D5E269391891420DD887
:101E30000744761C2078800602D5E069B84205DDAB
:101E4000AE42E6DB3AF816000028E2D1A069C01BDA
:101E5000A0612046FFF76EF8D8E90010CDE9001028
:101E6000002017E03AF818106A4602A802F016F8A7
:101E7000B0F1FF3F81460BD000250DF1080B05E0C6
:101E8000D4E901211BF8050090476D1C4D45F7D39F
:101E900008F10100B0428046E4DB206A3844206249
:101EA0002046FFF75DF800F003B80000FAE60100F5
:101EB0003FBCBDE8C09F00002DE9F0418046D21D27
:101EC00022F007020025D2E90002F52915A614D058
:101ED000011E72F1000106DA0023D0EB030063EB70
:101EE000020211A608E0D8F800108B0701D50FA652
:101EF00002E0490701D50EA601251146002408F18C
:101F0000240704E000F0D8FE30323A55641C50EA51
:101F10000102F7D12B46324621464046BDE8F0414A
:101F2000FFF7BFBE000000002D0000002B000000E6
:101F30002000000030B4002100F1240408E002F089
:101F40000705D208303542EA4372DB086554491C64
:101F500052EA0305F3D10468002310A2250707D530
:101F6000A40600D421B1C46901230DA2641EC4617A
:101F700030BCFFF796BE10B5044621461068FFF747
:101F800087FE02462046BDE810400023D2E7D21D5E
:101F900022F00701D1E90023CCE700000000000097
:101FA000300000003A2800D2303820F02002412AC8
:101FB00001D3A2F13700884201D34FF0FF307047C0
:101FC0002DE9FF4F1C4691464FF0FF3581B00021AF
:101FD0008A468846D4E90167A16902986D1C884742
:101FE000216A834688470028F6D1BBF1FF3F0CD019
:101FF000002F26F4C0661ADD700615D5BBF12B0F35
:102000000AD0BBF12D0F0FD104E04FF0FF3005B027
:1020100000F081B846F48066A16902986D1C88477B
:102020007F1E8346002F02DDBBF1300F03D0B9F1D4
:10203000000F2AD025E0A1696D1C02987F1E46F48E
:1020400000768847002F834605DDBBF1780F06D068
:10205000BBF1580F03D0B9F1000F10D011E0B9F166
:10206000000F02D0B9F1100F0BD1A1696D1C0298BD
:102070007F1E26F4007688478346102000E0082063
:1020800081464FEAE970009017E00A20F8E74346DE
:10209000AAFB0928DDF800C07F1E03FB098046F477
:1020A000007605F101050AFB0C0112EB0B0A029800
:1020B00041EBEB78A16988478346002F06DD49464E
:1020C0005846FFF76FFF5FEA000BE0D5E169029821
:1020D0008847B00502D46FF0010098E7F00718D1E7
:1020E000700610D55146700505D50023D1EB0301CC
:1020F00063EB080200E042462068031D236000688D
:10210000C0E9001205E02068011D21600068C0E9F7
:1021100000A828467BE730BCBDE8C08F2DE9FF5FF3
:102120004FF000089946144646469169D2E901A746
:10213000DDF838B001988847054659EA0B0005D00C
:1021400009E0A1690198761C88470546216A28465E
:1021500088470028F5D1681C03D05FEACA7005D013
:1021600015E04FF0FF3004B000F048B82068011DC2
:102170002160D0F800800AE05FEACA7001D108F857
:10218000015BA169761C01987F1E88470546002FD8
:102190001ADD681C18D0B9F1000F0DD0E81705EB57
:1021A000D060421120F01F0059F822102A1A012095
:1021B00090400142E0D107E0BBF1000FDCD128469E
:1021C000216A88470028D7D0E16901988847BBF188
:1021D000000F07D1002E05DD5FEACA7002D1002191
:1021E00088F80010A068B84203DDBBF1000F03D0EF
:1021F00017B16FF00100B6E73046B4E730BCBDE878
:10220000C09F0000026811441378016018467047AF
:10221000D160054979445161044979441162002132
:102220001161114601F058B9EDFFFFFF4F70010039
:10223000426842B1016811F8013B23B1521EC0E966
:102240000012184670470121C160881E704742681D
:102250005AB1C368016843B983688B4205D0491EEF
:10226000521CC0E90012002070474FF0FF30704749
:102270002DE9F04791460F4680460446002614F8A3
:10228000015B2DB1FEF7AEFC0068405DC007F6D1E2
:102290002B2D02D02D2D18D0641E4A4639462046DB
:1022A00001F05CFD27B13968A14201D1C7F8008077
:1022B0004FF0020471050BD54042002803DDFEF704
:1022C00099FC0460A007BDE8F08746F48066E4E767
:1022D0000028F8DAFEF78EFC04606FF00040F2E7A9
:1022E0002DE9FF4F4FF000089A461446C146464676
:1022F00083B0D2E901B7CDF80080CDF804809169B0
:1023000004988847109905465AEA010005D009E06B
:10231000A1690498761C88470546216A28468847A3
:102320000028F5D1681C03D05FEACB7005D02AE005
:102330004FF0FF3007B000F05DB82068011D21604C
:10234000D0F800801FE002A86A46E9B201F088FDDB
:10235000411C07D0801C09D04FF000095FEACB7008
:1023600007D00AE0E169049888473EE04FF0010990
:1023700004E0BDF8081028F8021B7F1EA16904982C
:10238000761C88470546002F1ADD681C18D0BAF164
:10239000000F0DD0E81705EBD060421120F01F00B0
:1023A0005AF822102A1A012090400142CBD107E0AE
:1023B00010980028C7D12846216A88470028C2D033
:1023C000E16904988847B9F1000F0ED1109830B92F
:1023D000002E04DD5FEACB7001D1A8F80000A068F0
:1023E000B84202DD109818B117B16FF00100A1E7F3
:1023F00030469FE730BCBDE8C08F2DE9FF4F4FF05E
:1024000000089B461446454683B0D2E90196CDF8B4
:102410000080CDF804809169DDF848A004988847D1
:1024200007465BEA0A0005D009E0A16904986D1C23
:1024300088470746216A384688470028F5D1781C26
:1024400003D05FEAC97005D01BE04FF0FF3007B042
:1024500000F047B82068011D2160D0F8008010E02E
:102460005FEAC97007D16A464046B9B201F016FD6D
:10247000411C31D08044A1696D1C0498761E8847A8
:102480000746002E14DD781C12D0BBF1000007D0E7
:102490003B46DDE9101201F0B3FC0028E0D107E073
:1024A000BAF1000FDCD13846216A88470028D7D01E
:1024B000E16904988847BAF1000F06D1002D04DDC8
:1024C0005FEAC97001D188F80000A068B04203DD5E
:1024D000BAF1000F03D016B16FF00100B7E728463C
:1024E000B5E730BCBDE8C08F2DE9FF5F9B461446C1
:1024F00000273D469169D2E90196DDF840A0019898
:10250000884780465BEA0A0005D009E0A169019886
:102510006D1C88478046216A404688470028F5D1CF
:10252000B8F1FF3F03D05FEAC97005D014E04FF067
:10253000FF3004B000F040B82068011D216007683A
:102540000AE05FEAC97001D127F8028BA1696D1C0E
:102550000198761E88478046002E15DDB8F1FF3FB2
:1025600012D0BBF1000007D04346DDE90E1201F0A6
:1025700047FC0028E5D107E0BAF1000FE1D1404661
:10258000216A88470028DCD0E16901988847BAF1C0
:10259000000F05D1002D03DD5FEAC97000D138803E
:1025A000A068B04203DDBAF1000F03D016B16FF09E
:1025B0000100BEE72846BCE730BCBDE8C09F2DE95E
:1025C000F04705460C46C86820F4201040F480000F
:1025D000C860800602D5084600F0AFF9E06841F215
:1025E00082014FF0FF390140022903D0204600F05C
:1025F0004DF9B5E000F42041B1F5004F0FD1C00313
:1026000006D56168E06A884200D80846606006E046
:102610002069E0626060606915F060F9A061A068FF
:102620000022EEB200280DDAE1688B050AD4C0431F
:10263000A06041F490302260E0606068411C6160FD
:102640000670A5E0E0689046226040F40050E0602B
:10265000206968BB606915F06BF9012704F1240556
:10266000A0B1A08910F4407F08D0E069FEF709FB13
:10267000206118B1E06840F4006016E0E761256170
:10268000E06820F4407040F480600EE0E069FEF7FE
:10269000F8FA00282061F1D0E06840F4006010F4FE
:1026A000407FE06002D140F48070E06020696060AB
:1026B000E06825696FF0010AC1051FD56168E06A0D
:1026C000884200D80846411B04D02246284600F024
:1026D000E7F8F0BBE068010203D5E562C4E9015800
:1026E00054E0691CE1626160E16940F48030491E98
:1026F000C4E9021030462E70BDE8F087010202D511
:1027000000F480320AE06068411C61600670E06895
:102710000A2E40F48030E06006D00022E16A606852
:10272000814203D90B4602E00122F7E70346A7895D
:102730005B1B7F0503D4E7699F4200DDE2B1814264
:1027400000D80146E5620F1AC4E90158002B09DDE3
:1027500000E005E022461946284600F0A1F808B13D
:102760004846C9E747B1A069E5626560C01BA06142
:10277000E06840F01000E060E068000208D56168A1
:10278000A069E562491B08446560A0615046B3E753
:102790003046B1E72DE9F041044616460D4647693B
:1027A000007B80072ED0384615F0C2F850BB3EB3F0
:1027B000012E02D0022E25D104E0204601F02FFB8D
:1027C00005441DE0384615F089F8E168002841F01D
:1027D0001001E16005DA204600F058F80120BDE85C
:1027E000F081C9030BD56268E16A914200D81146B5
:1027F000A26911442269891A814200DD0846054414
:10280000002D01DA0220EAE7E16A6068E2688142AD
:1028100006D29103E06203D522F4003141F01002A8
:10282000A6690027AE4213DCE16A814201D90B465A
:1028300000E0034603EB060C2369ACEB030CAC454C
:1028400006DD814201D98C4600E084469C4505D1D5
:10285000A760276042F02000A5620DE0AD1BE6698D
:10286000AE1B8142A66000D90846C01A281A206013
:102870005819606022F0200003490840E060002001
:1028800084F84870ABE70000BFCFD7FFC16821F4E0
:10289000001141F08001C16000218160016070473A
:1028A0002DE9F047814614460E464FF0FF38324876
:1028B000D5685769054209D03846A16915F01EF957
:1028C000002811DB2C48C0430540E5602B4632460A
:1028D0004946384615F044F9A16920F00042B21A81
:1028E00011440028A16103D02046FFF7CFFF4046E6
:1028F000BDE8F08770B504460569C06A6168884222
:1029000000D80846E16821F42011E160C90312D51E
:10291000A84208D02246411B2846FFF7C1FF10B14C
:102920004FF0FF3070BD0020E562C4E90150E0685F
:1029300020F48030E060002070BD10B50446C0680F
:1029400020F02000E060A16AA06988420DD02046F6
:10295000FFF7D0FFE06820F4405040F01000E06046
:10296000A06AA0612069E062606044F24001E06812
:102970008843E06010BD0000100002002DE9F04720
:1029800004461E4690460D46C7684C30814614F0FA
:1029900013FFB80714D0780212D44046B8F5807FF0
:1029A00009D0B0F5007F06D0B8F5806F08D10126B8
:1029B00004F1240506E0701E6FF07F41884201D3C8
:1029C000012409E02561E6616560E06820F470603B
:1029D00040EA0800E0600024484614F049FF204621
:1029E000BDE8F08710B565485421FFF724F8644826
:1029F0005421FFF720F863485421FFF71CF8624880
:102A00005E49624A624B01605D4810605D4A1A602F
:102A1000431C0B65511C01650120106557484C3063
:102A200014F0DCFE56484C3014F0D8FE55484C30BB
:102A300014F0D4FE574814F0D1FE58484F4A56A11E
:102A40007844FEF7E6FD20B9544878440A3801F08E
:102A50004AFA54484A4A52A17844FEF7DAFD20B9AE
:102A6000504878440A3801F03EFA4F48454A4CA194
:102A70007844FEF7CEFD20B94B4878440A3801F07F
:102A800032FA40233D48DC0000212246FFF776FF62
:102A900020B142487844543801F025FA384822469B
:102AA00040230021FFF76AFF20B13E4878445438A4
:102AB00001F019FA3348224610230021FFF75EFF88
:102AC000002806D038487844BDE81040563801F058
:102AD0000ABA10BD2B482DE9F041006D2D4E20F0B3
:102AE0000104304614F068FE244D4C35284614F09D
:102AF00063FE2248FEF7C8FC284614F0B9FE2846BB
:102B000014F065FE1E4D4C35284614F055FE1C4849
:102B1000FEF7BAFC284614F0ABFE284614F057FE28
:102B2000184D4C35284614F047FE1648FEF7ACFC0D
:102B3000284614F09DFE284614F049FE14E0206D4E
:102B400020F0010504F14C00074614F035FE204644
:102B5000FEF79AFC384614F08BFE384614F037FE28
:102B60002046FEF7C9F82C46002CE8D1304614F078
:102B70007FFE084814F02BFEBDE8F081682C002091
:102B8000BC2C0020102D0020DC0C0020E00C0020CC
:102B9000E40C0020EC0C0020720000005DD301006A
:102BA000770000004CD301003CD3010010B501F0C8
:102BB000A9F9BDE8104001F091B900002DE9F041FC
:102BC00015460E46040002D12C6804B90BA4204619
:102BD00001F0B0F90444207870B1274631463846F8
:102BE000FEF772FD0444207810B1002004F8010BB8
:102BF00038462C60BDE8F0810027F9E700000000AE
:102C0000431A28BF9A427EF6C2AE104410F0030F5A
:102C100011441EBF11F8013D521E00F8013D10F095
:102C2000030F7FF4F6AF103AC0F00A8010B531E917
:102C30001850103A20E91850BFF4F9AFBDE8104021
:102C4000530724BF31E9081020E9081044BF51F8A8
:102C5000043D40F8043D12F0030F08BF7047D2074F
:102C600028BF31F8023D48BF11F8012C28BF20F8D9
:102C7000023D48BF00F8012C704730B404468C4632
:102C80004368002B18BF634538BF1846F8D3036864
:102C90001844604507D0C81C20F0070000F1040C60
:102CA000ACEB0100121A2146CCF8002030BC002207
:102CB0000CF10400FDF7EFBF30B5B0F10A024FEAA6
:102CC000900E71F100034EEA817EB0EB0E0061EBD5
:102CD00091014FEA101E4EEA017E10EB0E0041EB0F
:102CE00011114FEA102E4EEA016E10EB0E0041EB6F
:102CF00011214FEA104E4EEA014E10EB0E0041EB4F
:102D00001141401841F100014FEAD00040EA417002
:102D10004FEAD10110EB80054FEA810444EA907438
:102D200044EB01046D1944EB0404521BA3414FF022
:102D3000000348BF0A3200D530BD401C41F10001FC
:102D400030BD70472DE9FF4F0C461E464FF0FF3750
:102D50008BB0D2E90001DDF860800A908A46C1F3A9
:102D60000A5505B93D46002108464FF00000BAF16A
:102D7000000F00F4400005DA00EB80004FF4400142
:102D800001EA50004FEA9059B9F1010F00DDB94650
:102D90000A9850EA4A000ED044F61050A5F2FF35CA
:102DA00045432F14B8F1000F1ED07542291E1EDDB9
:102DB000C9F100021CE0B8F1010F4FF0000001D092
:102DC000302103E0F24305E02154401CB042FBDB1C
:102DD00030460022002121540B99C1F80880C1E936
:102DE00000200FB000F0BCB9BD1B6D1CDEE74A46E9
:102DF00000DA694206A801F0F9F806AB93E807008B
:102E000003AB83E8070050460A9901F0FCFB8DE80C
:102E10000700A0F500501F3800900398002D0ADD30
:102E200042F21F014A460844002303A90390684662
:102E300001F0A8FE09E0A0F500504A461F38002323
:102E400003A90390684601F0C7FE8DE8070000045F
:102E5000000C03D04FF0FF30410800E01046B8F1FD
:102E6000000F03D00022009215461EE0751E05D407
:102E7000FFF722FF303262556D1EF9D5B3460122AD
:102E8000084302D000227F1C04E02078302801D1C2
:102E900000227F1E002A099784D01DE0112D07DA39
:102EA000FFF70AFF303262556D1C50EA0102F5D17E
:102EB000084302D00098C8B10EE00021681E05E06A
:102EC000235C625C63542254401E491C8142F7DB40
:102ED000AB46A81B401E0990002004F80B000B987D
:102EE000099AC0F80880C0E9002B7AE711264FF054
:102EF000000857E72DE9F04F88460446D21D22F01E
:102F0000070191B0D1E90001CDE90A0113F0E2FE19
:102F100002460B98C00F01D02D2007E020688107E2
:102F200001D52B2002E0202101EAC000032A0990EC
:102F300001D0072A05DB03464146204601F016F87A
:102F40000BE12078800601D5E06900E00620B8F1A9
:102F5000650F814606D0B8F1660F18D0B8F1670F3B
:102F600070D131E00020B9F1110F009001DB112385
:102F700001E009F101030AAA01A90CA8FFF7E2FE8A
:102F8000DDE90C70002609F10105834647E00120C8
:102F90004B4600904FF000470AAA01A90CA8FFF782
:102FA000D1FEDDE90DB00C995D46002610B909F19E
:102FB00001000D18B9EB050003D4C0F1FF3609F18B
:102FC0000105A5EB09002BE0B9F1010F01DA4FF083
:102FD00001090020B9F1110F0090484601DD1123CD
:102FE00000E003460AAA01A90CA8FFF7ABFEDDE941
:102FF0000C704D4600268346207800070AD4AB4566
:1030000000DA5D4601A8012D04DD411911F8011C0B
:10301000302907D04F4502DA17F1040F04DA0120F6
:1030200082460FE06D1EEEE7002F02DCED1B3E44F2
:1030300003E0781CA84200DD7D1CB81B00F1010AEA
:103040004FF000472078000703D4AA4501DB4FF07A
:10305000FF3A0021B7F1004F0DF143088DF84310FE
:1030600024D002202B23002F01DA7F422D230A21B6
:10307000021EA0F1010000DC5FB197FBF1FC97FBA1
:10308000F1F201FB1C7C17460CF1300C08F801CD65
:10309000EEE7A8F1010003702188090501D545215B
:1030A00000E06521A0F1010800F8011C09980FA9B2
:1030B000A1EB0807FF1D00B10120411901EBEA70E7
:1030C000A1693844081A401EA0612078C00602D4C5
:1030D0002046FDF72FFF099828B1D4E90121904738
:1030E000206A401C20622078C00622D52046FDF7C9
:1030F00021FF1EE0002E04DBB34502DD01A8805D48
:1031000000E03020D4E901219047206A401C206271
:10311000761CAAF101005FEA000A0AD1FEF74FFD12
:10312000C0680168405CD4E901219047206A401CD6
:103130002062281EA5F10105DCDC07E0D4E90121AD
:1031400018F8010B9047206A401C2062381EA7F136
:103150000107F3DC2046FDF703FF032011B041E631
:1031600030BCBDE8C08F00002DE9F04F04460D468D
:10317000D21D22F0070089B0D0E9009748463946B1
:1031800013F0A8FD0246F80F01D02D2307E02068B8
:10319000810701D52B2302E0202101EAC0038DF82D
:1031A00020300BB1012000E00020032A824601D02C
:1031B000072A04DB2946204600F0D8FE3FE12078AC
:1031C000800601D40D2500E0E569C7F30A560D2DF0
:1031D00049DA00214FEA175B08464FF00000002F44
:1031E00000F4400007DA00EB80004FF4400100EBF0
:1031F000D07001EA60008115012901DD4FF0FF3137
:1032000000224FEA850CBCF1180F06D31346ACF12F
:1032100018004FF08052C24003E04FF4801323FAAD
:103220000CF30CF10C0CBCF1200F04D3ACF1200C0E
:1032300009FA0CF001E007FA0CF000294FF0004801
:1032400001DD18B90FE00ED140450CD319EB02098E
:103250005F4121B9404502D19F4329EA0209BBEBF6
:10326000175F00D0761C2088000502D57B48784483
:1032700002E07A487844193808AA302302F80A3064
:10328000037C0AF10101002E0AF1020A53546A4636
:1032900002DC4FF0300101E04FF031014FF0010846
:1032A0008DF8001002D0A6F2FF3603E059EA47017C
:1032B00000D06B4E002D02DC2178090704D54FF0B9
:1032C00002082E218DF80110C44600210BE0C7F33F
:1032D00003433F01C35C491C6D1E02F808300529F9
:1032E00008F1010801DA002DF1DC00210CE000EB0F
:1032F0001973491C1B786D1E082902F808304FEA23
:10330000091908F1010801DA002DF0DC21688B06AB
:1033100002D516E0A8F10108E04505DD02EB08033F
:1033200013F8013C302BF5D0B8F1000F09DD02EBAA
:10333000080313F8013C2E2B03D1090701D4A8F18F
:103340000108002D05DD3E2102F808106D1E08F170
:103350000108407C002E02F8080008F1010804DA98
:103360002D20764202F8080002E02B2002F8080027
:103370000A214FF47A70864208F101080BDB96FBB4
:10338000F0F3303302F8083096FBF0F308F101084F
:1033900000FB136601E0642E0CDB642096FBF0F367
:1033A000303302F8083096FBF0F308F1010800FB17
:1033B000136601E00A2E06DB96FBF1F0303002F8CE
:1033C000080008F1010896FBF1F001FB10603030B5
:1033D00002F80800A16908F1010808EB050202EBF8
:1033E0000A00081AA0612078C00602D42046FDF722
:1033F000A1FD216A08AE01EB0A00206204E0D4E9D5
:10340000012116F8010B9047BAF1010AF7D2207892
:10341000C00602D52046FDF78DFD6E4609E016F880
:10342000010B3E280FD0D4E901219047206A401CAF
:103430002062B8F10108F2D22046FDF791FD09B0F3
:10344000032000F00FB8206A2844206203E0D4E98A
:103450000121302090476D1EEBD3F8E7C9D201005F
:1034600002FCFFFF30BCBDE8C08F00002DE9F04139
:1034700014460D46074601F14C06304614F09CF9FF
:10348000094B7B44224629463846FEF77CFC04461D
:10349000287B000601D54FF0FF34304614F0E8F9E0
:1034A0002046BDE8F0810000A74C010010B543693B
:1034B00013B1AFF3008001E0FEF79CFC012010BDCA
:1034C000128800F1240182840022C2840122EDE7E7
:1034D00011684FF0FF32E9E72DE9F34F4FF0000A92
:1034E0000C4656468DB001200C9001F10C000B905B
:1034F00062690B9801219047051E2DD0252D2CD0F7
:10350000216A8847C0B162690B9801219047216AFE
:1035100088470028F7D16269411E0B98904700E068
:10352000761CA1690D988847216A88470028F7D141
:10353000E1690D988847DBE7A1690D988847A842A3
:10354000074601D1761CD3E7E1690D9888477F1CB7
:1035500002D1BAF1000F6FD06BE162690B980027BE
:103560003D46394690472A2804D162690B980121CB
:1035700090470125DFF8D08262690B9801219047BE
:10358000A0F130010A290AD24745E5DC07EB8701A3
:1035900000EB4107303FDFD445F01005ECE7E906CA
:1035A00001D46FF000476C280AD04C2814D068284A
:1035B00015D06A280DD074281CD07A281AD01DE0A6
:1035C00062690B98012190476C2802D045F00405F0
:1035D00014E045F002050DE045F020050AE06269BF
:1035E0000B9801219047682802D045F0080505E0B6
:1035F00045F4006562690B9801219047C4E90157C1
:1036000065283DD019DC58287AD00CDC452837D005
:1036100004DC252826D041289ED131E046282FD031
:10362000472899D12CE05B2877D0612828D06328DF
:103630007CD0642823D15AE0F6E06F2848D008DC1B
:1036400066281DD067281BD0692821D06E2816D186
:1036500027E0702845D0732868D0752847D078288F
:103660000DD14DE0A1690D988847252805463FF406
:1036700069AFE1690D9888476D1C3FF46AAFD8E0E7
:103680000D9923466A466FF001001CF002FBC5E06D
:1036900045F0400023464FF000026060A80736D492
:1036A0003EE0E8077FF447AF2068011D2160006815
:1036B000290501D506701BE7290701D5068017E704
:1036C000A90703D5F117C0E9006111E706600FE70C
:1036D00045F0400023464FF008026060A80716D46A
:1036E0001EE040F60E0125EA0100606016E045F09C
:1036F000400023464FF00A026060A80707D40FE09D
:1037000045F040006060A80708D5234610220D99B7
:103710006FF00100FEF754FC80E007E01022234622
:103720000D996FF00100FDF7F9FD77E04FF000090A
:1037300063284F46C8464B46CB4602D05B2806D08E
:1037400038E0E80601D40120A060012732E0626978
:10375000D4F80CB00B98012190475E2807D14FF0A8
:10376000010949466269D4F80CB00B989047216969
:1037700039B900210A4603AB43F82120491C082926
:10378000FADBD8B3216949B308F1010862690B98E3
:10379000012190475D28F4D1B9F1000F09D0002034
:1037A00003A951F82020D24341F82020401C0828CA
:1037B000F7DB03AB2069002820794FEA40701ED068
:1037C0005B462246CDF80080CDE901970D9900288F
:1037D0006FF0010020DAFEF787FE1FE0C11703AA91
:1037E00000EBD1614B1121F01F0102EB8302411A62
:1037F00013680120884003431360C7E719E00D995F
:10380000224600286FF00100009702DAFEF768FDFB
:1038100004E0FEF783FC01E0FEF7EFFD00280ADA82
:10382000401C06D10C9820B14FF0FF300FB000F0D3
:103830000DB85046FAE7E90701D10AF1010A06443A
:1038400000200C9054E60000CCCCCC0C30BCBDE881
:10385000C08F00002DE9FF4F06468BB00878FF2887
:1038600006D0491C2D2805D000244FF0000908E09F
:1038700000200CE00124F8E709EB8903491C00EB68
:1038800043090878FF28F7D114B1C9F10000814637
:10389000107800252C46AA4629462D2801D02B2831
:1038A00004D1521C2D2813D0002082468B4610785C
:1038B000FF280FD04FF0000C0A21521CA5FB017805
:1038C00004FB018105FB0C11C5194BEB0104EEE76C
:1038D0000120EAE7002108464FF00000BAF1000F8E
:1038E00002D000EB80004008C0F38157012F01DDBA
:1038F0004FF0FF370E9955EA040009EB01080BD091
:103900004FF0020918F5FA7F16DA4FEACA70002F55
:10391000706008DD012007E04FEACA70C6E900B018
:103920000FB000F013BA00203060FDF763F9C0F863
:1039300000901821084616E0B8F5FA7F18DD002F30
:1039400002DAF748784401E0F6487844D0E90010FC
:10395000C6E9001040EACA707060FDF74BF9C0F884
:103960000090142108460FB000F0F3B91CF02AB9FA
:10397000002108464FF00000B8F10001099002DA7A
:10398000C7F1000200E03A4601DAC8F1000106A8DA
:1039900000F02CFB06AB93E8070003AB83E80700BD
:1039A00044F23E005BEA04010090584604D144F220
:1039B0001E012C465D460091210C0904014306D1ED
:1039C0000099240444EA15442D041039009104F0B0
:1039D0007F41014306D10099240244EA15642D0277
:1039E0000839009104F07041014306D10099240187
:1039F00044EA15742D01091F009104F04041014370
:103A000006D10099A40044EA9574AD00891E009186
:103A100004F00041084304D100986D196441401E30
:103A200000904FF001033A466846B8F1000FCDE927
:103A3000014503A902DD01F0E4F801E001F0B7F867
:103A4000BAF1000F04460D4601D084F00044002175
:103A500008464FF00000099940F2FF77484010F007
:103A60000C0F07D124F00040284303D0C4F30A50C0
:103A7000B84212D1FDF7BEF8C0F80090C4F30A5066
:103A8000B8420AD1A8487844D0E90010C6E900102D
:103A900004F000410843706042E7C6E900543FE784
:103AA0002DE9FF4F1F464FF0000A4FF0FF38454603
:103AB00091B0D7E90146CDF83CA0FEF780F8C06888
:103AC0000168405C1090B96912986D1C8847396A8A
:103AD000814688470028F6D1B9F1FF3F0AD0002E71
:103AE00024F4D06411DDB9F12B0F08D0B9F12D0FFA
:103AF0000BD102E0404615B013E744F48064B96985
:103B000012986D1C8847761E8146600504A901D570
:103B10002D2000E02B20002E01F1010B0DF13008CB
:103B20008DF810003FDDB9F1690F08D0B9F1490FE8
:103B300005D0B9F16E0F02D0B9F14E0F1CD13B4642
:103B400001A8009580E85002DDE912126FF0020032
:103B50001CF0A3F8C11CCED10EE0B96912986D1CFF
:103B6000884781461398761E44F4007405600F98C8
:103B7000401C002E0F9016DDB9F1300FEDD0B9F1D9
:103B8000780F02D0B9F1580F0DD10F9801280AD142
:103B90003B46CDE90054DDE91212001F02961CF0ED
:103BA0007AF8C11CA7D1109989453ED144F0800410
:103BB00006E01399681CAAF1010A44F40074086035
:103BC000B9696D1C1298761E884730288146F0D05E
:103BD0002BE01099894505D1200603D4761E44F0C8
:103BE000800418E0484613F0CBFD08B3761E0DF1B3
:103BF00023018B4544F4007408D2A9F130000BF87E
:103C0000010B200607D5AAF1010003E0200602D42B
:103C10000AF101008246A00502D51399681C0860CC
:103C2000B96912986D1C88478146002ED1DC53E09B
:103C3000002E51DDB9F1650F02D0B9F1450F4BD11E
:103C4000A00549D5B9696D1C1298761E24F44074FC
:103C50008847002E81460CDD2B2804D0B9F12D0FAA
:103C600007D144F48074B96912986D1C8847761E98
:103C70008146E00501D52D2100E02B2108F8011B2C
:103C8000CDF8008021E0761E0DF13901884544F41D
:103C900000740CD2A9F1300010F0FF0088F8000089
:103CA00002D10099884509D908F1010806E0E0052C
:103CB00001D51E4801E042F20F708246B9691298A0
:103CC0006D1C8847814613980560002E04DD484628
:103CD00013F056FD0028D6D1F96912988847FF20C5
:103CE00053468BF8000088F8000000200A900B90E3
:103CF00004AA0CA90AA8FFF7ADFDA00502D46FF035
:103D00000100F8E614F0240F12D0E0071CD1386847
:103D1000DDE90A12031D3B600068C0E9001213E0F0
:103D200018D801000AD80100CED60100F1D8FFFF53
:103D30000AA9684613F07CFAE00705D13868009AB2
:103D4000011D3960006802602846D4E630BCBDE839
:103D5000C08F30BCBDE8C04FFFF708BE2DE9F05F53
:103D6000824615468B4600270AF10104B9460078C1
:103D7000302801D09DB113E014F8010B01277828F9
:103D800003D0582801D045B10AE00DB1102D07D15C
:103D9000002714F8010B102502E0082500E00A2591
:103DA0000026B0460EE005FB080005FB06F10127E2
:103DB0001FFA80F801EB1046B6F5803F00D3B946F4
:103DC00014F8010B2946FEF7EDF80028EBDABBF1F9
:103DD000000F05D00FB1641E00E05446CBF8004040
:103DE000B9F1000F06D0FCF705FF02210160C81EE3
:103DF00000F003B848EA0640FAE730BCBDE8C09FCF
:103E000010B508E030F8024B9C4204D10AB1002002
:103E100010BD012010BD491EF4D2104610BD10B5D2
:103E20000146C268900703D0900607D5886A0AE069
:103E3000FCF7E0FE01210160881E10BD8B69486817
:103E400018440B69C01A91F848301BB191F8491019
:103E5000401A10BD1103FCD50028FADD401E10BD2C
:103E600070B516460C460546FCF7BCFE036893F891
:103E70000101012804D0185D68B101202C8070BDBB
:103E8000D3F803013246214603F2031303442846C4
:103E9000BDE8704018474FF0FF3070BD70B5164652
:103EA0000C460546FCF79EFE036893F801010128C5
:103EB00006D0FF2C0FD8185D68B101202C7070BDA2
:103EC000D3F807013246214603F20713034428467C
:103ED000BDE8704018474FF0FF3070BD002801D09A
:103EE00000F036B8704710B500F00CF9BDE810408E
:103EF000FFF7F4BF10B500F01FF9BDE81040FFF761
:103F0000EDBF000010B5002102A000F0E1F8012093
:103F100010BD00005349475056464E3A2050757226
:103F200065207669727475616C20666E2063616CC1
:103F30006C65640030B503461D783DB10A4612F841
:103F4000014B1CB1AC42FAD15B1CF5E7181A30BD2D
:103F500001491820ABBEFEE72600020010B5FDF7B0
:103F600029FE0068BDE8104000F016B92DE9F041C7
:103F70001F46044603260168072A01F4006004DB9B
:103F800008B116A505E016A503E008B115A500E0E7
:103F900015A521F010002060A069C01EA0610FB11E
:103FA000401EA0612046FCF7C5FF4FB1D4E90121B6
:103FB00038469047206A401C2062C01C206206E000
:103FC000206AFAE7D4E9012115F8010B9047761E23
:103FD000F8D22046FCF7C4FFBDE8F0814E414E0008
:103FE0006E616E00494E4600696E66002DE9F0472D
:103FF000814616468AB0354878440DC88DE80D00D4
:1040000032487844801C03AC0DC884E80D0041F6AA
:104010009B300844372190FBF1F290FBF1F5A5F1BC
:10402000800501FB12041B3C02D56442012000E024
:104030000020DFF898A080460027FA44AAF1BE0AC3
:104040000EE0E0070AD03246684607EB470101233D
:104050000AEB810100F0C0FD8DE8070064107F1CB1
:10406000002CEED1194F7F44AE3F19E0E80715D080
:1040700007EB04100DF1180A90E80E008AE80E0014
:10408000C068F04201D1981908903246012306A970
:1040900003A800F0A1FD03AB83E807006D10641CCA
:1040A000002DE3D14FF0010332466946B8F1000F0D
:1040B00003A802D000F066FD01E000F08DFDC9E923
:1040C0000001C9F808200AB0BDE8F087D0C501009A
:1040D00070B505460C460A2000E06D1C00F054F84F
:1040E00035B128780028F8D102E0641C00F04CF8C3
:1040F00014B120780028F8D1BDE870400A2000F003
:1041000043B8000010B5014602A0FFF7E1FF01200F
:1041100010BD000053494752545245443A2052655D
:104120006469726563743A2063616E2774206F70EE
:10413000656E3A200000000010B5012805D000216E
:1041400003A0FFF7C5FF012010BD09A1F8E700009B
:1041500053494752544D454D3A204F7574206F6670
:104160002068656170206D656D6F727900000000D8
:104170003A2048656170206D656D6F727920636FBC
:10418000727275707465640008B569468DF8000038
:104190000320ABBE08BD704710B50C3013F017FB01
:1041A00010BD00002DE9FF4F1F464FF03C0987B0BE
:1041B0004FF00042DDE9141001F10108DDF858A0CC
:1041C00002EA4050039000200590834605460446CD
:1041D0000490B969461E08988847AAF1010A02901E
:1041E000BAF1000F3BDD02982E2815D01021FDF703
:1041F000D9FE00282EDB4FF0010B0599014317D0A3
:10420000B9F1000F0BDB4A46C117FCF7F6FD054379
:104210000C43A9F1040905E0012004900BE008B16A
:1042200045F0010501200590049820B9361D02E0F3
:10423000049800B1361FB969089808F10108884749
:10424000BBF1000FAAF1010A0290C9D00999C1F887
:104250000080C5E70298702808D0502806D0F96978
:1042600008988847BBF1000F14D04FE0002002905F
:104270000120BBF1000F049009D0B969089808F13A
:1042800001088847AAF10109B9F1000F07DCF969B3
:10429000089888476FF001000BB000F013B92B2885
:1042A00004D02D280CD14FF0FF300490B969089844
:1042B00008F101088847A9F10109B9F1000FE6DD0D
:1042C000411CE4D00A21FDF76DFE0028DFDB0299D6
:1042D00008F1010801EB810100EB41000290B9698E
:1042E000089888470A21FDF75DFE099AA9F101099E
:1042F000B9F1000FC2F8008001DD0028E7DAF969A2
:10430000089888470499029800FB016655EA040062
:1043100004D004F04041090002D006E0039898E080
:10432000A40044EA9574AD00B61E04F000410800F4
:1043300002D16D196441761E159810F0240F03D038
:104340004FF00B095C4803E04FF028096FF07D0047
:104350008246564507DAAAEB06018944B9F1410FB6
:1043600001DD4FF0410901200021A9F10102FCF714
:1043700044FD024628400B462140084301D001215C
:1043800000E00021501E029143F1FF3128402140FE
:10439000084301D0012000E000200299834651EA41
:1043A0000B014FD0002108464FF00000039900F4A4
:1043B000400039B100EB80004FF4400100EBD070B9
:1043C00001EA60008015012802DD4FF0FF3000E0B7
:1043D00013D0401C36D0029860B3BBF1000F0CD153
:1043E0004A4601200021FCF708FD284021400843EF
:1043F00001D0012000E00020E0B101204A46002168
:10440000FCF7FBFC034640190A4661412D1A8C411A
:1044100011D3B9F1400F09DD159810F0240F02D027
:10442000AAF1340603E0AAF1170600E0761C002585
:104430004FF0004406E05B1E42F1FF3220EA030524
:1044400021EA0204CAF10100B04206DA1B490398CE
:1044500008430190002000900EE0039AC4F3D3219A
:10446000E80A0A43164940EA44500A433146CDE976
:104470000002684613F004F9159810F0240F0BD0D1
:104480001598C00715D13868DDE90012031D3B609F
:104490000068C0E900120CE002A8694612F0C8FEEC
:1044A0001598C00705D13868029A011D3960006867
:1044B00002604046F0E6000002FCFFFF0000F07FD3
:1044C0000000F03F30BCBDE8C08F00002DE9FF4F79
:1044D00092461D4685B04FF00041DDE9124BDDE903
:1044E00014727F1E01EA4B50414940F0FF4940EAF7
:1044F0000108002122F020004928049102D04E2812
:1045000028D04CE03BA0012607C88DE80700A96928
:104510000698641C88477F1E014606D41DF80600D5
:1045200018B121F0200181420BD0E9690698884733
:10453000032E34D0082E32D06FF0010009B000F005
:104540005FB8761C032E01D0082EE0D1601CCAF89B
:104550000000DCE7A9690698641C88477F1E2AD4FE
:1045600020F02000412826D1A9690698641C8847BC
:104570007F1E20D420F020004E281CD1A969069867
:10458000641C88477F1E48F4002849F48009CAF853
:10459000004001D4282806D0E969069888475FEAD8
:1045A000CB7012D022E0A9690698641C88477F1E50
:1045B00001D4002803DAE96906988847BCE729286E
:1045C000F1D1641CCAF80040E9E71BF0240F07D0C2
:1045D00028680499031D2B600068C0E9001805E0F5
:1045E0002868021D2A600068C0F800902046A5E7F0
:1045F0000000F07F494E46494E49545900000000E2
:1046000030BCBDE8C08F5FEA400C08BF91F0000FDE
:104610004FEA8C234FEAC12243EA51514FEA1C5022
:1046200018BF00F5F0404FEA300018BF41F00041DC
:104630005FEA6C5C00F02980BCF1FF3F08BF40F0EE
:1046400080407047130C06BF12044FF0100C4FF05F
:10465000000C130E04BF12020CF1080C130F04BF60
:1046600012010CF1040C930F04BF92000CF1020C28
:10467000D30F04BF52000CF1010C11464FF00002A1
:10468000A0F11F00A0EB0C00704711F0004F08BF15
:10469000704731F000413FF4D5AF0B0C06BF090461
:1046A0004FF0100C4FF0000C0B0E04BF09020CF180
:1046B000080C0B0F04BF09010CF1040C8B0F04BF95
:1046C00089000CF1020CCB0F04BF49000CF1010C66
:1046D000CCF12003A0EB0C0022FA03F302FA0CF257
:1046E00041EA030100F10100704720F07F4C80EAAD
:1046F000030023F07F47ACEB070303F57C5300F086
:10470000004003F1FF032DE980494FEA154B09B43E
:104710004FEA144325EA0B4E24EA03480FF204261D
:1047200006EB132749083E785FEA320203FB06676F
:10473000C7F5000707FB06F64FEA54374FEAD6469F
:1047400006F1020607FB066CCCF1005C4FEA1C4741
:104750002CEA074C07FB06F40CFB06F504EB1546A8
:104760004FEA961634BF00204FF000404FEAD13791
:1047700006FB07FC4FEA1C4C0CFB0BF7D21B03FBA0
:104780000CF761EB07010CFB0EF7B0EB074072EB87
:1047900017420CFB08F734BFA2EB0742B2EB07420B
:1047A00061EB17414FEA0C444FEA910706FB07FC07
:1047B0004FEA1C4C0CFB0BF7B0EBC74072EB5732C7
:1047C00003FB0CF734BFA2EBC742B2EBC74261EB6D
:1047D00057310CFB0EF7B0EBC70072EB57720CFBB6
:1047E00008F734BFA2EBC702B2EBC70261EB577107
:1047F000039F4FEA816141EA921104EBCC044FEA36
:10480000D1374FEA826206FB07FC42EA90124FEA78
:1048100080604FEA1C4C0CFB0BF7D21B03FB0CF720
:1048200061EB07010CFB0EF7B0EB074072EB174290
:104830000CFB08F734BFA2EB0742B2EB074261EB77
:1048400017414FEA8C554FEA910704EB9C2406FB75
:1048500007FC4FEA1C4C0CFB0BF7B0EBC74072EBAC
:10486000573203FB0CF734BFA2EBC742B2EBC7428F
:1048700061EB57310CFB0EF7B0EBC70072EB5772D0
:104880000CFB08F734BFA2EBC702B2EBC70261EB27
:10489000577115EB4C254FEA816141EA92114FEABD
:1048A00082624FEAD13742EA901206FB07FC44F1DC
:1048B00000044FEA80604FEA1C4C0CFB0BF7D21B44
:1048C00003FB0CF761EB07010CFB0EF7B0EB0740A5
:1048D00072EB17420CFB08F734BFA2EB0742B2EBB6
:1048E000074261EB174115EB1C154FEA813141EA94
:1048F00092414FEA823242EA90424FEA80304FEAD8
:104900000C7644F1000448EA03434EEA0B484FF0AA
:10491000000EB2EB080C71EB030724BF6246394668
:104920004EEB0E0E4FF0000B0018524149414BEB7D
:104930000B0BB2EB080C71EB03077BF1000B24BFF0
:10494000624639464EEB0E0E4FF0000B00185241F6
:1049500049414BEB0B0BB2EB080C71EB03077BF1FE
:10496000000B24BF624639464EEB0E0E51EA020799
:1049700018BF46F0010616EB0E7655F1000254F111
:10498000000103D5BDE88901BDE80088BDE88901C3
:10499000BDE80048B619524141EB0101A3F1010302
:1049A000704780807F7E7D7C7B7A7978777676759C
:1049B0007473727171706F6E6E6D6C6C6B6A6A6914
:1049C0006868676666656464636362616160605FAE
:1049D0005F5E5E5D5D5C5C5B5B5A5A595958585727
:1049E000575656555555545453535252525151508F
:1049F00050504F4F4F4E4E4D4D4D4C4C4C4B4B4BE2
:104A00004A4A4A4949494848484747474746464627
:104A10004545454444444443434343424242424162
:104A20004141000046EA0646A3F570534FEA164698
:104A300046EA42564FEAD22242EA415210B54FEAC4
:104A4000D121A3F1010300F02FF820F0004000F184
:104A5000020C00F0004701EB00501146BCF5006F5E
:104A600040EA070000D210BDBAF1000F0AD01CB511
:104A700003B44FF004004FF004014FF000000FBCEE
:104A8000BDE810404FF00001BBF1010FB9BF044871
:104A90004FF0FF310348002140EA070010BD00BF7E
:104AA000FFFFEF7F0000F07F002B9C4630D47700A3
:104AB0002BD01CB54FEA370703B44FF010004FF06E
:104AC0001001BAF1000F06D0BCF1000FDCBF40F0BE
:104AD000080040F008014FF000000FBCBDE8104096
:104AE0000BF1010BBBF1010F08BF5FEA170722BFF3
:104AF00012F1010211F101014FF0004143F10003F5
:104B000000F0004043EA00007047F9D35708D0E7AF
:104B100046EA064613F1400F4FEA16461FDD13F131
:104B2000200FDFBF16430A46002120335B42BED070
:104B3000C3F1200746EA064602FA07F74FEA16468F
:104B400046EA0706C3F1200722FA03F201FA07F743
:104B500021FA03F14FF0000342EA0702A7E746EA11
:104B6000020646EA06464FEA164646EA0106BCBF7A
:104B700046EA0646360C4FF000034FF000024FF0B5
:104B8000000194E72DE9804C9A46934670B491E871
:104B9000380007C831EA400C48BF34EA430C03D55B
:104BA000FFF7A3FDFFF780FFF0BCBDE8008C2DE907
:104BB000804C9A46934670B491E8380007C831EAB1
:104BC000400C48BF34EA430C03D5FFF78EFDFFF7D6
:104BD00029FFF0BCBDE8008C2DE9804C9A46934635
:104BE00070B491E8380007C810F0804F08BF13F088
:104BF000804F03D100F01AF8FFF756FFF0BCBDE874
:104C0000008C2DE9804C9A46934670B491E83800A8
:104C100007C810F0804F08BF13F0804F03D100F099
:104C200005F8FFF7FFFEF0BCBDE8008C20F07F47E1
:104C300080EA030023F07F4C07EB0C03A3F57C53C1
:104C400000F00040A3F1FE0392F0000F00F0B380EB
:104C500095F0000F00F077802DE901494FEA1140EF
:104C60004FEA144621EA004800FB06FC24EA064706
:104C700008FB06F607FB08F800FB07F718EB0648E9
:104C80004CEB164C4FEA124B18EB07484FEA15460F
:104C90004CEB174022EA0B4E0BFB06FC25EA0647BD
:104CA0000EFB06F607FB0EFE0BFB07F71EEB064E90
:104CB0004CEB164C4FF000061EEB074E4CEB174B1F
:104CC00018EB0B0840F1000018EB0E0B58EB000836
:104CD00040F100008F1A4FF000013CBFC943661B32
:104CE00014BFB5EB040C00213CBFC943F61B4FEACF
:104CF00017444EEA8E0E27EA04454FEA1C4704FB90
:104D000007622CEA074C05FB07F70CFB05F604FBD2
:104D10000CFC16EB074642EB174216EB0C4642EB37
:104D20001C421BEB060658EB0202414146EA9E0676
:104D300001D5BDE80189B619524141EB0101A3F14A
:104D40000103BDE801894FEA14454FEA114724EAFF
:104D5000054621EA074C05FB07F406FB07F70CFBA9
:104D600006F105FB0CFC11EB074144EB17444FEA3D
:104D7000124711EB0C4144EB1C4422EA074C05FBA3
:104D800007F206FB07F70CFB06F605FB0CFC16EB1F
:104D9000074642EB174216EB0C4642EB1C456A18DD
:104DA00054F1000148BF7047B619524141EB01016F
:104DB000A3F10103704795F0000F37D04FEA11427D
:104DC0004FEA144721EA024624EA074C02FB07F1A6
:104DD00006FB07F70CFB06F402FB0CFC14EB074484
:104DE00041EB17414FEA154714EB0C4441EB1C41D2
:104DF00025EA074C02FB07F506FB07F70CFB06F656
:104E000002FB0CFC16EB074645EB174516EB0C4670
:104E100045EB1C42121951F1000148BF7047B61909
:104E2000524141EB0101A3F1010370474FEA1445E0
:104E30004FEA114724EA054621EA074C05FB07F132
:104E400006FB07F70CFB06F24FF0000605FB0CFC17
:104E500012EB074241EB174112EB0C4251EB1C41A4
:104E600048BF7047921841EB0101A3F1010370475D
:104E700010B514F0D5FA14F007FA10BD10B50446B9
:104E80000021204619F0C0FE10BD000010B5002121
:104E9000014812F0B5FE10BD0064004010B50021BD
:104EA000014812F0ADFE10BD0064004010B50021B5
:104EB000014812F0A5FE10BD0064004070470000DC
:104EC00010B50848006820B106490968886D00F0EF
:104ED0001FFB0548006820B103490968086A00F013
:104EE00017FB10BDF40B0020E00B002010B50C48A0
:104EF000006820B10A490968486D00F009FB0948BB
:104F0000006820B107490968086A00F001FB0648FB
:104F1000006820B104490968486A00F0F9FA10BD38
:104F2000F40B0020F00B0020E40B002010B5044827
:104F3000006820B102490968C86A00F0E9FA10BDAA
:104F4000EC0B00207047704710B50448006820B192
:104F500002490968886A00F0DBFA10BDE80B0020FE
:104F600010B50448006820B102490968886D00F056
:104F7000CFFA10BDF80B002010B50448006820B12E
:104F800002490968486D00F0C3FA10BDF80B002013
:104F90007047704770477047704730B590F844507D
:104FA0000124AC40056C6C60046863608468102C5C
:104FB00004D10468A2600468E16003E00468A160B1
:104FC0000468E26030BD2DE9F04107460E46154603
:104FD00005F0020080B905F0010030B1314607F15B
:104FE0000C00FBF7ACF9044615E0314607F10C0064
:104FF000FBF7B8F904460EE0FC6805F0010018B1B3
:1050000004EA0600B04205D105F0010018B904EA2F
:10501000060000B900242046BDE8F08170B50446C2
:105020000D46294604F10C00FBF774F9064630469C
:1050300070BD704770477047704770477047704742
:1050400070477047704770477047704770477047A8
:105050007047704770477047704770477047704798
:105060007047704770477047704770477047704788
:105070007047704770477047704770477047704778
:105080007047704770477047704770477047704768
:105090007047704770477047704770477047704758
:1050A0007047704770477047704770477047704748
:1050B00070477047704710B515F064FC04462046F1
:1050C00017F09AFC10BD70477047704770477047E3
:1050D0007047704770477047704770477047704718
:1050E0007047704700F01F02012191404211920069
:1050F00002F1E022C2F80011704700001B48007F57
:10510000012803D01948007F032811D100BF184897
:10511000006840F40060164908600846006820F402
:105120000060086000BF0846006840F40070086036
:105130000E48007F022803D00C48007F032811D1BD
:1051400000BF0B48006840F48050094908600846D9
:10515000006820F48050086000BF0846006840F4F2
:10516000806008600020014908777047C826002049
:105170000020024000F0010129B10649496941F0CF
:105180000401044A51610349496941F48031014AEB
:1051900051617047002002400C4A526922F4FF62BC
:1051A0004FF4FF6393FAA3F3B3FA83F300FA03F324
:1051B0001A43064B5A611A46526942F002025A617A
:1051C0001A46526942F480325A6170470020024008
:1051D00010B50449496941F00101024C6161026066
:1051E000436010BD0020024070B5402402460B46CB
:1051F000074D6D6945F48025054E756172B600BF97
:1052000020CB20C2651EEDB22C1EF9D162B670BD56
:10521000002002405348006900F00200022805D136
:105220005148406840F001004F4948604D480069CE
:1052300000F00800082805D14B48406840F0020003
:10524000494948604748006900F01000102805D11E
:105250004548406840F004004349486041480069BF
:1052600000F02000202805D13F48406840F00800A9
:105270003D4948603B48006900F04000402805D1A6
:105280003948406840F010003749486035480069A7
:1052900000F08000802805D13348406840F02000AD
:1052A000314948602F48006900F48070B0F5807F74
:1052B00005D12D48406840F040002B4948602948FE
:1052C000006900F40070B0F5007F05D12648406801
:1052D00040F08000244948602248006900F4804082
:1052E000B0F5804F05D12048406840F480701E49D9
:1052F00048601C48006900F40040B0F5004F05D13B
:105300001948406840F400701749486015488069A2
:1053100000F00040B0F1004F05D11348406840F460
:105320008060114948600F48006900F40030B0F512
:10533000003F0BD10C48406840F400600A494860C7
:1053400000BF4FF400300749086100BF00BF0548A7
:10535000806940F00040034988614CF2FA300861EE
:1053600000BF704700200240C826002070B50446E8
:1053700000F0FCFB051907E0601C28B100F0F6FB0B
:10538000A84201D3032070BD3248006900F4803088
:10539000B0F5803FF0D02F48006900F002000228ED
:1053A00047D02C48006900F00800082841D029485F
:1053B000006900F0100010283BD02648006900F07A
:1053C0002000202835D02348006900F04000402804
:1053D0002FD02048006900F08000802829D01D4887
:1053E000006900F48070B0F5807F22D01948006910
:1053F00000F40070B0F5007F1BD01648006900F47F
:105400008040B0F5804F14D01248006900F400408D
:10541000B0F5004F0DD00F48806900F00040B0F1AA
:10542000004F06D00B48006900F40030B0F5003F93
:1054300003D1FFF7EFFE0120A5E70648006900F061
:10544000010020B100BF01200249086100BF002017
:1054500099E700000020024001460020012070472B
:1054600001460020134A12884FF6FF739A4202D178
:105470004FF4801203E00F4A12881205920A02F1DB
:1054800000628A4203D9A1F10062D00A10E0094A01
:1054900012884FF6FF739A4202D14FF4801203E054
:1054A000044A12881205920A02F100628A1AD00A8E
:1054B00070470000E075FF1F70B50446002594F8A2
:1054C0002500022803D00420E06301251EE02068A7
:1054D000006820F00E00216808602068006820F055
:1054E00001002168086094F8441001208840216C74
:1054F0004860012084F8250000BF002084F82400C3
:1055000000BFA06B10B12046A16B8847284670BD34
:1055100070B50446206C05682068066894F844104D
:10552000042088402840D0B106F00400B8B12068BB
:10553000006800F0200028B92068006820F004000E
:105540002168086094F8441004208840216C486069
:10555000206B00284ED02046216B88474AE094F803
:10556000441002208840284008B306F00200F0B141
:105570002068006800F0200040B92068006820F032
:105580000A0021680860012084F8250094F844107E
:1055900002208840216C486000BF002084F824006D
:1055A00000BFE06A30B32046E16A884722E094F801
:1055B0004410082088402840E0B106F00800C8B137
:1055C0002068006820F00E002168086094F84410FC
:1055D00001208840216C48600120E06384F82500A8
:1055E00000BF002084F8240000BF606B10B120468B
:1055F000616B884770BD000010B50146002209B9F3
:10560000012010BD8868B0F5804F00D000BF3C4B32
:10561000086898420BD23B4B0868C01A1423B0FBB1
:10562000F3F0800048643748083808640AE0344BD7
:105630000868C01A1423B0FBF3F0800048643048B7
:1056400008380864022081F825000868026843F6DB
:10565000F0708243D1E9020318430B6918434B6988
:1056600018438B691843CB6918430B6A18430243EC
:10567000086802608868B0F5804F32D0214B083B43
:10568000086C984217D1D0F8A80091F844400F2335
:10569000A34098431B4BA033186091F844304868EE
:1056A0009840184B083BD3F8A8301843154B083BDB
:1056B000C3F8A80015E01248A030006891F84440F3
:1056C0000F23A34098430E4BA033186091F8443049
:1056D000486898400A4BA0331B681843084BA03316
:1056E00018600020C862086348638863C8630120AB
:1056F00081F82500002081F8240000BF81E7000028
:1057000008040240080002402DE9F04104460D461D
:1057100016461F464FF0000800BF94F824000128E9
:1057200002D10220BDE8F081012084F8240000BFEE
:1057300094F8250001282CD1022084F825000020AF
:10574000E0632068006820F00100216808603B46A3
:10575000324629462046FFF720FC206B30B12068F6
:10576000006840F00E00216808600BE020680068C7
:1057700020F00400216808602068006840F00A00FA
:10578000216808602068006840F001002168086016
:1057900006E000BF002084F8240000BF4FF002089C
:1057A0004046BFE72DE9F04104460E46012700259B
:1057B00000BF3E480078012802D10220BDE8F081F8
:1057C00001203A49087000BF4CF25030FFF7CEFD7F
:1057D0000746002F63D1354948603548006800F41A
:1057E0000070B8B13248006820F400703049086099
:1057F0000846006800F4806040B10846006820F464
:105800008060086003202949087715E001202749B6
:10581000087711E02648006800F4806048B1244809
:10582000006820F480602249086002201F49087740
:1058300002E000201D490877206801280ED1606829
:10584000FFF798FC4CF25030FFF790FD07461848E0
:10585000406920F00400164948611EE04FF0FF3017
:105860003060A56813E028466168FFF795FC4CF2AC
:105870005030FFF77BFD07460D48406940F2FA7152
:1058800088430B4948610FB1356005E06D1CD4E9D0
:1058900002010844A842E6D800BFFFF72FFC00BF72
:1058A00000200249087000BF384687E7C82600205C
:1058B000002002400348406940F00040014948612F
:1058C00000207047002002402DE9F04704460F46B3
:1058D00015461E464FF001084FF0000900BF2A4848
:1058E0000078012802D10220BDE8F0870120264976
:1058F000087000BF4CF25030FFF738FD8046B8F119
:10590000000F39D10020204948602048006800F489
:10591000806048B11D48006820F480601B49086021
:1059200002201949087702E00020174908773CB99E
:105930002A4633463846FFF74BFC4FF001090BE08F
:10594000012C01D0022C07D129463846FFF74CFC28
:10595000022C01D14FF480294CF25030FFF706FDA4
:105960008046B9F1000F05D00848406920EA0900D7
:1059700006494861FFF7C2FB00BF002002490870DA
:1059800000BF4046B0E70000C826002000200240CB
:105990000748406900F0004028B106480449886083
:1059A0000548886001E0012070470020FCE7000006
:1059B0000020024023016745AB89EFCD78B503464F
:1059C000002200240020C1E0012696400D6805EA6F
:1059D0000604002C72D04D68022D02D04D68122DA5
:1059E00013D1D60803F1200555F826005507EE0E11
:1059F0000F25B540A8435607F60E0D69B54028435C
:105A0000D60803F1200545F826001868560003253E
:105A1000B540A8430D7905F003055600B54028436D
:105A200018604D68012D08D04D68022D05D04D68D5
:105A3000112D02D04D68122D13D198685600032500
:105A4000B540A8435600CD68B540284398605868D3
:105A500001259540A8430D79C5F3001595402843CD
:105A60005860D86856000325B540A84356008D6895
:105A7000B5402843D8604D6805F08055B5F1805F8A
:105A800063D100BF344D2D6E45F00105324E3566B1
:105A900035462D6E05F00105009500BF00BF4FEAA9
:105AA000B635960855F8260095072E0F0F25B540F8
:105AB000A843B3F1904F02D100250BE045E0274DFC
:105AC000AB4201D1012505E0254DAB4201D10225B4
:105AD00000E007259607360FB5402843214D96086C
