:020000040800F2
:1000000000C00020F90800080109000803090008E1
:100010000509000807090008090900080000000098
:10002000000000000000000000000000350800088B
:100030000D09000800000000C1080008D1080008F0
:100040001309000813090008130900081309000820
:100050001309000813090008130900081309000810
:1000600013090008130900081309000841300008AB
:100070004530000871300008B1300008C930000870
:10008000CB300008CD3000081309000831300008DB
:100090001130000813090008213000081309000876
:1000A00013090008130900081309000813090008C0
:1000B00013090008000000000000000013090008F8
:1000C00013090008000000000000000013090008E8
:1000D00000000000130900081309000800000000D8
:1000E00013090008130900080000000000000000C8
:1000F0000000000000000000000000000000000000
:1001000000000000000000000000000013090008CB
:100110000000000000000000130900081309000897
:10012000E5300008FD3000081531000817310008DF
:10013000193100080000000000000000000000006D
:10014000130900081309000813090008130900081F
:100150001B3100081D3100081309000813090008AD
:100160001309000813090008130900080000000023
:100170001309000813090008000000000000000037
:1001800013090008130900081309000800F002F819
:1001900006F0F4FB0AA090E8000C82448344AAF124
:1001A0000107DA4501D106F0E9FBAFF2090EBAE822
:1001B0000F0013F0010F18BFFB1A43F0010318479B
:1001C00074A9000094A900000A4410F8014B14F02F
:1001D0000F0508BF10F8015B240908BF10F8014B98
:1001E0006D1E05D010F8013B6D1E01F8013BF9D1E1
:1001F000641E03D0641E01F8015BFBD19142E4D37D
:10020000704700000023002400250026103A28BF74
:1002100078C1FBD8520728BF30C148BF0B60704778
:100220006E2901F0E281702900F0698566290AF0E3
:100230004C8065290AF0498067290AF046806129C7
:100240000AF0458003681B0A28BF41F08001692934
:1002500000F0DA84642900F0D784752900F0D48492
:100260006F2901F0D582782900F03585E92901F060
:100270006F82E42901F06C82F52901F06982EF298F
:1002800001F0D282F82900F034850368DB0928BF29
:1002900041F08001632901F0EC81732901F0F181C3
:1002A000E32902F01C81F32902F02181002070472C
:1002B0001FB50AF005F89DE8030001F0F3F801F01E
:1002C000D4F804000020002109F0A0FE401C60606A
:1002D0000020002109F0B0FEE06001F01DFC01F0FB
:1002E00097F81FBD0246D2E84F0FC2E8431F03B183
:1002F000F9E77047024652E8000F40EA010042E881
:10030000000303B1F7E7704710B5024652E8000F4B
:1003100020EA010442E8004303B1F7E710BD10B53D
:10032000024652E8000F00EA01048C4203D0BFF3FA
:100330002F8F002010BD20EA010442E8004303B1E2
:10034000EFE710BD10B5024652E8000F084203D196
:10035000BFF32F8F002010BD20EA010442E80043C4
:1003600003B1F1E710BD024652E8000F411C42E81C
:10037000001303B1F8E7704710B5024652E8000FCA
:10038000814202D8BFF32F8F10BD441C42E80043C6
:1003900003B1F3E710BD10B50246D2E85F0F81420A
:1003A00002D8BFF32F8F10BD441CC2E8534F03B1D6
:1003B000F3E710BD10B50246D2E85F0F441CA1421E
:1003C00000D80024C2E8534F03B1F5E710BD024640
:1003D00052E8000F10B9BFF32F8F7047411E42E85B
:1003E000001303B1F4E770470246D2E85F0F10B97B
:1003F000BFF32F8F7047411EC2E8531F03B1F4E7CC
:100400007047024652E8000F10B9BFF32F8F7047B4
:10041000016842E8001303B1F4E7704702680A601C
:10042000BFF35F8F50E8002F0B689342F6D140E88E
:10043000001303B1F2E770470246D2E84F0FC2E85B
:10044000431F03B1F9E77047024652E8000F40EA44
:10045000010042E8000303B1F7E7704710B5024618
:1004600052E8000F20EA010442E8004303B1F7E735
:1004700010BD10B5024652E8000F00EA01048C429C
:1004800003D0BFF32F8F002010BD20EA010442E803
:10049000004303B1EFE710BD10B5024652E8000F6C
:1004A000084203D1BFF32F8F002010BD20EA0104C2
:1004B00042E8004303B1F1E710BD024652E8000FE5
:1004C000411C42E8001303B1F8E7704710B502463B
:1004D00052E8000F814202D8BFF32F8F10BD441C99
:1004E00042E8004303B1F3E710BD10B50246D2E87D
:1004F0005F0F814202D8BFF32F8F10BD441CC2E8AA
:10050000534F03B1F3E710BD10B50246D2E85F0FB9
:10051000441CA14200D80024C2E8534F03B1F5E7C0
:1005200010BD024652E8000F10B9BFF32F8F70477D
:10053000411E42E8001303B1F4E770470246D2E8D7
:100540005F0F10B9BFF32F8F7047411EC2E8531FD2
:1005500003B1F4E77047024652E8000F10B9BFF349
:100560002F8F7047016842E8001303B1F4E770472A
:1005700002680A60BFF35F8F50E8002F0B68934258
:10058000F6D140E8001303B1F2E770470246D2E823
:100590004F0FC2E8431F03B1F9E77047024652E824
:1005A000000F40EA010042E8000303B1F7E770479B
:1005B00010B5024652E8000F20EA010442E8004369
:1005C00003B1F7E710BD10B5024652E8000F00EA8C
:1005D00001048C4203D0BFF32F8F002010BD20EA0E
:1005E000010442E8004303B1EFE710BD10B5024635
:1005F00052E8000F084203D1BFF32F8F002010BD37
:1006000020EA010442E8004303B1F1E710BD0246CD
:1006100052E8000F411C42E8001303B1F8E77047AD
:1006200010B5024652E8000F814202D8BFF32F8F67
:1006300010BD441C42E8004303B1F3E710BD10B500
:100640000246D2E85F0F814202D8BFF32F8F10BD60
:10065000441CC2E8534F03B1F3E710BD10B5024686
:10066000D2E85F0F441CA14200D80024C2E8534FD7
:1006700003B1F5E710BD024652E8000F10B9BFF311
:100680002F8F7047411E42E8001303B1F4E7704713
:100690000246D2E85F0F10B9BFF32F8F7047411E9B
:1006A000C2E8531F03B1F4E77047024652E8000F57
:1006B00010B9BFF32F8F7047016842E8001303B1F0
:1006C000F4E7704702680A60BFF35F8F50E8002FBD
:1006D0000B689342F6D140E8001303B1F2E770478C
:1006E0000246D2E84F0FC2E8431F03B1F9E7704753
:1006F000024652E8000F40EA010042E8000303B15D
:10070000F7E7704710B5024652E8000F20EA0104EF
:1007100042E8004303B1F7E710BD10B5024652E8C6
:10072000000F00EA01048C4203D0BFF32F8F00209A
:1007300010BD20EA010442E8004303B1EFE710BD19
:1007400010B5024652E8000F084203D1BFF32F8FC5
:10075000002010BD20EA010442E8004303B1F1E7A4
:1007600010BD024652E8000F411C42E8001303B1DD
:10077000F8E7704710B5024652E8000F814202D8F0
:10078000BFF32F8F10BD441C42E8004303B1F3E7D1
:1007900010BD10B50246D2E85F0F814202D8BFF308
:1007A0002F8F10BD441CC2E8534F03B1F3E710BDB7
:1007B00010B50246D2E85F0F441CA14200D80024C5
:1007C000C2E8534F03B1F5E710BD024652E8000FEF
:1007D00010B9BFF32F8F7047411E42E8001303B1D9
:1007E000F4E770470246D2E85F0F10B9BFF32F8FCE
:1007F0007047411EC2E8531F03B1F4E77047024639
:1008000052E8000F10B9BFF32F8F7047016842E81C
:10081000001303B1F4E7704702680A60BFF35F8F0B
:1008200050E8002F0B689342F6D140E8001303B163
:10083000F2E77047EFF30980816911F8021C91BB60
:1008400001B590E80F10E047BDE800508CE80300C8
:10085000234B93E80600914208BF704741B91EF050
:10086000100F10D11F49086820F0010008600AE04D
:100870002CE9F00F1EF0100F08BF2CED108AC1F804
:1008800038C081F822E01A6092F82210906B61F073
:10089000FF0E1EF0100F08BF00F028B8B0E8F00FF0
:1008A00080F30988704710B50F4A1368994206D83B
:1008B00052F821400FC8A047EFF30984206010BD13
:1008C00010B507F06FFBBDE81040EFF3098CBFE7F0
:1008D00010B507F033FEBDE81040EFF3098CB7E721
:1008E0003409002034EF00E020A70008B0EC088AAB
:1008F000B0EC08CAFFF7D2BF064880470648004759
:10090000FEE7FEE7FEE7FEE7FEE7FEE7FEE7FEE7BF
:10091000FEE7FEE7A15400088D01000810B500F0C5
:10092000A4FD001D10BD00BFE596000006F074B8E0
:100930000B3020F0070070472DE9F04117460E46B6
:100940000446FFF7F5FFA042054633D9002F1CBF30
:1009500006F10C0006F0CDF830467468F4B1216859
:10096000A94217D305F1080291423CBF616841607A
:1009700007D3626861194A602268521B0A604160AD
:100980002560002F1CBF06F10C0006F00DF9201D9C
:10099000BDE8F08120466468002CE0D1294630464D
:1009A00000F06CFD0028D7D1002F1CBF06F10C0011
:1009B00006F0FAF80020BDE8F08110B5044600F01A
:1009C0004FFD01682046BDE810400122B4E770B534
:1009D00016460D46041F002808BF70BD002E1CBF20
:1009E00005F10C0006F085F82B465868002818BF62
:1009F000A04238BF0346F8D31968CA18A24218BFEC
:100A00005C6003D122681C461144196021680A19F0
:100A1000824218BF606004D1426862600068084486
:100A20002060002E1CBF05F10C0006F0BDF870BD63
:100A300010B5044600F014FD01682046BDE81040E2
:100A40000122C4E753EA020C00F069802DE9F04B63
:100A50004FF00006002B1FBFB3FA83F503FA05F42D
:100A600024FA05F65E4012BF1643B2FA82F502FA86
:100A700005F4C5F120051EBF22FA05FC44EA0C046A
:100A8000203556EA044C4FEA144418BF641C4FF05A
:100A900000084FF00009904271EB030C39D3002994
:100AA00019BFB1FA81F701FA07F6B0FA80F700FA38
:100AB00007F6C7F120071EBF20FA07FC46EA0C061E
:100AC0002037B6FBF4FCA7EB0507103F07F01F0B20
:100AD000CBF120060CFA0BFB2CFA06F644BFB3460A
:100AE0000026202FA4BF5E464FF0000B5BEA060CE9
:100AF00008BF4FF0010B19EB0B09ABFB027C48EB75
:100B00000608C01B06FB02CC0BFB03CC71EB0C01EF
:100B1000C1E70B46024641464846BDE8F08B13B597
:100B20004FF000004FF00001AFF30080BDE81C4023
:100B3000704700007CB51D4616460C00009001D0A1
:100B40002044401E074B7B442A46694601903046AC
:100B500000F065FD05461CB10020694600F072FDFD
:100B600028467CBD050B000070B504468569006809
:100B7000C10601D5302600E02026C00707D070BD91
:100B8000D4E9012130469047206A401C20626D1E46
:100B9000F6D570BD70B5044685690078C00707D1E9
:100BA00070BDD4E9012120209047206A401C2062BA
:100BB0006D1EF6D570BD70B50C460546012A05D0F0
:100BC0002878800600D5EA69002302E0012305E0C9
:100BD0005B1C934202D2E05C0028F9D1A869E618B8
:100BE000C01AA861286A184428622846FFF7BCFF8B
:100BF00004E0D5E9012114F8010B9047B442F8D381
:100C00002846FFF7C7FF70BD2DE9F04106460024D6
:100C100010687529314616A510D000F07BFC00281D
:100C200002DA404213A507E031688A0701D512A510
:100C300002E0490704D511A5012401E000F073FC8E
:100C400000210A2206F1240709E0B0FBF2FCB0FB08
:100C5000F2F302FB1C00303078541846491C00287F
:100C6000F3D123462A463046BDE8F04100F064BC8B
:100C7000000000002D0000002B00000020000000FC
:100C8000F0B40D460188090502D5214C7C4402E0F0
:100C90001F4C7C440E34002100F1240608E002F0D1
:100CA0000F071209E75D42EA03721B097754491CDA
:100CB00052EA0307F3D102780023120704D5702DFE
:100CC00006D009B1022311342246F0BC00F034BC36
:100CD00001231034F8E770B504460D46214610682C
:100CE00000F021FC024629462046BDE87040002362
:100CF000C6E7D21D22F00703D3E90023C0E703684B
:100D0000126843F0200303600823C3610023B7E7A0
:100D1000EF9A00002DE9F05F894604464FF0000A83
:100D2000DFF874B1FB44C0F820A02046E168884792
:100D3000002874D0252806D0D4E901219047206AE4
:100D4000401C2062F1E700265F462046E1688847A4
:100D50002028054607DB312D05D2781910F8200C24
:100D600008B10643F1E7B00701D526F00406C4F840
:100D70001CA00027C4F818A02A2D09D0284605F089
:100D8000B1FE38B304EB8708303DC8F8185019E0BD
:100D900059F8041B204604EB87029161E1688847FB
:100DA000012F054618D1E069002820DA26F0200638
:100DB0001DE0D8F8180000EB800005EB400030384B
:100DC000C8F818002046E1688847054605F08AFE05
:100DD0000028EED1012F0AD02E2D08D12046E1683F
:100DE00088477F1C0546022F46F02006C4DBA06919
:100DF000002803DA404246F00106A061F00701D066
:100E000026F010066C2D0BD0682D09D04C2D39D052
:100E10006A2D35D0742D35D07A2D33D016E038E0D8
:100E2000E1682F4620468847B842054609D16C2F15
:100E300026D04FF48060E168064320468847054687
:100E400004E06C2F1AD04FF4807006430DB3A5F167
:100E50004100192802D8203546F400664A46294642
:100E6000204626604E46FFF7DBF980B101280BD003
:100E7000F61D26F0070000F1080956E74020E4E7D8
:100E80008020D8E70020D6E706F104094DE7284680
:100E900052E7206A00F002B87F9A000030BCBDE83B
:100EA000C09F70B50646FFF741FD04680546304611
:100EB0000A22002100F0D0FC2C6070BD2DE9F04723
:100EC00004464FF000094FF0FF37C568D4E90486A7
:100ED000A80707D0204600F0A7FD304605F072FEB7
:100EE000002802DA3846BDE8F087280502D54046DA
:100EF000FFF79EFD4C21204600F0F3F9206D20F015
:100F0000010020654846EEE72DE9F041044600F176
:100F10004C07384605F0EDFDE068810712D08006E9
:100F200001D5A66A04E0A169606808442169461AEF
:100F3000204600F079FD002205463146204600F0AB
:100F4000C3FC00E00025384605F02EFE2846BDE82B
:100F5000F0812DE9F04118B1BDE8F041FFF7D4BFB1
:100F60000B4E0025304605F0C4FD0A4C6F1E07E00D
:100F70002046FFF7C9FF00B13D46206D20F0010477
:100F8000002CF5D1304605F00FFE2846DFE70000C3
:100F900010090020044600202DE9F0471646884637
:100FA000814602F14C07384605F0A3FD3046FFF7B5
:100FB00085FF18F8010B61280AD0722802D0772823
:100FC0003FD102E00125002405E00225042402E0CF
:100FD000082448F2020518F8010B2B2806D06228D5
:100FE00009D018F8010C74280AD00BE045F003056D
:100FF00044F00204EFE745F0040544F00104EAE799
:1010000044F010044846214605F050FE411C18D01B
:101010000021316171604FF40071F560F161706120
:10102000200704D530460222002100F04DFC306D2F
:1010300040F001003065384605F0B6FD3046BDE8A9
:10104000F0870026F7E72DE9F04115460E460746E2
:10105000204C204605F04DFD2A4631463846FFF724
:101060009BFF0546204605F09FFD2846BDE8F08120
:101070002DE9F0410E468046164D284605F039FD13
:10108000154C206DC10704D0410804D020F00104A4
:10109000F7E7224612E05420FFF78FFC070017D035
:1010A000206D47F00101084354212065384600F0C7
:1010B00018F907F14C0005F02DFD3A46314640463F
:1010C000FFF76AFF0446284605F06EFD2046CDE78F
:1010D0000024F8E7100900200446002010B5431C46
:1010E00002E010F8011B71B18107FAD14FF0013213
:1010F00002C88C1A8C4314EAC211F9D0C01A0A062D
:1011000003D0C01E10BDC01A10BD0A0401D0801E3D
:1011100010BD0902FCD0401E10BD40EA010370B5AD
:101120009B072ED14FF00136042A2AD308C810C9D4
:101130009D1B9D43121F15EAC61517D0D8B2E1B208
:10114000401A50EA056110D198B2A1B2401A50EA93
:1011500005410AD123F07F4024F07F41401A50EA34
:10116000052102D1180EA0EB146070BDA342DBD0A4
:1011700018BA21BA884201D9012070BD4FF0FF3062
:1011800070BD0AB9002070BD10F8013B11F8014B89
:1011900063B1A3420AD1521E08D010F8013B11F8E6
:1011A000014B1BB1A34201D1521EEDD1181B70BDE2
:1011B000032A40F2308010F0030C00F0158011F883
:1011C000013BBCF1020F624498BF11F801CB00F85B
:1011D000013B38BF11F8013BA2F1040298BF00F8AF
:1011E00001CB38BF00F8013B11F0030300F025806C
:1011F000083AC0F0088051F8043B083A51F804CB93
:10120000A0E80810F5E7121D5CBF51F8043B40F858
:10121000043BAFF30080D20724BF11F8013B11F863
:1012200001CB48BF11F8012B24BF00F8013B00F8A7
:1012300001CB48BF00F8012B704710B5203AC0F031
:101240000B80B1E81850203AA0E81850B1E81850C7
:10125000A0E81850BFF4F5AF5FEA027C24BFB1E804
:101260001850A0E8185044BF18C918C0BDE8104075
:101270005FEA827C24BF51F8043B40F8043B08BF7E
:101280007047D20728BF31F8023B48BF11F8012B45
:1012900028BF20F8023B48BF00F8012B70474FF0F1
:1012A00000020429C0F0128010F0030C00F01B8033
:1012B000CCF1040CBCF1020F18BF00F8012BA8BF41
:1012C00020F8022BA1EB0C0100F00DB85FEAC17C05
:1012D00024BF00F8012B00F8012B48BF00F8012BB8
:1012E00070474FF0000200B51346944696462039E9
:1012F00022BFA0E80C50A0E80C50B1F12001BFF4CF
:10130000F7AF090728BFA0E80C5048BF0CC05DF834
:1013100004EB890028BF40F8042B08BF704748BF82
:1013200020F8022B11F0804F18BF00F8012B7047F6
:1013300010B5044610F0030F08BF11F0030F40F082
:1013400015804FF0013E121FC0F20E8051F8043B91
:10135000A3EB0E0C2CEA030C1CEACE1C08BF40F8D1
:10136000043BF0D0A1F1040102F10402521E08DB9B
:1013700011F8013B002B00F8013BF7D11146FFF7B4
:101380008EFF204610BD00004FF0013C50F8042BAA
:1013900051F8043B9A4221D1A2EB0C03934313EA88
:1013A000CC1317D150F8042B51F8043B9A4215D1B5
:1013B000A2EB0C03934313EACC130BD150F8042B8C
:1013C00051F8043B9A4209D1A2EB0C03934313EA70
:1013D000CC13DBD04FF00000704700BFD01A01BA29
:1013E000B1FA81F101F0180122FA01F0CB40C1F10C
:1013F0002001DBB2C0B2C01A2CFA01F3D11A91431A
:1014000011EAC311E6D1704770477047704700007A
:1014100070B5064C7C44064D7D4403E020682044B2
:101420008047241DAC42F9D170BD000068980000CF
:10143000709800002DE9F04117460E46054633B17D
:1014400007FB0354E41B2046B047A542FAD1A5F19F
:101450000800BDE8F0810000004870470047002008
:1014600010B5FFF7F9FF083010BD10B5FFF7F4FF16
:10147000203010BD704770477047704738B504463C
:101480000A4600206946AFF30080002808BF38BD37
:1014900002460099204600F023FC012038BD0120BF
:1014A00001F0C8B8F8B5AFF30080054600200C463F
:1014B000102000BF0646A819A0420DD93246694641
:1014C0000020AFF30080070008BF01F0B3F80098D8
:1014D000A04218BF0546C419FFF7C2FF05600746C2
:1014E000F01D20F007004619284600F00AF8B44223
:1014F00008BFF8BDA21B31463868BDE8F84000F0CF
:10150000EFBB00210160C0E901100C3005F002BB07
:101510001020704709684A0501D540B27047C905D7
:10152000FCD500B2704709684A0501D5C0B27047C2
:10153000C905FCD580B270472DE9F0470D469946A4
:101540009246044600F124080168880604D5E06943
:1015500021F01001216000E00120A84201DD471BBD
:1015600000E00027A1697A1902EB0900081AA061BE
:101570002078C00602D42046FFF7F6FA002608E0DD
:10158000D4E901211AF806009047206A401C761C15
:1015900020624E45F4DB2078C0060AD52046FFF7CE
:1015A000E3FA06E0D4E9012130209047206A401C8C
:1015B0002062381EA7F10107F4DC07E0D4E901211D
:1015C00018F805009047206A401C2062281EA5F1EB
:1015D0000105F3DC2046FFF7DDFA2078000602D58E
:1015E0000220BDE8F0870120FBE711680268006A6D
:1015F000530501D508700AE0D30501D5088006E03F
:10160000130603D5C217C1E9000200E008600120FB
:101610007047000001694A1C02610878704700B5F4
:101620008FB0CDE901310021059105497944CDE91B
:10163000031011466846FFF76DFB0FB000BD0000B8
:10164000E5FFFFFF0A6802F8010B0A607047D1E965
:1016500000239A4202D2531C0B601070704710B5E1
:10166000436913B1AFF3008001E0FFF7A4FA012052
:1016700010BD127800F124010A7000224A70012284
:10168000EDE711684FF0FF32E9E700002DE9FF5F59
:1016900015468A460446DFF8AC80F8440027D8E9AE
:1016A00000103E46CDE9001010E03AF816106A46E8
:1016B00002A800F093FF411C07D02178890603D5CA
:1016C000E269391891420DD80744761C20788006CB
:1016D00002D5E069B84205DDAE42E6DB3AF8160015
:1016E0000028E2D1A069C01BA0612046FFF73CFAA8
:1016F000D8E90010CDE90010002017E03AF81810E2
:101700006A4602A800F06AFFB0F1FF3F81460BD0A5
:1017100000250DF1080B05E0D4E901211BF80500B7
:1017200090476D1C4D45F7D308F10100B04280464B
:10173000E4DB206A384420622046FFF72BFA00F0F1
:1017400003B800001A9100003FBCBDE8C09F000034
:101750002DE9F0418046D21D22F007020025D2E992
:101760000002F52915A614D0011E72F1000106DA57
:101770000023D0EB030063EB020211A608E0D8F8C7
:1017800000108B0701D50FA602E0490701D50EA670
:1017900001251146002408F1240704E000F0BFFAF7
:1017A00030323A55641C50EA0102F7D12B463246DA
:1017B00021464046BDE8F041FFF7BEBE00000000F4
:1017C0002D0000002B0000002000000030B400219C
:1017D00000F1240408E002F00705D208303542EA9F
:1017E0004372DB086554491C52EA0305F3D10468CF
:1017F000002310A2250708D504F020040C4304D0D0
:10180000C46901230CA2641EC46130BCFFF794BEFE
:1018100010B5044621461068FFF785FE02462046B3
:10182000BDE810400023D1E7D21D22F00701D1E925
:101830000023CBE700000000300000003A2800D26F
:10184000303820F02002412A01D3A2F1370088422B
:1018500001D34FF0FF3070472DE9F04791460F4616
:1018600080460446002614F8015B2DB1FFF756F8B8
:101870000068405DC007F6D12B2D02D02D2D18D069
:10188000641E4A463946204600F035FE27B13968C5
:10189000A14201D1C7F800804FF0020471050BD5B9
:1018A0004042002803DDFFF741F80460A007BDE8CF
:1018B000F08746F48066E4E70028F8DAFFF736F8A8
:1018C00004606FF00040F2E72DE9F041044616464F
:1018D0000D464769007B80072ED0384605F0C4F9D5
:1018E00050BB3EB3012E02D0022E25D104E020468B
:1018F00000F053FE05441DE0384605F08BF9E16821
:10190000002841F01001E16005DA204600F058F8A7
:101910000120BDE8F081C9030BD56268E16A9142FC
:1019200000D81146A26911442269891A814200DD5A
:1019300008460544002D01DA0220EAE7E16A606802
:10194000E268814206D29103E06203D522F40031BD
:1019500041F01002A6690027AE4213DCE16A814221
:1019600001D90B4600E0034603EB060C2369ACEB00
:10197000030CAC4506DD814201D98C4600E084466B
:101980009C4505D1A760276042F02000A5620DE0CC
:10199000AD1BE669AE1B8142A66000D90846C01A9D
:1019A000281A20605819606022F02000034908407E
:1019B000E060002084F84870ABE70000BFCFD7FF9D
:1019C000C16821F4001141F08001C16000218160F3
:1019D000016070472DE9F047814614460E464FF0EE
:1019E000FF383248D5685769054209D03846A169A1
:1019F00005F020FA002811DB2C48C0430540E560C3
:101A00002B4632464946384605F046FAA16920F091
:101A10000042B21A11440028A16103D02046FFF70A
:101A2000CFFF4046BDE8F08770B504460569C06A3F
:101A30006168884200D80846E16821F42011E1601D
:101A4000C90312D5A84208D02246411B2846FFF7F9
:101A5000C1FF10B14FF0FF3070BD0020E562C4E956
:101A60000150E06820F48030E060002070BD10B5C7
:101A70000446C06820F02000E060A16AA0698842A6
:101A80000DD02046FFF7D0FFE06820F4405040F032
:101A90001000E060A06AA0612069E062606044F22A
:101AA0004001E0688843E06010BD000010000200C3
:101AB0002DE9F04704461E4690460D46C7684C3057
:101AC000814605F016F8B80714D0780212D44046C3
:101AD000B8F5807F09D0B0F5007F06D0B8F5806FEB
:101AE00008D1012604F1240506E0701E6FF07F4145
:101AF000884201D3012409E02561E6616560E06860
:101B000020F4706040EA0800E0600024484605F0D8
:101B10004BF82046BDE8F08710B565485421FFF723
:101B2000E0FB64485421FFF7DCFB63485421FFF7D6
:101B3000D8FB62485E49624A624B01605D481060B2
:101B40005D4A1A60431C0B65511C0165012010653C
:101B500057484C3004F0DEFF56484C3004F0DAFFB2
:101B600055484C3004F0D6FF574804F0D3FF58488E
:101B70004F4A56A17844FFF766FA20B95448784492
:101B80000A3800F050FD54484A4A52A17844FFF701
:101B90005AFA20B9504878440A3800F044FD4F48BA
:101BA000454A4CA17844FFF74EFA20B94B48784497
:101BB0000A3800F038FD40233D48DC000021224671
:101BC000FFF776FF20B142487844543800F02BFDEF
:101BD0003848224640230021FFF76AFF20B13E48E3
:101BE0007844543800F01FFD33482246102300216A
:101BF000FFF75EFF002806D038487844BDE8104063
:101C0000563800F010BD10BD2B482DE9F041006D95
:101C10002D4E20F00104304604F06BFF244D4C356E
:101C2000284604F066FF2248FFF748F9284604F0EA
:101C3000BBFF284604F068FF1E4D4C35284604F0D3
:101C400058FF1C48FFF73AF9284604F0ADFF284634
:101C500004F05AFF184D4C35284604F04AFF164848
:101C6000FFF72CF9284604F09FFF284604F04CFFAC
:101C700014E0206D20F0010504F14C00074604F04B
:101C800038FF2046FFF71AF9384604F08DFF384632
:101C900004F03AFF2046FEF7CBFE2C46002CE8D19C
:101CA000304604F081FF084804F02EFFBDE8F081C3
:101CB0000446002058460020AC46002004090020BD
:101CC000080900200C090020100900207200000003
:101CD0005D870000770000004C8700003C87000013
:101CE00030B404468C464368002B18BF634538BFA8
:101CF0001846F8D303681844604507D0C81C20F084
:101D0000070000F1040CACEB0100121A2146CCF8DC
:101D1000002030BC00220CF10400FEF758BE30B5A4
:101D2000B0F10A024FEA900E71F100034EEA817E93
:101D3000B0EB0E0061EB91014FEA101E4EEA017EFE
:101D400010EB0E0041EB11114FEA102E4EEA016E1E
:101D500010EB0E0041EB11214FEA104E4EEA014EFE
:101D600010EB0E0041EB1141401841F100014FEA28
:101D7000D00040EA41704FEAD10110EB80054FEAF4
:101D8000810444EA907444EB01046D1944EB0404AB
:101D9000521BA3414FF0000348BF0A3200D530BDAB
:101DA000401C41F1000130BD70472DE9FF4F0C464A
:101DB0001E464FF0FF378BB0D2E90001DDF860809E
:101DC0000A908A46C1F30A5505B93D4600210846E6
:101DD0004FF00000BAF1000F00F4400005DA00EB0C
:101DE00080004FF4400101EA50004FEA9059B9F1E8
:101DF000010F00DDB9460A9850EA4A000ED044F6B9
:101E00001050A5F2FF3545432F14B8F1000F1ED036
:101E10007542291E1EDDC9F100021CE0B8F1010F58
:101E20004FF0000001D0302103E0F24305E02154DF
:101E3000401CB042FBDB30460022002121540B99AC
:101E4000C1F80880C1E900200FB000F0BAB9BD1B8D
:101E50006D1CDEE74A4600DA694206A800F040FC45
:101E600006AB93E8070003AB83E8070050460A99E6
:101E700000F00DFD8DE80700A0F500501F38009020
:101E80000398002D09DD42F21F014A46084403A9C8
:101E90000390684600F06CFF08E0A0F500504A4649
:101EA0001F3803A90390684600F076FF8DE807000D
:101EB0000004000C03D04FF0FF30410800E0104652
:101EC000B8F1000F03D00022009215461EE0751EE7
:101ED00005D4FFF724FF303262556D1EF9D5B346A5
:101EE0000122084302D000227F1C04E02078302821
:101EF00001D100227F1E002A099786D01DE0112DF6
:101F000007DAFFF70CFF303262556D1C50EA010210
:101F1000F5D1084302D00098C8B10EE00021681E38
:101F200005E0235C625C63542254401E491C8142DC
:101F3000F7DBAB46A81B401E0990002004F80B00FD
:101F40000B98099AC0F80880C0E9002B7CE711269D
:101F50004FF0000859E72DE9F04F88460446D21D9E
:101F600022F0070191B0D1E90001CDE90A0104F0A6
:101F700095FC02460B98C00F01D02D2007E0206889
:101F8000810701D52B2002E0202101EAC000032AAD
:101F9000099001D0072A05DB03464146204600F0A0
:101FA0005FFB0BE12078800601D5E06900E00620A8
:101FB000B8F1650F814606D0B8F1660F18D0B8F1B8
:101FC000670F70D131E00020B9F1110F009001DBF3
:101FD000112301E009F101030AAA01A90CA8FFF7E6
:101FE000E4FEDDE90C70002609F10105834647E0B7
:101FF00001204B4600904FF000470AAA01A90CA807
:10200000FFF7D3FEDDE90DB00C995D46002610B94F
:1020100009F101000D18B9EB050003D4C0F1FF363A
:1020200009F10105A5EB09002BE0B9F1010F01DA77
:102030004FF001090020B9F1110F0090484601DD71
:10204000112300E003460AAA01A90CA8FFF7ADFE80
:10205000DDE90C704D4600268346207800070AD43F
:10206000AB4500DA5D4601A8012D04DD411911F8E8
:10207000011C302907D04F4502DA17F1040F04DAAA
:10208000012082460FE06D1EEEE7002F02DCED1B03
:102090003E4403E0781CA84200DD7D1CB81B00F123
:1020A000010A4FF000472078000703D4AA4501DB5E
:1020B0004FF0FF3A0021B7F1004F0DF143088DF8C2
:1020C000431024D002202B23002F01DA7F422D233E
:1020D0000A21021EA0F1010000DC5FB197FBF1FCB8
:1020E00097FBF1F201FB1C7C17460CF1300C08F851
:1020F00001CDEEE7A8F1010003702188090501D5A3
:10210000452100E06521A0F1010800F8011C0998B3
:102110000FA9A1EB0807FF1D00B10120411901EB38
:10212000EA70A1693844081A401EA0612078C006F0
:1021300002D42046FEF718FD099828B1D4E9012100
:102140009047206A401C20622078C00622D5204695
:10215000FEF70AFD1EE0002E04DBB34502DD01A8F8
:10216000805D00E03020D4E901219047206A401CC6
:102170002062761CAAF101005FEA000A0AD1FFF78B
:1021800074F9C0680168405CD4E901219047206A75
:10219000401C2062281EA5F10105DCDC07E0D4E923
:1021A000012118F8010B9047206A401C2062381E5C
:1021B000A7F10107F3DC2046FEF7ECFC032011B089
:1021C00043E630BCBDE8C08F2DE9F04F04460D4614
:1021D000D21D22F0070089B0D0E900974846394661
:1021E00004F05CFB0246F80F01D02D2307E02068C5
:1021F000810701D52B2302E0202101EAC0038DF8DD
:1022000020300BB1012000E00020032A824601D0DB
:10221000072A04DB2946204600F022FA3FE1207815
:10222000800601D40D2500E0E569C7F30A560D2D9F
:1022300049DA00214FEA175B08464FF00000002FF3
:1022400000F4400007DA00EB80004FF4400100EB9F
:10225000D07001EA60008115012901DD4FF0FF31E6
:1022600000224FEA850CBCF1180F06D31346ACF1DF
:1022700018004FF08052C24003E04FF4801323FA5D
:102280000CF30CF10C0CBCF1200F04D3ACF1200CBE
:1022900009FA0CF001E007FA0CF000294FF00048B1
:1022A00001DD18B90FE00ED140450CD319EB02093E
:1022B0005F4121B9404502D19F4329EA0209BBEBA6
:1022C000175F00D0761C2088000502D57B48784433
:1022D00002E07A487844193808AA302302F80A3014
:1022E000037C0AF10101002E0AF1020A53546A46E6
:1022F00002DC4FF0300101E04FF031014FF00108F6
:102300008DF8001002D0A6F2FF3603E059EA47012B
:1023100000D06B4E002D02DC2178090704D54FF068
:1023200002082E218DF80110C44600210BE0C7F3EE
:1023300003433F01C35C491C6D1E02F808300529A8
:1023400008F1010801DA002DF1DC00210CE000EBBE
:102350001973491C1B786D1E082902F808304FEAD2
:10236000091908F1010801DA002DF0DC21688B065B
:1023700002D516E0A8F10108E04505DD02EB0803EF
:1023800013F8013C302BF5D0B8F1000F09DD02EB5A
:10239000080313F8013C2E2B03D1090701D4A8F13F
:1023A0000108002D05DD3E2102F808106D1E08F120
:1023B0000108407C002E02F8080008F1010804DA48
:1023C0002D20764202F8080002E02B2002F80800D7
:1023D0000A214FF47A70864208F101080BDB96FB64
:1023E000F0F3303302F8083096FBF0F308F10108FF
:1023F00000FB136601E0642E0CDB642096FBF0F317
:10240000303302F8083096FBF0F308F1010800FBC6
:10241000136601E00A2E06DB96FBF1F0303002F87D
:10242000080008F1010896FBF1F001FB1060303064
:1024300002F80800A16908F1010808EB050202EBA7
:102440000A00081AA0612078C00602D42046FEF7D0
:102450008BFB216A08AE01EB0A00206204E0D4E99C
:10246000012116F8010B9047BAF1010AF7D2207842
:10247000C00602D52046FEF777FB6E4609E016F847
:10248000010B3E280FD0D4E901219047206A401C5F
:102490002062B8F10108F2D22046FEF77BFB09B0BA
:1024A000032000F00FB8206A2844206203E0D4E93A
:1024B0000121302090476D1EEBD3F8E70185000025
:1024C00002FCFFFF30BCBDE8C08F10B5436913B1FB
:1024D000AFF3008001E0FFF7D9F8012010BD1288AA
:1024E00000F1240182840022C2840122EDE71168F8
:1024F0004FF0FF32E9E72DE9F05F824615468B4643
:1025000000270AF10104B9460078302801D09DB1B6
:1025100013E014F8010B0127782803D0582801D0C4
:1025200045B10AE00DB1102D07D1002714F8010BB9
:10253000102502E0082500E00A250026B0460EE03E
:1025400005FB080005FB06F101271FFA80F801EBE7
:102550001046B6F5803F00D3B94614F8010B294662
:10256000FFF76CF90028EBDABBF1000F05D00FB1D3
:10257000641E00E05446CBF80040B9F1000F06D0CD
:10258000FEF7D4F902210160C81E00F003B848EA42
:102590000640FAE730BCBDE8C09F10B50146C268EE
:1025A000900703D0900607D5886A0AE0FEF7BEF9C7
:1025B00001210160881E10BD8B69486818440B69B1
:1025C000C01A91F848301BB191F84910401A10BD5B
:1025D0001103FCD50028FADD401E10BD70B516466B
:1025E0000C460546FEF79AF9036893F801010128A5
:1025F00006D0FF2C0FD8185D68B101202C7070BD7B
:10260000D3F807013246214603F207130344284654
:10261000BDE8704018474FF0FF3070BD002801D072
:1026200000F010B8704710B500F0E2F8BDE81040B7
:10263000FFF7F4BF10B500F0F5F8BDE81040FFF764
:10264000EDBF000001491820ABBEFEE726000200E6
:1026500010B5FEF705FF0068BDE8104000F012B9A4
:102660002DE9F0411F46044603260168072A01F4BC
:10267000006004DB08B116A505E016A503E008B16B
:1026800015A500E015A521F010002060A069C01E6E
:10269000A0610FB1401EA0612046FEF765FA4FB160
:1026A000D4E9012138469047206A401C2062C01CB2
:1026B000206206E0206AFAE7D4E9012115F8010B4F
:1026C0009047761EF8D22046FEF764FABDE8F08106
:1026D0004E414E006E616E00494E4600696E6600C6
:1026E0002DE9F047814616468AB0334878440DC834
:1026F0008DE80D0030487844801C03AC0DC884E898
:102700000D0041F69B300844372190FBF1F290FB1D
:10271000F1F5A5F1800501FB12041B3C02D56442D2
:10272000012000E00020DFF890A080460027FA4456
:10273000AAF1BE0A0DE0E00709D03246684607EB71
:1027400047010AEB810100F027FB8DE807006410C8
:102750007F1C002CEFD1184F7F44AC3F18E0E807F6
:1027600014D007EB04100DF1180A90E80E008AE867
:102770000E00C068F04201D198190890324606A9AF
:1027800003A800F009FB03AB83E807006D10641C8D
:10279000002DE4D132466946B8F1000F03A802D0FB
:1027A00000F0E6FA01E000F0F7FAC9E90001C9F823
:1027B00008200AB0BDE8F0877481000070B50546B6
:1027C0000C460A2000E06D1C00F054F835B1287862
:1027D0000028F8D102E0641C00F04CF814B1207815
:1027E0000028F8D1BDE870400A2000F043B800008E
:1027F00010B5014602A0FFF7E1FF012010BD000067
:1028000053494752545245443A20526564697265AF
:1028100063743A2063616E2774206F70656E3A208E
:102820000000000010B5012805D0002103A0FFF72B
:10283000C5FF012010BD09A1F8E700005349475228
:10284000544D454D3A204F7574206F662068656180
:1028500070206D656D6F7279000000003A20486548
:102860006170206D656D6F727920636F7272757023
:102870007465640008B569468DF800000320ABBE9E
:1028800008BD704710B50C3004F03EF910BD5FEA8A
:10289000400C08BF91F0000F4FEA8C234FEAC12291
:1028A00043EA51514FEA1C5018BF00F5F0404FEA7F
:1028B000300018BF41F000415FEA6C5C00F02980F5
:1028C000BCF1FF3F08BF40F080407047130C06BFCB
:1028D00012044FF0100C4FF0000C130E04BF120244
:1028E0000CF1080C130F04BF12010CF1040C930F30
:1028F00004BF92000CF1020CD30F04BF52000CF184
:10290000010C11464FF00002A0F11F00A0EB0C00DB
:10291000704711F0004F08BF704731F000413FF49D
:10292000D5AF0B0C06BF09044FF0100C4FF0000C94
:102930000B0E04BF09020CF1080C0B0F04BF0901B8
:102940000CF1040C8B0F04BF89000CF1020CCB0FAF
:1029500004BF49000CF1010CCCF12003A0EB0C00EA
:1029600022FA03F302FA0CF241EA030100F101003A
:10297000704720F07F4C80EA030023F07F47ACEBE8
:10298000070303F57C5300F0004003F1FF032DE93A
:1029900080494FEA154B09B44FEA144325EA0B4E20
:1029A00024EA03480FF2042606EB132749083E7871
:1029B0005FEA320203FB0667C7F5000707FB06F66E
:1029C0004FEA54374FEAD64606F1020607FB066C7B
:1029D000CCF1005C4FEA1C472CEA074C07FB06F4DD
:1029E0000CFB06F504EB15464FEA961634BF0020A3
:1029F0004FF000404FEAD13706FB07FC4FEA1C4C72
:102A00000CFB0BF7D21B03FB0CF761EB07010CFB74
:102A10000EF7B0EB074072EB17420CFB08F734BF20
:102A2000A2EB0742B2EB074261EB17414FEA0C44BD
:102A30004FEA910706FB07FC4FEA1C4C0CFB0BF717
:102A4000B0EBC74072EB573203FB0CF734BFA2EB7D
:102A5000C742B2EBC74261EB57310CFB0EF7B0EB4C
:102A6000C70072EB57720CFB08F734BFA2EBC7022A
:102A7000B2EBC70261EB5771039F4FEA816141EAF4
:102A8000921104EBCC044FEAD1374FEA826206FB85
:102A900007FC42EA90124FEA80604FEA1C4C0CFBA4
:102AA0000BF7D21B03FB0CF761EB07010CFB0EF7D6
:102AB000B0EB074072EB17420CFB08F734BFA2EBF8
:102AC0000742B2EB074261EB17414FEA8C554FEAE0
:102AD000910704EB9C2406FB07FC4FEA1C4C0CFB03
:102AE0000BF7B0EBC74072EB573203FB0CF734BF68
:102AF000A2EBC742B2EBC74261EB57310CFB0EF7BA
:102B0000B0EBC70072EB57720CFB08F734BFA2EBB7
:102B1000C702B2EBC70261EB577115EB4C254FEAC8
:102B2000816141EA92114FEA82624FEAD13742EA6B
:102B3000901206FB07FC44F100044FEA80604FEA64
:102B40001C4C0CFB0BF7D21B03FB0CF761EB0701D2
:102B50000CFB0EF7B0EB074072EB17420CFB08F7CB
:102B600034BFA2EB0742B2EB074261EB174115EB12
:102B70001C154FEA813141EA92414FEA823242EA22
:102B800090424FEA80304FEA0C7644F1000448EA64
:102B900003434EEA0B484FF0000EB2EB080C71EB0A
:102BA000030724BF624639464EEB0E0E4FF0000B72
:102BB0000018524149414BEB0B0BB2EB080C71EB87
:102BC00003077BF1000B24BF624639464EEB0E0E25
:102BD0004FF0000B0018524149414BEB0B0BB2EB8D
:102BE000080C71EB03077BF1000B24BF62463946EA
:102BF0004EEB0E0E51EA020718BF46F0010616EB27
:102C00000E7655F1000254F1000103D5BDE88901AB
:102C1000BDE80088BDE88901BDE80048B619524109
:102C200041EB0101A3F10103704780807F7E7D7C31
:102C30007B7A7978777676757473727171706F6E4E
:102C40006E6D6C6C6B6A6A696868676666656464F9
:102C5000636362616160605F5F5E5E5D5D5C5C5B83
:102C60005B5A5A59595858575756565555555454F2
:102C7000535352525251515050504F4F4F4E4E4D50
:102C80004D4D4C4C4C4B4B4B4A4A4A49494948489C
:102C900048474747474646464545454444444443DC
:102CA00043434342424242414141002B26D47700F4
:102CB00021D01CB54FEA370703B44FF010004FF096
:102CC00010014FF000000FBCBDE810400BF1010BEC
:102CD000BBF1010F08BF5FEA170722BF12F1010223
:102CE00011F101014FF0004143F1000300F00040F9
:102CF00043EA00007047F9D35708DAE746EA064688
:102D000013F1400F4FEA16461FDD13F1200FDFBF0E
:102D100016430A46002120335B42C8D0C3F1200786
:102D200046EA064602FA07F74FEA164646EA07065B
:102D3000C3F1200722FA03F201FA07F721FA03F19F
:102D40004FF0000342EA0702B1E746EA020646EA0C
:102D500006464FEA164646EA0106BCBF46EA064664
:102D6000360C4FF000034FF000024FF000019EE7D9
:102D70002DE9C048934630B491E8380007C831EADD
:102D8000400C48BF34EA430C03D5FFF7F2FDFFF7D0
:102D90008CFFF0BCBDE800882DE9C048934630B4F4
:102DA00091E8380007C810F0804F08BF13F0804F3B
:102DB00003D100F005F8FFF778FFF0BCBDE800880C
:102DC00020F07F4780EA030023F07F4C07EB0C03E1
:102DD000A3F57C5300F00040A3F1FE0392F0000F36
:102DE00000F0B38095F0000F00F077802DE90149E5
:102DF0004FEA11404FEA144621EA004800FB06FC66
:102E000024EA064708FB06F607FB08F800FB07F76D
:102E100018EB06484CEB164C4FEA124B18EB0748E0
:102E20004FEA15464CEB174022EA0B4E0BFB06FC13
:102E300025EA06470EFB06F607FB0EFE0BFB07F71F
:102E40001EEB064E4CEB164C4FF000061EEB074EE9
:102E50004CEB174B18EB0B0840F1000018EB0E0B76
:102E600058EB000840F100008F1A4FF000013CBF02
:102E7000C943661B14BFB5EB040C00213CBFC9431A
:102E8000F61B4FEA17444EEA8E0E27EA04454FEA36
:102E90001C4704FB07622CEA074C05FB07F70CFBF9
:102EA00005F604FB0CFC16EB074642EB174216EB4B
:102EB0000C4642EB1C421BEB060658EB020241415A
:102EC00046EA9E0601D5BDE80189B619524141EB9B
:102ED0000101A3F10103BDE801894FEA14454FEA5E
:102EE000114724EA054621EA074C05FB07F406FBD7
:102EF00007F70CFB06F105FB0CFC11EB074144EB5B
:102F000017444FEA124711EB0C4144EB1C4422EAF0
:102F1000074C05FB07F206FB07F70CFB06F605FB63
:102F20000CFC16EB074642EB174216EB0C4642EB45
:102F30001C456A1854F1000148BF7047B619524148
:102F400041EB0101A3F10103704795F0000F37D069
:102F50004FEA11424FEA144721EA024624EA074C9D
:102F600002FB07F106FB07F70CFB06F402FB0CFC67
:102F700014EB074441EB17414FEA154714EB0C449F
:102F800041EB1C4125EA074C02FB07F506FB07F75E
:102F90000CFB06F602FB0CFC16EB074645EB17454F
:102FA00016EB0C4645EB1C42121951F1000148BFCB
:102FB0007047B619524141EB0101A3F1010370477B
:102FC0004FEA14454FEA114724EA054621EA074C27
:102FD00005FB07F106FB07F70CFB06F24FF00006B6
:102FE00005FB0CFC12EB074241EB174112EB0C42C4
:102FF00051EB1C4148BF7047921841EB0101A3F10E
:103000000103704710B504F047FB04F0C5FA10BD8A
:1030100010B50021014803F07BFF10BD00640040A3
:1030200010B50021014803F073FF10BD006400409B
:1030300010B50021014803F06BFF10BD0064004093
:103040007047000010B50848006820B106490968BB
:10305000886D00F0BEF80548006820B10349096892
:10306000086A00F0B6F810BDBC080020A8080020CF
:1030700010B50C48006820B10A490968486D00F095
:10308000A8F80948006820B107490968086A00F0F3
:10309000A0F80648006820B104490968486A00F0B1
:1030A00098F810BDBC080020B8080020AC0800202B
:1030B00010B50448006820B102490968C86A00F0E8
:1030C00088F810BDB40800207047704710B5044858
:1030D000006820B102490968886A00F07AF810BDDA
:1030E000B008002010B50448006820B10249096802
:1030F000886D00F06EF810BDC008002010B50448BF
:10310000006820B102490968486D00F062F810BDFE
:10311000C00800207047704770477047704730B54F
:1031200090F844500124AC40056C6C600468636006
:103130008468102C04D10468A2600468E16003E094
:103140000468A1600468E26030BD70477047704752
:1031500070477047704770477047704770477047B7
:1031600070477047704770477047704770477047A7
:103170007047704770477047704770477047704797
:103180007047704770477047704770477047704787
:103190007047704770477047704770477047704777
:1031A0007047704770477047704770477047704767
:1031B00070477047704770477047704700F01F02B4
:1031C000012191404211920002F1E022C2F8001167
:1031D000704770B50446206C05682068066894F84E
:1031E0004410042088402840D0B106F00400B8B153
:1031F0002068006800F0200028B92068006820F0EE
:1032000004002168086094F8441004208840216C70
:103210004860206B00284ED02046216B88474AE04A
:1032200094F8441002208840284008B306F00200B9
:10323000F0B12068006800F0200040B92068006804
:1032400020F00A0021680860012084F8250094F825
:10325000441002208840216C486000BF002084F8A0
:10326000240000BFE06A30B32046E16A884722E0CC
:1032700094F84410082088402840E0B106F0080087
:10328000C8B12068006820F00E002168086094F83A
:10329000441001208840216C48600120E06384F8DC
:1032A000250000BF002084F8240000BF606B10B12F
:1032B0002046616B884770BD10B50146002209B9F0
:1032C000012010BD8868B0F5804F00D000BF3C4B96
:1032D000086898420BD23B4B0868C01A1423B0FB15
:1032E000F3F0800048643748083808640AE0344B3B
:1032F0000868C01A1423B0FBF3F08000486430481B
:1033000008380864022081F825000868026843F63E
:10331000F0708243D1E9020318430B6918434B69EB
:1033200018438B691843CB6918430B6A184302434F
:10333000086802608868B0F5804F32D0214B083BA6
:10334000086C984217D1D0F8A80091F844400F2398
:10335000A34098431B4BA033186091F84430486851
:103360009840184B083BD3F8A8301843154B083B3E
:10337000C3F8A80015E01248A030006891F8444056
:103380000F23A34098430E4BA033186091F84430AC
:10339000486898400A4BA0331B681843084BA03379
:1033A00018600020C862086348638863C86301200E
:1033B00081F82500002081F8240000BF81E700008B
:1033C00008040240080002402DE9F04104460D4681
:1033D00016461F464FF0000800BF94F8240001284D
:1033E00002D10220BDE8F081012084F8240000BF52
:1033F00094F8250001282CD1022084F82500002013
:10340000E0632068006820F00100216808603B4606
:10341000324629462046FFF782FE206B30B12068F5
:10342000006840F00E00216808600BE0206800682A
:1034300020F00400216808602068006840F00A005D
:10344000216808602068006840F001002168086079
:1034500006E000BF002084F8240000BF4FF00208FF
:103460004046BFE778B50346002200240020C1E0B3
:10347000012696400D6805EA0604002C72D04D68BE
:10348000022D02D04D68122D13D1D60803F120056C
:1034900055F826005507EE0E0F25B540A8435607F0
:1034A000F60E0D69B5402843D60803F1200545F80E
:1034B0002600186856000325B540A8430D7905F08D
:1034C00003055600B540284318604D68012D08D00B
:1034D0004D68022D05D04D68112D02D04D68122D7A
:1034E00013D1986856000325B540A8435600CD680F
:1034F000B54028439860586801259540A8430D7948
:10350000C5F30015954028435860D8685600032538
:10351000B540A84356008D68B5402843D8604D6833
:1035200005F08055B5F1805F63D100BF344D2D6E3D
:1035300045F00105324E356635462D6E05F0010524
:10354000009500BF00BF4FEAB635960855F8260033
:1035500095072E0F0F25B540A843B3F1904F02D128
:1035600000250BE045E0274DAB4201D1012505E0E8
:10357000254DAB4201D1022500E007259607360F05
:10358000B5402843214D960845F82600204D28686F
:10359000A0434D6805F48035B5F5803F00D1204348
:1035A0001B4D28602D1D2868A0434D6805F400358B
:1035B000B5F5003F00D12043154D2D1D28602D1D70
:1035C0002868A0434D6805F48015B5F5801F00D12B
:1035D00020430F4D083528602D1D2868A0434D68F5
:1035E00005F40015B5F5001F00D12043084D0C353A
:1035F0002860521C0D68D540002D7FF439AF78BD8E
:103600000010024000040048000800480800014083
:103610000004014001480068704700007008002065
:1036200002480068401C014908607047700800208B
:1036300010B5032000F0E0F80F2000F005F800F0CE
:1036400089F8002010BD000010B588B0044602A91A
:1036500003A800F0FDFB00F023FC029000BF3748F8
:10366000806D40F00100354988650846806D00F0A6
:103670000100019000BF00BF0846806B40F00100D0
:1036800088630846806B20F00100886388042C4919
:1036900008604FF0FF312A48C160069840B92949B7
:1036A0000298B0FBF1F080B2401E2549486008E066
:1036B000029840002349B0FBF1F080B2401E20493F
:1036C000486000211E4801618160416101F049F8B4
:1036D0001C201D491D4B1A6800F1100342F82310ED
:1036E00000BF00BF002809DB00F01F02012191404C
:1036F0004209920002F1E022C2F8001100BF00214D
:103700000F4801F049F804210D4801F045F80C4834
:103710000068406A0E4908600846006800F57A7043
:1037200007490968886306480068C06840F00400DB
:1037300003490968C860002008B010BD00100240AD
:10374000FC1F002040420F00519E000808ED00E0E1
:1037500034080020704701460846002809DB00F0C5
:103760001F0301229A4043099B0003F1E023C3F8A1
:10377000002100BF70472DE9F05F80460D461646D8
:10378000002703F0A3F8074639462A46334601F0DE
:103790000700C0F1070ABAF1040F02D94FF0040A7A
:1037A00001E0C0F1070AD14600F1040ABAF1070F9F
:1037B00002D24FF0000A01E0A0F1030AD4464FF014
:1037C000010A0AFA09FAAAF1010A0AEA020A0AFA3D
:1037D0000CFA4FF0010B0BFA0CFBABF1010B0BEAEF
:1037E000030B4AEA0B042146404603F077F800F049
:1037F00000B830BCBDE8C09F00BF00F00702064B18
:1038000019684FF6FF031940044B0B4343EA0221AA
:10381000014B196000BF70470CED00E00000FA0595
:1038200000BF1148006820F480400F4A10600F4824
:1038300000680F4AB0FBF2F0322200FB02F100E018
:10384000491E31B10848406900F40070B0F5007FAE
:10385000F6D00548406900F40070B0F5007F01D152
:10386000032070470020FCE700700040740800202F
:1038700040420F000348006840F48040014908605E
:1038800070470000007000400248006800F4C0600B
:10389000704700000070004070B505460C464DB9F9
:1038A0000F48406900F40070B0F5007F09D1FFF7C0
:1038B000B7FF06E00A484069C0F3402008B9FFF7A7
:1038C000D9FF0848006820F0040006490860012C70
:1038D00001D130BF02E040BF20BF20BF70BD00005B
:1038E0000070004010ED00E00648006820F0200065
:1038F00004499039C1F890000846806920F40070AE
:1039000088617047901002400348006840F004004E
:103910000149086070470000001002402DE9F8439B
:103920000446002600270025A846208800F40060F1
:10393000B0F5006F26D1E06B68B1B0F5000F03D091
:10394000B0F5400F0ED10CE0C548C06840F480309F
:10395000C349C86008E00021201D01F011FB0546A5
:1039600002E001E0012500BF00BF55B9BC48883026
:10397000006820F44000E16B0843B949C1F88800B1
:1039800000E0A846206800F40030B0F5003F74D194
:103990004FF00009B248806D00F0805078B900BF48
:1039A000AF48806D40F08050AD4988650846806D15
:1039B00000F08050009000BF00BF4FF00109A948FF
:1039C000006840F48070A7490860FFF723FE0746AF
:1039D00006E0FFF71FFEC01B022801D9032505E002
:1039E000A048006800F480700028F2D000BF7DBBC2
:1039F0009B489030006800F44076CEB1206DB04214
:103A000016D097489030006820F440769448D0F85B
:103A1000900040F480309249C1F890000846D0F8F8
:103A2000900020F48030C1F890000846C0F8906003
:103A300006F00100A8B1FFF7EDFD074609E0FFF72A
:103A4000E9FDC01B41F28831884202D9032507E015
:103A500016E083489030006800F002000028EED0A5
:103A600000BF5DB97E489030006820F44070216D41
:103A700008437B49C1F8900003E00CE0A84600E051
:103A8000A846B9F1010F05D17548806D20F080502E
:103A90007349886500BF207800F0010048B1704884
:103AA0008830006820F00300216A08436C49C1F89F
:103AB0008800207800F00200022809D16848883088
:103AC000006820F00C00616A08436549C1F888006D
:103AD000207800F02000202809D161488830006853
:103AE00020F44060A16A08435D49C1F8880020883D
:103AF00000F40070B0F5007F09D1594888300068A3
:103B000020F44020616B08435549C1F888002088A3
:103B100000F48060B0F5806F09D1514888300068AA
:103B200020F44010A16B08434D49C1F8880020786B
:103B300000F04000402809D149488830006820F44E
:103B40004050E16A08434649C1F88800208800F4E3
:103B50008070B0F5807F09D141488830006820F43A
:103B60004030216B08433E49C1F88800208800F4AA
:103B70000050B0F5005F1FD139488830006820F050
:103B80004060216C0843364988310860206CB0F1F0
:103B9000006F06D13248C06840F480103049C860D8
:103BA0000AE0206CB0F1806F06D10121201D01F0E8
:103BB000E7F9054605B1A846206800F48020B0F575
:103BC000802F1FD126488830006820F04060616C4B
:103BD0000843234988310860606CB0F1006F06D15A
:103BE0001F48C06840F480101D49C8600AE0606C3E
:103BF000B0F1806F06D10121201D01F0C1F9054609
:103C000005B1A846208800F48040B0F5804F14D15B
:103C100013488830006820F04050A16C08431049D8
:103C200088310860A06CB0F1805F06D10221201DB0
:103C300001F0A6F9054605B1A846208800F4004029
:103C4000B0F5004F09D106488830006820F0804068
:103C5000E16C08430249C1F888004046BDE8F8839A
:103C6000001002400070004070B504460D4600266A
:103C70007348006800F00700A8420ED27048006840
:103C800020F0070028436E4908600846006800F0ED
:103C90000700A84201D0012070BD207800F002008A
:103CA000022807D16748806820F0F000A168084327
:103CB00064498860207800F00100002879D06068AD
:103CC000022806D15F48006800F40030D8B901200E
:103CD000E2E76068032806D15A48006800F00070E7
:103CE00088B90120D8E7606830B95648006800F00C
:103CF000020040B90120CFE75248006800F480601C
:103D000008B90120C8E74F48806820F003006168C7
:103D100008434C498860FFF77DFC0646606802282E
:103D200010D108E0FFF776FC801B41F28831884211
:103D300001D90320B0E74348806800F00C00082850
:103D4000F0D136E06068032810D108E0FFF762FC8C
:103D5000801B41F28831884201D903209CE7394811
:103D6000806800F00C000C28F0D122E0606880B977
:103D700008E0FFF74FFC801B41F28831884201D9EF
:103D8000032089E72F48806800F00C000028F0D15C
:103D90000FE008E0FFF73EFC801B41F288318842CB
:103DA00001D9032078E72748806800F00C00042838
:103DB000F0D12348006800F00700A8420ED920483F
:103DC000006820F0070028431D4908600846006885
:103DD00000F00700A84201D001205DE7207800F044
:103DE0000400042807D11748806820F4E060E168E7
:103DF000084314498860207800F00800082808D19A
:103E00001048806820F46050216940EAC1000D49E3
:103E1000886000F071F80B49896801F0F001F02228
:103E200092FAA2F2B2FA82F2D140074A515CC8403B
:103E3000064908600F20FFF707FC00202CE7000070
:103E4000002002400010024024A70008740800204F
:103E50000F2202600D4A926802F0030242600B4A90
:103E6000926802F0F0028260084A926802F4E0620E
:103E7000C260064A926802F46052D2080261044AA3
:103E8000126802F007020A6070470000001002404A
:103E900000200240014800687047000074080020BC
:103EA00000B5FFF7F7FF0749896801F4E0614FF4B7
:103EB000E06292FAA2F2B2FA82F2D140024A515C76
:103EC000C84000BD0010024034A7000800B5FFF74D
:103ED000E1FF0749896801F460514FF4605292FA9A
:103EE000A2F2B2FA82F2D140024A515CC84000BD4F
:103EF0000010024034A70008F0B500210023002480
:103F0000022502220020554EB66806F00C065EB16E
:103F1000524EB66806F00C060C2E2DD14F4EF668A8
:103F200006F00306012E27D14C4E366806F008062F
:103F30006EB94A4E9436366806F470664FF4706770
:103F400097FAA7F7B7FA87F726FA07F10AE0434E80
:103F5000366806F0F006F02797FAA7F7B7FA87F762
:103F600026FA07F13E4E56F821103C4EB66806F090
:103F70000C0686B908460EE0384EB66806F00C0608
:103F8000042E01D1374806E0344EB66806F00C0620
:103F9000082E00D13448314EB66806F00C060C2EBF
:103FA0005BD12E4EF66806F003042C4EF66806F040
:103FB0007006702797FAA7F7B7FA87F7FE40721CCA
:103FC000012C29D0022C02D0032C24D111E0254E43
:103FD000B6FBF2F6214FFF6807F4FE474FF4FE4CA4
:103FE0009CFAACFCBCFA8CFC27FA0CF706FB07F336
:103FF00023E01D4EB6FBF2F6184FFF6807F4FE47AC
:104000004FF4FE4C9CFAACFCBCFA8CFC27FA0CF783
:1040100006FB07F311E000BFB1FBF2F60F4FFF689C
:1040200007F4FE474FF4FE4C9CFAACFCBCFA8CFC47
:1040300027FA0CF706FB07F300BF00BF074EF66830
:1040400006F0C0664FF0C06797FAA7F7B7FA87F790
:10405000FE40761C7500B3FBF5F0F0BD0010024089
:104060003CA700080024F40000127A00F8B50446CA
:104070000025207800F01000102874D1FE488068D8
:1040800000F00C00002870D1FB48006800F002002E
:1040900018B1A06908B90120F8BDF748216A006885
:1040A00000F0080020B1F448006800F0F00005E0DE
:1040B000F1489430006800F47060000981421FD913
:1040C000206A01F053F808B10120E5E700BFEA4893
:1040D000006840F00800E84908600846006820F0E1
:1040E000F000216A0843E449086000BF08464068C0
:1040F00020F47F40E16940EA0120DF4948601EE08A
:1041000000BFDD48006840F00800DB490860084651
:10411000006820F0F000216A0843D749086000BF1A
:104120000846406820F47F40E16940EA0120D24916
:104130004860206A01F01AF808B10120ACE7FFF7E7
:10414000DBFECD49896801F0F001F02292FAA2F27B
:10415000B2FA82F2D140C94A515CC840C8490860ED
:104160000F20FFF771FA4BE0FFE7A06980B3C24868
:10417000006840F00100C0490860FFF74BFA0546AF
:1041800006E0FFF747FA401B022801D9032083E726
:10419000B948006800F002000028F2D000BFB6481D
:1041A000006840F00800B44908600846006820F044
:1041B000F000216A0843B049086000BF0846406823
:1041C00020F47F40E16940EA0120AB49486017E0F4
:1041D000FFE7A948006820F00100A7490860FFF741
:1041E00019FA054606E0FFF715FA401B022801D927
:1041F000032051E7A048006800F002000028F2D137
:10420000207800F00100002868D09B48806800F00A
:104210000C0008280BD09848806800F00C000C288F
:104220000ED19548C06800F00300032808D19248D9
:10423000006800F4003088B3606878BB01202BE789
:1042400000BF6068B0F5803F06D18B48006840F43D
:104250008030894908601AE06068B0F5A02F0BD162
:104260008548006840F4802083490860084600685B
:1042700040F4803008600AE07F48006820F4803015
:104280007D4908600846006820F48020086000BF6F
:10429000606890B1FFF7BEF9054607E01EE0FFF742
:1042A000B9F9401BC82801D90320F5E67248006817
:1042B00000F400300028F2D010E0FFF7ABF905461B
:1042C00006E0FFF7A7F9401BC82801D90320E3E661
:1042D0006948006800F400300028F2D1207800F02E
:1042E000020002286AD16448806800F00C000428AB
:1042F0000BD06148806800F00C000C281ED15E488D
:10430000C06800F00300022818D15B48006800F480
:10431000806018B1E06808B90120BDE656484068E1
:1043200020F0F8504FF0F85292FAA2F2B2FA82F26C
:10433000216991400843504948603FE0E06830B34C
:104340004D48006840F480704B490860FFF762F9FF
:10435000054606E0FFF75EF9401B022801D903205D
:104360009AE64548006800F480600028F2D0424890
:10437000406820F0F8504FF0F85292FAA2F2B2FAE8
:1043800082F22169914008433B49486016E03A486F
:10439000006820F4807038490860FFF73BF9054653
:1043A00006E0FFF737F9401B022801D9032073E626
:1043B0003148006800F480600028F2D1207800F0D5
:1043C0000800082836D16069D0B12B4894300068C5
:1043D00040F001002849C1F89400FFF71BF9054699
:1043E00006E0FFF717F9401B022801D9032053E626
:1043F00021489430006800F002000028F1D019E054
:104400001D489430006820F001001B49C1F8940059
:10441000FFF700F9054606E0FFF7FCF8401B02280D
:1044200001D9032038E614489430006800F00200F7
:104430000028F1D1207800F0040004286FD1002674
:104440000D48806D00F0805070B900BF0A48806D43
:1044500040F08050084988650846806D00F0805023
:10446000009000BF00BF01260648006800F480707D
:10447000F8B90448006807E00010024024A70008CB
:10448000740800200070004040F48070A349086068
:10449000FFF7C0F8054606E0FFF7BCF8401B02280E
:1044A00001D90320F8E59D48006800F480700028D9
:1044B000F2D000BFA068012808D19948006840F0F8
:1044C000010097499039C1F8900021E0A0680528C3
:1044D0000FD19348006840F0040091499039C1F829
:1044E00090000846D0F8900040F00100C1F890001C
:1044F0000EE08B48006820F0010089499039C1F82E
:1045000090000846D0F8900020F00400C1F8900018
:1045100000BFA068A0B1FFF77DF8054609E02DE0D7
:10452000FFF778F8401B41F28831884201D9032017
:10453000B2E57B48006800F002000028F0D012E0ED
:10454000FFF768F8054608E0FFF764F8401B41F202
:104550008831884201D903209EE57148006800F047
:1045600002000028F0D1012E07D16D489038806DEF
:1045700020F080506A499039886500BF207800F0AB
:104580002000202838D1606AD8B16548083000681A
:1045900040F0010062499039C1F89800FFF73AF8FD
:1045A000054606E0FFF736F8401B022801D9032034
:1045B00072E55B480830006800F002000028F1D086
:1045C0001AE057480830006820F00100544990393B
:1045D000C1F89800FFF71EF8054606E0FFF71AF845
:1045E000401B022801D9032056E54D4808300068D9
:1045F00000F002000028F1D1A06AE8B348489038E2
:10460000806800F00C000C2874D0A06A022853D1F6
:1046100043489038006820F0807041499039086024
:10462000FEF7F8FF054606E0FEF7F4FF401B022800
:1046300001D9032030E53A489038006800F0007056
:104640000028F1D1206B401E0101606B41EA00207F
:10465000E16A0843A18F0122C2EB510140EA4151B6
:104660004020005DC2EB500041EA40613820005D0F
:1046700041EAC0602A4900E04EE09039C86008462F
:10468000006840F0807008600846C06840F08070A4
:10469000C860FEF7BFFF054606E0FEF7BBFF401B04
:1046A000022801D90320F7E41D489038006800F083
:1046B00000700028F1D02FE019489038006820F0F1
:1046C00080701749903908600846006800F0006063
:1046D00020B90846C06820F00300C8601048903830
:1046E000C068104908400E499039C860FEF792FF33
:1046F000054607E00EE0FEF78DFF401B022801D9BA
:104700000320C9E406489038006800F000700028D3
:10471000F1D101E00120BFE40020BDE400700040C1
:1047200090100240FFFFEEFE4FF080400449086009
:1047300008460068C06840F004000968C860704717
:10474000FC1F00204FF080400449086008460068C4
:10475000C06820F004000968C8607047FC1F002092
:10476000704710B504460CB9012010BD94F839000B
:1047700028B9002084F83800204600F00CF8022008
:1047800084F83900211D206800F0B2FE012084F871
:1047900039000020E9E7704730B504460D46012294
:1047A0002946206800F0DAFE0E492068884207D0CA
:1047B0000D492068884203D00C492068884201D105
:1047C000012000E0002028B12068406C40F4004047
:1047D000216848642068006840F001002168086092
:1047E000002030BD002C0140004001400044014049
:1047F00070B504460D46164600BF94F838000128EF
:1048000001D1022070BD012084F8380000BF0220D1
:1048100084F839000C2E51D005DC4EB1042E1ED088
:10482000082E7AD133E0102E60D0142EF9D175E025
:104830002946206800F0CEFE2068806940F008001C
:10484000216888612068806920F0040021688861FF
:1048500020688069296908432168886177E02946D2
:10486000206800F0FDFE2068806940F40060216847
:1048700088612068806920F48060216888612068F0
:104880008069296940EA0120216888615FE0294642
:10489000206800F031FF2068C06940F008002168FE
:1048A000C8612068C06920F004002168C8612068E0
:1048B000C069296908432168C86148E02946206821
:1048C00000F064FF2068C06940F400602168C8619E
:1048D0002068C06920F480602168C8612068C069D0
:1048E000296940EA01202168C86130E02946206832
:1048F00000F080FF2068406D40F0080021684865A6
:104900002068406D20F00400216848652068406DF3
:10491000296908432168486519E017E0294620689D
:1049200000F098FF2068406D40F400602168486501
:104930002068406D20F48060216848652068406DE3
:10494000296940EA01202168486500E000BF00BFF6
:10495000012084F8390000BF002084F8380000BF2F
:1049600000BF4FE710B50446022084F8390000BFAD
:104970002068006A41F21111084050B92068006AAD
:104980008910084028B92068006820F001002168DB
:10499000086000BF204600F022F8002084F83900AB
:1049A00000BF84F8380000BF10BD10B504460CB934
:1049B000012010BD94F8390028B9002084F838008F
:1049C000204600F00DF8022084F83900211D2068EF
:1049D00000F08EFD012084F839000020E9E77047DF
:1049E0002DE9F84F05464FF0904A7148006801F0F4
:1049F0005FFBA84210D16E48006801F060FB83465F
:104A00006B48006801F057FB04464FF00408DFF8DC
:104A1000A4910D27012660E06748006801F048FB7B
:104A2000A84212D16448006801F049FB83466248FD
:104A3000006801F040FB04464FF00708DFF874916E
:104A4000A9F114090C27012647E05C48006801F031
:104A50002FFBA84210D15948006801F030FB834673
:104A60005648006801F027FB04464FF00708DFF8BE
:104A700044910D27022630E05148006801F018FBF0
:104A8000A84212D14E48006801F019FB83464C48F9
:104A9000006801F010FB04464FF00708DFF814919E
:104AA00009F150091127032617E04648006801F074
:104AB000FFFAA84211D14348006801F000FB834689
:104AC0004048006801F0F7FA04464FF00708DFF8A5
:104AD000E49009F114090E2704263B49286888420E
:104AE0000DD100BF3948006E40F4006037490866B8
:104AF0000846006E00F40060009000BF00BF34491B
:104B0000286888420DD100BF3048006E40F4003064
:104B10002E4908660846006E00F40030009000BF81
:104B200000BF00BF2948C06C40F001002749C8649D
:104B30000846C06C00F00100009000BF00BF00BF3D
:104B40000846806C40F0010088640846806C00F0E4
:104B50000100009000BF00BF59465046FEF782FC9E
:104B6000C4F804801021A1600021E160802121614E
:104B700089006161A1612021E16109022162C4F81B
:104B8000009000BF05F11C0040F82640A56200BF60
:104B9000014651F82600FEF78FFB002211463846E9
:104BA000FEF7E9FD3846FEF7D6FD00F013B8000029
:104BB000F008002030000240F4080020F80800202F
:104BC000FC08002000090020002C014000100240D9
:104BD0000044014018BCBDE8E08F70472DE9F0416A
:104BE00004460E4615461F4694F83900022801D1A6
:104BF000BDE8F08194F83900012806D115B9002FDD
:104C000000DDF5E7022084F8390036B1042E19D012
:104C1000082E2CD00C2E54D13EE03C49206AC162B3
:104C20003B49206A4163216801F134023B46294631
:104C3000206AFEF7C9FB2068C06840F40070216854
:104C4000C8603FE03149606AC1623149606A4163CE
:104C5000216801F138023B462946606AFEF7B4FB41
:104C60002068C06840F480602168C8602AE0274955
:104C7000A06AC1622649A06A4163216801F13C0231
:104C80003B462946A06AFEF79FFB2068C06840F4B7
:104C900000602168C86015E01C49E06AC1621C49D7
:104CA000E06A4163216801F140023B462946E06A1F
:104CB000FEF78AFB2068C06840F480502168C86015
:104CC00000E000BF00BF01223146206800F046FC32
:104CD00010492068884207D00F492068884203D0D5
:104CE0000E492068884201D1012000E0002028B14F
:104CF0002068406C40F400402168486420680068E7
:104D000040F0010021680860002071E77955000833
:104D1000BF550008002C0140004001400044014004
:104D200030B504460D4635B1042D0BD0082D10D0FA
:104D30000C2D1CD114E02068C06820F4007021689C
:104D4000C86015E02068C06820F480602168C860F1
:104D50000EE02068C06820F400602168C86007E0A9
:104D60002068C06820F480502168C86000E000BF5F
:104D700000BF00222946206800F0F0FB1D49206892
:104D8000884207D01C492068884203D01B4920680C
:104D9000884201D1012000E0002090B100BF2068CE
:104DA000006A41F21111084050B92068006A891068
:104DB000084028B92068406C20F40040216848640D
:104DC00000BF00BF2068006A41F21111084050B9CD
:104DD0002068006A8910084028B92068006820F01F
:104DE00001002168086000BF012084F8390000201C
:104DF00030BD0000002C0140004001400044014053
:104E000010B504460CB9012010BDA06900B100E046
:104E100000BF94F8690028B9002084F86800204693
:104E200000F02AF8242084F869002068006820F047
:104E3000010021680860204600F04CFE012800D1E6
:104E4000E2E7606A10B1204600F08EFD20684068FD
:104E500020F49040216848602068806820F02A0093
:104E6000216888602068006840F0010021680860BF
:104E7000204600F0F5FDC7E7704730B5036891FAAA
:104E8000A1F4B4FA84F465000324AC40A34391FA7E
:104E9000A1F4B4FA84F4640002FA04F42343036036
:104EA00030BD10B543688B4301FB02F423434360DC
:104EB00010BD30B5C36891FAA1F4B4FA84F465006A
:104EC0000324AC40A34391FAA1F4B4FA84F464003F
:104ED00002FA04F42343C36030BD2DE9F0410546D6
:104EE00005F12800FBF71DFB074617B90020BDE8B8
:104EF000F081EC6A07E00121A01CFBF79DFA064651
:104F000006B902E0A468002CF5D100BF2046EEE708
:104F10002DE9F04105460C46286BA0B12E6B002709
:104F200001E0374676681EB1F078E1788842F8DB18
:104F30006660A7600EB1B46000E0EC620FB17C6007
:104F400006E02C6304E000206060A060EC622C634B
:104F500005F12800FBF7B1FABDE8F0814A681AB103
:104F6000D1E901329A6001E08A68C2628A681AB1A6
:104F7000D1E901235A6001E04A68026370470000EA
:104F80002DE9F04104460E46002700257348C0680D
:104F900000F00300C0B17148C06800F00300216850
:104FA00088420FD1206868B16C48C06800F070007A
:104FB000702191FAA1F1B1FA81F1C840401C6168F9
:104FC000884238D0012536E02068012804D0022824
:104FD00009D003281AD10DE06048006800F00200F3
:104FE00000B9012514E05D48006800F4806000B954
:104FF00001250DE05948006800F4003028B95748F1
:10500000006800F4802000B9012501E0012500BFFF
:1050100000BF85B9D4E90010401E702292FAA2F2B6
:10502000B2FA82F2904008434C49C96821F07301FA
:1050300008434A49C860002D76D14848006820F0EE
:10504000806046490860FEF7E5FA074606E0FEF78D
:10505000E1FAC01B022801D9032505E03F4800689A
:1050600000F000600028F2D100BF002D72D1C6B957
:105070004FF4FE4191FAA1F1B1FA81F1A0688840A4
:105080004FF0784292FAA2F2B2FA82F2E1689140CD
:10509000084332490969324A114008432F490861DF
:1050A00038E0012E1BD14FF4FE4191FAA1F1B1FA83
:1050B00081F1A068884001222169C2EB51014FF4BF
:1050C000C00292FAA2F2B2FA82F291400843234956
:1050D0000969244A11400843204908611AE04FF445
:1050E000FE4191FAA1F1B1FA81F1A0688840012254
:1050F0006169C2EB51014FF0C06292FAA2F2B2FABA
:1051000082F29140084315490969174A1140084342
:10511000124908611148006840F080600F4908603A
:10512000FEF778FA074607E014E0FEF773FAC01BB3
:10513000022801D9032505E00848006800F0006056
:105140000028F2D000BF2DB904480069A1690843C6
:10515000024908612846BDE8F081000000100240C5
:10516000FF80FF07FF809FFFFF80FFF9F8B504462F
:10517000002600252348806D00F0805018B1FEF70E
:1051800083FB064616E000BF1E48806D40F080504D
:105190001C4988650846806D00F08050009000BF73
:1051A00000BFFEF771FB06461648806D20F0805068
:1051B00014498865B6F5007F07D1802C10D9A02C42
:1051C00001D902250CE001250AE0802C01D9032534
:1051D00006E0802C01D1022502E0702C00D10125CF
:1051E0000948006820F0070028430749086008467E
:1051F000006800F00700A84201D00120F8BD00209F
:10520000FCE70000001002400020024010B500F052
:1052100007F818B901E000BF00BFFCE710BD0000AF
:1052200000B5ABB0142126A8FCF75BF8442115A803
:10523000FCF757F854216846FCF753F80420159002
:1052400000201F900120179015A8FEF70FFF28B926
:105250002048006840F004001E490860FEF744FB47
:105260001320159001201B900020169018901C9080
:10527000B0201D9002201F90012115A8C1620621B7
:10528000016328214163072181630421C163016413
:10529000FEF7ECFE10B100202BB000BDFEF734FB92
:1052A0004FF4005000904FF0406010906846FEF7B9
:1052B00035FB0F202690032027900020289029906E
:1052C0002A90042126A8FEF7CFFC08B10020E3E7CE
:1052D0000120E1E70010024038B50446002534B152
:1052E000012C15D0022C23D0072C41D130E04FF0F7
:1052F000904500BF2248C06C40F001002049C864BE
:105300000846C06C00F00100009000BF00BF33E011
:105310001C4D00BF1A48C06C40F002001849C86418
:105320000846C06C00F00200009000BF00BF23E000
:10533000154D00BF1248C06C40F004001049C8640D
:105340000846C06C00F00400009000BF00BF13E0EE
:105350000E4D00BF0A48C06C40F080000849C86488
:105360000846C06C00F08000009000BF00BF03E062
:1053700007A001F039FF00BF00BF284638BD00007C
:10538000001002400004004800080048001C0048CB
:1053900050696E6D6170206572726F723A2077721B
:1053A0006F6E6720706F7274206E756D6265722EFD
:1053B00000000000F0B50023002000220224002598
:1053C0000221314E366806F008062EB92E4E94366C
:1053D0003668C6F3032003E02B4E3668C6F303108D
:1053E0002A4E56F82000284EB66806F00C0636B154
:1053F000042E07D0082E09D00C2E35D10AE0244EF9
:10540000306034E0234E224F3E6030E0224E204F89
:105410003E602CE01C4EF66806F003051A4EF66856
:10542000C6F30216711C022D02D0032D08D103E031
:10543000184EB6FBF1F206E0174EB6FBF1F202E0B1
:10544000B0FBF1F200BF00BF0F4EF668C6F30626B0
:1054500072430D4EF668C6F34166761C7400B2FBCB
:10546000F4F60B4F3E6002E0094E306000BF00BF13
:10547000054EB668C6F30316084FBB5D044E36688A
:10548000DE40034F3E60F0BD001002403CA7000824
:10549000740800200024F40000127A0024A70008F9
:1054A0001048006840F470000E4908600E4800681B
:1054B00040F001000C490860002088600846006840
:1054C0000A490840084908608814C860084600680E
:1054D00020F48020086000208861C80301498039D9
:1054E0000860704788ED00E000100240FFFFF6EA18
:1054F00000220268164B984202D0B0F1804F03D1CF
:1055000022F070024B681A43114B984208D0B0F158
:10551000804F05D00F4B984202D00F4B984203D1D9
:1055200022F44072CB681A4302608B68C3620B6836
:105530008362074B984205D0064B984202D0064B37
:10554000984201D10B690363012343617047000056
:10555000002C0140004001400044014030B50023D0
:10556000012404FA01F3046A9C430462046A02FA07
:1055700001F52C43046230BD70B50546AC6A0120CC
:1055800084F83900206AA84202D10120207610E078
:10559000606AA84202D1022020760AE0A06AA842EE
:1055A00002D10420207604E0E06AA84201D108205C
:1055B00020762046FFF711FB0020207670BD70B5E5
:1055C0000446A56A012085F839002846FFF7C8F887
:1055D00070BD000030B5002400220023056A25F0CC
:1055E00001050562026A43688469194D2C4024F064
:1055F00003040D682C4322F002028D682A43154DE6
:10560000A84200D107E0144DA84200D103E0134D99
:10561000A84206D100BF22F00802CD682A4322F03A
:1056200004020C4DA84205D00B4DA84202D00B4DF0
:10563000A84207D123F4807323F400734D692B43F0
:105640008D692B43436084614D684563026230BDC0
:105650008FFFFEFF002C014000400140004401404C
:1056600030B5002400220023056A25F010050562EC
:10567000026A436884691C4D2C4024F440740D6810
:1056800044EA052422F020028D6842EA0512174DF3
:10569000A84200D107E0164DA84200D100BF154D29
:1056A000A84207D106E022F08002CD6842EA051246
:1056B00022F040020D4DA84205D00D4DA84202D067
:1056C0000C4DA84209D123F4806323F400634D6993
:1056D00043EA85038D6943EA8503436084614D682D
:1056E0008563026230BD0000FF8FFFFE002C014089
:1056F000004001400044014030B500240022002356
:10570000056A25F480750562026A4368C4691B4D09
:105710002C4024F003040D682C4322F400728D68A1
:1057200042EA0522164DA84200D107E0154DA842D5
:1057300000D100BF144DA84207D106E022F4006258
:10574000CD6842EA052222F480620D4DA84205D0C0
:105750000C4DA84202D00C4DA84209D123F480532D
:1057600023F400534D6943EA05138D6943EA051399
:105770004360C4614D68C563026230BD8FFFFEFFA8
:10578000002C0140004001400044014030B500229F
:1057900000230024056A25F480550562036A4468E5
:1057A000C269104D2A4022F440720D6842EA052277
:1057B00023F400538D6843EA05330B4DA84205D00E
:1057C0000A4DA84202D00A4DA84204D124F48044D4
:1057D0004D6944EA85144460C2614D680564036202
:1057E00030BD0000FF8FFFFE002C01400040014053
:1057F0000044014030B5002400220023056A25F44E
:1058000080350562026A4368446D0E4D2C400D6878
:105810002C4322F400320D8942EA05420A4DA84287
:1058200005D00A4DA84202D0094DA84204D123F464
:1058300080334D6943EA0523436044654D688565BF
:10584000026230BD8FFFFEFF002C0140004001408E
:105850000044014030B5002400220023056A25F4ED
:1058600080150562026A4368446D0F4D2C400D6837
:1058700044EA052422F400120D8942EA05520B4D38
:10588000A84205D00A4DA84202D00A4DA84204D130
:1058900023F480234D6943EA8523436044654D68C2
:1058A000C565026230BD0000FF8FFFFE002C014085
:1058B00000400140004401402DE9F04107460E46FA
:1058C000154605F0020080B905F0010030B13146FF
:1058D00007F12800FAF721FF044615E0314607F1E9
:1058E0002800FAF72DFF04460EE0BC6A05F001001F
:1058F00018B104EA0600B04205D105F0010018B95C
:1059000004EA060000B900242046BDE8F08100004A
:1059100030B5024600230D4CE06C03E00469091B1E
:105920000346C06810B104698C42F7D911619360D5
:10593000D06020B104691569641B046182600BB1F9
:10594000DA6001E0014CE26430BD0000180900207B
:10595000C16811B1D0E902129160024AC168D164F4
:10596000704700001809002090F8241001F0010190
:1059700039B10168496821F40031826A1143026833
:10598000516090F8241001F00201022907D101684A
:10599000496821F48031C26A11430268516090F86D
:1059A000241001F00401042907D10168496821F499
:1059B0008021026B11430268516090F8241001F0BD
:1059C0000801082907D10168496821F40041426BA8
:1059D00011430268516090F8241001F01001102961
:1059E00007D10168896821F48051826B11430268F4
:1059F000916090F8241001F02001202907D101685E
:105A0000896821F40051C26B11430268916090F8DB
:105A1000241001F04001402913D10168496821F4A4
:105A20008011026C114302685160016CB1F5801F56
:105A300007D10168496821F4C001426C1143026832
:105A4000516090F8241001F08001802907D101688D
:105A5000496821F40021826C11430268516070474B
:105A600038B5044600250020E066FDF7D3FD054665
:105A70002068006800F0080008280CD16FF07E4014
:105A80002B4600224FF400110090204600F00DFA42
:105A900008B1032038BD2068006800F00400042825
:105AA0000CD16FF07E402B4600224FF48001009015
:105AB000204600F0FAF908B10320EBE7202084F833
:105AC000690084F86A0000BF002084F8680000BF05
:105AD00000BFDFE72DE9F05F044600251026A94648
