:020000040800F2
:1000000000C00020F90800080109000803090008E1
:100010000509000807090008090900080000000098
:10002000000000000000000000000000350800088B
:100030000D09000800000000C1080008D1080008F0
:100040001309000813090008130900081309000820
:100050001309000813090008130900081309000810
:100060001309000813090008130900081309000800
:10007000513000086930000813090008130900080E
:10008000130900081309000813090008413000088B
:100090002130000813090008313000081309000856
:1000A00013090008130900081309000813090008C0
:1000B00013090008000000000000000013090008F8
:1000C00013090008000000000000000013090008E8
:1000D00000000000130900081309000800000000D8
:1000E00013090008130900080000000000000000C8
:1000F0000000000000000000000000000000000000
:1001000000000000000000000000000013090008CB
:100110000000000000000000130900081309000897
:1001200081300008993000081309000813090008FD
:10013000130900080000000000000000000000009B
:10014000130900081309000813090008130900081F
:10015000130900081309000813090008130900080F
:100160001309000813090008130900080000000023
:100170001309000813090008000000000000000037
:1001800013090008130900081309000800F002F819
:1001900007F098F80AA090E8000C82448344AAF182
:1001A0000107DA4501D107F08DF8AFF2090EBAE880
:1001B0000F0013F0010F18BFFB1A43F0010318479B
:1001C00068BE000088BE00000A4410F8014B14F01D
:1001D0000F0508BF10F8015B240908BF10F8014B98
:1001E0006D1E05D010F8013B6D1E01F8013BF9D1E1
:1001F000641E03D0641E01F8015BFBD19142E4D37D
:10020000704700000023002400250026103A28BF74
:1002100078C1FBD8520728BF30C148BF0B60704778
:100220006E2901F0EA81702900F0698566290BF0DA
:100230005E8265290BF05B8267290BF05882612989
:100240000BF0578203681B0A28BF41F0800169291F
:1002500000F0DA84642900F0D784752900F0D48492
:100260006F2901F0DD82782900F03585E92901F058
:100270007782E42901F07482F52901F07182EF2977
:1002800001F0DA82F82900F034850368DB0928BF21
:1002900041F08001632901F0F481732901F0F981B3
:1002A000E32902F02481F32902F02981002070471C
:1002B0001FB50BF017FA9DE8030001F0FBF801F001
:1002C000DCF80400002000210AF042FF401C6060BE
:1002D000002000210AF052FFE06001F025FC01F04F
:1002E0009FF81FBD0246D2E84F0FC2E8431F03B17B
:1002F000F9E77047024652E8000F40EA010042E881
:10030000000303B1F7E7704710B5024652E8000F4B
:1003100020EA010442E8004303B1F7E710BD10B53D
:10032000024652E8000F00EA01048C4203D0BFF3FA
:100330002F8F002010BD20EA010442E8004303B1E2
:10034000EFE710BD10B5024652E8000F084203D196
:10035000BFF32F8F002010BD20EA010442E80043C4
:1003600003B1F1E710BD024652E8000F411C42E81C
:10037000001303B1F8E7704710B5024652E8000FCA
:10038000814202D8BFF32F8F10BD441C42E80043C6
:1003900003B1F3E710BD10B50246D2E85F0F81420A
:1003A00002D8BFF32F8F10BD441CC2E8534F03B1D6
:1003B000F3E710BD10B50246D2E85F0F441CA1421E
:1003C00000D80024C2E8534F03B1F5E710BD024640
:1003D00052E8000F10B9BFF32F8F7047411E42E85B
:1003E000001303B1F4E770470246D2E85F0F10B97B
:1003F000BFF32F8F7047411EC2E8531F03B1F4E7CC
:100400007047024652E8000F10B9BFF32F8F7047B4
:10041000016842E8001303B1F4E7704702680A601C
:10042000BFF35F8F50E8002F0B689342F6D140E88E
:10043000001303B1F2E770470246D2E84F0FC2E85B
:10044000431F03B1F9E77047024652E8000F40EA44
:10045000010042E8000303B1F7E7704710B5024618
:1004600052E8000F20EA010442E8004303B1F7E735
:1004700010BD10B5024652E8000F00EA01048C429C
:1004800003D0BFF32F8F002010BD20EA010442E803
:10049000004303B1EFE710BD10B5024652E8000F6C
:1004A000084203D1BFF32F8F002010BD20EA0104C2
:1004B00042E8004303B1F1E710BD024652E8000FE5
:1004C000411C42E8001303B1F8E7704710B502463B
:1004D00052E8000F814202D8BFF32F8F10BD441C99
:1004E00042E8004303B1F3E710BD10B50246D2E87D
:1004F0005F0F814202D8BFF32F8F10BD441CC2E8AA
:10050000534F03B1F3E710BD10B50246D2E85F0FB9
:10051000441CA14200D80024C2E8534F03B1F5E7C0
:1005200010BD024652E8000F10B9BFF32F8F70477D
:10053000411E42E8001303B1F4E770470246D2E8D7
:100540005F0F10B9BFF32F8F7047411EC2E8531FD2
:1005500003B1F4E77047024652E8000F10B9BFF349
:100560002F8F7047016842E8001303B1F4E770472A
:1005700002680A60BFF35F8F50E8002F0B68934258
:10058000F6D140E8001303B1F2E770470246D2E823
:100590004F0FC2E8431F03B1F9E77047024652E824
:1005A000000F40EA010042E8000303B1F7E770479B
:1005B00010B5024652E8000F20EA010442E8004369
:1005C00003B1F7E710BD10B5024652E8000F00EA8C
:1005D00001048C4203D0BFF32F8F002010BD20EA0E
:1005E000010442E8004303B1EFE710BD10B5024635
:1005F00052E8000F084203D1BFF32F8F002010BD37
:1006000020EA010442E8004303B1F1E710BD0246CD
:1006100052E8000F411C42E8001303B1F8E77047AD
:1006200010B5024652E8000F814202D8BFF32F8F67
:1006300010BD441C42E8004303B1F3E710BD10B500
:100640000246D2E85F0F814202D8BFF32F8F10BD60
:10065000441CC2E8534F03B1F3E710BD10B5024686
:10066000D2E85F0F441CA14200D80024C2E8534FD7
:1006700003B1F5E710BD024652E8000F10B9BFF311
:100680002F8F7047411E42E8001303B1F4E7704713
:100690000246D2E85F0F10B9BFF32F8F7047411E9B
:1006A000C2E8531F03B1F4E77047024652E8000F57
:1006B00010B9BFF32F8F7047016842E8001303B1F0
:1006C000F4E7704702680A60BFF35F8F50E8002FBD
:1006D0000B689342F6D140E8001303B1F2E770478C
:1006E0000246D2E84F0FC2E8431F03B1F9E7704753
:1006F000024652E8000F40EA010042E8000303B15D
:10070000F7E7704710B5024652E8000F20EA0104EF
:1007100042E8004303B1F7E710BD10B5024652E8C6
:10072000000F00EA01048C4203D0BFF32F8F00209A
:1007300010BD20EA010442E8004303B1EFE710BD19
:1007400010B5024652E8000F084203D1BFF32F8FC5
:10075000002010BD20EA010442E8004303B1F1E7A4
:1007600010BD024652E8000F411C42E8001303B1DD
:10077000F8E7704710B5024652E8000F814202D8F0
:10078000BFF32F8F10BD441C42E8004303B1F3E7D1
:1007900010BD10B50246D2E85F0F814202D8BFF308
:1007A0002F8F10BD441CC2E8534F03B1F3E710BDB7
:1007B00010B50246D2E85F0F441CA14200D80024C5
:1007C000C2E8534F03B1F5E710BD024652E8000FEF
:1007D00010B9BFF32F8F7047411E42E8001303B1D9
:1007E000F4E770470246D2E85F0F10B9BFF32F8FCE
:1007F0007047411EC2E8531F03B1F4E77047024639
:1008000052E8000F10B9BFF32F8F7047016842E81C
:10081000001303B1F4E7704702680A60BFF35F8F0B
:1008200050E8002F0B689342F6D140E8001303B163
:10083000F2E77047EFF30980816911F8021C91BB60
:1008400001B590E80F10E047BDE800508CE80300C8
:10085000234B93E80600914208BF704741B91EF050
:10086000100F10D11F49086820F0010008600AE04D
:100870002CE9F00F1EF0100F08BF2CED108AC1F804
:1008800038C081F822E01A6092F82210906B61F073
:10089000FF0E1EF0100F08BF00F028B8B0E8F00FF0
:1008A00080F30988704710B50F4A1368994206D83B
:1008B00052F821400FC8A047EFF30984206010BD13
:1008C00010B508F037F8BDE81040EFF3098CBFE72A
:1008D00010B508F0FBFABDE81040EFF3098CB7E75C
:1008E000DC08002034EF00E044BB0008B0EC088ACC
:1008F000B0EC08CAFFF7D2BF064880470648004759
:10090000FEE7FEE7FEE7FEE7FEE7FEE7FEE7FEE7BF
:10091000FEE7FEE7A55C00088D01000810B500F0B9
:10092000ACFD001D10BD00BF29A8000006F018BDD9
:100930000B3020F0070070472DE9F04117460E46B6
:100940000446FFF7F5FFA042054633D9002F1CBF30
:1009500006F10C0006F071FD30467468F4B12168B0
:10096000A94217D305F1080291423CBF616841607A
:1009700007D3626861194A602268521B0A604160AD
:100980002560002F1CBF06F10C0006F0B1FD201DF4
:10099000BDE8F08120466468002CE0D1294630464D
:1009A00000F074FD0028D7D1002F1CBF06F10C0009
:1009B00006F09EFD0020BDE8F08110B5044600F071
:1009C00057FD01682046BDE810400122B4E770B52C
:1009D00016460D46041F002808BF70BD002E1CBF20
:1009E00005F10C0006F029FD2B465868002818BFB9
:1009F000A04238BF0346F8D31968CA18A24218BFEC
:100A00005C6003D122681C461144196021680A19F0
:100A1000824218BF606004D1426862600068084486
:100A20002060002E1CBF05F10C0006F061FD70BDBA
:100A300010B5044600F01CFD01682046BDE81040DA
:100A40000122C4E753EA020C00F069802DE9F04B63
:100A50004FF00006002B1FBFB3FA83F503FA05F42D
:100A600024FA05F65E4012BF1643B2FA82F502FA86
:100A700005F4C5F120051EBF22FA05FC44EA0C046A
:100A8000203556EA044C4FEA144418BF641C4FF05A
:100A900000084FF00009904271EB030C39D3002994
:100AA00019BFB1FA81F701FA07F6B0FA80F700FA38
:100AB00007F6C7F120071EBF20FA07FC46EA0C061E
:100AC0002037B6FBF4FCA7EB0507103F07F01F0B20
:100AD000CBF120060CFA0BFB2CFA06F644BFB3460A
:100AE0000026202FA4BF5E464FF0000B5BEA060CE9
:100AF00008BF4FF0010B19EB0B09ABFB027C48EB75
:100B00000608C01B06FB02CC0BFB03CC71EB0C01EF
:100B1000C1E70B46024641464846BDE8F08B13B597
:100B20004FF000004FF00001AFF30080BDE81C4023
:100B3000704700007CB51D4616460C00009001D0A1
:100B40002044401E074B7B442A46694601903046AC
:100B500000F06DFD05461CB10020694600F07AFDED
:100B600028467CBD150B000070B5044685690068F9
:100B7000C10601D5302600E02026C00707D070BD91
:100B8000D4E9012130469047206A401C20626D1E46
:100B9000F6D570BD70B5044685690078C00707D1E9
:100BA00070BDD4E9012120209047206A401C2062BA
:100BB0006D1EF6D570BD70B50C460546012A05D0F0
:100BC0002878800600D5EA69002302E0012305E0C9
:100BD0005B1C934202D2E05C0028F9D1A869E618B8
:100BE000C01AA861286A184428622846FFF7BCFF8B
:100BF00004E0D5E9012114F8010B9047B442F8D381
:100C00002846FFF7C7FF70BD2DE9F04106460024D6
:100C100010687529314616A510D000F083FC002815
:100C200002DA404213A507E031688A0701D512A510
:100C300002E0490704D511A5012401E000F07BFC86
:100C400000210A2206F1240709E0B0FBF2FCB0FB08
:100C5000F2F302FB1C00303078541846491C00287F
:100C6000F3D123462A463046BDE8F04100F06CBC83
:100C7000000000002D0000002B00000020000000FC
:100C8000F0B40D460188090502D5214C7C4402E0F0
:100C90001F4C7C440E34002100F1240608E002F0D1
:100CA0000F071209E75D42EA03721B097754491CDA
:100CB00052EA0307F3D102780023120704D5702DFE
:100CC00006D009B1022311342246F0BC00F03CBC2E
:100CD00001231034F8E770B504460D46214610682C
:100CE00000F029FC024629462046BDE8704000235A
:100CF000C6E7D21D22F00703D3E90023C0E703684B
:100D0000126843F0200303600823C3610023B7E7A0
:100D100033AF00002DE9F05F894604464FF0000A2A
:100D2000DFF874B1FB44C0F820A02046E168884792
:100D3000002874D0252806D0D4E901219047206AE4
:100D4000401C2062F1E700265F462046E1688847A4
:100D50002028054607DB312D05D2781910F8200C24
:100D600008B10643F1E7B00701D526F00406C4F840
:100D70001CA00027C4F818A02A2D09D0284606F088
:100D800055FB38B304EB8708303DC8F8185019E01C
:100D900059F8041B204604EB87029161E1688847FB
:100DA000012F054618D1E069002820DA26F0200638
:100DB0001DE0D8F8180000EB800005EB400030384B
:100DC000C8F818002046E1688847054606F02EFB63
:100DD0000028EED1012F0AD02E2D08D12046E1683F
:100DE00088477F1C0546022F46F02006C4DBA06919
:100DF000002803DA404246F00106A061F00701D066
:100E000026F010066C2D0BD0682D09D04C2D39D052
:100E10006A2D35D0742D35D07A2D33D016E038E0D8
:100E2000E1682F4620468847B842054609D16C2F15
:100E300026D04FF48060E168064320468847054687
:100E400004E06C2F1AD04FF4807006430DB3A5F167
:100E50004100192802D8203546F400664A46294642
:100E6000204626604E46FFF7DBF980B101280BD003
:100E7000F61D26F0070000F1080956E74020E4E7D8
:100E80008020D8E70020D6E706F104094DE7284680
:100E900052E7206A00F002B8C3AE000030BCBDE8E3
:100EA000C09F70B50646FFF741FD04680546304611
:100EB0000A22002100F0D8FC2C6070BD2DE9F0471B
:100EC00004464FF000094FF0FF37C568D4E90486A7
:100ED000A80707D0204600F0AFFD304606F016FB0D
:100EE000002802DA3846BDE8F087280502D54046DA
:100EF000FFF79EFD4C21204600F0FBF9206D20F00D
:100F0000010020654846EEE72DE9F041044600F176
:100F10004C07384606F091FAE068810712D0800647
:100F200001D5A66A04E0A169606808442169461AEF
:100F3000204600F081FD002205463146204600F0A3
:100F4000CBFC00E00025384606F0D2FA2846BDE882
:100F5000F0812DE9F04118B1BDE8F041FFF7D4BFB1
:100F60000B4E0025304606F068FA0A4C6F1E07E06B
:100F70002046FFF7C9FF00B13D46206D20F0010477
:100F8000002CF5D1304606F0B3FA2846DFE7000022
:100F9000B8080020C02900202DE9F04716468846F1
:100FA000814602F14C07384606F047FA3046FFF713
:100FB00085FF18F8010B61280AD0722802D0772823
:100FC0003FD102E00125002405E00225042402E0CF
:100FD000082448F2020518F8010B2B2806D06228D5
:100FE00009D018F8010C74280AD00BE045F003056D
:100FF00044F00204EFE745F0040544F00104EAE799
:1010000044F010044846214606F0F4FA411C18D07A
:101010000021316171604FF40071F560F161706120
:10102000200704D530460222002100F055FC306D27
:1010300040F001003065384606F05AFA3046BDE807
:10104000F0870026F7E72DE9F04115460E460746E2
:10105000204C204606F0F1F92A4631463846FFF783
:101060009BFF0546204606F043FA2846BDE8F0817E
:101070002DE9F0410E468046164D284606F0DDF972
:10108000154C206DC10704D0410804D020F00104A4
:10109000F7E7224612E05420FFF78FFC070017D035
:1010A000206D47F00101084354212065384600F0C7
:1010B00020F907F14C0006F0D1F93A463146404696
:1010C000FFF76AFF0446284606F012FA2046CDE7ED
:1010D0000024F8E7B8080020C029002010B5431C00
:1010E00002E010F8011B71B18107FAD14FF0013213
:1010F00002C88C1A8C4314EAC211F9D0C01A0A062D
:1011000003D0C01E10BDC01A10BD0A0401D0801E3D
:1011100010BD0902FCD0401E10BD40EA010370B5AD
:101120009B072ED14FF00136042A2AD308C810C9D4
:101130009D1B9D43121F15EAC61517D0D8B2E1B208
:10114000401A50EA056110D198B2A1B2401A50EA93
:1011500005410AD123F07F4024F07F41401A50EA34
:10116000052102D1180EA0EB146070BDA342DBD0A4
:1011700018BA21BA884201D9012070BD4FF0FF3062
:1011800070BD0AB9002070BD10F8013B11F8014B89
:1011900063B1A3420AD1521E08D010F8013B11F8E6
:1011A000014B1BB1A34201D1521EEDD1181B70BDE2
:1011B000032A40F2308010F0030C00F0158011F883
:1011C000013BBCF1020F624498BF11F801CB00F85B
:1011D000013B38BF11F8013BA2F1040298BF00F8AF
:1011E00001CB38BF00F8013B11F0030300F025806C
:1011F000083AC0F0088051F8043B083A51F804CB93
:10120000A0E80810F5E7121D5CBF51F8043B40F858
:10121000043BAFF30080D20724BF11F8013B11F863
:1012200001CB48BF11F8012B24BF00F8013B00F8A7
:1012300001CB48BF00F8012B704710B5203AC0F031
:101240000B80B1E81850203AA0E81850B1E81850C7
:10125000A0E81850BFF4F5AF5FEA027C24BFB1E804
:101260001850A0E8185044BF18C918C0BDE8104075
:101270005FEA827C24BF51F8043B40F8043B08BF7E
:101280007047D20728BF31F8023B48BF11F8012B45
:1012900028BF20F8023B48BF00F8012B704702F03E
:1012A000FF0343EA032242EA024200F002B84FF091
:1012B00000020429C0F0128010F0030C00F01B8023
:1012C000CCF1040CBCF1020F18BF00F8012BA8BF31
:1012D00020F8022BA1EB0C0100F00DB85FEAC17CF5
:1012E00024BF00F8012B00F8012B48BF00F8012BA8
:1012F00070474FF0000200B51346944696462039D9
:1013000022BFA0E80C50A0E80C50B1F12001BFF4BE
:10131000F7AF090728BFA0E80C5048BF0CC05DF824
:1013200004EB890028BF40F8042B08BF704748BF72
:1013300020F8022B11F0804F18BF00F8012B7047E6
:1013400010B5044610F0030F08BF11F0030F40F072
:1013500015804FF0013E121FC0F20E8051F8043B81
:10136000A3EB0E0C2CEA030C1CEACE1C08BF40F8C1
:10137000043BF0D0A1F1040102F10402521E08DB8B
:1013800011F8013B002B00F8013BF7D11146FFF7A4
:101390008EFF204610BD00004FF0013C50F8042B9A
:1013A00051F8043B9A4221D1A2EB0C03934313EA78
:1013B000CC1317D150F8042B51F8043B9A4215D1A5
:1013C000A2EB0C03934313EACC130BD150F8042B7C
:1013D00051F8043B9A4209D1A2EB0C03934313EA60
:1013E000CC13DBD04FF00000704700BFD01A01BA19
:1013F000B1FA81F101F0180122FA01F0CB40C1F1FC
:101400002001DBB2C0B2C01A2CFA01F3D11A914309
:1014100011EAC311E6D1704770477047704700006A
:1014200070B5064C7C44064D7D4403E020682044A2
:101430008047241DAC42F9D170BD00004CAD0000C6
:1014400054AD00002DE9F04117460E46054633B174
:1014500007FB0354E41B2046B047A542FAD1A5F18F
:101460000800BDE8F081000000487047BC2A002059
:1014700010B5FFF7F9FF083010BD10B5FFF7F4FF06
:10148000203010BD704770477047704738B504462C
:101490000A4600206946AFF30080002808BF38BD27
:1014A00002460099204600F023FC012038BD0120AF
:1014B00001F0C8B8F8B5AFF30080054600200C462F
:1014C000102000BF0646A819A0420DD93246694631
:1014D0000020AFF30080070008BF01F0B3F80098C8
:1014E000A04218BF0546C419FFF7C2FF05600746B2
:1014F000F01D20F007004619284600F00AF8B44213
:1015000008BFF8BDA21B31463868BDE8F84000F0BE
:10151000EFBB00210160C0E901100C3005F09EBF57
:101520001020704709684A0501D540B27047C905C7
:10153000FCD500B2704709684A0501D5C0B27047B2
:10154000C905FCD580B270472DE9F0470D46994694
:101550009246044600F124080168880604D5E06933
:1015600021F01001216000E00120A84201DD471BAD
:1015700000E00027A1697A1902EB0900081AA061AE
:101580002078C00602D42046FFF7EEFA002608E0D5
:10159000D4E901211AF806009047206A401C761C05
:1015A00020624E45F4DB2078C0060AD52046FFF7BE
:1015B000DBFA06E0D4E9012130209047206A401C84
:1015C0002062381EA7F10107F4DC07E0D4E901210D
:1015D00018F805009047206A401C2062281EA5F1DB
:1015E0000105F3DC2046FFF7D5FA2078000602D586
:1015F0000220BDE8F0870120FBE711680268006A5D
:10160000530501D508700AE0D30501D5088006E02E
:10161000130603D5C217C1E9000200E008600120EB
:101620007047000001694A1C02610878704700B5E4
:101630008FB0CDE901310021059105497944CDE90B
:10164000031011466846FFF765FB0FB000BD0000B0
:10165000E5FFFFFF0A6802F8010B0A607047D1E955
:1016600000239A4202D2531C0B601070704710B5D1
:10167000436913B1AFF3008001E0FFF79CFA01204A
:1016800010BD127800F124010A7000224A70012274
:10169000EDE711684FF0FF32E9E700002DE9FF5F49
:1016A00015468A460446DFF8AC80F8440027D8E99E
:1016B00000103E46CDE9001010E03AF816106A46D8
:1016C00002A800F093FF411C07D02178890603D5BA
:1016D000E269391891420DD80744761C20788006BB
:1016E00002D5E069B84205DDAE42E6DB3AF8160005
:1016F0000028E2D1A069C01BA0612046FFF734FAA0
:10170000D8E90010CDE90010002017E03AF81810D1
:101710006A4602A800F06AFFB0F1FF3F81460BD095
:1017200000250DF1080B05E0D4E901211BF80500A7
:1017300090476D1C4D45F7D308F10100B04280463B
:10174000E4DB206A384420622046FFF723FA00F0E9
:1017500003B800004EA500003FBCBDE8C09F0000DC
:101760002DE9F0418046D21D22F007020025D2E982
:101770000002F52915A614D0011E72F1000106DA47
:101780000023D0EB030063EB020211A608E0D8F8B7
:1017900000108B0701D50FA602E0490701D50EA660
:1017A00001251146002408F1240704E000F0BFFAE7
:1017B00030323A55641C50EA0102F7D12B463246CA
:1017C00021464046BDE8F041FFF7BEBE00000000E4
:1017D0002D0000002B0000002000000030B400218C
:1017E00000F1240408E002F00705D208303542EA8F
:1017F0004372DB086554491C52EA0305F3D10468BF
:10180000002310A2250708D504F020040C4304D0BF
:10181000C46901230CA2641EC46130BCFFF794BEEE
:1018200010B5044621461068FFF785FE02462046A3
:10183000BDE810400023D1E7D21D22F00701D1E915
:101840000023CBE700000000300000003A2800D25F
:10185000303820F02002412A01D3A2F1370088421B
:1018600001D34FF0FF3070472DE9F04791460F4606
:1018700080460446002614F8015B2DB1FFF74EF8B0
:101880000068405DC007F6D12B2D02D02D2D18D059
:10189000641E4A463946204600F035FE27B13968B5
:1018A000A14201D1C7F800804FF0020471050BD5A9
:1018B0004042002803DDFFF739F80460A007BDE8C7
:1018C000F08746F48066E4E70028F8DAFFF72EF8A0
:1018D00004606FF00040F2E72DE9F041044616463F
:1018E0000D464769007B80072ED0384605F060FE24
:1018F00050BB3EB3012E02D0022E25D104E020467B
:1019000000F053FE05441DE0384605F027FEE1686F
:10191000002841F01001E16005DA204600F058F897
:101920000120BDE8F081C9030BD56268E16A9142EC
:1019300000D81146A26911442269891A814200DD4A
:1019400008460544002D01DA0220EAE7E16A6068F2
:10195000E268814206D29103E06203D522F40031AD
:1019600041F01002A6690027AE4213DCE16A814211
:1019700001D90B4600E0034603EB060C2369ACEBF0
:10198000030CAC4506DD814201D98C4600E084465B
:101990009C4505D1A760276042F02000A5620DE0BC
:1019A000AD1BE669AE1B8142A66000D90846C01A8D
:1019B000281A20605819606022F02000034908406E
:1019C000E060002084F84870ABE70000BFCFD7FF8D
:1019D000C16821F4001141F08001C16000218160E3
:1019E000016070472DE9F047814614460E464FF0DE
:1019F000FF383248D5685769054209D03846A16991
:101A000005F0BCFE002811DB2C48C0430540E56012
:101A10002B4632464946384605F0E2FEA16920F0E1
:101A20000042B21A11440028A16103D02046FFF7FA
:101A3000CFFF4046BDE8F08770B504460569C06A2F
:101A40006168884200D80846E16821F42011E1600D
:101A5000C90312D5A84208D02246411B2846FFF7E9
:101A6000C1FF10B14FF0FF3070BD0020E562C4E946
:101A70000150E06820F48030E060002070BD10B5B7
:101A80000446C06820F02000E060A16AA069884296
:101A90000DD02046FFF7D0FFE06820F4405040F022
:101AA0001000E060A06AA0612069E062606044F21A
:101AB0004001E0688843E06010BD000010000200B3
:101AC0002DE9F04704461E4690460D46C7684C3047
:101AD000814605F0B2FCB80714D0780212D4404613
:101AE000B8F5807F09D0B0F5007F06D0B8F5806FDB
:101AF00008D1012604F1240506E0701E6FF07F4135
:101B0000884201D3012409E02561E6616560E0684F
:101B100020F4706040EA0800E0600024484605F0C8
:101B2000E7FC2046BDE8F08710B565485421FFF773
:101B3000E0FB64485421FFF7DCFB63485421FFF7C6
:101B4000D8FB62485E49624A624B01605D481060A2
:101B50005D4A1A60431C0B65511C0165012010652C
:101B600057484C3005F07AFC56484C3005F076FC6E
:101B700055484C3005F072FC574805F06FFC58484A
:101B80004F4A56A17844FFF75EFA20B9544878448A
:101B90000A3800F050FD54484A4A52A17844FFF7F1
:101BA00052FA20B9504878440A3800F044FD4F48B2
:101BB000454A4CA17844FFF746FA20B94B4878448F
:101BC0000A3800F038FD40233D48DC000021224661
:101BD000FFF776FF20B142487844543800F02BFDDF
:101BE0003848224640230021FFF76AFF20B13E48D3
:101BF0007844543800F01FFD33482246102300215A
:101C0000FFF75EFF002806D038487844BDE8104052
:101C1000563800F010BD10BD2B482DE9F041006D85
:101C20002D4E20F00104304605F007FC244D4C35C4
:101C3000284605F002FC2248FFF740F9284605F047
:101C400057FC284605F004FC1E4D4C35284605F08F
:101C5000F4FB1C48FFF732F9284605F049FC2846FA
:101C600005F0F6FB184D4C35284605F0E6FB164806
:101C7000FFF724F9284605F03BFC284605F0E8FB71
:101C800014E0206D20F0010504F14C00074605F03A
:101C9000D4FB2046FFF712F9384605F029FC3846F8
:101CA00005F0D6FB2046FEF7C3FE2C46002CE8D1FB
:101CB000304605F01DFC084805F0CAFBBDE8F08180
:101CC000C0290020142A0020682A0020AC08002027
:101CD000B0080020B4080020B808002072000000FE
:101CE000719B000077000000609B0000509B00008B
:101CF00030B404468C464368002B18BF634538BF98
:101D00001846F8D303681844604507D0C81C20F073
:101D1000070000F1040CACEB0100121A2146CCF8CC
:101D2000002030BC00220CF10400FEF750BE30B59C
:101D3000B0F10A024FEA900E71F100034EEA817E83
:101D4000B0EB0E0061EB91014FEA101E4EEA017EEE
:101D500010EB0E0041EB11114FEA102E4EEA016E0E
:101D600010EB0E0041EB11214FEA104E4EEA014EEE
:101D700010EB0E0041EB1141401841F100014FEA18
:101D8000D00040EA41704FEAD10110EB80054FEAE4
:101D9000810444EA907444EB01046D1944EB04049B
:101DA000521BA3414FF0000348BF0A3200D530BD9B
:101DB000401C41F1000130BD70472DE9FF4F0C463A
:101DC0001E464FF0FF378BB0D2E90001DDF860808E
:101DD0000A908A46C1F30A5505B93D4600210846D6
:101DE0004FF00000BAF1000F00F4400005DA00EBFC
:101DF00080004FF4400101EA50004FEA9059B9F1D8
:101E0000010F00DDB9460A9850EA4A000ED044F6A8
:101E10001050A5F2FF3545432F14B8F1000F1ED026
:101E20007542291E1EDDC9F100021CE0B8F1010F48
:101E30004FF0000001D0302103E0F24305E02154CF
:101E4000401CB042FBDB30460022002121540B999C
:101E5000C1F80880C1E900200FB000F0BAB9BD1B7D
:101E60006D1CDEE74A4600DA694206A800F040FC35
:101E700006AB93E8070003AB83E8070050460A99D6
:101E800000F00DFD8DE80700A0F500501F38009010
:101E90000398002D09DD42F21F014A46084403A9B8
:101EA0000390684600F06CFF08E0A0F500504A4639
:101EB0001F3803A90390684600F076FF8DE80700FD
:101EC0000004000C03D04FF0FF30410800E0104642
:101ED000B8F1000F03D00022009215461EE0751ED7
:101EE00005D4FFF724FF303262556D1EF9D5B34695
:101EF0000122084302D000227F1C04E02078302811
:101F000001D100227F1E002A099786D01DE0112DE5
:101F100007DAFFF70CFF303262556D1C50EA010200
:101F2000F5D1084302D00098C8B10EE00021681E28
:101F300005E0235C625C63542254401E491C8142CC
:101F4000F7DBAB46A81B401E0990002004F80B00ED
:101F50000B98099AC0F80880C0E9002B7CE711268D
:101F60004FF0000859E72DE9F04F88460446D21D8E
:101F700022F0070191B0D1E90001CDE90A0105F095
:101F800005F902460B98C00F01D02D2007E020680C
:101F9000810701D52B2002E0202101EAC000032A9D
:101FA000099001D0072A05DB03464146204600F090
:101FB0005FFB0BE12078800601D5E06900E0062098
:101FC000B8F1650F814606D0B8F1660F18D0B8F1A8
:101FD000670F70D131E00020B9F1110F009001DBE3
:101FE000112301E009F101030AAA01A90CA8FFF7D6
:101FF000E4FEDDE90C70002609F10105834647E0A7
:1020000001204B4600904FF000470AAA01A90CA8F6
:10201000FFF7D3FEDDE90DB00C995D46002610B93F
:1020200009F101000D18B9EB050003D4C0F1FF362A
:1020300009F10105A5EB09002BE0B9F1010F01DA67
:102040004FF001090020B9F1110F0090484601DD61
:10205000112300E003460AAA01A90CA8FFF7ADFE70
:10206000DDE90C704D4600268346207800070AD42F
:10207000AB4500DA5D4601A8012D04DD411911F8D8
:10208000011C302907D04F4502DA17F1040F04DA9A
:10209000012082460FE06D1EEEE7002F02DCED1BF3
:1020A0003E4403E0781CA84200DD7D1CB81B00F113
:1020B000010A4FF000472078000703D4AA4501DB4E
:1020C0004FF0FF3A0021B7F1004F0DF143088DF8B2
:1020D000431024D002202B23002F01DA7F422D232E
:1020E0000A21021EA0F1010000DC5FB197FBF1FCA8
:1020F00097FBF1F201FB1C7C17460CF1300C08F841
:1021000001CDEEE7A8F1010003702188090501D592
:10211000452100E06521A0F1010800F8011C0998A3
:102120000FA9A1EB0807FF1D00B10120411901EB28
:10213000EA70A1693844081A401EA0612078C006E0
:1021400002D42046FEF710FD099828B1D4E90121F8
:102150009047206A401C20622078C00622D5204685
:10216000FEF702FD1EE0002E04DBB34502DD01A8F0
:10217000805D00E03020D4E901219047206A401CB6
:102180002062761CAAF101005FEA000A0AD1FFF77B
:1021900074F9C0680168405CD4E901219047206A65
:1021A000401C2062281EA5F10105DCDC07E0D4E913
:1021B000012118F8010B9047206A401C2062381E4C
:1021C000A7F10107F3DC2046FEF7E4FC032011B081
:1021D00043E630BCBDE8C08F2DE9F04F04460D4604
:1021E000D21D22F0070089B0D0E900974846394651
:1021F00004F0CCFF0246F80F01D02D2307E0206841
:10220000810701D52B2302E0202101EAC0038DF8CC
:1022100020300BB1012000E00020032A824601D0CB
:10222000072A04DB2946204600F022FA3FE1207805
:10223000800601D40D2500E0E569C7F30A560D2D8F
:1022400049DA00214FEA175B08464FF00000002FE3
:1022500000F4400007DA00EB80004FF4400100EB8F
:10226000D07001EA60008115012901DD4FF0FF31D6
:1022700000224FEA850CBCF1180F06D31346ACF1CF
:1022800018004FF08052C24003E04FF4801323FA4D
:102290000CF30CF10C0CBCF1200F04D3ACF1200CAE
:1022A00009FA0CF001E007FA0CF000294FF00048A1
:1022B00001DD18B90FE00ED140450CD319EB02092E
:1022C0005F4121B9404502D19F4329EA0209BBEB96
:1022D000175F00D0761C2088000502D57B48784423
:1022E00002E07A487844193808AA302302F80A3004
:1022F000037C0AF10101002E0AF1020A53546A46D6
:1023000002DC4FF0300101E04FF031014FF00108E5
:102310008DF8001002D0A6F2FF3603E059EA47011B
:1023200000D06B4E002D02DC2178090704D54FF058
:1023300002082E218DF80110C44600210BE0C7F3DE
:1023400003433F01C35C491C6D1E02F80830052998
:1023500008F1010801DA002DF1DC00210CE000EBAE
:102360001973491C1B786D1E082902F808304FEAC2
:10237000091908F1010801DA002DF0DC21688B064B
:1023800002D516E0A8F10108E04505DD02EB0803DF
:1023900013F8013C302BF5D0B8F1000F09DD02EB4A
:1023A000080313F8013C2E2B03D1090701D4A8F12F
:1023B0000108002D05DD3E2102F808106D1E08F110
:1023C0000108407C002E02F8080008F1010804DA38
:1023D0002D20764202F8080002E02B2002F80800C7
:1023E0000A214FF47A70864208F101080BDB96FB54
:1023F000F0F3303302F8083096FBF0F308F10108EF
:1024000000FB136601E0642E0CDB642096FBF0F306
:10241000303302F8083096FBF0F308F1010800FBB6
:10242000136601E00A2E06DB96FBF1F0303002F86D
:10243000080008F1010896FBF1F001FB1060303054
:1024400002F80800A16908F1010808EB050202EB97
:102450000A00081AA0612078C00602D42046FEF7C0
:1024600083FB216A08AE01EB0A00206204E0D4E994
:10247000012116F8010B9047BAF1010AF7D2207832
:10248000C00602D52046FEF76FFB6E4609E016F83F
:10249000010B3E280FD0D4E901219047206A401C4F
:1024A0002062B8F10108F2D22046FEF773FB09B0B2
:1024B000032000F00FB8206A2844206203E0D4E92A
:1024C0000121302090476D1EEBD3F8E735990000CD
:1024D00002FCFFFF30BCBDE8C08F10B5436913B1EB
:1024E000AFF3008001E0FFF7D9F8012010BD12889A
:1024F00000F1240182840022C2840122EDE71168E8
:102500004FF0FF32E9E72DE9F05F824615468B4632
:1025100000270AF10104B9460078302801D09DB1A6
:1025200013E014F8010B0127782803D0582801D0B4
:1025300045B10AE00DB1102D07D1002714F8010BA9
:10254000102502E0082500E00A250026B0460EE02E
:1025500005FB080005FB06F101271FFA80F801EBD7
:102560001046B6F5803F00D3B94614F8010B294652
:10257000FFF76CF90028EBDABBF1000F05D00FB1C3
:10258000641E00E05446CBF80040B9F1000F06D0BD
:10259000FEF7CCF902210160C81E00F003B848EA3A
:1025A0000640FAE730BCBDE8C09F10B50146C268DE
:1025B000900703D0900607D5886A0AE0FEF7B6F9BF
:1025C00001210160881E10BD8B69486818440B69A1
:1025D000C01A91F848301BB191F84910401A10BD4B
:1025E0001103FCD50028FADD401E10BD70B516465B
:1025F0000C460546FEF792F9036893F8010101289D
:1026000006D0FF2C0FD8185D68B101202C7070BD6A
:10261000D3F807013246214603F207130344284644
:10262000BDE8704018474FF0FF3070BD002801D062
:1026300000F010B8704710B500F0E2F8BDE81040A7
:10264000FFF7F4BF10B500F0F5F8BDE81040FFF754
:10265000EDBF000001491820ABBEFEE726000200D6
:1026600010B5FEF705FF0068BDE8104000F012B994
:102670002DE9F0411F46044603260168072A01F4AC
:10268000006004DB08B116A505E016A503E008B15B
:1026900015A500E015A521F010002060A069C01E5E
:1026A000A0610FB1401EA0612046FEF75DFA4FB158
:1026B000D4E9012138469047206A401C2062C01CA2
:1026C000206206E0206AFAE7D4E9012115F8010B3F
:1026D0009047761EF8D22046FEF75CFABDE8F081FE
:1026E0004E414E006E616E00494E4600696E6600B6
:1026F0002DE9F047814616468AB0334878440DC824
:102700008DE80D0030487844801C03AC0DC884E887
:102710000D0041F69B300844372190FBF1F290FB0D
:10272000F1F5A5F1800501FB12041B3C02D56442C2
:10273000012000E00020DFF890A080460027FA4446
:10274000AAF1BE0A0DE0E00709D03246684607EB61
:1027500047010AEB810100F027FB8DE807006410B8
:102760007F1C002CEFD1184F7F44AC3F18E0E807E6
:1027700014D007EB04100DF1180A90E80E008AE857
:102780000E00C068F04201D198190890324606A99F
:1027900003A800F009FB03AB83E807006D10641C7D
:1027A000002DE4D132466946B8F1000F03A802D0EB
:1027B00000F0E6FA01E000F0F7FAC9E90001C9F813
:1027C00008200AB0BDE8F087A895000070B505465E
:1027D0000C460A2000E06D1C00F054F835B1287852
:1027E0000028F8D102E0641C00F04CF814B1207805
:1027F0000028F8D1BDE870400A2000F043B800007E
:1028000010B5014602A0FFF7E1FF012010BD000056
:1028100053494752545245443A205265646972659F
:1028200063743A2063616E2774206F70656E3A207E
:102830000000000010B5012805D0002103A0FFF71B
:10284000C5FF012010BD09A1F8E700005349475218
:10285000544D454D3A204F7574206F662068656170
:1028600070206D656D6F7279000000003A20486538
:102870006170206D656D6F727920636F7272757013
:102880007465640008B569468DF800000320ABBE8E
:1028900008BD704710B50C3004F0DAFD10BD5FEADA
:1028A000400C08BF91F0000F4FEA8C234FEAC12281
:1028B00043EA51514FEA1C5018BF00F5F0404FEA6F
:1028C000300018BF41F000415FEA6C5C00F02980E5
:1028D000BCF1FF3F08BF40F080407047130C06BFBB
:1028E00012044FF0100C4FF0000C130E04BF120234
:1028F0000CF1080C130F04BF12010CF1040C930F20
:1029000004BF92000CF1020CD30F04BF52000CF173
:10291000010C11464FF00002A0F11F00A0EB0C00CB
:10292000704711F0004F08BF704731F000413FF48D
:10293000D5AF0B0C06BF09044FF0100C4FF0000C84
:102940000B0E04BF09020CF1080C0B0F04BF0901A8
:102950000CF1040C8B0F04BF89000CF1020CCB0F9F
:1029600004BF49000CF1010CCCF12003A0EB0C00DA
:1029700022FA03F302FA0CF241EA030100F101002A
:10298000704720F07F4C80EA030023F07F47ACEBD8
:10299000070303F57C5300F0004003F1FF032DE92A
:1029A00080494FEA154B09B44FEA144325EA0B4E10
:1029B00024EA03480FF2042606EB132749083E7861
:1029C0005FEA320203FB0667C7F5000707FB06F65E
:1029D0004FEA54374FEAD64606F1020607FB066C6B
:1029E000CCF1005C4FEA1C472CEA074C07FB06F4CD
:1029F0000CFB06F504EB15464FEA961634BF002093
:102A00004FF000404FEAD13706FB07FC4FEA1C4C61
:102A10000CFB0BF7D21B03FB0CF761EB07010CFB64
:102A20000EF7B0EB074072EB17420CFB08F734BF10
:102A3000A2EB0742B2EB074261EB17414FEA0C44AD
:102A40004FEA910706FB07FC4FEA1C4C0CFB0BF707
:102A5000B0EBC74072EB573203FB0CF734BFA2EB6D
:102A6000C742B2EBC74261EB57310CFB0EF7B0EB3C
:102A7000C70072EB57720CFB08F734BFA2EBC7021A
:102A8000B2EBC70261EB5771039F4FEA816141EAE4
:102A9000921104EBCC044FEAD1374FEA826206FB75
:102AA00007FC42EA90124FEA80604FEA1C4C0CFB94
:102AB0000BF7D21B03FB0CF761EB07010CFB0EF7C6
:102AC000B0EB074072EB17420CFB08F734BFA2EBE8
:102AD0000742B2EB074261EB17414FEA8C554FEAD0
:102AE000910704EB9C2406FB07FC4FEA1C4C0CFBF3
:102AF0000BF7B0EBC74072EB573203FB0CF734BF58
:102B0000A2EBC742B2EBC74261EB57310CFB0EF7A9
:102B1000B0EBC70072EB57720CFB08F734BFA2EBA7
:102B2000C702B2EBC70261EB577115EB4C254FEAB8
:102B3000816141EA92114FEA82624FEAD13742EA5B
:102B4000901206FB07FC44F100044FEA80604FEA54
:102B50001C4C0CFB0BF7D21B03FB0CF761EB0701C2
:102B60000CFB0EF7B0EB074072EB17420CFB08F7BB
:102B700034BFA2EB0742B2EB074261EB174115EB02
:102B80001C154FEA813141EA92414FEA823242EA12
:102B900090424FEA80304FEA0C7644F1000448EA54
:102BA00003434EEA0B484FF0000EB2EB080C71EBFA
:102BB000030724BF624639464EEB0E0E4FF0000B62
:102BC0000018524149414BEB0B0BB2EB080C71EB77
:102BD00003077BF1000B24BF624639464EEB0E0E15
:102BE0004FF0000B0018524149414BEB0B0BB2EB7D
:102BF000080C71EB03077BF1000B24BF62463946DA
:102C00004EEB0E0E51EA020718BF46F0010616EB16
:102C10000E7655F1000254F1000103D5BDE889019B
:102C2000BDE80088BDE88901BDE80048B6195241F9
:102C300041EB0101A3F10103704780807F7E7D7C21
:102C40007B7A7978777676757473727171706F6E3E
:102C50006E6D6C6C6B6A6A696868676666656464E9
:102C6000636362616160605F5F5E5E5D5D5C5C5B73
:102C70005B5A5A59595858575756565555555454E2
:102C8000535352525251515050504F4F4F4E4E4D40
:102C90004D4D4C4C4C4B4B4B4A4A4A49494948488C
:102CA00048474747474646464545454444444443CC
:102CB00043434342424242414141002B26D47700E4
:102CC00021D01CB54FEA370703B44FF010004FF086
:102CD00010014FF000000FBCBDE810400BF1010BDC
:102CE000BBF1010F08BF5FEA170722BF12F1010213
:102CF00011F101014FF0004143F1000300F00040E9
:102D000043EA00007047F9D35708DAE746EA064677
:102D100013F1400F4FEA16461FDD13F1200FDFBFFE
:102D200016430A46002120335B42C8D0C3F1200776
:102D300046EA064602FA07F74FEA164646EA07064B
:102D4000C3F1200722FA03F201FA07F721FA03F18F
:102D50004FF0000342EA0702B1E746EA020646EAFC
:102D600006464FEA164646EA0106BCBF46EA064654
:102D7000360C4FF000034FF000024FF000019EE7C9
:102D80002DE9C048934630B491E8380007C831EACD
:102D9000400C48BF34EA430C03D5FFF7F2FDFFF7C0
:102DA0008CFFF0BCBDE800882DE9C048934630B4E4
:102DB00091E8380007C810F0804F08BF13F0804F2B
:102DC00003D100F005F8FFF778FFF0BCBDE80088FC
:102DD00020F07F4780EA030023F07F4C07EB0C03D1
:102DE000A3F57C5300F00040A3F1FE0392F0000F26
:102DF00000F0B38095F0000F00F077802DE90149D5
:102E00004FEA11404FEA144621EA004800FB06FC55
:102E100024EA064708FB06F607FB08F800FB07F75D
:102E200018EB06484CEB164C4FEA124B18EB0748D0
:102E30004FEA15464CEB174022EA0B4E0BFB06FC03
:102E400025EA06470EFB06F607FB0EFE0BFB07F70F
:102E50001EEB064E4CEB164C4FF000061EEB074ED9
:102E60004CEB174B18EB0B0840F1000018EB0E0B66
:102E700058EB000840F100008F1A4FF000013CBFF2
:102E8000C943661B14BFB5EB040C00213CBFC9430A
:102E9000F61B4FEA17444EEA8E0E27EA04454FEA26
:102EA0001C4704FB07622CEA074C05FB07F70CFBE9
:102EB00005F604FB0CFC16EB074642EB174216EB3B
:102EC0000C4642EB1C421BEB060658EB020241414A
:102ED00046EA9E0601D5BDE80189B619524141EB8B
:102EE0000101A3F10103BDE801894FEA14454FEA4E
:102EF000114724EA054621EA074C05FB07F406FBC7
:102F000007F70CFB06F105FB0CFC11EB074144EB4A
:102F100017444FEA124711EB0C4144EB1C4422EAE0
:102F2000074C05FB07F206FB07F70CFB06F605FB53
:102F30000CFC16EB074642EB174216EB0C4642EB35
:102F40001C456A1854F1000148BF7047B619524138
:102F500041EB0101A3F10103704795F0000F37D059
:102F60004FEA11424FEA144721EA024624EA074C8D
:102F700002FB07F106FB07F70CFB06F402FB0CFC57
:102F800014EB074441EB17414FEA154714EB0C448F
:102F900041EB1C4125EA074C02FB07F506FB07F74E
:102FA0000CFB06F602FB0CFC16EB074645EB17453F
:102FB00016EB0C4645EB1C42121951F1000148BFBB
:102FC0007047B619524141EB0101A3F1010370476B
:102FD0004FEA14454FEA114724EA054621EA074C17
:102FE00005FB07F106FB07F70CFB06F24FF00006A6
:102FF00005FB0CFC12EB074241EB174112EB0C42B4
:1030000051EB1C4148BF7047921841EB0101A3F1FD
:103010000103704710B505F007F804F085FF10BDF7
:1030200010B50021014804F017FC10BD00640040F9
:1030300010B50021014804F00FFC10BD00640040F1
:1030400010B50021014804F007FC10BD00640040E9
:1030500010B50448006803F0E3FA846D204600F0E0
:10306000B2F810BDA408002010B50448006803F0B1
:10307000D7FA446D204600F0A6F810BDA408002041
:1030800010B50448006803F0CBFA846D204600F0C8
:103090009AF810BDA808002010B50448006803F095
:1030A000BFFA446D204600F08EF810BDA80800203D
:1030B00030B590F844500124AC40056C6C60046855
:1030C00063608468102C04D10468A2600468E16025
:1030D00003E00468A1600468E26030BD7047704797
:1030E0007047704770477047704770477047704728
:1030F0007047704770477047704770477047704718
:103100007047704770477047704770477047704707
:1031100070477047704770477047704770477047F7
:1031200070477047704770477047704770477047E7
:1031300070477047704770477047704770477047D7
:1031400070477047704770477047704770477047C7
:10315000704770477047704700F01F02012191408F
:103160004211920002F1E022C2F80011704770B5DE
:103170000446002594F82500022803D00420E063CB
:1031800001251EE02068006820F00E00216808601C
:103190002068006820F001002168086094F844105D
:1031A00001208840216C4860012084F8250000BF80
:1031B000002084F8240000BFA06B10B12046A16B52
:1031C0008847284670BD70B50446206C05682068A5
:1031D000066894F84410042088402840D0B106F0D6
:1031E0000400B8B12068006800F0200028B9206809
:1031F000006820F004002168086094F8441004205E
:103200008840216C4860206B00284ED02046216BFE
:1032100088474AE094F8441002208840284008B3C8
:1032200006F00200F0B12068006800F0200040B90C
:103230002068006820F00A0021680860012084F8F6
:10324000250094F8441002208840216C486000BF9B
:10325000002084F8240000BFE06A30B32046E16A11
:10326000884722E094F84410082088402840E0B1C4
:1032700006F00800C8B12068006820F00E00216840
:10328000086094F8441001208840216C48600120B7
:10329000E06384F8250000BF002084F8240000BF0C
:1032A000606B10B12046616B884770BD10B5014658
:1032B000002209B9012010BD8868B0F5804F00D008
:1032C00000BF3C4B086898420BD23B4B0868C01AC1
:1032D0001423B0FBF3F080004864374808380864D2
:1032E0000AE0344B0868C01A1423B0FBF3F08000E6
:1032F0004864304808380864022081F825000868CE
:10330000026843F6F0708243D1E9020318430B6967
:1033100018434B6918438B691843CB6918430B6AF0
:1033200018430243086802608868B0F5804F32D0C5
:10333000214B083B086C984217D1D0F8A80091F8AF
:1033400044400F23A34098431B4BA033186091F8CF
:10335000443048689840184B083BD3F8A8301843CD
:10336000154B083BC3F8A80015E01248A0300068D0
:1033700091F844400F23A34098430E4BA0331860AC
:1033800091F84430486898400A4BA0331B681843B2
:10339000084BA03318600020C86208634863886344
:1033A000C863012081F82500002081F8240000BFB7
:1033B00081E7000008040240080002402DE9F041C6
:1033C00004460D4616461F464FF0000800BF94F80D
:1033D0002400012802D10220BDE8F081012084F8F8
:1033E000240000BF94F8250001282CD1022084F885
:1033F00025000020E0632068006820F001002168BB
:1034000008603B46324629462046FFF751FE206BB6
:1034100030B12068006840F00E00216808600BE0C1
:103420002068006820F004002168086020680068B7
:1034300040F00A00216808602068006840F0010040
:103440002168086006E000BF002084F8240000BF67
:103450004FF002084046BFE701480068704700008F
:103460007408002002480068401C01490860704749
:103470007408002010B5032000F0E0F80F2000F0E1
:1034800005F800F089F8002010BD000010B588B0E4
:10349000044602A903A800F0FDFB00F023FC029003
:1034A00000BF3748806D40F0010035498865084607
:1034B000806D00F00100019000BF00BF0846806BE6
:1034C00040F0010088630846806B20F001008863AB
:1034D00088042C4908604FF0FF312A48C1600698E3
:1034E00040B929490298B0FBF1F080B2401E25494D
:1034F000486008E0029840002349B0FBF1F080B238
:10350000401E2049486000211E48016181604161E0
:1035100001F048FC1C201D491D4B1A6800F11003E6
:1035200042F8231000BF00BF002809DB00F01F0293
:10353000012191404209920002F1E022C2F80011FB
:1035400000BF00210F4801F049FC04210D4801F0A3
:1035500045FC0C480068406A0E490860084600684F
:1035600000F57A7007490968886306480068C068F2
:1035700040F0040003490968C860002008B010BD8D
:1035800000100240A41F002040420F0095AF000829
:1035900008ED00E034080020704701460846002886
:1035A00009DB00F01F0301229A4043099B0003F14D
:1035B000E023C3F8002100BF70472DE9F05F80468B
:1035C0000D461646002703F025FE074639462A46D3
:1035D000334601F00700C0F1070ABAF1040F02D91F
:1035E0004FF0040A01E0C0F1070AD14600F1040AD5
:1035F000BAF1070F02D24FF0000A01E0A0F1030A6E
:10360000D4464FF0010A0AFA09FAAAF1010A0AEAB5
:10361000020A0AFA0CFA4FF0010B0BFA0CFBABF1A1
:10362000010B0BEA030B4AEA0B042146404603F068
:10363000F9FD00F000B830BCBDE8C09F00BF00F04D
:103640000702064B19684FF6FF031940044B0B4362
:1036500043EA0221014B196000BF70470CED00E006
:103660000000FA0500BF1148006820F480400F4AAE
:1036700010600F4800680F4AB0FBF2F0322200FBE6
:1036800002F100E0491E31B10848406900F40070C1
:10369000B0F5007FF6D00548406900F40070B0F541
:1036A000007F01D1032070470020FCE7007000403C
:1036B0007808002040420F000348006840F4804032
:1036C000014908607047000000700040024800682F
:1036D00000F4C060704700000070004070B50546FF
:1036E0000C464DB90F48406900F40070B0F5007FFA
:1036F00009D1FFF7B7FF06E00A484069C0F3402050
:1037000008B9FFF7D9FF0848006820F0040006490F
:103710000860012C01D130BF02E040BF20BF20BFB4
:1037200070BD00000070004010ED00E00648006829
:1037300020F0200004499039C1F8900008468069C3
:1037400020F40070886170479010024003480068C0
:1037500040F004000149086070470000001002407A
:103760002DE9F8430446002600270025A8462088B6
:1037700000F40060B0F5006F26D1E06B68B1B0F5E1
:10378000000F03D0B0F5400F0ED10CE0C548C06863
:1037900040F48030C349C86008E00021201D01F0DA
:1037A00009FC054602E001E0012500BF00BF55B954
:1037B000BC488830006820F44000E16B0843B949F8
:1037C000C1F8880000E0A846206800F40030B0F599
:1037D000003F74D14FF00009B248806D00F0805076
:1037E00078B900BFAF48806D40F08050AD49886522
:1037F0000846806D00F08050009000BF00BF4FF081
:103800000109A948006840F48070A7490860FFF7E3
:1038100023FE074606E0FFF71FFEC01B022801D962
:10382000032505E0A048006800F480700028F2D06D
:1038300000BF7DBB9B489030006800F44076CEB15D
:10384000206DB04216D097489030006820F4407642
:103850009448D0F8900040F480309249C1F890002C
:103860000846D0F8900020F48030C1F89000084657
:10387000C0F8906006F00100A8B1FFF7EDFD074623
:1038800009E0FFF7E9FDC01B41F28831884202D907
:10389000032507E016E083489030006800F002003E
:1038A0000028EED000BF5DB97E489030006820F45B
:1038B0004070216D08437B49C1F8900003E00CE0A3
:1038C000A84600E0A846B9F1010F05D17548806D02
:1038D00020F080507349886500BF207800F0010017
:1038E00048B170488830006820F00300216A08431E
:1038F0006C49C1F88800207800F00200022809D144
:1039000068488830006820F00C00616A0843654907
:10391000C1F88800207800F02000202809D16148F3
:103920008830006820F44060A16A08435D49C1F80E
:103930008800208800F40070B0F5007F09D1594854
:103940008830006820F44020616B08435549C1F875
:103950008800208800F48060B0F5806F09D151485C
:103960008830006820F44010A16B08434D49C1F82D
:103970008800207800F04000402809D1494888306C
:10398000006820F44050E16A08434649C1F88800C5
:10399000208800F48070B0F5807F09D141488830DC
:1039A000006820F44030216B08433E49C1F888008C
:1039B000208800F40050B0F5005F1FD139488830EE
:1039C000006820F04060216C084336498831086067
:1039D000206CB0F1006F06D13248C06840F480100E
:1039E0003049C8600AE0206CB0F1806F06D1012137
:1039F000201D01F0DFFA054605B1A846206800F455
:103A00008020B0F5802F1FD126488830006820F034
:103A10004060616C0843234988310860606CB0F1F4
:103A2000006F06D11F48C06840F480101D49C8606F
:103A30000AE0606CB0F1806F06D10121201D01F019
:103A4000B9FA054605B1A846208800F48040B0F5D3
:103A5000804F14D113488830006820F04050A16C8A
:103A60000843104988310860A06CB0F1805F06D12E
:103A70000221201D01F09EFA054605B1A8462088C6
:103A800000F40040B0F5004F09D1064888300068C6
:103A900020F08040E16C08430249C1F888004046AC
:103AA000BDE8F883001002400070004070B5044685
:103AB0000D4600267348006800F00700A8420ED2A9
:103AC0007048006820F0070028436E4908600846E7
:103AD000006800F00700A84201D0012070BD2078E6
:103AE00000F00200022807D16748806820F0F0004B
:103AF000A168084364498860207800F0010000282C
:103B000079D06068022806D15F48006800F4003070
:103B1000D8B90120E2E76068032806D15A48006856
:103B200000F0007088B90120D8E7606830B95648C5
:103B3000006800F0020040B90120CFE75248006859
:103B400000F4806008B90120C8E74F48806820F081
:103B50000300616808434C498860FFF77DFC064616
:103B60006068022810D108E0FFF776FC801B41F264
:103B70008831884201D90320B0E74348806800F0CB
:103B80000C000828F0D136E06068032810D108E066
:103B9000FFF762FC801B41F28831884201D9032083
:103BA0009CE73948806800F00C000C28F0D122E036
:103BB000606880B908E0FFF74FFC801B41F2883154
:103BC000884201D9032089E72F48806800F00C0063
:103BD0000028F0D10FE008E0FFF73EFC801B41F227
:103BE0008831884201D9032078E72748806800F0AF
:103BF0000C000428F0D12348006800F00700A84218
:103C00000ED92048006820F0070028431D490860AD
:103C10000846006800F00700A84201D001205DE7D7
:103C2000207800F00400042807D11748806820F4A9
:103C3000E060E168084314498860207800F00800DB
:103C4000082808D11048806820F46050216940EAB3
:103C5000C1000D49886000F071F80B49896801F0D6
:103C6000F001F02292FAA2F2B2FA82F2D140074AAF
:103C7000515CC840064908600F20FFF707FC002090
:103C80002CE70000002002400010024068BB000842
:103C9000780800200F2202600D4A926802F00302A9
:103CA00042600B4A926802F0F0028260084A926811
:103CB00002F4E062C260064A926802F46052D208DE
:103CC0000261044A126802F007020A6070470000AD
:103CD00000100240002002400148006870470000C8
:103CE0007808002000B5FFF7F7FF0749896801F45D
:103CF000E0614FF4E06292FAA2F2B2FA82F2D140AD
:103D0000024A515CC84000BD0010024078BB000868
:103D100000B5FFF7E1FF0749896801F460514FF4EE
:103D2000605292FAA2F2B2FA82F2D140024A515C97
:103D3000C84000BD0010024078BB0008F0B500216B
:103D400000230024022502220020554EB66806F00A
:103D50000C065EB1524EB66806F00C060C2E2DD144
:103D60004F4EF66806F00306012E27D14C4E3668FA
:103D700006F008066EB94A4E9436366806F4706648
:103D80004FF4706797FAA7F7B7FA87F726FA07F1A3
:103D90000AE0434E366806F0F006F02797FAA7F7D8
:103DA000B7FA87F726FA07F13E4E56F821103C4E37
:103DB000B66806F00C0686B908460EE0384EB668BE
:103DC00006F00C06042E01D1374806E0344EB668E2
:103DD00006F00C06082E00D13448314EB66806F0C5
:103DE0000C060C2E5BD12E4EF66806F003042C4E0A
:103DF000F66806F07006702797FAA7F7B7FA87F704
:103E0000FE40721C012C29D0022C02D0032C24D19C
:103E100011E0254EB6FBF2F6214FFF6807F4FE478E
:103E20004FF4FE4C9CFAACFCBCFA8CFC27FA0CF765
:103E300006FB07F323E01D4EB6FBF2F6184FFF68B2
:103E400007F4FE474FF4FE4C9CFAACFCBCFA8CFC29
:103E500027FA0CF706FB07F311E000BFB1FBF2F6FF
:103E60000F4FFF6807F4FE474FF4FE4C9CFAACFC82
:103E7000BCFA8CFC27FA0CF706FB07F300BF00BF67
:103E8000074EF66806F0C0664FF0C06797FAA7F7CE
:103E9000B7FA87F7FE40761C7500B3FBF5F0F0BD6E
:103EA0000010024080BB00080024F40000127A00D9
:103EB000F8B504460025207800F01000102874D1D1
:103EC000FE48806800F00C00002870D1FB480068B4
:103ED00000F0020018B1A06908B90120F8BDF74848
:103EE000216A006800F0080020B1F448006800F082
:103EF000F00005E0F1489430006800F470600009BB
:103F000081421FD9206A01F04BF908B10120E5E791
:103F100000BFEA48006840F00800E8490860084629
:103F2000006820F0F000216A0843E449086000BFFF
:103F30000846406820F47F40E16940EA0120DF49FB
:103F400048601EE000BFDD48006840F00800DB4923
:103F500008600846006820F0F000216A0843D7494D
:103F6000086000BF0846406820F47F40E16940EAED
:103F70000120D2494860206A01F012F908B10120FD
:103F8000ACE7FFF7DBFECD49896801F0F001F022D4
:103F900092FAA2F2B2FA82F2D140C94A515CC84008
:103FA000C84908600F20FFF771FA4BE0FFE7A069EE
:103FB00080B3C248006840F00100C0490860FFF7C4
:103FC0004BFA054606E0FFF747FA401B022801D9E5
:103FD000032083E7B948006800F002000028F2D00F
:103FE00000BFB648006840F00800B44908600846C1
:103FF000006820F0F000216A0843B049086000BF63
:104000000846406820F47F40E16940EA0120AB495E
:10401000486017E0FFE7A948006820F00100A749C1
:104020000860FFF719FA054606E0FFF715FA401B8E
:10403000022801D9032051E7A048006800F00200DF
:104040000028F2D1207800F00100002868D09B48B9
:10405000806800F00C0008280BD09848806800F0B9
:104060000C000C280ED19548C06800F0030003280E
:1040700008D19248006800F4003088B3606878BBCB
:1040800001202BE700BF6068B0F5803F06D18B4868
:10409000006840F48030894908601AE06068B0F533
:1040A000A02F0BD18548006840F480208349086028
:1040B0000846006840F4803008600AE07F480068E5
:1040C00020F480307D4908600846006820F4802094
:1040D000086000BF606890B1FFF7BEF9054607E0D1
:1040E0001EE0FFF7B9F9401BC82801D90320F5E607
:1040F0007248006800F400300028F2D010E0FFF7AA
:10410000ABF9054606E0FFF7A7F9401BC82801D91F
:104110000320E3E66948006800F400300028F2D18B
:10412000207800F0020002286AD16448806800F01C
:104130000C0004280BD06148806800F00C000C28AB
:104140001ED15E48C06800F00300022818D15B4809
:10415000006800F4806018B1E06808B90120BDE68D
:104160005648406820F0F8504FF0F85292FAA2F208
:10417000B2FA82F2216991400843504948603FE019
:10418000E06830B34D48006840F480704B490860E7
:10419000FFF762F9054606E0FFF75EF9401B0228CB
:1041A00001D903209AE64548006800F480600028A1
:1041B000F2D04248406820F0F8504FF0F85292FA9E
:1041C000A2F2B2FA82F22169914008433B49486069
:1041D00016E03A48006820F4807038490860FFF71C
:1041E0003BF9054606E0FFF737F9401B022801D9E5
:1041F000032073E63148006800F480600028F2D1A3
:10420000207800F00800082836D16069D0B12B482A
:104210009430006840F001002849C1F89400FFF78D
:104220001BF9054606E0FFF717F9401B022801D9E4
:10423000032053E621489430006800F00200002873
:10424000F1D019E01D489430006820F001001B49AE
:10425000C1F89400FFF700F9054606E0FFF7FCF807
:10426000401B022801D9032038E614489430006826
:1042700000F002000028F1D1207800F004000428AA
:104280006FD100260D48806D00F0805070B900BFDE
:104290000A48806D40F08050084988650846806D66
:1042A00000F08050009000BF00BF01260648006863
:1042B00000F48070F8B90448006807E0001002407C
:1042C00068BB0008780800200070004040F480704F
:1042D000A3490860FFF7C0F8054606E0FFF7BCF801
:1042E000401B022801D90320F8E59D48006800F42E
:1042F00080700028F2D000BFA068012808D199483A
:10430000006840F0010097499039C1F8900021E021
:10431000A06805280FD19348006840F00400914937
:104320009039C1F890000846D0F8900040F00100A4
:10433000C1F890000EE08B48006820F00100894928
:104340009039C1F890000846D0F8900020F00400A1
:10435000C1F8900000BFA068A0B1FFF77DF8054646
:1043600009E02DE0FFF778F8401B41F288318842E0
:1043700001D90320B2E57B48006800F00200002864
:10438000F0D012E0FFF768F8054608E0FFF764F8A0
:10439000401B41F28831884201D903209EE57148D3
:1043A000006800F002000028F0D1012E07D16D480E
:1043B0009038806D20F080506A499039886500BF40
:1043C000207800F02000202838D1606AD8B16548F4
:1043D0000830006840F0010062499039C1F8980047
:1043E000FFF73AF8054606E0FFF736F8401B0228CB
:1043F00001D9032072E55B480830006800F0020034
:104400000028F1D01AE057480830006820F0010079
:1044100054499039C1F89800FFF71EF8054606E0A8
:10442000FFF71AF8401B022801D9032056E54D4832
:104430000830006800F002000028F1D1A06AE8B35B
:1044400048489038806800F00C000C2874D0A06AAE
:10445000022853D143489038006820F080704149C9
:1044600090390860FEF7F8FF054606E0FEF7F4FF16
:10447000401B022801D9032030E53A4890380068F3
:1044800000F000700028F1D1206B401E0101606B2C
:1044900041EA0020E16A0843A18F0122C2EB5101E9
:1044A00040EA41514020005DC2EB500041EA4061CA
:1044B0003820005D41EAC0602A4900E04EE09039B2
:1044C000C8600846006840F0807008600846C06810
:1044D00040F08070C860FEF7BFFF054606E0FEF7BB
:1044E000BBFF401B022801D90320F7E41D48903888
:1044F000006800F000700028F1D02FE019489038D3
:10450000006820F0807017499039086008460068FC
:1045100000F0006020B90846C06820F00300C860C1
:1045200010489038C068104908400E499039C8605A
:10453000FEF792FF054607E00EE0FEF78DFF401BF9
:10454000022801D90320C9E406489038006800F029
:1045500000700028F1D101E00120BFE40020BDE49B
:104560000070004090100240FFFFEEFE4FF08040D0
:104570000449086008460068C06840F00400096803
:10458000C8607047A41F002010B504460E4800689C
:1045900002F046F8A04207D104210B48006800F55C
:1045A000847007F071F810BD0848006802F038F810
:1045B000A04207D104210548006800F5847007F087
:1045C00063F8F0E700BFEEE7A4080020A808002089
:1045D000F8B50446206846682068856805F0400004
:1045E00048B905F0010030B106F0400018B120468E
:1045F000E16C8847F8BD05F0020030B106F080009C
:1046000018B12046216D8847F4E705F4B070002802
:1046100077D006F02000002873D005F04000F0B1FC
:1046200094F85D0003280ED0206E40F00400206650
:1046300000BF002000902068C0680090206880685B
:10464000009000BF0BE000BF002000902068C06811
:10465000009020688068009000BF00BFCAE705F0A6
:10466000200088B1206E40F00100206600BF0020CD
:1046700000902068806800902068006820F040006A
:104680002168086000BF00BF05F4807058B1206E3B
:1046900040F00800206600BF00200090206880687D
:1046A000009000BF00BF206E28B32068406820F053
:1046B000E00021684860012084F85D0006F00200F7
:1046C000022802D006F00100B8B12068406820F04E
:1046D000030021684860A06D28B10B48A16D886374
:1046E000A06DFEF744FD606D28B10748616D8863D9
:1046F000606DFEF73CFD03E003E02046FFF744FF5A
:1047000078E700BF76E700009B55000870B50446C7
:104710000CB9012070BD606A00B900BFA06AB0F595
:10472000005F00D100BF94F85D0028B9002084F834
:104730005C00204600F05DF8022084F85D002068EF
:10474000006820F0400021680860E068B0F5E06F84
:1047500001D9002501E04FF48055E068B0F5706F95
:1047600005D0E068B0F5E06F01D00021A162206BB8
:1047700040B9E068B0F5E06F02D90221216301E0A1
:1047800001212163D4E901010843216908436169DA
:104790000843218B01F400710843E1690843216A51
:1047A0000843A16A084321680860206B022805D1EC
:1047B0002068006840F40060216808600421A06956
:1047C00001EA1040616A0843616B0843E1680843ED
:1047D000284321684860A06AB0F5005F02D12168D3
:1047E000E06A086100202066012084F85D00002056
:1047F00090E77047F0B504460E4615460027A068BE
:1048000068B96068B0F5827F09D1042084F85D0042
:104810002B4632463146204600F0A0F8F0BD00BFDE
:1048200094F85C00012801D10220F7E7012084F808
:104830005C0000BF94F85D00012801D0022761E010
:1048400006B10DB901275DE0042084F85D00002069
:1048500020662664A4F84450A4F84650A063A087BC
:10486000E0872065E068B0F5E06F08D9206840680F
:1048700020F48050216848602648E06407E0206802
:10488000406840F48050216848602348E064A06894
:10489000B0F5004F05D12068006820F48040216801
:1048A0000860A06AB0F5005F17D10120A064E0683D
:1048B000B0F5E06F03D8206B022800D1A06400BFE0
:1048C0002068006820F400502168086020680068B3
:1048D00040F400502168086001E00020A0642068D6
:1048E000406840F06000216848602068006800F07F
:1048F0004000402805D02068006840F04000216852
:10490000086000BF00BF002084F85C0000BF38468C
:1049100084E700004D570008D157000810B5044641
:104920000C48006801F07CFEA04205D109480068EF
:10493000F83006F0C1FE10BD0748006801F070FEB7
:10494000A04205D104480068F83006F0B5FEF2E751
:1049500000BFF0E7A4080020A8080020F0B5044636
:1049600000250026002700BF94F85C00012801D133
:104970000220F0BD012084F85C0000BF94F85D5077
:104980006668012D08D0B6F5827F03D1A06808B90A
:10499000042D01D0022774E009B102B10BB901273F
:1049A0006FE094F85D00042802D0052084F85D00D3
:1049B00000202066A163A387E3872264A4F8443023
:1049C000A4F84630E068B0F5E06F04D93048E06400
:1049D0003048206503E03048E06430482065A06A34
:1049E000B0F5005F1BD10120A064E068B0F5E06F76
:1049F00003D8206B022800D1A06400BF20680068A3
:104A000020F40050D4F800C0CCF800002068006802
:104A100040F40050D4F800C0CCF8000001E00020C1
:104A2000A064E068B0F5E06F03D8B4F8460002284F
:104A300008D32068406820F48050D4F800C0CCF837
:104A4000040007E02068406840F48050D4F800C0BB
:104A5000CCF804002068406840F0E000D4F800C0C2
:104A6000CCF804002068006800F04000402807D01F
:104A70002068006840F04000D4F800C0CCF8000086
:104A800000BF00BF002084F85C0000BF384670E71C
:104A9000415200087D530008B9520008D75300085E
:104AA0002DE9F04104460E461546002700BF94F854
:104AB0005C00012802D10220BDE8F081012084F8C9
:104AC0005C0000BF94F85D00012801D0022784E05B
:104AD00006B10DB9012780E0032084F85D000020B5
:104AE0002066A663A587E58720642065E064A4F8B6
:104AF0004400A4F84600A068B0F5004F05D1206836
:104B0000006840F4804021680860A06AB0F5005F4A
:104B10000DD100BF2068006820F4005021680860B3
:104B20002068006840F400502168086000BF2E48EB
:104B3000616D08632D48616DC8622D48616D4863E1
:104B40000020616D88632068406820F480402168FF
:104B50004860E068B0F5E06F1DD8606D8069B0F521
:104B6000806F18D1E08F00F0010048B920684068DC
:104B700020F4804021684860E08F4010E0870AE020
:104B80002068406840F4804021684860E08F01213F
:104B900001EB6000E087E38FD4F800C00CF10C0259
:104BA000A16B606DFEF70AFC2068006800F0400011
:104BB000402805D02068006840F040002168086067
:104BC0002068406840F02000216848602068406804
:104BD00040F002002168486000BF00BF002084F858
:104BE0005C0000BF384667E7D9550008E755000864
:104BF000B155000830B50346002400BF93F85C00AF
:104C0000012801D1022030BD012083F85C0000BFE3
:104C100001B10AB901244BE093F85D00012801D0ED
:104C2000022445E0032083F85D00002018669963A4
:104C30009A87DA871864A3F84400A3F84600D8647A
:104C4000D868B0F5E06F02D91D48186501E01D482D
:104C500018659868B0F5004F05D11868006840F4F1
:104C600080401D682860986AB0F5005F0DD100BFD4
:104C70001868006820F400501D68286018680068F3
:104C800040F400501D68286000BF1868406840F07C
:104C9000A0001D6868601868006800F040004028A7
:104CA00005D01868006840F040001D68286000BF0B
:104CB00000BF002083F85C0000BF2046A3E700008F
:104CC0004D5800088558000810B504460C48006887
:104CD00001F0A6FCA04205D109480068F83006F0B2
:104CE000EBFC10BD0748006801F09AFCA04205D11A
:104CF00004480068F83006F0DFFCF2E700BFF0E798
:104D0000A4080020A808002010B504460C4800683C
:104D100001F086FCA04205D109480068E83006F0A1
:104D2000CBFC10BD0748006801F07AFCA04205D119
:104D300004480068E83006F0BFFCF2E700BFF0E787
:104D4000A4080020A808002010B504460C480068FC
:104D500001F066FCA04205D109480068F83006F071
:104D6000ABFC10BD0748006801F05AFCA04205D119
:104D700004480068F83006F09FFCF2E700BFF0E757
:104D8000A4080020A80800204FF0804004490860D3
:104D900008460068C06820F004000968C8607047D1
:104DA000A41F002010B504460CB9012010BD94F8D2
:104DB000390028B9002084F83800204600F00CF8AB
:104DC000022084F83900211D206800F093FF0120A3
:104DD00084F839000020E9E77047000030B5044648
:104DE0000D4601222946206800F0BAFF0E492068CE
:104DF000884207D00D492068884203D00C492068BA
:104E0000884201D1012000E0002028B12068406CD8
:104E100040F40040216848642068006840F00100C8
:104E200021680860002030BD002C01400040014096
:104E30000044014010B504460CB9012010BDA06922
:104E400000B100E000BF94F8690028B9002084F8A0
:104E50006800204600F02AF8242084F869002068C1
:104E6000006820F0010021680860204601F09EF8EB
:104E7000012800D1E2E7606A10B1204600F0E0FFAF
:104E80002068406820F4904021684860206880686D
:104E900020F02A00216888602068006840F0010046
:104EA00021680860204601F047F8C7E7704730B531
:104EB000036891FAA1F4B4FA84F465000324AC40C9
:104EC000A34391FAA1F4B4FA84F4640002FA04F45E
:104ED0002343036030BD10B543688B4301FB02F4EC
:104EE0002343436010BD30B5C36891FAA1F4B4FA0E
:104EF00084F465000324AC40A34391FAA1F4B4FA0E
:104F000084F4640002FA04F42343C36030BD2DE945
:104F1000F041054605F12800FBF703FB074617B9EA
:104F20000020BDE8F081EC6A07E00121A01CFBF73E
:104F300083FA064606B902E0A468002CF5D100BF4A
:104F40002046EEE72DE9F04105460C46286BA0B15E
:104F50002E6B002701E0374676681EB1F078E178C5
:104F60008842F8DB6660A7600EB1B46000E0EC62D6
:104F70000FB17C6006E02C6304E000206060A0605C
:104F8000EC622C6305F12800FBF797FABDE8F0818D
:104F90004A681AB1D1E901329A6001E08A68C262B6
:104FA0008A681AB1D1E901235A6001E04A680263B4
:104FB000704700002DE9F04104460E460027002509
:104FC0007348C06800F00300C0B17148C06800F0C9
:104FD0000300216888420FD1206868B16C48C0681E
:104FE00000F07000702191FAA1F1B1FA81F1C8408E
:104FF000401C6168884238D0012536E020680128CD
:1050000004D0022809D003281AD10DE060480068B6
:1050100000F0020000B9012514E05D48006800F4CA
:10502000806000B901250DE05948006800F40030A7
:1050300028B95748006800F4802000B9012501E034
:10504000012500BF00BF85B9D4E90010401E7022C1
:1050500092FAA2F2B2FA82F2904008434C49C9682F
:1050600021F0730108434A49C860002D76D14848B1
:10507000006820F0806046490860FEF7EDF90746B9
:1050800006E0FEF7E9F9C01B022801D9032505E077
:105090003F48006800F000600028F2D100BF002DFA
:1050A00072D1C6B94FF4FE4191FAA1F1B1FA81F182
:1050B000A06888404FF0784292FAA2F2B2FA82F2E7
:1050C000E1689140084332490969324A1140084376
:1050D0002F49086138E0012E1BD14FF4FE4191FAAF
:1050E000A1F1B1FA81F1A068884001222169C2EBE7
:1050F00051014FF4C00292FAA2F2B2FA82F2914048
:10510000084323490969244A11400843204908619A
:105110001AE04FF4FE4191FAA1F1B1FA81F1A068D1
:10512000884001226169C2EB51014FF0C06292FADE
:10513000A2F2B2FA82F29140084315490969174A6E
:1051400011400843124908611148006840F080602E
:105150000F490860FEF780F9074607E014E0FEF704
:105160007BF9C01B022801D9032505E00848006827
:1051700000F000600028F2D000BF2DB9044800699B
:10518000A1690843024908612846BDE8F081000092
:1051900000100240FF80FF07FF809FFFFF80FFF9A4
:1051A000F8B50446002600252348806D00F08050A5
:1051B00018B1FEF78BFA064616E000BF1E48806D58
:1051C00040F080501C4988650846806D00F0805092
:1051D000009000BF00BFFEF779FA06461648806DC2
:1051E00020F0805014498865B6F5007F07D1802CE7
:1051F00010D9A02C01D902250CE001250AE0802C51
:1052000001D9032506E0802C01D1022502E0702C93
:1052100000D101250948006820F00700284307490C
:1052200008600846006800F00700A84201D001208D
:10523000F8BD0020FCE70000001002400020024002
:1052400010B504462068C068216C0880206C801C62
:105250002064B4F84600401EA4F84600B4F84600A6
:1052600088B9A06AB0F5005F02D10848E06410BDBB
:105270002068406820F0400021684860E08F10B945
:10528000204600F0E2F800BFF1E70000915200086C
:1052900038B50446002000902068C06880B20090B5
:1052A000BDF800002068406820F040002168486098
:1052B000204600F0CAF838BD10B50446B4F84600E0
:1052C000012816D92068C068216C0880206C801CD9
:1052D0002064B4F84600801EA4F84600B4F84600E6
:1052E000012811D12068406840F48050216848604E
:1052F0000AE02068017B226C501C20641170B4F815
:105300004600401EA4F84600B4F84600B8B9A06AAA
:10531000B0F5005F08D12068406840F480502168F3
:1053200048600848E06410BD2068406820F06000D4
:1053300021684860E08F10B9204600F086F800BF71
:10534000F1E700004953000838B5044600200090FA
:105350002068007B00909DF80000A06C401EA064B7
:10536000A06C50B92068406820F060002168486057
:10537000E08F10B9204600F068F838BD10B504463B
:10538000A06B00882168C860A06B801CA063E08FC0
:10539000401EE087E08FE0B9A06AB0F5005F0CD155
:1053A0002068006840F480502168086020684068E8
:1053B00020F080002168486010BD2068406820F01F
:1053C000800021684860B4F8460010B9204600F01B
:1053D0003CF800BFF0E710B50446E08F02280AD37E
:1053E000A06B00882168C860A06B801CA063E08F60
:1053F000801EE08708E0A16B481CA0630878216844
:105400000873E08F401EE087E08FE0B9A06AB0F536
:10541000005F0CD12068006840F48050216808606B
:105420002068406820F080002168486010BD206836
:10543000406820F0800021684860B4F8460010B948
:10544000204600F002F800BFF0E770B504460025E2
:10545000FEF702F805462068406820F02000216829
:1054600048602A466421204600F03EF918B1206EBB
:1054700040F02000206620688068C0F3001070B102
:10548000012084F85D00206E40F0020020664FF697
:10549000EF70216888602046FFF776F819E0206EEB
:1054A00088B994F85D00042806D1012084F85D00D5
:1054B0002046FFF733FA0CE0012084F85D00204617
:1054C000FFF742FC05E0012084F85D002046FFF76D
:1054D0005BF870BD70B504462068406820F060003D
:1054E00021684860FDF7B8FF05462A46642120463A
:1054F00000F0B9F818B1206E40F0200020660120BD
:1055000084F85D0020688068C0F3001058B1206EF8
:1055100040F0020020664FF6EF7021688860204658
:10552000FFF732F808E0206E18B92046FFF7F6F9C9
:1055300002E02046FFF728F870BD38B50446002584
:10554000FDF78AFF05462068406820F0A00021682A
:1055500048602A466421204600F0C6F818B1206E43
:1055600040F020002066A06850B900BF00200090E5
:105570002068C068009020688068009000BF00BF6D
:10558000012084F85D00206E18B12046FEF7FCFF74
:1055900002E02046FFF798FB38BD70B50546AC6ABF
:1055A0000020A4F84600E0872046FEF7EDFF70BD1E
:1055B00070B50546AC6A2068406820F00300216899
:1055C0004860206E40F010002066012084F85D00E5
:1055D0002046FEF7D9FF70BD70B50446A56A28467F
:1055E000FFF792FB70BDF8B50546AC6A0026FDF7E3
:1055F00033FF06462868006800F0200020282DD0E0
:105600002068406820F020002168486020684068D9
:1056100020F002002168486032466421204600F0F4
:1056200063F818B1206E40F020002066A06850B9E1
:1056300000BF002000902068C0680090206880684B
:10564000009000BF00BF0020E087012084F85D00CB
:10565000206E18B12046FEF797FFF8BD2046FFF7F1
:1056600033FB00BFF9E7F8B504460E4615466068FF
:10567000B0F5827F0DD1A068B0F5004F03D0A068CF
:10568000B0F5806F05D12068006820F040002168E7
:1056900008603346002280212046009500F065F91D
:1056A00028B1206E40F0200020660320F8BD60681D
:1056B000B0F5827F16D1A068B0F5004F03D0A06886
:1056C000B0F5806F0ED1334600224FF4C061204602
:1056D000009500F0F2F828B1206E40F0200020661E
:1056E0000320E3E70020E1E7F8B504460E4615463F
:1056F000334600224FF4C0512046009500F0DDF8FB
:1057000028B1206E40F0200020660320F8BD33460B
:10571000002280212046009500F027F928B1206E54
:1057200040F0200020660320F0E7334600224FF4CB
:10573000C0612046009500F0C0F828B1206E40F00E
:10574000200020660320E1E70020DFE710B50446D3
:105750002068C068216C0880206C801C2064B4F82C
:105760004600401EA4F84600B4F84600012809D1BE
:10577000A06AB0F5005F05D12068006840F4805051
:1057800021680860B4F8460048B9A06AB0F5005F27
:1057900002D10448E06410BD2046FFF79BFE00BF25
:1057A000F9E70000A957000838B50446002000902A
:1057B0002068C06880B20090BDF800002068406892
:1057C00020F06000216848602046FFF783FE38BD66
:1057D00010B504462068017B226C501C20641170B7
:1057E000B4F84600401EA4F84600B4F8460001286C
:1057F00009D1A06AB0F5005F05D12068006840F4C7
:10580000805021680860B4F8460048B9A06AB0F535
:10581000005F02D10348E06410BD2046FFF75AFE46
:1058200000BFF9E72958000838B504460020009069
:105830002068007B00909DF80000A06C401EA064D2
:10584000A06C10B92046FFF745FE38BD10B50446E0
:10585000A06B00882168C860A06B801CA063E08FEB
:10586000401EE087E08F60B9A06AB0F5005F05D107
:105870002068006840F48050216808602046FFF7E7
:105880005CFE10BD10B50446A16B481CA0630878EF
:1058900021680873E08F401EE087E08F60B9A06A3E
:1058A000B0F5005F05D12068006840F480502168A1
:1058B00008602046FFF741FE10BD2DE9F84304467D
:1058C0000E4617461D46DDF8208047E0B6F5C06F4E
:1058D00005D127B92068007B00909DF80000681C66
:1058E000D8B32DB1FDF7B8FDA0EB0800A84235D321
:1058F0002068406820F0E000216848606068B0F5EA
:10590000827F0DD1A068B0F5004F03D0A068B0F53C
:10591000806F05D12068006820F040002168086091
:10592000A06AB0F5005F0DD100BF2068006820F4C8
:105930000050216808602068006840F40050216829
:10594000086000BF012084F85D0000BF002084F8DB
:105950005C0000BF0320BDE8F883FFE72068806893
:105960003040B842B2D10020F5E72DE9F0410446BD
:105970000E4617461D46DDF818803EE0681CD8B379
:105980002DB1FDF769FDA0EB0800A84235D32068D2
:10599000406820F0E000216848606068B0F5827FD0
:1059A0000DD1A068B0F5004F03D0A068B0F5806FAE
:1059B00005D12068006820F0400021680860A06AD6
:1059C000B0F5005F0DD100BF2068006820F40050E2
:1059D000216808602068006840F400502168086071
:1059E00000BF012084F85D0000BF002084F85C0047
:1059F00000BF0320BDE8F081FFE7206880683040E9
:105A0000B04201D1012000E00020B842B6D1002010
:105A1000F0E710B500F006F818B901E000BF00BFCC
:105A2000FCE710BD00B5ABB0142126A8FBF761FC64
:105A3000442115A8FBF75DFC54216846FBF759FC8F
:105A40000420159000201F900120179015A8FEF744
:105A50002FFA28B92048006840F004001E49086069
:105A6000FDF764FE1320159001201B900020169076
:105A700018901C90B0201D9002201F90012115A8A5
:105A8000C16206210163282141630721816304214A
:105A9000C1630164FEF70CFA10B100202BB000BD09
:105AA000FDF754FE4FF4005000904FF0406010900E
:105AB0006846FDF755FE0F20269003202790002012
:105AC000289029902A90042126A8FDF7EFFF08B11D
:105AD0000020E3E70120E1E70010024038B504466A
