:020000040800F2
:10000000000001206D0A0008750A0008770A000840
:10001000790A00087B0A00087D0A00080000000039
:10002000000000000000000000000000A909000816
:10003000810A000800000000350A0008450A00088F
:10004000870A0008870A0008870A0008870A00084C
:10005000870A0008870A0008870A0008870A00083C
:10006000870A0008870A0008870A00083933000851
:100070003D33000869330008A9330008C133000884
:10008000C3330008C5330008870A00082933000875
:1000900009330008870A000819330008870A000896
:1000A000870A0008870A0008870A0008870A0008EC
:1000B000870A00080000000000000000870A00080E
:1000C000870A00080000000000000000870A0008FE
:1000D00000000000870A0008870A000800000000EE
:1000E000870A0008870A00080000000000000000DE
:1000F0000000000000000000000000000000000000
:10010000000000000000000000000000870A000856
:100110000000000000000000870A0008870A0008AD
:10012000DD330008F53300080D3400080F340008F3
:100130001134000800000000000000000000000072
:10014000870A0008870A0008870A0008870A00084B
:100150001334000815340008870A0008870A0008CD
:10016000870A0008870A0008870A000800000000C4
:10017000870A0008870A000800000000000000004D
:10018000870A0008870A0008870A000800F002F8BA
:1001900007F008F90AA090E8000C82448344AAF111
:1001A0000107DA4501D107F0FDF8AFF2090EBAE810
:1001B0000F0013F0010F18BFFB1A43F0010318479B
:1001C000D4C60000F4C600000A444FF0000C10F83A
:1001D000013B13F0070408BF10F8014B1D1108BFC5
:1001E00010F8015B641E05D010F8016B641E01F865
:1001F000016BF9D113F0080F1EBF10F8014BAD1CB5
:100200000C1B09D16D1E58BF01F801CBFAD505E0D2
:1002100014F8016B01F8016B6D1EF9D59142D6D32C
:10022000704700000023002400250026103A28BF54
:1002300078C1FBD8520728BF30C148BF0B60704758
:100240006E2901F0F682702900F0558666290BF0C0
:10025000EB8565290BF0E88567290BF0E5856129B9
:100260000BF0E48503681B0A28BF41F0800169296F
:1002700000F0C685642900F0C385752900F0C085AB
:100280006F2901F0E983782900F02186E92901F03E
:100290008383E42901F08083F52901F07D83EF2930
:1002A00001F0E683F82900F020860368DB0928BF07
:1002B00041F08001632901F00083732901F0058377
:1002C000E32902F05A82F32902F05F82002070478E
:1002D0001FB50BF0A4FD9DE8030001F007FA01F043
:1002E000E8F90400002000210BF05EF9401C60607A
:1002F000002000210BF06EF9E06001F031FD01F00B
:10030000ABF91FBD0246D2E84F0FC2E8431F03B14D
:10031000F9E77047024652E8000F40EA010042E860
:10032000000303B1F7E7704710B5024652E8000F2B
:1003300020EA010442E8004303B1F7E710BD10B51D
:10034000024652E8000F00EA01048C4203D0BFF3DA
:100350002F8F002010BD20EA010442E8004303B1C2
:10036000EFE710BD10B5024652E8000F084203D176
:10037000BFF32F8F002010BD20EA010442E80043A4
:1003800003B1F1E710BD024652E8000F411C42E8FC
:10039000001303B1F8E7704710B5024652E8000FAA
:1003A000814202D8BFF32F8F10BD441C42E80043A6
:1003B00003B1F3E710BD10B50246D2E85F0F8142EA
:1003C00002D8BFF32F8F10BD441CC2E8534F03B1B6
:1003D000F3E710BD10B50246D2E85F0F441CA142FE
:1003E00000D80024C2E8534F03B1F5E710BD024620
:1003F00052E8000F10B9BFF32F8F7047411E42E83B
:10040000001303B1F4E770470246D2E85F0F10B95A
:10041000BFF32F8F7047411EC2E8531F03B1F4E7AB
:100420007047024652E8000F10B9BFF32F8F704794
:10043000016842E8001303B1F4E7704702680A60FC
:10044000BFF35F8F50E8002F0B689342F6D140E86E
:10045000001303B1F2E770470246D2E84F0FC2E83B
:10046000431F03B1F9E77047024652E8000F40EA24
:10047000010042E8000303B1F7E7704710B50246F8
:1004800052E8000F20EA010442E8004303B1F7E715
:1004900010BD10B5024652E8000F00EA01048C427C
:1004A00003D0BFF32F8F002010BD20EA010442E8E3
:1004B000004303B1EFE710BD10B5024652E8000F4C
:1004C000084203D1BFF32F8F002010BD20EA0104A2
:1004D00042E8004303B1F1E710BD024652E8000FC5
:1004E000411C42E8001303B1F8E7704710B502461B
:1004F00052E8000F814202D8BFF32F8F10BD441C79
:1005000042E8004303B1F3E710BD10B50246D2E85C
:100510005F0F814202D8BFF32F8F10BD441CC2E889
:10052000534F03B1F3E710BD10B50246D2E85F0F99
:10053000441CA14200D80024C2E8534F03B1F5E7A0
:1005400010BD024652E8000F10B9BFF32F8F70475D
:10055000411E42E8001303B1F4E770470246D2E8B7
:100560005F0F10B9BFF32F8F7047411EC2E8531FB2
:1005700003B1F4E77047024652E8000F10B9BFF329
:100580002F8F7047016842E8001303B1F4E770470A
:1005900002680A60BFF35F8F50E8002F0B68934238
:1005A000F6D140E8001303B1F2E770470246D2E803
:1005B0004F0FC2E8431F03B1F9E77047024652E804
:1005C000000F40EA010042E8000303B1F7E770477B
:1005D00010B5024652E8000F20EA010442E8004349
:1005E00003B1F7E710BD10B5024652E8000F00EA6C
:1005F00001048C4203D0BFF32F8F002010BD20EAEE
:10060000010442E8004303B1EFE710BD10B5024614
:1006100052E8000F084203D1BFF32F8F002010BD16
:1006200020EA010442E8004303B1F1E710BD0246AD
:1006300052E8000F411C42E8001303B1F8E770478D
:1006400010B5024652E8000F814202D8BFF32F8F47
:1006500010BD441C42E8004303B1F3E710BD10B5E0
:100660000246D2E85F0F814202D8BFF32F8F10BD40
:10067000441CC2E8534F03B1F3E710BD10B5024666
:10068000D2E85F0F441CA14200D80024C2E8534FB7
:1006900003B1F5E710BD024652E8000F10B9BFF3F1
:1006A0002F8F7047411E42E8001303B1F4E77047F3
:1006B0000246D2E85F0F10B9BFF32F8F7047411E7B
:1006C000C2E8531F03B1F4E77047024652E8000F37
:1006D00010B9BFF32F8F7047016842E8001303B1D0
:1006E000F4E7704702680A60BFF35F8F50E8002F9D
:1006F0000B689342F6D140E8001303B1F2E770476C
:100700000246D2E84F0FC2E8431F03B1F9E7704732
:10071000024652E8000F40EA010042E8000303B13C
:10072000F7E7704710B5024652E8000F20EA0104CF
:1007300042E8004303B1F7E710BD10B5024652E8A6
:10074000000F00EA01048C4203D0BFF32F8F00207A
:1007500010BD20EA010442E8004303B1EFE710BDF9
:1007600010B5024652E8000F084203D1BFF32F8FA5
:10077000002010BD20EA010442E8004303B1F1E784
:1007800010BD024652E8000F411C42E8001303B1BD
:10079000F8E7704710B5024652E8000F814202D8D0
:1007A000BFF32F8F10BD441C42E8004303B1F3E7B1
:1007B00010BD10B50246D2E85F0F814202D8BFF3E8
:1007C0002F8F10BD441CC2E8534F03B1F3E710BD97
:1007D00010B50246D2E85F0F441CA14200D80024A5
:1007E000C2E8534F03B1F5E710BD024652E8000FCF
:1007F00010B9BFF32F8F7047411E42E8001303B1B9
:10080000F4E770470246D2E85F0F10B9BFF32F8FAD
:100810007047411EC2E8531F03B1F4E77047024618
:1008200052E8000F10B9BFF32F8F7047016842E8FC
:10083000001303B1F4E7704702680A60BFF35F8FEB
:1008400050E8002F0B689342F6D140E8001303B143
:10085000F2E770470246D2E84F0FC2E8431F03B1E8
:10086000F9E77047024652E8000F40EA010042E80B
:10087000000303B1F7E7704710B5024652E8000FD6
:1008800020EA010442E8004303B1F7E710BD10B5C8
:10089000024652E8000F00EA01048C4203D0BFF385
:1008A0002F8F002010BD20EA010442E8004303B16D
:1008B000EFE710BD10B5024652E8000F084203D121
:1008C000BFF32F8F002010BD20EA010442E800434F
:1008D00003B1F1E710BD024652E8000F411C42E8A7
:1008E000001303B1F8E7704710B5024652E8000F55
:1008F000814202D8BFF32F8F10BD441C42E8004351
:1009000003B1F3E710BD10B50246D2E85F0F814294
:1009100002D8BFF32F8F10BD441CC2E8534F03B160
:10092000F3E710BD10B50246D2E85F0F441CA142A8
:1009300000D80024C2E8534F03B1F5E710BD0246CA
:1009400052E8000F10B9BFF32F8F7047411E42E8E5
:10095000001303B1F4E770470246D2E85F0F10B905
:10096000BFF32F8F7047411EC2E8531F03B1F4E756
:100970007047024652E8000F10B9BFF32F8F70473F
:10098000016842E8001303B1F4E7704702680A60A7
:10099000BFF35F8F50E8002F0B689342F6D140E819
:1009A000001303B1F2E77047EFF30980816911F892
:1009B000021C91BB01B590E80F10E047BDE8005064
:1009C0008CE80300234B93E80600914208BF704770
:1009D00041B91EF0100F10D11F49086820F0010026
:1009E00008600AE02CE9F00F1EF0100F08BF2CED94
:1009F000108AC1F838C081F822E01A6092F82210FB
:100A0000906B61F0FF0E1EF0100F08BF00F028B8C9
:100A1000B0E8F00F80F30988704710B50F4A1368EB
:100A2000994206D852F821400FC8A047EFF3098435
:100A3000206010BD10B508F0BFF8BDE81040EFF31E
:100A4000098CBFE710B508F09DFBBDE81040EFF33F
:100A5000098CB7E7DC0B002034EF00E0C8C20008C7
:100A6000B0EC088AB0EC08CAFFF7D2BF064880474E
:100A700006480047FEE7FEE7FEE7FEE7FEE7FEE783
:100A8000FEE7FEE7FEE7FEE7314E00088D010008B5
:100A900010B500F00EFE001D10BD00BF0DAB000034
:100AA00006F016BD0B3020F0070070472DE9F0412D
:100AB00017460E460446FFF7F5FFA042054633D918
:100AC000002F1CBF06F10C0006F080FD3046746854
:100AD000F4B12168A94217D305F1080291423CBF45
:100AE0006168416007D3626861194A602268521BDD
:100AF0000A6041602560002F1CBF06F10C0006F063
:100B0000C1FD201DBDE8F08120466468002CE0D1C5
:100B10002946304600F0D6FD0028D7D1002F1CBF53
:100B200006F10C0006F0AEFD0020BDE8F08110B526
:100B3000044600F0B9FD01682046BDE810400122DE
:100B4000B4E770B516460D46041F002808BF70BDF7
:100B5000002E1CBF05F10C0006F038FD2B4658682E
:100B6000002818BFA04238BF0346F8D31968CA1836
:100B7000A24218BF5C6003D122681C461144196070
:100B800021680A19824218BF606004D1426862601D
:100B9000006808442060002E1CBF05F10C0006F020
:100BA00071FD70BD10B5044600F07EFD0168204661
:100BB000BDE810400122C4E753EA020C00F069804E
:100BC0002DE9F04B4FF00006002B1FBFB3FA83F561
:100BD00003FA05F424FA05F65E4012BF1643B2FA92
:100BE00082F502FA05F4C5F120051EBF22FA05FCC4
:100BF00044EA0C04203556EA044C4FEA144418BF6A
:100C0000641C4FF000084FF00009904271EB030C98
:100C100039D3002919BFB1FA81F701FA07F6B0FA02
:100C200080F700FA07F6C7F120071EBF20FA07FC7D
:100C300046EA0C062037B6FBF4FCA7EB0507103F8D
:100C400007F01F0BCBF120060CFA0BFB2CFA06F673
:100C500044BFB3460026202FA4BF5E464FF0000BD2
:100C60005BEA060C08BF4FF0010B19EB0B09ABFB5D
:100C7000027C48EB0608C01B06FB02CC0BFB03CC36
:100C800071EB0C01C1E70B46024641464846BDE800
:100C9000F08B13B54FF000004FF00001AFF3008070
:100CA000BDE81C40704700007CB51D4616460C0090
:100CB000009001D02044401E074B7B442A466946E1
:100CC0000190304600F0CFFD05461CB1002069467A
:100CD00000F0DCFD28467CBDD90B00001CB50C469D
:100CE000064B7B4469460090204600F0BCFD04465C
:100CF0000020694600F0CAFD20461CBDA70B00007D
:100D00007CB51D4616460C00009001D02044401EC4
:100D1000074B7B442A4669460190304600F0A3FD0C
:100D200005461CB10020694600F0B0FD28467CBD98
:100D3000810B00000FB41CB5084B06AA7B44694622
:100D40000090059800F08FFD04460020694600F0F1
:100D50009DFD20461CBC5DF814FB00004D0B0000FF
:100D600070B5044685690068C10601D5302600E0EB
:100D70002026C00707D070BDD4E901213046904736
:100D8000206A401C20626D1EF6D570BD70B5044609
:100D900085690078C00707D170BDD4E90121202002
:100DA0009047206A401C20626D1EF6D570BD70B55C
:100DB0000C460546012A05D02878800600D5EA6948
:100DC000002302E0012305E05B1C934202D2E05CB9
:100DD0000028F9D1A869E618C01AA861286A184441
:100DE00028622846FFF7BCFF04E0D5E9012114F88A
:100DF000010B9047B442F8D32846FFF7C7FF70BDF8
:100E00002DE9F0410646002410687529314616A5E3
:100E100010D000F0A3FC002802DA404213A507E03E
:100E200031688A0701D512A502E0490704D511A54A
:100E3000012401E000F09BFC00210A2206F12407B6
:100E400009E0B0FBF2FCB0FBF2F302FB1C00303017
:100E500078541846491C0028F3D123462A463046C8
:100E6000BDE8F04100F08CBC000000002D00000047
:100E70002B00000020000000F0B40D460188090599
:100E800002D5214C7C4402E01F4C7C440E340021EE
:100E900000F1240608E002F00F071209E75D42EABC
:100EA00003721B097754491C52EA0307F3D10278F5
:100EB0000023120704D5702D06D009B10223113486
:100EC0002246F0BC00F05CBC01231034F8E770B59A
:100ED00004460D462146106800F049FC02462946AA
:100EE0002046BDE870400023C6E7D21D22F007036C
:100EF000D3E90023C0E70368126843F020030360CE
:100F00000823C3610023B7E7D4B400002DE9F05FE4
:100F1000894604464FF0000ADFF874B1FB44C0F87C
:100F200020A02046E1688847002874D0252806D0F4
:100F3000D4E901219047206A401C2062F1E7002695
:100F40005F462046E16888472028054607DB312DAB
:100F500005D2781910F8200C08B10643F1E7B00764
:100F600001D526F00406C4F81CA00027C4F818A078
:100F70002A2D09D0284606F00EFB38B304EB87086B
:100F8000303DC8F8185019E059F8041B204604EB0E
:100F900087029161E1688847012F054618D1E06911
:100FA000002820DA26F020061DE0D8F8180000EB13
:100FB000800005EB40003038C8F818002046E16892
:100FC0008847054606F0E7FA0028EED1012F0AD03F
:100FD0002E2D08D12046E16888477F1C0546022F48
:100FE00046F02006C4DBA069002803DA404246F040
:100FF0000106A061F00701D026F010066C2D0BD081
:10100000682D09D04C2D39D06A2D35D0742D35D0AE
:101010007A2D33D016E038E0E1682F462046884725
:10102000B842054609D16C2F26D04FF48060E168A4
:10103000064320468847054604E06C2F1AD04FF43B
:10104000807006430DB3A5F14100192802D8203560
:1010500046F400664A462946204626604E46FFF77B
:10106000EFF880B101280BD0F61D26F0070000F143
:10107000080956E74020E4E78020D8E70020D6E7BB
:1010800006F104094DE7284652E7206A00F002B84D
:1010900064B4000030BCBDE8C09F70B50646FFF7E1
:1010A000FFFC0468054630460A22002100F0F8FCE7
:1010B0002C6070BD2DE9F04704464FF000094FF059
:1010C000FF37C568D4E90486A80707D0204600F09A
:1010D000CFFD304606F0E4FA002802DA3846BDE8D3
:1010E000F087280502D54046FFF75CFD4C212046DD
:1010F00000F01BFA206D20F0010020654846EEE765
:101100002DE9F041044600F14C07384606F05EFA3E
:10111000E068810712D0800601D5A66A04E0A169C3
:10112000606808442169461A204600F0A1FD0022AB
:1011300005463146204600F0EBFC00E0002538462D
:1011400006F0A0FA2846BDE8F0812DE9F04118B17B
:10115000BDE8F041FFF7D4BF0B4E0025304606F046
:1011600035FA0A4C6F1E07E02046FFF7C9FF00B1B1
:101170003D46206D20F00104002CF5D1304606F0EC
:1011800081FA2846DFE700008C0B00206023002056
:101190002DE9F04716468846814602F14C0738464D
:1011A00006F014FA3046FFF785FF18F8010B6128A6
:1011B0000AD0722802D077283FD102E0012500240E
:1011C00005E00225042402E0082448F2020518F88C
:1011D000010B2B2806D0622809D018F8010C7428BE
:1011E0000AD00BE045F0030544F00204EFE745F0B8
:1011F000040544F00104EAE744F01004484621469F
:1012000006F0C2FA411C18D00021316171604FF420
:101210000071F560F1617061200704D5304602224B
:10122000002100F075FC306D40F00100306538465B
:1012300006F028FA3046BDE8F0870026F7E72DE9EA
:10124000F04115460E460746204C204606F0BEF9F2
:101250002A4631463846FFF79BFF0546204606F0F2
:1012600011FA2846BDE8F0812DE9F0410E4680468E
:10127000164D284606F0AAF9154C206DC10704D07A
:10128000410804D020F00104F7E7224612E0542080
:10129000FFF74DFC070017D0206D47F00101084310
:1012A00054212065384600F040F907F14C0006F063
:1012B0009FF93A4631464046FFF76AFF0446284602
:1012C00006F0E0F92046CDE70024F8E78C0B00207B
:1012D00060230020014A00F02FBE0000880B002090
:1012E00030B503461D781DB10A4603E0AC4201D17A
:1012F000181A30BD12F8014B002CF7D15B1CF1E736
:1013000030B505460B462A4613F8014B12F8010B7F
:1013100008B1A042F8D01CB1002802D06D1CF1E742
:10132000284630BD10B5431C02E010F8011B71B116
:101330008107FAD14FF0013202C88C1A8C4314EAAB
:10134000C211F9D0C01A0A0603D0C01E10BDC01ABF
:1013500010BD0A0401D0801E10BD0902FCD0401E41
:1013600010BD40EA010370B59B072ED14FF0013646
:10137000042A2AD308C810C99D1B9D43121F15EAD1
:10138000C61517D0D8B2E1B2401A50EA056110D1A3
:1013900098B2A1B2401A50EA05410AD123F07F4029
:1013A00024F07F41401A50EA052102D1180EA0EB2B
:1013B000146070BDA342DBD018BA21BA884201D9AB
:1013C000012070BD4FF0FF3070BD0AB9002070BD24
:1013D00010F8013B11F8014B63B1A3420AD1521E30
:1013E00008D010F8013B11F8014B1BB1A34201D109
:1013F000521EEDD1181B70BD032A40F2308010F050
:10140000030C00F0158011F8013BBCF1020F62449F
:1014100098BF11F801CB00F8013B38BF11F8013B30
:10142000A2F1040298BF00F801CB38BF00F8013BDD
:1014300011F0030300F02580083AC0F0088051F84D
:10144000043B083A51F804CBA0E80810F5E7121D58
:101450005CBF51F8043B40F8043BAFF30080D20777
:1014600024BF11F8013B11F801CB48BF11F8012B43
:1014700024BF00F8013B00F801CB48BF00F8012B66
:10148000704710B5203AC0F00B80B1E81850203AF0
:10149000A0E81850B1E81850A0E81850BFF4F5AF14
:1014A0005FEA027C24BFB1E81850A0E8185044BF9E
:1014B00018C918C0BDE810405FEA827C24BF51F80B
:1014C000043B40F8043B08BF7047D20728BF31F8FF
:1014D000023B48BF11F8012B28BF20F8023B48BF50
:1014E00000F8012B70474FF000020429C0F0128071
:1014F00010F0030C00F01B80CCF1040CBCF1020FC7
:1015000018BF00F8012BA8BF20F8022BA1EB0C019B
:1015100000F00DB85FEAC17C24BF00F8012B00F891
:10152000012B48BF00F8012B70474FF0000200B5B7
:10153000134694469646203922BFA0E80C50A0E8F6
:101540000C50B1F12001BFF4F7AF090728BFA0E8A4
:101550000C5048BF0CC05DF804EB890028BF40F870
:10156000042B08BF704748BF20F8022B11F0804FB2
:1015700018BF00F8012B704710B5044610F0030F98
:1015800008BF11F0030F40F015804FF0013E121F0D
:10159000C0F20E8051F8043BA3EB0E0C2CEA030CB6
:1015A0001CEACE1C08BF40F8043BF0D0A1F10401B6
:1015B00002F10402521E08DB11F8013B002B00F877
:1015C000013BF7D11146FFF78EFF204610BD00000A
:1015D0004FF0013C50F8042B51F8043B9A4221D1C2
:1015E000A2EB0C03934313EACC1317D150F8042B4E
:1015F00051F8043B9A4215D1A2EB0C03934313EA32
:10160000CC130BD150F8042B51F8043B9A4209D16A
:10161000A2EB0C03934313EACC13DBD04FF0000092
:10162000704700BFD01A01BAB1FA81F101F0180178
:1016300022FA01F0CB40C1F12001DBB2C0B2C01AE6
:101640002CFA01F3D11A914311EAC311E6D1704784
:10165000704770477047000070B5064C7C44064DDB
:101660007D4403E0206820448047241DAC42F9D12A
:1016700070BD000080B3000094B300002DE9F0417C
:1016800017460E46054633B107FB0354E41B2046BC
:10169000B047A542FAD1A5F10800BDE8F0810000ED
:1016A000004870475C24002010B5FFF7F9FF0830B0
:1016B00010BD10B5FFF7F4FF203010BD7047704724
:1016C0007047704738B504460A4600206946AFF3B4
:1016D0000080002808BF38BD02460099204600F06F
:1016E0004DFC012038BD012001F0F2B8F8B5AFF390
:1016F0000080054600200C46102000BF0646A819B1
:10170000A0420DD9324669460020AFF300800700A1
:1017100008BF01F0DDF80098A04218BF0546C419C3
:10172000FFF7C2FF05600746F01D20F007004619CD
:10173000284600F00AF8B44208BFF8BDA21B3146A3
:101740003868BDE8F84000F019BC00210160C0E92C
:1017500001100C3005F04CBF1020704709684A0595
:1017600001D540B27047C905FCD500B27047096881
:101770004A0501D5C0B27047C905FCD580B2704793
:101780002DE9F0470D4699469246044600F124089B
:101790000168880604D5E06921F01001216000E0AD
:1017A0000120A84201DD471B00E00027A1697A194A
:1017B00002EB0900081AA0612078C00602D4204676
:1017C000FFF7CEFA002608E0D4E901211AF8060056
:1017D0009047206A401C761C20624E45F4DB20783E
:1017E000C0060AD52046FFF7BBFA06E0D4E901217E
:1017F00030209047206A401C2062381EA7F1010764
:10180000F4DC07E0D4E9012118F805009047206ACC
:10181000401C2062281EA5F10105F3DC2046FFF7DD
:10182000B5FA2078000602D50220BDE8F087012035
:10183000FBE711680268006A530501D508700AE0E9
:10184000D30501D5088006E0130603D5C217C1E908
:10185000000200E0086001207047000001694A1C96
:1018600002610878704700B58FB0CDE901310021E1
:10187000059105497944CDE9031011466846FFF703
:1018800045FB0FB000BD0000E5FFFFFF0A6802F84E
:10189000010B0A607047D1E900239A4202D2531C1F
:1018A0000B601070704710B5436913B1AFF300803F
:1018B00001E0FFF77CFA012010BD127800F124014D
:1018C0000A7000224A700122EDE711684FF0FF32E2
:1018D000E9E700002DE9FF5F15468A460446DFF878
:1018E000AC80F8440027D8E900103E46CDE900104E
:1018F00010E03AF816106A4602A800F0BDFF411C3D
:1019000007D02178890603D5E269391891420DD8AC
:101910000744761C2078800602D5E069B84205DDD0
:10192000AE42E6DB3AF816000028E2D1A069C01BFF
:10193000A0612046FFF714FAD8E90010CDE90010A5
:10194000002017E03AF818106A4602A800F094FF49
:10195000B0F1FF3F81460BD000250DF1080B05E0EB
:10196000D4E901211BF8050090476D1C4D45F7D3C4
:1019700008F10100B0428046E4DB206A384420626E
:101980002046FFF703FA00F003B80000B2AA0000F7
:101990003FBCBDE8C09F00002DE9F0418046D21D4C
:1019A00022F007020025D2E90002F52915A614D07D
:1019B000011E72F1000106DA0023D0EB030063EB95
:1019C000020211A608E0D8F800108B0701D50FA677
:1019D00002E0490701D50EA601251146002408F1B1
:1019E000240704E000F0E9FA30323A55641C50EA6A
:1019F0000102F7D12B46324621464046BDE8F04170
:101A0000FFF7BEBE000000002D0000002B0000000C
:101A10002000000030B4002100F1240408E002F0AE
:101A20000705D208303542EA4372DB086554491C89
:101A300052EA0305F3D10468002310A2250708D554
:101A400004F020040C4304D0C46901230CA2641EDA
:101A5000C46130BCFFF794BE10B50446214610683F
:101A6000FFF785FE02462046BDE810400023D1E77F
:101A7000D21D22F00701D1E90023CBE700000000CE
:101A8000300000003A2800D2303820F02002412AED
:101A900001D3A2F13700884201D34FF0FF307047E5
:101AA0002DE9F04791460F4680460446002614F87B
:101AB000015B2DB1FEF7ECFF0068405DC007F6D179
:101AC0002B2D02D02D2D18D0641E4A4639462046B3
:101AD00000F05FFE27B13968A14201D1C7F800804C
:101AE0004FF0020471050BD54042002803DDFEF7DC
:101AF000D7FF0460A007BDE8F08746F48066E4E7FE
:101B00000028F8DAFEF7CCFF04606FF00040F2E73F
:101B10002DE9F041044616460D464769007B8007D3
:101B20002ED0384605F00EFE50BB3EB3012E02D03B
:101B3000022E25D104E0204600F07DFE05441DE084
:101B4000384605F0D5FDE168002841F01001E1605C
:101B500005DA204600F058F80120BDE8F081C903FD
:101B60000BD56268E16A914200D81146A26911441E
:101B70002269891A814200DD08460544002D01DAF8
:101B80000220EAE7E16A6068E268814206D29103D6
:101B9000E06203D522F4003141F01002A66900276B
:101BA000AE4213DCE16A814201D90B4600E00346F4
:101BB00003EB060C2369ACEB030CAC4506DD81425C
:101BC00001D98C4600E084469C4505D1A76027607A
:101BD00042F02000A5620DE0AD1BE669AE1B81421C
:101BE000A66000D90846C01A281A206058196060FB
:101BF00022F0200003490840E060002084F848708B
:101C0000ABE70000BFCFD7FFC16821F4001141F05E
:101C10008001C16000218160016070472DE9F047BB
:101C2000814614460E464FF0FF383248D568576952
:101C3000054209D03846A16905F06AFE002811DB8B
:101C40002C48C0430540E5602B463246494638469D
:101C500005F090FEA16920F00042B21A114400285C
:101C6000A16103D02046FFF7CFFF4046BDE8F087D3
:101C700070B504460569C06A6168884200D80846A4
:101C8000E16821F42011E160C90312D5A84208D00F
:101C90002246411B2846FFF7C1FF10B14FF0FF302D
:101CA00070BD0020E562C4E90150E06820F4803096
:101CB000E060002070BD10B50446C06820F0200030
:101CC000E060A16AA06988420DD02046FFF7D0FFEE
:101CD000E06820F4405040F01000E060A06AA0618D
:101CE0002069E062606044F24001E0688843E0609F
:101CF00010BD0000100002002DE9F04704461E460A
:101D000090460D46C7684C30814605F05FFCB80729
:101D100014D0780212D44046B8F5807F09D0B0F5CF
:101D2000007F06D0B8F5806F08D1012604F12405A4
:101D300006E0701E6FF07F41884201D3012409E064
:101D40002561E6616560E06820F4706040EA0800A3
:101D5000E0600024484605F095FC2046BDE8F08789
:101D600010B565485421FFF7E0FB64485421FFF7A4
:101D7000DCFB63485421FFF7D8FB62485E49624AA6
:101D8000624B01605D4810605D4A1A60431C0B6540
:101D9000511C01650120106557484C3005F028FCA6
:101DA00056484C3005F024FC55484C3005F020FCDA
:101DB000574805F01DFC58484F4A56A17844FFF794
:101DC0003EFA20B9544878440A3800F07AFD544865
:101DD0004A4A52A17844FFF732FA20B95048784471
:101DE0000A3800F06EFD4F48454A4CA17844FFF791
:101DF00026FA20B94B4878440A3800F062FD4023A7
:101E00003D48DC0000212246FFF776FF20B1424822
:101E10007844543800F055FD3848224640230021CC
:101E2000FFF76AFF20B13E487844543800F049FD7E
:101E30003348224610230021FFF75EFF002806D01A
:101E400038487844BDE81040563800F03ABD10BD1F
:101E50002B482DE9F041006D2D4E20F00104304655
:101E600005F0B4FB244D4C35284605F0AFFB224865
:101E7000FFF720F9284605F005FC284605F0B1FBE0
:101E80001E4D4C35284605F0A1FB1C48FFF712F902
:101E9000284605F0F7FB284605F0A3FB184D4C3506
:101EA000284605F093FB1648FFF704F9284605F08D
:101EB000E9FB284605F095FB14E0206D20F00105B4
:101EC00004F14C00074605F081FB2046FFF7F2F8CD
:101ED000384605F0D7FB384605F083FB2046FEF771
:101EE00061FE2C46002CE8D1304605F0CBFB0848BB
:101EF00005F077FBBDE8F08160230020B4230020CB
:101F0000082400207C0B0020800B0020840B002084
:101F10008C0B00207200000071A000007700000010
:101F200060A0000050A0000010B500F0D9FCBDE892
:101F3000104000F0C1BC00002DE9F04115460E46EE
:101F4000040002D12C6804B90BA4204600F0E0FC88
:101F50000444207870B1274631463846FFF7C0F96F
:101F60000444207810B1002004F8010B38462C609E
:101F7000BDE8F0810027F9E70000000030B4044616
:101F80008C464368002B18BF634538BF1846F8D30A
:101F900003681844604507D0C81C20F0070000F112
:101FA000040CACEB0100121A2146CCF8002030BC26
:101FB00000220CF10400FEF7C4BD30B5B0F10A02F6
:101FC0004FEA900E71F100034EEA817EB0EB0E00F5
:101FD00061EB91014FEA101E4EEA017E10EB0E00FC
:101FE00041EB11114FEA102E4EEA016E10EB0E007C
:101FF00041EB11214FEA104E4EEA014E10EB0E005C
:1020000041EB1141401841F100014FEAD00040EA94
:1020100041704FEAD10110EB80054FEA810444EA98
:10202000907444EB01046D1944EB0404521BA3416A
:102030004FF0000348BF0A3200D530BD401C41F1CB
:10204000000130BD70472DE9FF4F0C461E464FF092
:10205000FF378BB0D2E90001DDF860800A908A4634
:10206000C1F30A5505B93D46002108464FF000006E
:10207000BAF1000F00F4400005DA00EB80004FF4E5
:10208000400101EA50004FEA9059B9F1010F00DD1B
:10209000B9460A9850EA4A000ED044F61050A5F20C
:1020A000FF3545432F14B8F1000F1ED07542291E8D
:1020B0001EDDC9F100021CE0B8F1010F4FF0000075
:1020C00001D0302103E0F24305E02154401CB0422E
:1020D000FBDB30460022002121540B99C1F8088017
:1020E000C1E900200FB000F0BAB9BD1B6D1CDEE7DE
:1020F0004A4600DA694206A800F066FC06AB93E89F
:10210000070003AB83E8070050460A9900F033FD4F
:102110008DE80700A0F500501F3800900398002DAF
:1021200009DD42F21F014A46084403A903906846AC
:1021300000F092FF08E0A0F500504A461F3803A9BE
:102140000390684600F09CFF8DE807000004000C37
:1021500003D04FF0FF30410800E01046B8F1000F07
:1021600003D00022009215461EE0751E05D4FFF72D
:1021700024FF303262556D1EF9D5B3460122084363
:1021800002D000227F1C04E02078302801D10022F8
:102190007F1E002A099786D01DE0112D07DAFFF770
:1021A0000CFF303262556D1C50EA0102F5D1084334
:1021B00002D00098C8B10EE00021681E05E0235C43
:1021C000625C63542254401E491C8142F7DBAB46DB
:1021D000A81B401E0990002004F80B000B98099AD8
:1021E000C0F80880C0E9002B7CE711264FF00008FA
:1021F00059E72DE9F04F88460446D21D22F0070129
:1022000091B0D1E90001CDE90A0105F06BF8024671
:102210000B98C00F01D02D2007E02068810701D561
:102220002B2002E0202101EAC000032A099001D0FE
:10223000072A05DB03464146204600F085FB0BE1FB
:102240002078800601D5E06900E00620B8F1650F2E
:10225000814606D0B8F1660F18D0B8F1670F70D17B
:1022600031E00020B9F1110F009001DB112301E0F2
:1022700009F101030AAA01A90CA8FFF7E4FEDDE9B0
:102280000C70002609F10105834647E001204B460A
:1022900000904FF000470AAA01A90CA8FFF7D3FE4F
:1022A000DDE90DB00C995D46002610B909F1010079
:1022B0000D18B9EB050003D4C0F1FF3609F1010593
:1022C000A5EB09002BE0B9F1010F01DA4FF001098C
:1022D0000020B9F1110F0090484601DD112300E004
:1022E00003460AAA01A90CA8FFF7ADFEDDE90C70B0
:1022F0004D4600268346207800070AD4AB4500DA15
:102300005D4601A8012D04DD411911F8011C302999
:1023100007D04F4502DA17F1040F04DA0120824694
:102320000FE06D1EEEE7002F02DCED1B3E4403E0E4
:10233000781CA84200DD7D1CB81B00F1010A4FF09B
:1023400000472078000703D4AA4501DB4FF0FF3A8D
:102350000021B7F1004F0DF143088DF8431024D050
:1023600002202B23002F01DA7F422D230A21021E97
:10237000A0F1010000DC5FB197FBF1FC97FBF1F2EB
:1023800001FB1C7C17460CF1300C08F801CDEEE780
:10239000A8F1010003702188090501D5452100E05D
:1023A0006521A0F1010800F8011C09980FA9A1EB13
:1023B0000807FF1D00B10120411901EBEA70A16976
:1023C0003844081A401EA0612078C00602D4204676
:1023D000FEF7C6FC099828B1D4E901219047206A8C
:1023E000401C20622078C00622D52046FEF7B8FCAB
:1023F0001EE0002E04DBB34502DD01A8805D00E095
:102400003020D4E901219047206A401C2062761CCC
:10241000AAF101005FEA000A0AD1FFF74AF9C06891
:102420000168405CD4E901219047206A401C206289
:10243000281EA5F10105DCDC07E0D4E9012118F82C
:10244000010B9047206A401C2062381EA7F101074B
:10245000F3DC2046FEF79AFC032011B043E630BCC3
:10246000BDE8C08F2DE9F04F04460D46D21D22F085
:10247000070089B0D0E900974846394604F032FF9A
:102480000246F80F01D02D2307E02068810701D50F
:102490002B2302E0202101EAC0038DF820300BB18C
:1024A000012000E00020032A824601D0072A04DB35
:1024B0002946204600F048FA3FE12078800601D402
:1024C0000D2500E0E569C7F30A560D2D49DA002114
:1024D0004FEA175B08464FF00000002F00F4400061
:1024E00007DA00EB80004FF4400100EBD07001EA06
:1024F00060008115012901DD4FF0FF3100224FEA14
:10250000850CBCF1180F06D31346ACF118004FF040
:102510008052C24003E04FF4801323FA0CF30CF115
:102520000C0CBCF1200F04D3ACF1200C09FA0CF018
:1025300001E007FA0CF000294FF0004801DD18B95E
:102540000FE00ED140450CD319EB02095F4121B9D0
:10255000404502D19F4329EA0209BBEB175F00D037
:10256000761C2088000502D57B48784402E07A4832
:102570007844193808AA302302F80A30037C0AF19B
:102580000101002E0AF1020A53546A4602DC4FF0A0
:10259000300101E04FF031014FF001088DF80010DB
:1025A00002D0A6F2FF3603E059EA470100D06B4E95
:1025B000002D02DC2178090704D54FF002082E21F6
:1025C0008DF80110C44600210BE0C7F303433F011F
:1025D000C35C491C6D1E02F80830052908F101088A
:1025E00001DA002DF1DC00210CE000EB1973491C2D
:1025F0001B786D1E082902F808304FEA091908F106
:10260000010801DA002DF0DC21688B0602D516E006
:10261000A8F10108E04505DD02EB080313F8013CD1
:10262000302BF5D0B8F1000F09DD02EB080313F8E9
:10263000013C2E2B03D1090701D4A8F10108002D7C
:1026400005DD3E2102F808106D1E08F10108407CEE
:10265000002E02F8080008F1010804DA2D20764265
:1026600002F8080002E02B2002F808000A214FF4CB
:102670007A70864208F101080BDB96FBF0F33033E9
:1026800002F8083096FBF0F308F1010800FB13662E
:1026900001E0642E0CDB642096FBF0F3303302F88B
:1026A000083096FBF0F308F1010800FB136601E027
:1026B0000A2E06DB96FBF1F0303002F8080008F134
:1026C000010896FBF1F001FB1060303002F80800C1
:1026D000A16908F1010808EB050202EB0A00081ADB
:1026E000A0612078C00602D42046FEF739FB216A9B
:1026F00008AE01EB0A00206204E0D4E9012116F8DB
:10270000010B9047BAF1010AF7D22078C00602D532
:102710002046FEF725FB6E4609E016F8010B3E2821
:102720000FD0D4E901219047206A401C2062B8F103
:102730000108F2D22046FEF729FB09B0032000F081
:102740000FB8206A2844206203E0D4E90121302038
:1027500090476D1EEBD3F8E7459E000002FCFFFF9B
:1027600030BCBDE8C08F10B5436913B1AFF3008032
:1027700001E0FFF7AFF8012010BD128800F124013D
:1027800082840022C2840122EDE711684FF0FF32FB
:10279000E9E72DE9F05F824615468B4600270AF1EE
:1027A0000104B9460078302801D09DB113E014F837
:1027B000010B0127782803D0582801D045B10AE041
:1027C0000DB1102D07D1002714F8010B102502E0E0
:1027D000082500E00A250026B0460EE005FB0800AB
:1027E00005FB06F101271FFA80F801EB1046B6F54C
:1027F000803F00D3B94614F8010B2946FFF742F990
:102800000028EBDABBF1000F05D00FB1641E00E029
:102810005446CBF80040B9F1000F06D0FEF740F95E
:1028200002210160C81E00F003B848EA0640FAE73A
:1028300030BCBDE8C09F10B50146C268900703D008
:10284000900607D5886A0AE0FEF72AF9012101609F
:10285000881E10BD8B69486818440B69C01A91F82E
:1028600048301BB191F84910401A10BD1103FCD536
:102870000028FADD401E10BD70B516460C46054610
:10288000FEF706F9036893F80101012806D0FF2C32
:102890000FD8185D68B101202C7070BDD3F8070106
:1028A0003246214603F2071303442846BDE8704030
:1028B00018474FF0FF3070BD002801D000F036B847
:1028C000704710B500F008F9BDE81040FFF7F4BFFD
:1028D00010B500F01BF9BDE81040FFF7EDBF000098
:1028E00010B5002102A000F0DDF8012010BD0000AD
:1028F0005349475056464E3A2050757265207669C6
:10290000727475616C20666E2063616C6C65640026
:1029100030B503461D783DB10A4612F8014B1CB193
:10292000AC42FAD15B1CF5E7181A30BD01491820FA
:10293000ABBEFEE72600020010B5FEF7B5FE00684C
:10294000BDE8104000F012B92DE9F0411F460446E1
:1029500003260168072A01F4006004DB08B116A50C
:1029600005E016A503E008B115A500E015A521F0C6
:1029700010002060A069C01EA0610FB1401EA061C0
:102980002046FEF7EDF94FB1D4E9012138469047D2
:10299000206A401C2062C01C206206E0206AFAE720
:1029A000D4E9012115F8010B9047761EF8D2204694
:1029B000FEF7ECF9BDE8F0814E414E006E616E000D
:1029C000494E4600696E66002DE9F047814616467D
:1029D0008AB0334878440DC88DE80D0030487844FB
:1029E000801C03AC0DC884E80D0041F69B30084400
:1029F000372190FBF1F290FBF1F5A5F1800501FB89
:102A000012041B3C02D56442012000E00020DFF8E4
:102A100090A080460027FA44AAF1BE0A0DE0E00724
:102A200009D03246684607EB47010AEB810100F006
:102A300027FB8DE8070064107F1C002CEFD1184F96
:102A40007F44AC3F18E0E80714D007EB04100DF109
:102A5000180A90E80E008AE80E00C068F04201D122
:102A600098190890324606A903A800F009FB03ABA9
:102A700083E807006D10641C002DE4D132466946DE
:102A8000B8F1000F03A802D000F0E6FA01E000F070
:102A9000F7FAC9E90001C9F808200AB0BDE8F087D3
:102AA0006C9A000070B505460C460A2000E06D1CCB
:102AB00000F054F835B128780028F8D102E0641C01
:102AC00000F04CF814B120780028F8D1BDE870402F
:102AD0000A2000F043B8000010B5014602A0FFF73D
:102AE000E1FF012010BD00005349475254524544B4
:102AF0003A2052656469726563743A2063616E2797
:102B000074206F70656E3A200000000010B5012837
:102B100005D0002103A0FFF7C5FF012010BD09A1CA
:102B2000F8E7000053494752544D454D3A204F7540
:102B300074206F662068656170206D656D6F7279B5
:102B4000000000003A2048656170206D656D6F726D
:102B50007920636F727275707465640008B5694698
:102B60008DF800000320ABBE08BD704710B50C30D7
:102B700004F037FD10BD5FEA400C08BF91F0000F74
:102B80004FEA8C234FEAC12243EA51514FEA1C50CD
:102B900018BF00F5F0404FEA300018BF41F0004187
:102BA0005FEA6C5C00F02980BCF1FF3F08BF40F099
:102BB00080407047130C06BF12044FF0100C4FF00A
:102BC000000C130E04BF12020CF1080C130F04BF0B
:102BD00012010CF1040C930F04BF92000CF1020CD3
:102BE000D30F04BF52000CF1010C11464FF000024C
:102BF000A0F11F00A0EB0C00704711F0004F08BFC0
:102C0000704731F000413FF4D5AF0B0C06BF09040B
:102C10004FF0100C4FF0000C0B0E04BF09020CF12A
:102C2000080C0B0F04BF09010CF1040C8B0F04BF3F
:102C300089000CF1020CCB0F04BF49000CF1010C10
:102C4000CCF12003A0EB0C0022FA03F302FA0CF201
:102C500041EA030100F10100704720F07F4C80EA57
:102C6000030023F07F47ACEB070303F57C5300F030
:102C7000004003F1FF032DE980494FEA154B09B4E9
:102C80004FEA144325EA0B4E24EA03480FF20426C8
:102C900006EB132749083E785FEA320203FB06671A
:102CA000C7F5000707FB06F64FEA54374FEAD6464A
:102CB00006F1020607FB066CCCF1005C4FEA1C47EC
:102CC0002CEA074C07FB06F40CFB06F504EB154653
:102CD0004FEA961634BF00204FF000404FEAD1373C
:102CE00006FB07FC4FEA1C4C0CFB0BF7D21B03FB4B
:102CF0000CF761EB07010CFB0EF7B0EB074072EB32
:102D000017420CFB08F734BFA2EB0742B2EB0742B5
:102D100061EB17414FEA0C444FEA910706FB07FCB1
:102D20004FEA1C4C0CFB0BF7B0EBC74072EB573271
:102D300003FB0CF734BFA2EBC742B2EBC74261EB17
:102D400057310CFB0EF7B0EBC70072EB57720CFB60
:102D500008F734BFA2EBC702B2EBC70261EB5771B1
:102D6000039F4FEA816141EA921104EBCC044FEAE0
:102D7000D1374FEA826206FB07FC42EA90124FEA23
:102D800080604FEA1C4C0CFB0BF7D21B03FB0CF7CB
:102D900061EB07010CFB0EF7B0EB074072EB17423B
:102DA0000CFB08F734BFA2EB0742B2EB074261EB22
:102DB00017414FEA8C554FEA910704EB9C2406FB20
:102DC00007FC4FEA1C4C0CFB0BF7B0EBC74072EB57
:102DD000573203FB0CF734BFA2EBC742B2EBC7423A
:102DE00061EB57310CFB0EF7B0EBC70072EB57727B
:102DF0000CFB08F734BFA2EBC702B2EBC70261EBD2
:102E0000577115EB4C254FEA816141EA92114FEA67
:102E100082624FEAD13742EA901206FB07FC44F186
:102E200000044FEA80604FEA1C4C0CFB0BF7D21BEE
:102E300003FB0CF761EB07010CFB0EF7B0EB07404F
:102E400072EB17420CFB08F734BFA2EB0742B2EB60
:102E5000074261EB174115EB1C154FEA813141EA3E
:102E600092414FEA823242EA90424FEA80304FEA82
:102E70000C7644F1000448EA03434EEA0B484FF055
:102E8000000EB2EB080C71EB030724BF6246394613
:102E90004EEB0E0E4FF0000B0018524149414BEB28
:102EA0000B0BB2EB080C71EB03077BF1000B24BF9B
:102EB000624639464EEB0E0E4FF0000B00185241A1
:102EC00049414BEB0B0BB2EB080C71EB03077BF1A9
:102ED000000B24BF624639464EEB0E0E51EA020744
:102EE00018BF46F0010616EB0E7655F1000254F1BC
:102EF000000103D5BDE88901BDE80088BDE889016E
:102F0000BDE80048B619524141EB0101A3F10103AC
:102F1000704780807F7E7D7C7B7A79787776767546
:102F20007473727171706F6E6E6D6C6C6B6A6A69BE
:102F30006868676666656464636362616160605F58
:102F40005F5E5E5D5D5C5C5B5B5A5A5959585857D1
:102F50005756565555555454535352525251515039
:102F600050504F4F4F4E4E4D4D4D4C4C4C4B4B4B8C
:102F70004A4A4A49494948484847474747464646D2
:102F8000454545444444444343434342424242410D
:102F90004141002B26D4770021D01CB54FEA3707DA
:102FA00003B44FF010004FF010014FF000000FBCC1
:102FB000BDE810400BF1010BBBF1010F08BF5FEA48
:102FC000170722BF12F1010211F101014FF0004178
:102FD00043F1000300F0004043EA00007047F9D3DA
:102FE0005708DAE746EA064613F1400F4FEA16465D
:102FF0001FDD13F1200FDFBF16430A4600212033E7
:103000005B42C8D0C3F1200746EA064602FA07F73A
:103010004FEA164646EA0706C3F1200722FA03F2F2
:1030200001FA07F721FA03F14FF0000342EA070221
:10303000B1E746EA020646EA06464FEA164646EA7F
:103040000106BCBF46EA0646360C4FF000034FF0BF
:1030500000024FF000019EE72DE9C048934630B4CE
:1030600091E8380007C831EA400C48BF34EA430C05
:1030700003D5FFF7F2FDFFF78CFFF0BCBDE8008839
:103080002DE9C048934630B491E8380007C810F0E5
:10309000804F08BF13F0804F03D100F005F8FFF711
:1030A00078FFF0BCBDE8008820F07F4780EA03008D
:1030B00023F07F4C07EB0C03A3F57C5300F000409A
:1030C000A3F1FE0392F0000F00F0B38095F0000F23
:1030D00000F077802DE901494FEA11404FEA14468C
:1030E00021EA004800FB06FC24EA064708FB06F636
:1030F00007FB08F800FB07F718EB06484CEB164CEB
:103100004FEA124B18EB07484FEA15464CEB1740B5
:1031100022EA0B4E0BFB06FC25EA06470EFB06F6E1
:1031200007FB0EFE0BFB07F71EEB064E4CEB164C97
:103130004FF000061EEB074E4CEB174B18EB0B083D
:1031400040F1000018EB0E0B58EB000840F10000B6
:103150008F1A4FF000013CBFC943661B14BFB5EB8B
:10316000040C00213CBFC943F61B4FEA17444EEA4A
:103170008E0E27EA04454FEA1C4704FB07622CEA3F
:10318000074C05FB07F70CFB05F604FB0CFC16EBE4
:10319000074642EB174216EB0C4642EB1C421BEB78
:1031A000060658EB0202414146EA9E0601D5BDE8FB
:1031B0000189B619524141EB0101A3F10103BDE8B8
:1031C00001894FEA14454FEA114724EA054621EAEE
:1031D000074C05FB07F406FB07F70CFB06F105FBA4
:1031E0000CFC11EB074144EB17444FEA124711EB7B
:1031F0000C4144EB1C4422EA074C05FB07F206FB9A
:1032000007F70CFB06F605FB0CFC16EB074642EB3A
:10321000174216EB0C4642EB1C456A1854F10001AC
:1032200048BF7047B619524141EB0101A3F10103B8
:10323000704795F0000F37D04FEA11424FEA14471C
:1032400021EA024624EA074C02FB07F106FB07F7D6
:103250000CFB06F402FB0CFC14EB074441EB17419A
:103260004FEA154714EB0C4441EB1C4125EA074C8F
:1032700002FB07F506FB07F70CFB06F602FB0CFC4E
:1032800016EB074645EB174516EB0C4645EB1C4283
:10329000121951F1000148BF7047B619524141EB74
:1032A0000101A3F1010370474FEA14454FEA1147AA
:1032B00024EA054621EA074C05FB07F106FB07F760
:1032C0000CFB06F24FF0000605FB0CFC12EB07426C
:1032D00041EB174112EB0C4251EB1C4148BF7047C8
:1032E000921841EB0101A3F10103704710B504F0FE
:1032F000DDFF04F034FF10BD10B504460021204668
:1033000008F090FC10BD000010B50021014804F049
:103310006DFB10BD0064004010B50021014804F0B1
:1033200065FB10BD0064004010B50021014804F0A9
:103330005DFB10BD006400407047000010B50848F8
:10334000006820B106490968886D00F0BBF805489F
:10335000006820B103490968086A00F0B3F810BD9D
:10336000480B0020340B002010B50C48006820B139
:103370000A490968486D00F0A5F80948006820B1BD
:1033800007490968086A00F09DF80648006820B1FE
:1033900004490968486A00F095F810BD480B002000
:1033A000440B0020380B002010B50448006820B101
:1033B00002490968C86A00F085F810BD400B00207A
:1033C0007047704710B50448006820B10249096889
:1033D000886A00F077F810BD3C0B002010B5044857
:1033E000006820B102490968886D00F06BF810BDD3
:1033F0004C0B002010B50448006820B10249096850
:10340000486D00F05FF810BD4C0B0020704770470E
:1034100070477047704770477047704770477047F4
:1034200070477047704770477047704770477047E4
:1034300070477047704770477047704770477047D4
:1034400070477047704770477047704770477047C4
:1034500070477047704770477047704770477047B4
:1034600070477047704770477047704770477047A4
:103470007047704770477047704770477047704794
:1034800010B506F073F80446204607F0D5FE10BDCF
:103490007047704770477047704770477047704774
:1034A000704770477047704770477047704700F02B
:1034B0001F02012191404211920002F1E022C2F864
:1034C0000011704770B50446206C056820680668D6
:1034D00094F84410042088402840D0B106F004003D
:1034E000B8B12068006800F0200028B920680068A2
:1034F00020F004002168086094F8441004208840FB
:10350000216C4860206B00284ED02046216B8847F4
:103510004AE094F8441002208840284008B306F09E
:103520000200F0B12068006800F0200040B9206877
:10353000006820F00A0021680860012084F8250056
:1035400094F8441002208840216C486000BF00209D
:1035500084F8240000BFE06A30B32046E16A88475F
:1035600022E094F84410082088402840E0B106F09A
:103570000800C8B12068006820F00E0021680860CB
:1035800094F8441001208840216C48600120E063D9
:1035900084F8250000BF002084F8240000BF606B81
:1035A00010B12046616B884770BD0000014800687B
:1035B00070470000FC0A002002480068401C0149D6
:1035C00008607047FC0A002010B5032000F090F856
:1035D0000F2000F005F800F089F8002010BD000071
:1035E00010B588B0044602A903A800F0CDFB00F096
:1035F000F3FB029000BF3748806D40F00100354971
:1036000088650846806D00F00100019000BF00BF92
:103610000846806B40F0010088630846806B20F00C
:103620000100886388042C4908604FF0FF312A4864
:10363000C160069840B929490298B0FBF1F080B208
:10364000401E2549486008E0029840002349B0FB2D
:10365000F1F080B2401E2049486000211E480161FF
:103660008160416101F032F81C201D491D4B1A6830
:1036700000F1100342F8231000BF00BF002809DB4F
:1036800000F01F02012191404209920002F1E02264
:10369000C2F8001100BF00210F4801F033F80421E7
:1036A0000D4801F02FF80C480068406A0E49086088
:1036B0000846006800F57A7007490968886306487B
:1036C0000068C06840F0040003490968C860002031
:1036D00008B010BD00100240B822002040420F0088
:1036E00091B3000808ED00E0BC0A0020704700001C
:1036F00000BF00F00702064B19684FF6FF031940A0
:10370000044B0B4343EA0221014B196000BF704791
:103710000CED00E00000FA0500BF1148006820F43D
:1037200080400F4A10600F4800680F4AB0FBF2F06B
:10373000322200FB02F100E0491E31B10848406925
:1037400000F40070B0F5007FF6D00548406900F441
:103750000070B0F5007F01D1032070470020FCE726
:1037600000700040000B002040420F00034800683A
:1037700040F480400149086070470000007000403C
:103780000D49096821F00701891C0B4A11600B499A
:10379000096841F00401094A1160012801D130BFD4
:1037A00002E040BF20BF20BF0449096821F00401A6
:1037B000024A1160704700000070004010ED00E008
:1037C0000248006800F4C0607047000000700040CC
:1037D00070B505460C464DB90F48406900F40070BD
:1037E000B0F5007F09D1FFF797FF06E00A4840696E
:1037F000C0F3402008B9FFF7B9FF0848006820F07F
:10380000040006490860012C01D130BF02E040BF2E
:1038100020BF20BF70BD00000070004010ED00E030
:103820000648006820F0200004499039C1F8900053
:103830000846806920F4007088617047901002404B
:103840000348006840F00400014908607047000028
:10385000001002402DE9F843044600260027002509
:10386000A846208800F40060B0F5006F26D1E06B18
:1038700068B1B0F5000F03D0B0F5400F0ED10CE0E9
:10388000C548C06840F48030C349C86008E00021E2
:10389000201D01F023F8054602E001E0012500BFEC
:1038A00000BF55B9BC488830006820F44000E16B87
:1038B0000843B949C1F8880000E0A846206800F430
:1038C0000030B0F5003F74D14FF00009B248806D70
:1038D00000F0805078B900BFAF48806D40F0805054
:1038E000AD4988650846806D00F08050009000BFAB
:1038F00000BF4FF00109A948006840F48070A74953
:103900000860FFF753FE074606E0FFF74FFEC01BB7
:10391000022801D9032505E0A048006800F4807062
:103920000028F2D000BF7DBB9B489030006800F4B7
:103930004076CEB1206DB04216D0974890300068E6
:1039400020F440769448D0F8900040F480309249BA
:10395000C1F890000846D0F8900020F48030C1F8FB
:1039600090000846C0F8906006F00100A8B1FFF78B
:103970001DFE074609E0FFF719FEC01B41F2883122
:10398000884202D9032507E016E08348903000689A
:1039900000F002000028EED000BF5DB97E489030F4
:1039A000006820F44070216D08437B49C1F8900005
:1039B00003E00CE0A84600E0A846B9F1010F05D1EC
:1039C0007548806D20F080507349886500BF20786D
:1039D00000F0010048B170488830006820F0030012
:1039E000216A08436C49C1F88800207800F0020081
:1039F000022809D168488830006820F00C00616A0C
:103A000008436549C1F88800207800F0200020288C
:103A100009D161488830006820F44060A16A0843F9
:103A20005D49C1F88800208800F40070B0F5007F7F
:103A300009D159488830006820F44020616B084360
:103A40005549C1F88800208800F48060B0F5806F87
:103A500009D151488830006820F44010A16B084318
:103A60004D49C1F88800207800F04000402809D175
:103A700049488830006820F44050E16A08434649CC
:103A8000C1F88800208800F48070B0F5807F09D1EB
:103A900041488830006820F44030216B08433E499B
:103AA000C1F88800208800F40050B0F5005F1FD1F5
:103AB00039488830006820F04060216C084336495E
:103AC00088310860206CB0F1006F06D13248C068C0
:103AD00040F480103049C8600AE0206CB0F1806F7B
:103AE00006D10121201D00F0F9FE054605B1A846CA
:103AF000206800F48020B0F5802F1FD12648883040
:103B0000006820F04060616C0843234988310860F8
:103B1000606CB0F1006F06D11F48C06840F480109F
:103B20001D49C8600AE0606CB0F1806F06D10121C8
:103B3000201D00F0D3FE054605B1A846208800F4FC
:103B40008040B0F5804F14D113488830006820F0D1
:103B50004050A16C0843104988310860A06CB0F156
:103B6000805F06D10221201D00F0B8FE054605B198
:103B7000A846208800F40040B0F5004F09D106485F
:103B80008830006820F08040E16C08430249C1F8A9
:103B900088004046BDE8F8830010024000700040F5
:103BA00070B504460D4600267348006800F0070013
:103BB000A8420ED27048006820F0070028436E49E2
:103BC00008600846006800F00700A84201D0012004
:103BD00070BD207800F00200022807D16748806895
:103BE00020F0F000A168084364498860207800F064
:103BF0000100002879D06068022806D15F4800687B
:103C000000F40030D8B90120E2E76068032806D14B
:103C10005A48006800F0007088B90120D8E7606851
:103C200030B95648006800F0020040B90120CFE7E3
:103C30005248006800F4806008B90120C8E74F4886
:103C4000806820F00300616808434C498860FFF7F2
:103C5000ADFC06466068022810D108E0FFF7A6FC1C
:103C6000801B41F28831884201D90320B0E74348E4
:103C7000806800F00C000828F0D136E06068032866
:103C800010D108E0FFF792FC801B41F28831884296
:103C900001D903209CE73948806800F00C000C280B
:103CA000F0D122E0606880B908E0FFF77FFC801B5C
:103CB00041F28831884201D9032089E72F48806882
:103CC00000F00C000028F0D10FE008E0FFF76EFCD8
:103CD000801B41F28831884201D9032078E72748C8
:103CE000806800F00C000428F0D12348006800F040
:103CF0000700A8420ED92048006820F0070028439A
:103D00001D4908600846006800F00700A84201D07D
:103D100001205DE7207800F00400042807D117484F
:103D2000806820F4E060E1680843144988602078E6
:103D300000F00800082808D11048806820F460507E
:103D4000216940EAC1000D49886000F071F80B4913
:103D5000896801F0F001F02292FAA2F2B2FA82F23E
:103D6000D140074A515CC840064908600F20FFF760
:103D700037FC00202CE70000002002400010024029
:103D8000CCC20008000B00200F2202600D4A92688E
:103D900002F0030242600B4A926802F0F002826075
:103DA000084A926802F4E062C260064A926802F42D
:103DB0006052D2080261044A126802F007020A60E7
:103DC00070470000001002400020024001480068D7
:103DD00070470000000B002000B5FFF7F7FF074910
:103DE000896801F4E0614FF4E06292FAA2F2B2FA5B
:103DF00082F2D140024A515CC84000BD001002402E
:103E0000DCC2000800B5FFF7E1FF0749896801F44B
:103E100060514FF4605292FAA2F2B2FA82F2D140AB
:103E2000024A515CC84000BD00100240DCC20008DC
:103E3000F0B5002100230024022502220020554E67
:103E4000B66806F00C065EB1524EB66806F00C0677
:103E50000C2E2DD14F4EF66806F00306012E27D109
:103E60004C4E366806F008066EB94A4E94363668EF
:103E700006F470664FF4706797FAA7F7B7FA87F7FA
:103E800026FA07F10AE0434E366806F0F006F027FE
:103E900097FAA7F7B7FA87F726FA07F13E4E56F8D2
:103EA00021103C4EB66806F00C0686B908460EE0B6
:103EB000384EB66806F00C06042E01D1374806E0ED
:103EC000344EB66806F00C06082E00D13448314E48
:103ED000B66806F00C060C2E5BD12E4EF66806F086
:103EE00003042C4EF66806F07006702797FAA7F7C1
:103EF000B7FA87F7FE40721C012C29D0022C02D0A1
:103F0000032C24D111E0254EB6FBF2F6214FFF68B9
:103F100007F4FE474FF4FE4C9CFAACFCBCFA8CFC58
:103F200027FA0CF706FB07F323E01D4EB6FBF2F66B
:103F3000184FFF6807F4FE474FF4FE4C9CFAACFCA8
:103F4000BCFA8CFC27FA0CF706FB07F311E000BF64
:103F5000B1FBF2F60F4FFF6807F4FE474FF4FE4C3B
:103F60009CFAACFCBCFA8CFC27FA0CF706FB07F3B6
:103F700000BF00BF074EF66806F0C0664FF0C0678E
:103F800097FAA7F7B7FA87F7FE40761C7500B3FBE0
:103F9000F5F0F0BD00100240E4C200080024F40077
:103FA00000127A00F8B504460025207800F01000D1
:103FB000102874D1FE48806800F00C00002870D1F1
:103FC000FB48006800F0020018B1A06908B90120A0
:103FD000F8BDF748216A006800F0080020B1F448F5
:103FE000006800F0F00005E0F1489430006800F44B
:103FF0007060000981421FD9206A00F065FD08B198
:104000000120E5E700BFEA48006840F00800E84901
:1040100008600846006820F0F000216A0843E4497F
:10402000086000BF0846406820F47F40E16940EA2C
:104030000120DF4948601EE000BFDD48006840F015
:104040000800DB4908600846006820F0F000216A9B
:104050000843D749086000BF0846406820F47F4005
:10406000E16940EA0120D2494860206A00F02CFD55
:1040700008B10120ACE7FFF7DBFECD49896801F00C
:10408000F001F02292FAA2F2B2FA82F2D140C94AC9
:10409000515CC840C84908600F20FFF7A1FA4BE007
:1040A000FFE7A06980B3C248006840F00100C04942
:1040B0000860FFF77BFA054606E0FFF777FA401B3A
:1040C000022801D9032083E7B948006800F0020004
:1040D0000028F2D000BFB648006840F00800B4499C
:1040E00008600846006820F0F000216A0843B049E3
:1040F000086000BF0846406820F47F40E16940EA5C
:104100000120AB49486017E0FFE7A948006820F0AC
:104110000100A7490860FFF749FA054606E0FFF7E6
:1041200045FA401B022801D9032051E7A048006846
:1041300000F002000028F2D1207800F001000028F1
:1041400068D09B48806800F00C0008280BD0984885
:10415000806800F00C000C280ED19548C06800F073
:104160000300032808D19248006800F4003088B3A7
:10417000606878BB01202BE700BF6068B0F5803F26
:1041800006D18B48006840F48030894908601AE005
:104190006068B0F5A02F0BD18548006840F48020FE
:1041A000834908600846006840F4803008600AE0EF
:1041B0007F48006820F480307D4908600846006828
:1041C00020F48020086000BF606890B1FFF7EEF92E
:1041D000054607E01EE0FFF7E9F9401BC82801D9B2
:1041E0000320F5E67248006800F400300028F2D0A1
:1041F00010E0FFF7DBF9054606E0FFF7D7F9401BB3
:10420000C82801D90320E3E66948006800F40030BB
:104210000028F2D1207800F0020002286AD1644818
:10422000806800F00C0004280BD06148806800F022
:104230000C000C281ED15E48C06800F00300022864
:1042400018D15B48006800F4806018B1E06808B9D4
:104250000120BDE65648406820F0F8504FF0F85273
:1042600092FAA2F2B2FA82F22169914008435049CF
:1042700048603FE0E06830B34D48006840F480702B
:104280004B490860FFF792F9054606E0FFF78EF903
:10429000401B022801D903209AE64548006800F433
:1042A00080600028F2D04248406820F0F8504FF07B
:1042B000F85292FAA2F2B2FA82F2216991400843CE
:1042C0003B49486016E03A48006820F4807038495D
:1042D0000860FFF76BF9054606E0FFF767F9401B3A
:1042E000022801D9032073E63148006800F4806099
:1042F0000028F2D1207800F00800082836D1606943
:10430000D0B12B489430006840F001002849C1F832
:104310009400FFF74BF9054606E0FFF747F9401B0D
:10432000022801D9032053E621489430006800F0A8
:1043300002000028F1D019E01D489430006820F0F8
:1043400001001B49C1F89400FFF730F9054606E06B
:10435000FFF72CF9401B022801D9032038E6144846
:104360009430006800F002000028F1D1207800F0BD
:10437000040004286FD100260D48806D00F08050A5
:1043800070B900BF0A48806D40F0805008498865C8
:104390000846806D00F08050009000BF00BF0126ED
:1043A0000648006800F48070F8B90448006807E027
:1043B00000100240CCC20008000B0020007000403A
:1043C00040F48070A3490860FFF7F0F8054606E066
:1043D000FFF7ECF8401B022801D90320F8E59D48BF
:1043E000006800F480700028F2D000BFA0680128A7
:1043F00008D19948006840F0010097499039C1F808
:10440000900021E0A06805280FD19348006840F093
:10441000040091499039C1F890000846D0F8900006
:1044200040F00100C1F890000EE08B48006820F0D9
:10443000010089499039C1F890000846D0F89000F1
:1044400020F00400C1F8900000BFA068A0B1FFF701
:10445000ADF8054609E02DE0FFF7A8F8401B41F252
:104460008831884201D90320B2E57B48006800F01A
:1044700002000028F0D012E0FFF798F8054608E0A7
:10448000FFF794F8401B41F28831884201D903209C
:104490009EE57148006800F002000028F0D1012E6E
:1044A00007D16D489038806D20F080506A4990396E
:1044B000886500BF207800F02000202838D1606A8D
:1044C000D8B165480830006840F001006249903971
:1044D000C1F89800FFF76AF8054606E0FFF766F8AE
:1044E000401B022801D9032072E55B4808300068B0
:1044F00000F002000028F1D01AE0574808300068A8
:1045000020F0010054499039C1F89800FFF74EF8A7
:10451000054606E0FFF74AF8401B022801D90320B0
:1045200056E54D480830006800F002000028F1D13F
:10453000A06AE8B348489038806800F00C000C2866
:1045400074D0A06A022853D143489038006820F004
:104550008070414990390860FFF728F8054606E069
:10456000FFF724F8401B022801D9032030E53A4820
:104570009038006800F000700028F1D1206B401ED8
:104580000101606B41EA0020E16A0843A18F01222A
:10459000C2EB510140EA41514020005DC2EB5000A6
:1045A00041EA40613820005D41EAC0602A4900E0EC
:1045B0004EE09039C8600846006840F0807008609E
:1045C0000846C06840F08070C860FEF7EFFF0546FF
:1045D00006E0FEF7EBFF401B022801D90320F7E4B9
:1045E0001D489038006800F000700028F1D02FE0DE
:1045F00019489038006820F0807017499039086099
:104600000846006800F0006020B90846C06820F045
:104610000300C86010489038C068104908400E492F
:104620009039C860FEF7C2FF054607E00EE0FEF7CE
:10463000BDFF401B022801D90320C9E40648903879
:10464000006800F000700028F1D101E00120BFE413
:104650000020BDE40070004090100240FFFFEEFE1D
:1046600070B5044600252068C06820F0A0002168CD
:10467000C860FEF79BFF054607E0FEF797FF401B6B
:10468000B0F57A7F01D9032070BD2068C06800F0C2
:1046900020000028F1D00020F6E700000448006860
:1046A000C06840F0040002490968C8607047000013
:1046B000B822002004480068C06820F004000249C5
:1046C0000968C86070470000B822002010B5044691
:1046D0000CB9012010BD94F8390028B9002084F8E5
:1046E0003800204600F00CF8022084F83900211D23
:1046F000206800F0C5FB012084F839000020E9E7BC
:104700007047000030B504460D4601222946206856
:1047100000F0ECFB0E492068884207D00D49206864
:10472000884203D00C492068884201D1012000E072
:10473000002028B12068406C40F4004021684864A3
:104740002068006840F0010021680860002030BD4A
:10475000002C0140004001400044014010B50446D7
:104760000CB9012010BDA06900B100E000BF94F8B1
:10477000690028B9002084F86800204600F02AF873
:10478000242084F869002068006820F00100216876
:104790000860204600F0D0FC012800D1E2E7606A02
:1047A00010B1204600F012FC2068406820F49040D0
:1047B000216848602068806820F02A0021688860AD
:1047C0002068006840F0010021680860204600F081
:1047D00079FCC7E7704730B5036891FAA1F4B4FAE1
:1047E00084F465000324AC40A34391FAA1F4B4FA25
:1047F00084F4640002FA04F42343036030BD10B56E
:1048000043688B4301FB02F42343436010BD30B582
:10481000C36891FAA1F4B4FA84F465000324AC40AF
:10482000A34391FAA1F4B4FA84F4640002FA04F404
:104830002343C36030BD2DE9F041054605F1280052
:10484000FBF77FFE074617B90020BDE8F081EC6A50
:1048500007E00121A01CFBF7FFFD064606B902E0B8
:10486000A468002CF5D100BF2046EEE72DE9F04109
:1048700005460C46286BA0B12E6B002701E0374699
:1048800076681EB1F078E1788842F8DB6660A76050
:104890000EB1B46000E0EC620FB17C6006E02C6306
:1048A00004E000206060A060EC622C6305F1280049
:1048B000FBF713FEBDE8F0814A681AB1D1E9013275
:1048C0009A6001E08A68C2628A681AB1D1E901235C
:1048D0005A6001E04A680263704700002DE9F04128
:1048E00004460E46002700257348C06800F0030008
:1048F000C0B17148C06800F00300216888420FD140
:10490000206868B16C48C06800F07000702191FAAE
:10491000A1F1B1FA81F1C840401C6168884238D0E9
:10492000012536E02068012804D0022809D0032898
:104930001AD10DE06048006800F0020000B90125BE
:1049400014E05D48006800F4806000B901250DE0C6
:104950005948006800F4003028B95748006800F44E
:10496000802000B9012501E0012500BF00BF85B905
:10497000D4E90010401E702292FAA2F2B2FA82F23A
:10498000904008434C49C96821F0730108434A49E3
:10499000C860002D76D14848006820F08060464904
:1049A0000860FEF703FE074606E0FEF7FFFDC01BAA
:1049B000022801D9032505E03F48006800F00060A7
:1049C0000028F2D100BF002D72D1C6B94FF4FE41CC
:1049D00091FAA1F1B1FA81F1A06888404FF07842D4
:1049E00092FAA2F2B2FA82F2E168914008433249A7
:1049F0000969324A114008432F49086138E0012E05
:104A00001BD14FF4FE4191FAA1F1B1FA81F1A068F6
:104A1000884001222169C2EB51014FF4C00292FA91
:104A2000A2F2B2FA82F29140084323490969244A6A
:104A300011400843204908611AE04FF4FE4191FA01
:104A4000A1F1B1FA81F1A068884001226169C2EB4D
:104A500051014FF0C06292FAA2F2B2FA82F2914092
:104A6000084315490969174A11400843124908616A
:104A70001148006840F080600F490860FEF796FD1D
:104A8000074607E014E0FEF791FDC01B022801D99C
:104A9000032505E00848006800F000600028F2D017
:104AA00000BF2DB904480069A169084302490861A3
:104AB0002846BDE8F081000000100240FF80FF079B
:104AC000FF809FFFFF80FFF9F8B504460026002510
:104AD0002348806D00F0805018B1FEF771FE064645
:104AE00016E000BF1E48806D40F080501C4988656C
:104AF0000846806D00F08050009000BF00BFFEF7B8
:104B00005FFE06461648806D20F080501449886587
:104B1000B6F5007F07D1802C10D9A02C01D9022531
:104B20000CE001250AE0802C01D9032506E0802C49
:104B300001D1022502E0702C00D10125094800684E
:104B400020F007002843074908600846006800F085
:104B50000700A84201D00120F8BD0020FCE70000BA
:104B6000001002400020024070B5054605F10C001F
:104B7000FBF79EFD08B1012400E00024204670BD33
:104B800070B50446E18904F10C00FBF768FDE1898A
:104B9000884201DA012500E00025284670BD10B5E5
:104BA00000F006F818B901E000BF00BFFCE710BD37
:104BB00000B5ABB0142126A8FCF7B7FC442115A81A
:104BC000FCF7B3FC54216846FCF7AFFC04201590B9
:104BD00000201F900120179015A8FFF7E3F928B9CE
:104BE0002048006840F004001E490860FEF718FEE7
:104BF0001320159001201B900020169018901C90F7
:104C0000B0201D9002201F90012115A8C16206212D
:104C1000016328214163072181630421C163016489
:104C2000FFF7C0F910B100202BB000BDFEF708FE61
:104C30004FF4005000904FF0406010906846FEF72F
:104C400009FE0F202690032027900020289029900D
:104C50002A90042126A8FEF7A3FF08B10020E3E76D
:104C60000120E1E70010024038B50446002534B1C8
:104C7000012C15D0022C23D0072C41D130E04FF06D
:104C8000904500BF2248C06C40F001002049C86434
:104C90000846C06C00F00100009000BF00BF33E088
:104CA0001C4D00BF1A48C06C40F002001849C8648F
:104CB0000846C06C00F00200009000BF00BF23E077
:104CC000154D00BF1248C06C40F004001049C86484
:104CD0000846C06C00F00400009000BF00BF13E065
:104CE0000E4D00BF0A48C06C40F080000849C864FF
:104CF0000846C06C00F08000009000BF00BF03E0D9
:104D000007A002F0E3FF00BF00BF284638BD000047
:104D1000001002400004004800080048001C004841
:104D200050696E6D6170206572726F723A20777291
:104D30006F6E6720706F7274206E756D6265722E73
:104D400000000000F0B5002300200022022400250E
:104D50000221314E366806F008062EB92E4E9436E2
:104D60003668C6F3032003E02B4E3668C6F3031003
:104D70002A4E56F82000284EB66806F00C0636B1CA
:104D8000042E07D0082E09D00C2E35D10AE0244E6F
:104D9000306034E0234E224F3E6030E0224E204F00
:104DA0003E602CE01C4EF66806F003051A4EF668CD
:104DB000C6F30216711C022D02D0032D08D103E0A8
:104DC000184EB6FBF1F206E0174EB6FBF1F202E028
:104DD000B0FBF1F200BF00BF0F4EF668C6F3062627
:104DE00072430D4EF668C6F34166761C7400B2FB42
:104DF000F4F60B4F3E6002E0094E306000BF00BF8A
:104E0000054EB668C6F30316084FBB5D044E366800
:104E1000DE40034F3E60F0BD00100240E4C20008D7
:104E2000000B00200024F40000127A00CCC200081D
:104E30001048006840F470000E4908600E48006891
:104E400040F001000C4908600020886008460068B6
:104E50000A490840084908608814C8600846006884
:104E600020F48020086000208861C803014980394F
:104E70000860704788ED00E000100240FFFFF6EA8E
:104E800000220268164B984202D0B0F1804F03D145
:104E900022F070024B681A43114B984208D0B0F1CF
:104EA000804F05D00F4B984202D00F4B984203D150
:104EB00022F44072CB681A4302608B68C3620B68AD
:104EC0008362074B984205D0064B984202D0064BAE
:104ED000984201D10B6903630123436170470000CD
:104EE000002C0140004001400044014030B5002347
:104EF000012404FA01F3046A9C430462046A02FA7E
:104F000001F52C43046230BD2DE9F04107460E4601
:104F1000154605F0020080B905F0010030B13146B8
:104F200007F12800FBF7B3FC044615E0314607F112
:104F30002800FBF7BFFC04460EE0BC6A05F0010048
:104F400018B104EA0600B04205D105F0010018B915
:104F500004EA060000B900242046BDE8F08170B5DF
:104F600004460D46294604F12800FBF77BFC064663
:104F7000304670BD30B5024600230D4CE06C03E0B6
:104F80000469091B0346C06810B104698C42F7D953
:104F900011619360D06020B104691569641B0461DC
:104FA00082600BB1DA6001E0014CE26430BD0000C8
:104FB000C00B0020C16811B1D0E902129160024A11
:104FC000C168D16470470000C00B002090F8241025
:104FD00001F0010139B10168496821F40031826AA8
:104FE00011430268516090F8241001F00201022977
:104FF00007D10168496821F48031C26A114302680F
:10500000516090F8241001F00401042907D10168CF
:10501000496821F48021026B11430268516090F8C5
:10502000241001F00801082907D10168496821F41A
:105030000041426B11430268516090F8241001F066
:105040001001102907D10168896821F48051826B11
:1050500011430268916090F8241001F0200120298A
:1050600007D10168896821F40051C26B11430268BD
:10507000916090F8241001F04001402913D101689B
:10508000496821F48011026C114302685160016C7F
:10509000B1F5801F07D10168496821F4C001426C55
:1050A00011430268516090F8241001F080018029BA
:1050B00007D10168496821F40021826C114302681C
:1050C0005160704738B5044600250020E066FEF7C1
:1050D0006DFA05462068006800F0080008280CD129
:1050E0006FF07E402B4600224FF4001100902046C6
:1050F00000F00DFA08B1032038BD2068006800F008
:10510000040004280CD16FF07E402B4600224FF49F
:1051100080010090204600F0FAF908B10320EBE787
:10512000202084F8690084F86A0000BF002084F819
:10513000680000BF00BFDFE72DE9F05F04460025EF
:105140001026A946AA46AB46E7492068884201D105
:10515000012000E0002000B100E000BF2169A0684C
:10516000084361690843E16940EA01052068006875
:10517000DE4908402843216808602068406820F420
:105180004050E168084321684860A569D649206815
:10519000884201D1012000E0002008B9206A0543BF
:1051A0002068806820F4306028432168886000BF50
:1051B000CF492068884216D1CE48006800F003002D
:1051C00030B1012808D0022804D0032808D105E016
:1051D000012607E0022605E0042603E0082601E098
:1051E000102600BF38E0C4492068884216D1C14863
:1051F000006800F00C0030B1042808D0082804D062
:105200000C2808D105E0002607E0022605E0042668
:1052100003E0082601E0102600BF1DE0B249206827
:10522000884219D1B348006800F4406048B1B0F535
:10523000806F0AD0B0F5006F05D0B0F5406F08D18F
:1052400005E0002607E0022605E0042603E0082624
:1052500001E0102600BF00BF00BFA34920688842BC
:1052600001D1012000E00020002871D00025042E8B
:105270000FD003DC3EB1022E12D108E0082E0CD074
:10528000102E0DD10DE0FEF7A7FD05460CE09B4D5D
:105290000AE0FEF7CDFD054606E04FF4004503E0C9
:1052A00000BF4FF0010B00BF00BF002D0AD06068A7
:1052B00000EB4000A84203D860680003A84202D275
:1052C0004FF0010B0CE1042E2ED003DC3EB1022E78
:1052D00051D118E0082E3CD0102E4CD14CE0FEF7F6
:1052E0007BFD4FF48071A0FB0130616849085F18B5
:1052F00040F10001D4F804C0624600233846FBF7B1
:105300005BFC05463BE0D4F804C04FEA5C0000219A
:105310007B4BC71841EB010862460B4638464146B5
:10532000FBF74AFC05462AE0FEF782FD4FF4807148
:10533000A0FB0130616849085F1840F10001D4F812
:1053400004C0624600233846FBF736FC054616E0EB
:1053500022E0D4F804C04FEA5C0000214FF40003BF
:10536000C71841EB010862460B4638464146FBF739
:1053700023FC054603E000BF4FF0010B00BF00BF58
:10538000B5F5407F05D3B5F5801F02D22068C56012
:10539000A6E04FF0010BA3E0E069B0F5004F54D157
:1053A000042E2BD005DC4EB1012E12D0022E3BD1A3
:1053B0001AE0082E2DD0102E36D136E0FEF70CFD67
:1053C0004000616800EB5100B0FBF1F01FFA80FA79
:1053D0002EE0FEF717FD4000616800EB5100B0FBC6
:1053E000F1F01FFA80FA23E04649606801EB5000B3
:1053F0006168B0FBF1F01FFA80FA19E0FEF718FDC2
:105400004000616800EB5100B0FBF1F01FFA80FA38
:105410000EE04FF48031606801EB50006168B0FB32
:10542000F1F01FFA80FA03E000BF4FF0010B00BF5C
:1054300000BF4FF6F0700AEA0009CAF3420049EAD9
:1054400000092068C0F80C904AE0042E2CD005DC3E
:105450004EB1012E12D0022E3DD11AE0082E2ED0D0
:10546000102E38D138E0FEF7B7FC616800EB510030
:10547000B0FBF1F080B22168C86030E0FEF7C2FCFA
:10548000616800EB5100B0FBF1F080B22168C860A8
:1054900025E01A49606801EB50006168B0FBF1F04B
:1054A00080B22168C8601AE0FEF7C2FC616800EBB8
:1054B0005100B0FBF1F080B22168C8600FE04FF4FA
:1054C0000041606801EB50006168B0FBF1F080B210
:1054D0002168C86003E000BF4FF0010B00BF00BFB0
:1054E000584600F011B8000000800040F369FFEF5B
:1054F0000038014088100240004400400024F400BD
:10550000000024F40048E80130BCBDE8C09F2DE94C
:10551000F04104460D4617469846069E21E0701C51
:10552000F8B12EB1FEF742F8A0EB0800B04218D94E
:105530002068006820F4D0702168086020688068C6
:1055400020F0010021688860202084F8690084F838
:105550006A0000BF002084F8680000BF0320BDE897
:10556000F0812068C0692840A84201D1012000E0F4
:105570000020B842D3D00020F1E7000010B5084861
:10558000006800B110BD0F220221064804F0BCFAE9
:105590004FF41651034804F092FA00BFF2E70000FE
:1055A000F80A0020FC21002010B502F0F5FA04F002
:1055B000A3FC00BF04F0D0FC00BF04F0DBFC02F051
:1055C00047FB10BD70B504460D46FBF769FA614212
:1055D00001600020024941F82500401E70BD000016
:1055E000901D0020704700008CB000BF04200446CE
:1055F000402221463F4801F07DF801E001F06CFDBA
:1056000001F06EF80028F9D03B4908A806F0D7FB56
:1056100008A93A4806F0D4F9044608A806F0C6F9E5
:10562000374C384904A806F0D3FB04AEB44214D07A
:10563000204606F063FA00BF00BF271E0DD0B84613
:105640003546E86820B1E8682946426840469047F8
:10565000E868C8F80C0000BF474600BFA24604A88F
:1056600006F04CFA4FF4127001F020FEB0F1000980
:105670000FD025A025A14FF480724FF4E133CDE97E
:10568000002102900F220221484600F005FA8146CF
:1056900000E00020214908600846006820490860B1
:1056A0000846006838B1642001F084FC1DA11C4844
:1056B000006801F047FB1A48006838B1642001F027
:1056C00079FC1EA11648006801F03CFB0B4920A0A4
:1056D00001F066F81248006838B1642001F06AFCF5
:1056E0001DA10F48006801F02DFB00BF01F0F4FC84
:1056F000FCE700000C0B0020E157000810230020FD
:1057000020230020795700080A0000006D7173659E
:105710007269616C6272696467650000200B002029
:10572000080B00200D0A496E696369616E646F2081
:10573000746573742E2E2E0D0A0000000D0A4D5153
:1057400042726F6B6572206C6973746F2100000088
:10575000746F7069633000000D0A5375736372696A
:105760007063696F6E65732068656368617321009B
:10577000024600207047000070B504460D460648FA
:10578000006840B1642001F015FC224603A10248E4
:10579000006801F0D7FA70BD080B00200D0A5075A3
:1057A000626C696361646F20656E20257300000080
:1057B00070B502460B460021144600200BE0002580
:1057C00015B1255C694005E0255C4FF47F4606EA8B
:1057D00005256940401C9842F1D3084670BD000081
:1057E00070B504460D46164606220CA12046FBF76E
:1057F000B8FD28B90B4B324629460BA000F0C2FF7A
:10580000062209A12046FBF7ACFD28B9054B32461C
:10581000294602A000F0B6FF70BD0000746F7069E9
:105820006330000020230020746F70696331000032
:1058300010B50446042104F5967001F03CFB10BD40
:1058400010B50446012104F5967001F034FB10BD3B
:10585000704700002DE9F04F87B004468846914616
:105860001E46D4F84002FBF75DFD05462A46404639
:10587000D4F84012FBF775FD00284CD0314648465D
:10588000FFF796FF029001E001F026FC00BFB4F89C
:10589000C800002801DD012000E000200028F3D12D
:1058A000029800903346424628A1D4F83002FBF714
:1058B00041FAD4F83002FBF735FDD4F83012084431
:1058C00000F1010B324649465846FBF795FD03AF00
:1058D00004F1D805E86820B1E868294642683846EE
:1058E0009047E868F86000BFBA46D4F83002FBF78A
:1058F00019FD3044401C80B20090534602462046B9
:10590000D4F8301200F0AEFA019003A806F0FCF9CA
:1059100007B000F025B810A14046FBF7F1FC98B1A4
:105920004846D4F83C12FBF7D5FC05460020D4F8D5
:105930003C12FBF7CFFC07462DB127B104F50471EB
:10594000284600F02DFF00BF00BFE1E725730A25C0
:10595000640A25640A0000002F73757363720000E7
:1059600030BCBDE8C08F000086B0044600BF00BF59
:105970004248007800BF054600F01AFF064686B18F
:105980003FA13046D4F84022FBF7D4F904F5047166
:10599000304600F005FF00BF3046FBF703F900BFBB
:1059A00000BF00BF01220021204600F0F7F900BF30
:1059B00000BF0021D4F80C2203A801F0BDFA03981F
:1059C00008285AD1DDF810B00BF00C0028B10123E3
:1059D00000221146204600F020FA0BF001000028BA
:1059E0004AD0B4F8382201232046D4F8341200F00B
:1059F00014FA029004F50D742068FBF793FC401C28
:105A000002990D1A2068FBF78DFC21680844471C99
:105A1000A1682068FBF75EFC80460020A168FBF7C8
:105A200059FC8246A168A4F50D740020FBF752FCD6
:105A30000190B8F1000F1ED0BAF1000F1BD00198F1
:105A4000C8B1002D17DB5046FBF727FBA84212D147
:105A50000198FBF722FB814629463846FFF7A8FE4E
:105A6000814508D104F508794B462A463946404617
:105A700000F034FC00BF00BF00BF9AE7310B0020EC
:105A800025732F230000000010B50446082104F5FB
:105A9000967001F010FA10BD2DE9FF4F97B0044643
:105AA0001E460220CDE900602046249BDDE9181245
:105AB00000F02AFB044683482060002003464FF490
:105AC00080521821009004F5967001F037FBA0F584
:105AD000967404F5047000222AB900210160416027
