:020000040800F2
:10000000000001206D0A0008750A0008770A000840
:10001000790A00087B0A00087D0A00080000000039
:10002000000000000000000000000000A909000816
:10003000810A000800000000350A0008450A00088F
:10004000870A0008870A0008870A0008870A00084C
:10005000870A0008870A0008870A0008870A00083C
:10006000870A0008870A0008870A0008994B0008D9
:100070009D4B0008C94B0008094C0008214C0008A2
:10008000234C0008254C0008870A0008894B00080B
:10009000694B0008870A0008794B0008870A0008A6
:1000A000870A0008870A0008870A0008870A0008EC
:1000B000870A00080000000000000000870A00080E
:1000C000870A00080000000000000000870A0008FE
:1000D00000000000870A0008870A000800000000EE
:1000E000870A0008870A00080000000000000000DE
:1000F0000000000000000000000000000000000000
:10010000000000000000000000000000870A000856
:100110000000000000000000870A0008870A0008AD
:100120003D4C0008554C00086D4C00086F4C000811
:10013000714C0008000000000000000000000000FA
:10014000870A0008870A0008870A0008870A00084B
:10015000734C0008754C0008870A0008870A0008DD
:10016000870A0008870A0008870A000800000000C4
:10017000870A0008870A000800000000000000004D
:10018000870A0008870A0008870A000800F002F8BA
:100190000BF05AFA0AA090E8000C82448344AAF1BA
:1001A0000107DA4501D10BF04FFAAFF2090EBAE8B8
:1001B0000F0013F0010F18BFFB1A43F0010318479B
:1001C00054220100742201000A444FF0000C10F880
:1001D000013B13F0070408BF10F8014B1D1108BFC5
:1001E00010F8015B641E05D010F8016B641E01F865
:1001F000016BF9D113F0080F1EBF10F8014BAD1CB5
:100200000C1B09D16D1E58BF01F801CBFAD505E0D2
:1002100014F8016B01F8016B6D1EF9D59142D6D32C
:10022000704700000023002400250026103A28BF54
:1002300078C1FBD8520728BF30C148BF0B60704758
:100240006E2901F07A84702900F08386662911F006
:100250001C81652911F01981672911F01681612926
:1002600011F0158103681B0A28BF41F0800169293C
:1002700000F0F485642900F0F185752900F0EE8521
:100280006F2901F07D87782900F04F86E92901F078
:100290001787E42901F01487F52901F01187EF2968
:1002A00001F07A87F82900F04E860368DB0928BF41
:1002B00041F08001632901F09486732901F0998649
:1002C000E32903F00B80F32903F01080002070472E
:1002D0001FB511F0D0F89DE8030001F08BFB01F091
:1002E0006CFB0400002000210FF0E4FB401C606068
:1002F000002000210FF0F4FBE06002F077FC01F039
:100300002FFB1FBD0246D2E84F0FC2E8431F03B1C7
:10031000F9E77047024652E8000F40EA010042E860
:10032000000303B1F7E7704710B5024652E8000F2B
:1003300020EA010442E8004303B1F7E710BD10B51D
:10034000024652E8000F00EA01048C4203D0BFF3DA
:100350002F8F002010BD20EA010442E8004303B1C2
:10036000EFE710BD10B5024652E8000F084203D176
:10037000BFF32F8F002010BD20EA010442E80043A4
:1003800003B1F1E710BD024652E8000F411C42E8FC
:10039000001303B1F8E7704710B5024652E8000FAA
:1003A000814202D8BFF32F8F10BD441C42E80043A6
:1003B00003B1F3E710BD10B50246D2E85F0F8142EA
:1003C00002D8BFF32F8F10BD441CC2E8534F03B1B6
:1003D000F3E710BD10B50246D2E85F0F441CA142FE
:1003E00000D80024C2E8534F03B1F5E710BD024620
:1003F00052E8000F10B9BFF32F8F7047411E42E83B
:10040000001303B1F4E770470246D2E85F0F10B95A
:10041000BFF32F8F7047411EC2E8531F03B1F4E7AB
:100420007047024652E8000F10B9BFF32F8F704794
:10043000016842E8001303B1F4E7704702680A60FC
:10044000BFF35F8F50E8002F0B689342F6D140E86E
:10045000001303B1F2E770470246D2E84F0FC2E83B
:10046000431F03B1F9E77047024652E8000F40EA24
:10047000010042E8000303B1F7E7704710B50246F8
:1004800052E8000F20EA010442E8004303B1F7E715
:1004900010BD10B5024652E8000F00EA01048C427C
:1004A00003D0BFF32F8F002010BD20EA010442E8E3
:1004B000004303B1EFE710BD10B5024652E8000F4C
:1004C000084203D1BFF32F8F002010BD20EA0104A2
:1004D00042E8004303B1F1E710BD024652E8000FC5
:1004E000411C42E8001303B1F8E7704710B502461B
:1004F00052E8000F814202D8BFF32F8F10BD441C79
:1005000042E8004303B1F3E710BD10B50246D2E85C
:100510005F0F814202D8BFF32F8F10BD441CC2E889
:10052000534F03B1F3E710BD10B50246D2E85F0F99
:10053000441CA14200D80024C2E8534F03B1F5E7A0
:1005400010BD024652E8000F10B9BFF32F8F70475D
:10055000411E42E8001303B1F4E770470246D2E8B7
:100560005F0F10B9BFF32F8F7047411EC2E8531FB2
:1005700003B1F4E77047024652E8000F10B9BFF329
:100580002F8F7047016842E8001303B1F4E770470A
:1005900002680A60BFF35F8F50E8002F0B68934238
:1005A000F6D140E8001303B1F2E770470246D2E803
:1005B0004F0FC2E8431F03B1F9E77047024652E804
:1005C000000F40EA010042E8000303B1F7E770477B
:1005D00010B5024652E8000F20EA010442E8004349
:1005E00003B1F7E710BD10B5024652E8000F00EA6C
:1005F00001048C4203D0BFF32F8F002010BD20EAEE
:10060000010442E8004303B1EFE710BD10B5024614
:1006100052E8000F084203D1BFF32F8F002010BD16
:1006200020EA010442E8004303B1F1E710BD0246AD
:1006300052E8000F411C42E8001303B1F8E770478D
:1006400010B5024652E8000F814202D8BFF32F8F47
:1006500010BD441C42E8004303B1F3E710BD10B5E0
:100660000246D2E85F0F814202D8BFF32F8F10BD40
:10067000441CC2E8534F03B1F3E710BD10B5024666
:10068000D2E85F0F441CA14200D80024C2E8534FB7
:1006900003B1F5E710BD024652E8000F10B9BFF3F1
:1006A0002F8F7047411E42E8001303B1F4E77047F3
:1006B0000246D2E85F0F10B9BFF32F8F7047411E7B
:1006C000C2E8531F03B1F4E77047024652E8000F37
:1006D00010B9BFF32F8F7047016842E8001303B1D0
:1006E000F4E7704702680A60BFF35F8F50E8002F9D
:1006F0000B689342F6D140E8001303B1F2E770476C
:100700000246D2E84F0FC2E8431F03B1F9E7704732
:10071000024652E8000F40EA010042E8000303B13C
:10072000F7E7704710B5024652E8000F20EA0104CF
:1007300042E8004303B1F7E710BD10B5024652E8A6
:10074000000F00EA01048C4203D0BFF32F8F00207A
:1007500010BD20EA010442E8004303B1EFE710BDF9
:1007600010B5024652E8000F084203D1BFF32F8FA5
:10077000002010BD20EA010442E8004303B1F1E784
:1007800010BD024652E8000F411C42E8001303B1BD
:10079000F8E7704710B5024652E8000F814202D8D0
:1007A000BFF32F8F10BD441C42E8004303B1F3E7B1
:1007B00010BD10B50246D2E85F0F814202D8BFF3E8
:1007C0002F8F10BD441CC2E8534F03B1F3E710BD97
:1007D00010B50246D2E85F0F441CA14200D80024A5
:1007E000C2E8534F03B1F5E710BD024652E8000FCF
:1007F00010B9BFF32F8F7047411E42E8001303B1B9
:10080000F4E770470246D2E85F0F10B9BFF32F8FAD
:100810007047411EC2E8531F03B1F4E77047024618
:1008200052E8000F10B9BFF32F8F7047016842E8FC
:10083000001303B1F4E7704702680A60BFF35F8FEB
:1008400050E8002F0B689342F6D140E8001303B143
:10085000F2E770470246D2E84F0FC2E8431F03B1E8
:10086000F9E77047024652E8000F40EA010042E80B
:10087000000303B1F7E7704710B5024652E8000FD6
:1008800020EA010442E8004303B1F7E710BD10B5C8
:10089000024652E8000F00EA01048C4203D0BFF385
:1008A0002F8F002010BD20EA010442E8004303B16D
:1008B000EFE710BD10B5024652E8000F084203D121
:1008C000BFF32F8F002010BD20EA010442E800434F
:1008D00003B1F1E710BD024652E8000F411C42E8A7
:1008E000001303B1F8E7704710B5024652E8000F55
:1008F000814202D8BFF32F8F10BD441C42E8004351
:1009000003B1F3E710BD10B50246D2E85F0F814294
:1009100002D8BFF32F8F10BD441CC2E8534F03B160
:10092000F3E710BD10B50246D2E85F0F441CA142A8
:1009300000D80024C2E8534F03B1F5E710BD0246CA
:1009400052E8000F10B9BFF32F8F7047411E42E8E5
:10095000001303B1F4E770470246D2E85F0F10B905
:10096000BFF32F8F7047411EC2E8531F03B1F4E756
:100970007047024652E8000F10B9BFF32F8F70473F
:10098000016842E8001303B1F4E7704702680A60A7
:10099000BFF35F8F50E8002F0B689342F6D140E819
:1009A000001303B1F2E77047EFF30980816911F892
:1009B000021C91BB01B590E80F10E047BDE8005064
:1009C0008CE80300234B93E80600914208BF704770
:1009D00041B91EF0100F10D11F49086820F0010026
:1009E00008600AE02CE9F00F1EF0100F08BF2CED94
:1009F000108AC1F838C081F822E01A6092F82210FB
:100A0000906B61F0FF0E1EF0100F08BF00F028B8C9
:100A1000B0E8F00F80F30988704710B50F4A1368EB
:100A2000994206D852F821400FC8A047EFF3098435
:100A3000206010BD10B50CF0D9FBBDE81040EFF3FD
:100A4000098CBFE710B50CF09DFEBDE81040EFF338
:100A5000098CB7E72C0C002034EF00E0281A0108BD
:100A6000B0EC088AB0EC08CAFFF7D2BF064880474E
:100A700006480047FEE7FEE7FEE7FEE7FEE7FEE783
:100A8000FEE7FEE7FEE7FEE7B56F00088D01000810
:100A900010B500F092FF001D10BD00BF19F000005E
:100AA0000AF066BE0B3020F0070070472DE9F041D8
:100AB00017460E460446FFF7F5FFA042054633D918
:100AC000002F1CBF06F10C000AF0D0FE30467468FF
:100AD000F4B12168A94217D305F1080291423CBF45
:100AE0006168416007D3626861194A602268521BDD
:100AF0000A6041602560002F1CBF06F10C000AF05F
:100B000011FF201DBDE8F08120466468002CE0D173
:100B10002946304600F05AFF0028D7D1002F1CBFCD
:100B200006F10C000AF0FEFE0020BDE8F08110B5D1
:100B3000044600F03DFF01682046BDE81040012258
:100B4000B4E770B516460D46041F002808BF70BDF7
:100B5000002E1CBF05F10C000AF088FE2B465868D9
:100B6000002818BFA04238BF0346F8D31968CA1836
:100B7000A24218BF5C6003D122681C461144196070
:100B800021680A19824218BF606004D1426862601D
:100B9000006808442060002E1CBF05F10C000AF01C
:100BA000C1FE70BD10B5044600F002FF016820468A
:100BB000BDE810400122C4E753EA020C00F069804E
:100BC0002DE9F04B4FF00006002B1FBFB3FA83F561
:100BD00003FA05F424FA05F65E4012BF1643B2FA92
:100BE00082F502FA05F4C5F120051EBF22FA05FCC4
:100BF00044EA0C04203556EA044C4FEA144418BF6A
:100C0000641C4FF000084FF00009904271EB030C98
:100C100039D3002919BFB1FA81F701FA07F6B0FA02
:100C200080F700FA07F6C7F120071EBF20FA07FC7D
:100C300046EA0C062037B6FBF4FCA7EB0507103F8D
:100C400007F01F0BCBF120060CFA0BFB2CFA06F673
:100C500044BFB3460026202FA4BF5E464FF0000BD2
:100C60005BEA060C08BF4FF0010B19EB0B09ABFB5D
:100C7000027C48EB0608C01B06FB02CC0BFB03CC36
:100C800071EB0C01C1E70B46024641464846BDE800
:100C9000F08B13B54FF000004FF00001AFF3008070
:100CA000BDE81C407047B2F120030AD5C2F1200311
:100CB00001FA02F120FA03F300FA02F041EA03011B
:100CC000704700FA03F14FF0000070477CB51D46F5
:100CD00016460C00009001D02044401E074B7B4478
:100CE0002A4669460190304601F051F905461CB18B
:100CF0000020694601F05EF928467CBDDD12000047
:100D00000B460146184602F0BFBA00001CB50C465F
:100D1000064B7B4469460090204601F038F90446B2
:100D20000020694601F046F920461CBD9F120000D4
:100D30007CB51D4616460C00009001D02044401E94
:100D4000074B7B442A4669460190304601F01FF963
:100D500005461CB10020694601F02CF928467CBDEF
:100D6000791200000FB4044910B503AA029802F0EA
:100D70008BFA10BC5DF814FB982700200FB40146D5
:100D800010B504AA039802F07FFA10BC5DF814FBBA
:100D90000FB41CB5084B06AA7B4469460090059821
:100DA00001F0F5F804460020694601F003F92046F9
:100DB0001CBC5DF814FB00001912000070B504465D
:100DC00085690068C10601D5302600E02026C007ED
:100DD00007D070BDD4E9012130469047206A401CFD
:100DE00020626D1EF6D570BD70B504468569007829
:100DF000C00707D170BDD4E9012120209047206AA7
:100E0000401C20626D1EF6D570BD70B50C460546BF
:100E1000012A05D02878800600D5EA69002302E07F
:100E2000012305E05B1C934202D2E05C0028F9D16B
:100E3000A869E618C01AA861286A184428622846DA
:100E4000FFF7BCFF04E0D5E9012114F8010B90473E
:100E5000B442F8D32846FFF7C7FF70BD2DE9F04133
:100E60000646002410687529314616A510D000F0FA
:100E7000F9FD002802DA404213A507E031688A072D
:100E800001D512A502E0490704D511A5012401E00E
:100E900000F0F1FD00210A2206F1240709E0B0FB71
:100EA000F2FCB0FBF2F302FB1C0030307854184621
:100EB000491C0028F3D123462A463046BDE8F041BC
:100EC00000F0E2BD000000002D0000002B0000003B
:100ED00020000000F0B40D460188090502D5214C20
:100EE0007C4402E01F4C7C440E34002100F12406B7
:100EF00008E002F00F071209E75D42EA03721B09DE
:100F00007754491C52EA0307F3D1027800231207F1
:100F100004D5702D06D009B1022311342246F0BC4D
:100F200000F0B2BD01231034F8E770B504460D4659
:100F30002146106800F09FFD024629462046BDE884
:100F400070400023C6E7D21D22F00703D3E9002337
:100F5000C0E70368126843F0200303600823C361FD
:100F60000023B7E7280C01002DE9F05F894604460D
:100F70004FF0000ADFF874B1FB44C0F820A020460F
:100F8000E1688847002874D0252806D0D4E90121DB
:100F90009047206A401C2062F1E700265F46204609
:100FA000E16888472028054607DB312D05D27819EE
:100FB00010F8200C08B10643F1E7B00701D526F080
:100FC0000406C4F81CA00027C4F818A02A2D09D0D4
:100FD00028460AF030FC38B304EB8708303DC8F8E7
:100FE000185019E059F8041B204604EB8702916160
:100FF000E1688847012F054618D1E069002820DA0A
:1010000026F020061DE0D8F8180000EB800005EB64
:1010100040003038C8F818002046E1688847054687
:101020000AF009FC0028EED1012F0AD02E2D08D19C
:101030002046E16888477F1C0546022F46F02006BF
:10104000C4DBA069002803DA404246F00106A06133
:10105000F00701D026F010066C2D0BD0682D09D0BA
:101060004C2D39D06A2D35D0742D35D07A2D33D012
:1010700016E038E0E1682F4620468847B84205462A
:1010800009D16C2F26D04FF48060E16806432046DA
:101090008847054604E06C2F1AD04FF48070064351
:1010A0000DB3A5F14100192802D8203546F4006699
:1010B0004A462946204626604E46FFF7C1F880B1D1
:1010C00001280BD0F61D26F0070000F1080956E7AD
:1010D0004020E4E78020D8E70020D6E706F10409A5
:1010E0004DE7284652E7206A00F002B8B80B01002D
:1010F00030BCBDE8C09F00000FB400B58DB010A992
:10110000099000910B904FF0FF300A9000200C9056
:10111000064878440690064878446A4607900F9936
:1011200009A801F079F90DB05DF814FB2313000054
:101130003B13000000B58DB0099000920B904FF06A
:10114000FF300A9000200C9005487844069005482E
:1011500078446A46079009A801F05EF90DB000BD19
:10116000EB120000031300000FB400B58DB010A9FE
:10117000099000910B904FF0FF300A9000200C90E6
:10118000064878440690064878446A4607900F99C6
:1011900009A801F041F90DB05DF814FBB31200008D
:1011A000CB1200002DE9FF5F1D464FF0FF3B91463B
:1011B0004FF000085F46D5E90146A96901987F1CF8
:1011C0008847296A824688470028F6D1BAF1FF3F4E
:1011D0000CD0002E24F4C06419DD600614D5BAF1D9
:1011E0002B0F09D0BAF12D0F0ED103E0584604B0F1
:1011F00000F07EB844F48064A96901987F1C884798
:10120000761E8246002E02DDBAF1300F03D0B9F10E
:10121000000F26D032E0A969761E01987F1C44F4A5
:1012200000748847002E824605DDBAF1780F06D09B
:10123000BAF1580F03D0B9F1000F10D01EE0B9F188
:10124000000F02D0B9F1100F18D1A969761E0198CC
:101250007F1C24F4007488478246102002E0082096
:1012600000E00A20814609E0A96908FB0908761E0A
:1012700001987F1C44F4007488478246002E05DDE7
:101280004946504600F092FF0028EDDAE9690198DE
:101290008847A00502D46FF00100A8E7E00725D138
:1012A000600613D5600502D5C8F1000000E0404695
:1012B00029680A1D2A600968220501D5087015E011
:1012C000220701D5088011E008600FE02868011DA1
:1012D00029600068210502D580F8008006E021071A
:1012E00002D5A0F8008001E0C0F8008038467EE713
:1012F00030BCBDE8C09F70B50646FFF7D1FB04685F
:10130000054630460A22002101F0B6F82C6070BD77
:101310002DE9F04704464FF000094FF0FF37C5684C
:10132000D4E90486A80707D0204601F0E7FB304641
:101330000AF006FB002802DA3846BDE8F0872805E7
:1013400002D54046FFF72EFC4C21204600F071FAF2
:10135000206D20F0010020654846EEE72DE9F041C0
:10136000044600F14C0738460AF080FAE06881072D
:1013700012D0800601D5A66A04E0A169606808441D
:101380002169461A204601F0B9FB00220546314684
:10139000204601F003FB00E0002538460AF0C2FABF
:1013A0002846BDE8F0812DE9F04118B1BDE8F041D3
:1013B000FFF7D4BF0B4E002530460AF057FA0A4C0F
:1013C0006F1E07E02046FFF7C9FF00B13D46206DC4
:1013D00020F00104002CF5D130460AF0A3FA28468B
:1013E000DFE70000DC0B0020442700202DE9F04758
:1013F00016468846814602F14C0738460AF036FA0E
:101400003046FFF785FF18F8010B61280AD07228D3
:1014100002D077283FD102E00125002405E0022513
:10142000042402E0082448F2020518F8010B2B28D6
:1014300006D0622809D018F8010C74280AD00BE0F5
:1014400045F0030544F00204EFE745F0040544F0DD
:101450000104EAE744F01004484621460AF0E4FAA1
:10146000411C18D00021316171604FF40071F560AA
:10147000F1617061200704D530460222002101F09D
:101480008DFA306D40F00100306538460AF04AFAB6
:101490003046BDE8F0870026F7E72DE9F041154614
:1014A0000E460746204C20460AF0E0F92A4631460F
:1014B0003846FFF79BFF054620460AF033FA2846D8
:1014C000BDE8F0812DE9F0410E468046164D2846D4
:1014D0000AF0CCF9154C206DC10704D0410804D0A6
:1014E00020F00104F7E7224612E05420FFF71FFB2B
:1014F000070017D0206D47F00101084354212065F3
:10150000384600F096F907F14C000AF0C1F93A4666
:1015100031464046FFF76AFF044628460AF002FAC1
:101520002046CDE70024F8E7DC0B0020442700200C
:1015300030B503461D781DB10A4603E0AC4201D127
:10154000181A30BD12F8014B002CF7D15B1CF1E7E3
:1015500040EA010310B59B070FD1042A0DD310C830
:1015600008C9121F9C42F8D020BA19BA884201D982
:10157000012010BD4FF0FF3010BD1AB1D30703D0CA
:10158000521C07E0002010BD10F8013B11F8014B80
:101590001B1B07D110F8013B11F8014B1B1B01D19C
:1015A000921EF1D1184610BD10B5431C02E010F890
:1015B000011B71B18107FAD14FF0013202C88C1AB8
:1015C0008C4314EAC211F9D0C01A0A0603D0C01E17
:1015D00010BDC01A10BD0A0401D0801E10BD090242
:1015E000FCD0401E10BD40EA010370B59B072ED110
:1015F0004FF00136042A2AD308C810C99D1B9D4309
:10160000121F15EAC61517D0D8B2E1B2401A50EA37
:10161000056110D198B2A1B2401A50EA05410AD131
:1016200023F07F4024F07F41401A50EA052102D187
:10163000180EA0EB146070BDA342DBD018BA21BA1B
:10164000884201D9012070BD4FF0FF3070BD0AB94A
:10165000002070BD10F8013B11F8014B63B1A342AB
:101660000AD1521E08D010F8013B11F8014B1BB1F2
:10167000A34201D1521EEDD1181B70BD032A40F2C6
:10168000308010F0030C00F0158011F8013BBCF124
:10169000020F624498BF11F801CB00F8013B38BF3C
:1016A00011F8013BA2F1040298BF00F801CB38BF4A
:1016B00000F8013B11F0030300F06780083AC0F026
:1016C000088051F8043B083A51F804CBA0E8081010
:1016D000F5E7121D5CBF51F8043B40F8043BAFF343
:1016E0000080D20724BF11F8013B11F801CB48BF9D
:1016F00011F8012B24BF00F8013B00F801CB48BFD3
:1017000000F8012B7047431A28BF9A427FF6B6AF04
:10171000032A1044114440F2268010F0030F1EBF2C
:1017200011F8013D521E00F8013D10F0030F7FF447
:10173000F6AF11F0030301F05783083AC0F00B80B5
:1017400051F8043D083A51F804CD40F8043D40F802
:1017500004CDFFF7F3BF121D5CBF51F8043D40F804
:10176000043DAFF30080D20724BF11F8013D11F80A
:1017700001CD48BF11F8012C24BF00F8013D00F84D
:1017800001CD48BF00F8012C704710B5203AC0F0D9
:101790000B80B1E81850203AA0E81850B1E8185072
:1017A000A0E81850BFF4F5AF5FEA027C24BFB1E8AF
:1017B0001850A0E8185044BF18C918C0BDE8104020
:1017C0005FEA827C24BF51F8043B40F8043B08BF29
:1017D0007047D20728BF31F8023B48BF11F8012BF0
:1017E00028BF20F8023B48BF00F8012B70474FF09C
:1017F00000020429C0F0128010F0030C00F01B80DE
:10180000CCF1040CBCF1020F18BF00F8012BA8BFEB
:1018100020F8022BA1EB0C0100F00DB85FEAC17CAF
:1018200024BF00F8012B00F8012B48BF00F8012B62
:1018300070474FF0000200B5134694469646203993
:1018400022BFA0E80C50A0E80C50B1F12001BFF479
:10185000F7AF090728BFA0E80C5048BF0CC05DF8DF
:1018600004EB890028BF40F8042B08BF704748BF2D
:1018700020F8022B11F0804F18BF00F8012B7047A1
:1018800010B5044610F0030F08BF11F0030F40F02D
:1018900015804FF0013E121FC0F20E8051F8043B3C
:1018A000A3EB0E0C2CEA030C1CEACE1C08BF40F87C
:1018B000043BF0D0A1F1040102F10402521E08DB46
:1018C00011F8013B002B00F8013BF7D11146FFF75F
:1018D0008EFF204610BD00004FF0013C50F8042B55
:1018E00051F8043B9A4221D1A2EB0C03934313EA33
:1018F000CC1317D150F8042B51F8043B9A4215D160
:10190000A2EB0C03934313EACC130BD150F8042B36
:1019100051F8043B9A4209D1A2EB0C03934313EA1A
:10192000CC13DBD04FF00000704700BFD01A01BAD3
:10193000B1FA81F101F0180122FA01F0CB40C1F1B6
:101940002001DBB2C0B2C01A2CFA01F3D11A9143C4
:1019500011EAC311E6D17047704770477047000025
:1019600070B5064C7C44064D7D4403E0206820445D
:101970008047241DAC42F9D170BD0000000C01006D
:10198000140C01002DE9F04117460E46054633B10F
:1019900007FB0354E41B2046B047A542FAD1A5F14A
:1019A0000800BDE8F0810000004870474028002092
:1019B00010B5FFF7F9FF083010BD10B5FFF7F4FFC1
:1019C000203010BD704770477047704738B50446E7
:1019D0000A4600206946AFF30080002808BF38BDE2
:1019E00002460099204601F029FA012038BD012065
:1019F00002F0CDB9F8B5AFF30080054600200C46E3
:101A0000102000BF0646A819A0420DD932466946EB
:101A10000020AFF30080070008BF02F0B8F900987B
:101A2000A04218BF0546C419FFF7C2FF056007466C
:101A3000F01D20F007004619284600F00AF8B442CD
:101A400008BFF8BDA21B31463868BDE8F84001F078
:101A5000F5B900210160C0E901100C3009F018BF90
:101A60001020704709684A0501D540B27047C90582
:101A7000FCD500B2704709684A0501D5C0B270476D
:101A8000C905FCD580B270472DE9F0470D4699464F
:101A90009246044600F124080168880604D5E069EE
:101AA00021F01001216000E00120A84201DD471B68
:101AB00000E00027A1697A1902EB0900081AA06169
:101AC0002078C00602D42046FFF778F9002608E007
:101AD000D4E901211AF806009047206A401C761CC0
:101AE00020624E45F4DB2078C0060AD52046FFF779
:101AF00065F906E0D4E9012130209047206A401CB6
:101B00002062381EA7F10107F4DC07E0D4E90121C7
:101B100018F805009047206A401C2062281EA5F195
:101B20000105F3DC2046FFF75FF92078000602D5B7
:101B30000220BDE8F0870120FBE711680268006A17
:101B4000530501D508700AE0D30501D5088006E0E9
:101B5000130603D5C217C1E9000200E008600120A6
:101B6000704770472DE9FF4F0C461E464FF0FF3778
:101B70008BB0D2E90001DDF860800A908A46C1F39B
:101B80000A5505B93D46002108464FF00000BAF15C
:101B9000000F00F4400005DA00EB80004FF4400134
:101BA00001EA50004FEA9059B9F1010F00DDB94642
:101BB0000A9850EA4A000ED044F61050A5F2FF35BC
:101BC00045432F14B8F1000F1ED07542291E1EDDAB
:101BD000C9F100021CE0B8F1010F4FF0000001D084
:101BE000302103E0F24305E02154401CB042FBDB0E
:101BF00030460022002121540B99C1F80880C1E928
:101C000000200FB000F0BAB9BD1B6D1CDEE74A46DC
:101C100000DA694206A801F0E1FF06AB93E807008D
:101C200003AB83E8070050460A9902F082FB8DE877
:101C30000700A0F500501F3800900398002D09DD23
:101C400042F21F014A46084403A90390684602F085
:101C50000CFE08E0A0F500504A461F3803A9039087
:101C6000684602F02AFE8DE807000004000C03D04D
:101C70004FF0FF30410800E01046B8F1000F03D0EC
:101C80000022009215461EE0751E05D401F0F5F8FD
:101C9000303262556D1EF9D5B3460122084302D099
:101CA00000227F1C04E02078302801D100227F1E12
:101CB000002A099786D01DE0112D07DA01F0DDF822
:101CC000303262556D1C50EA0102F5D1084302D052
:101CD0000098C8B10EE00021681E05E0235C625C3C
:101CE00063542254401E491C8142F7DBAB46A81BBB
:101CF000401E0990002004F80B000B98099AC0F8C8
:101D00000880C0E9002B7CE711264FF0000859E756
:101D10002DE9F04F88460446D21D22F0070191B00C
:101D2000D1E90001CDE90A0109F040FB02460B9818
:101D3000C00F01D02D2007E02068810701D52B209E
:101D400002E0202101EAC000032A099001D0072AFD
:101D500005DB03464146204601F056FA0BE12078A8
:101D6000800601D5E06900E00620B8F1650F8146E4
:101D700006D0B8F1660F18D0B8F1670F70D131E016
:101D80000020B9F1110F009001DB112301E009F1EE
:101D900001030AAA01A90CA8FFF7E4FEDDE90C7013
:101DA000002609F10105834647E001204B460090DB
:101DB0004FF000470AAA01A90CA8FFF7D3FEDDE9FE
:101DC0000DB00C995D46002610B909F101000D18FF
:101DD000B9EB050003D4C0F1FF3609F10105A5EB0D
:101DE00009002BE0B9F1010F01DA4FF001090020E1
:101DF000B9F1110F0090484601DD112300E00346C0
:101E00000AAA01A90CA8FFF7ADFEDDE90C704D464A
:101E100000268346207800070AD4AB4500DA5D46E9
:101E200001A8012D04DD411911F8011C302907D04A
:101E30004F4502DA17F1040F04DA012082460FE061
:101E40006D1EEEE7002F02DCED1B3E4403E0781C24
:101E5000A84200DD7D1CB81B00F1010A4FF00047CD
:101E60002078000703D4AA4501DB4FF0FF3A002198
:101E7000B7F1004F0DF143088DF8431024D0022034
:101E80002B23002F01DA7F422D230A21021EA0F10D
:101E9000010000DC5FB197FBF1FC97FBF1F201FB65
:101EA0001C7C17460CF1300C08F801CDEEE7A8F1C8
:101EB000010003702188090501D5452100E0652155
:101EC000A0F1010800F8011C09980FA9A1EB08076F
:101ED000FF1D00B10120411901EBEA70A1693844EE
:101EE000081A401EA0612078C00602D42046FEF7E2
:101EF00065FF099828B1D4E901219047206A401C68
:101F000020622078C00622D52046FEF757FF1EE04B
:101F1000002E04DBB34502DD01A8805D00E0302027
:101F2000D4E901219047206A401C2062761CAAF166
:101F300001005FEA000A0AD1FFF73FFDC0680168AF
:101F4000405CD4E901219047206A401C2062281E91
:101F5000A5F10105DCDC07E0D4E9012118F8010B4B
:101F60009047206A401C2062381EA7F10107F3DC6D
:101F70002046FEF739FF032011B043E630BCBDE830
:101F8000C08F000001694A1C02610878704700B5E3
:101F90008FB0CDE901310021059105497944CDE9A2
:101FA000031011466846FEF7DFFF0FB000BD0000CA
:101FB000E5FFFFFF0A6802F8010B0A607047D1E9EC
:101FC00000239A4202D2531C0B601070704710B568
:101FD000436913B1AFF3008001E0FEF716FF012063
:101FE00010BD127800F124010A7000224A7001220B
:101FF000EDE711684FF0FF32E9E700002DE9FF5FE0
:1020000015468A460446DFF8AC80F8440027D8E934
:1020100000103E46CDE9001010E03AF816106A466E
:1020200002A801F088FE411C07D02178890603D55B
:10203000E269391891420DD80744761C2078800651
:1020400002D5E069B84205DDAE42E6DB3AF816009B
:102050000028E2D1A069C01BA0612046FEF7AEFEB9
:10206000D8E90010CDE90010002017E03AF8181068
:102070006A4602A801F05FFEB0F1FF3F81460BD037
:1020800000250DF1080B05E0D4E901211BF805003E
:1020900090476D1C4D45F7D308F10100B0428046D2
:1020A000E4DB206A384420622046FEF79DFE00F003
:1020B00003B800003AFB00003FBCBDE8C09F000031
:1020C0002DE9F0418046D21D22F007020025D2E919
:1020D0000002F52915A614D0011E72F1000106DADE
:1020E0000023D0EB030063EB020211A608E0D8F84E
:1020F00000108B0701D50FA602E0490701D50EA6F7
:1021000001251146002408F1240704E000F0B5FE83
:1021100030323A55641C50EA0102F7D12B46324660
:1021200021464046BDE8F041FFF7AEBC000000008C
:102130002D0000002B0000002000000030B4002122
:1021400000F1240408E002F00705D208303542EA25
:102150004372DB086554491C52EA0305F3D1046855
:10216000002310A2250708D504F020040C4304D056
:10217000C46901230CA2641EC46130BCFFF784BC97
:1021800010B5044621461068FFF775FC024620464C
:10219000BDE810400023D1E7D21D22F00701D1E9AC
:1021A0000023CBE700000000300000003A2800D2F6
:1021B000303820F02002412A01D3A2F137008842B2
:1021C00001D34FF0FF3070472DE9FF4F1C46914679
:1021D0004FF0FF3581B000218A468846D4E9016777
:1021E000A16902986D1C8847216A834688470028A8
:1021F000F6D1BBF1FF3F0CD0002F26F4C0661ADDEC
:10220000700615D5BBF12B0F0AD0BBF12D0F0FD1E6
:1022100004E04FF0FF3005B000F081B846F480666E
:10222000A16902986D1C88477F1E8346002F02DD3E
:10223000BBF1300F03D0B9F1000F2AD025E0A1691E
:102240006D1C02987F1E46F400768847002F834657
:1022500005DDBBF1780F06D0BBF1580F03D0B9F103
:10226000000F10D011E0B9F1000F02D0B9F1100F3A
:102270000BD1A1696D1C02987F1E26F40076884759
:102280008346102000E0082081464FEAE970009064
:1022900017E00A20F8E74346AAFB0928DDF800C04A
:1022A0007F1E03FB098046F4007605F101050AFB59
:1022B0000C0112EB0B0A029841EBEB78A1698847FD
:1022C0008346002F06DD49465846FFF76FFF5FEA59
:1022D000000BE0D5E16902988847B00502D46FF0A1
:1022E000010098E7F00718D1700610D55146700527
:1022F00005D50023D1EB030163EB080200E0424661
:102300002068031D23600068C0E9001205E0206812
:10231000011D21600068C0E900A828467BE730BCA9
:10232000BDE8C08F2DE9FF5F4FF0000899461446C5
:1023300046469169D2E901A7DDF838B0019888478F
:10234000054659EA0B0005D009E0A1690198761C01
:1023500088470546216A284688470028F5D1681C29
:1023600003D05FEACA7005D015E04FF0FF3004B02B
:1023700000F048B82068011D2160D0F800800AE014
:102380005FEACA7001D108F8015BA169761C019867
:102390007F1E88470546002F1ADD681C18D0B9F14A
:1023A000000F0DD0E81705EBD060421120F01F00A0
:1023B00059F822102A1A012090400142E0D107E08A
:1023C000BBF1000FDCD12846216A88470028D7D00E
:1023D000E16901988847BBF1000F07D1002E05DDA8
:1023E0005FEACA7002D1002188F80010A068B842E4
:1023F00003DDBBF1000F03D017B16FF00100B6E7AA
:102400003046B4E730BCBDE8C09F0000026811440C
:102410001378016018467047D160054979445161CD
:1024200004497944116200211161114600F062BF34
:10243000EDFFFFFF17A10000426842B1016811F8EB
:10244000013B23B1521EC0E900121846704701211A
:10245000C160881E704742685AB1C368016843B9B9
:1024600083688B4205D0491E521CC0E9001200202F
:1024700070474FF0FF3070472DE9F04791460F4607
:1024800080460446002614F8015B2DB1FEF700FBE0
:102490000068405DC007F6D12B2D02D02D2D18D03D
:1024A000641E4A463946204601F037FB27B1396899
:1024B000A14201D1C7F800804FF0020471050BD58D
:1024C0004042002803DDFEF7EBFA0460A007BDE8F8
:1024D000F08746F48066E4E70028F8DAFEF7E0FAD1
:1024E00004606FF00040F2E72DE9FF4F4FF0000865
:1024F0009A461446C146464683B0D2E901B7CDF8A4
:102500000080CDF8048091690498884710990546A9
:102510005AEA010005D009E0A1690498761C8847B1
:102520000546216A284688470028F5D1681C03D053
:102530005FEACB7005D02AE04FF0FF3007B000F023
:102540005DB82068011D2160D0F800801FE002A85E
:102550006A46E9B201F0D1FB411C07D0801C09D0CA
:102560004FF000095FEACB7007D00AE0E1690498F8
:1025700088473EE04FF0010904E0BDF8081028F854
:10258000021B7F1EA1690498761C88470546002F10
:102590001ADD681C18D0BAF1000F0DD0E81705EB52
:1025A000D060421120F01F005AF822102A1A012090
:1025B00090400142CBD107E010980028C7D12846AF
:1025C000216A88470028C2D0E16904988847B9F198
:1025D000000F0ED1109830B9002E04DD5FEACB70E9
:1025E00001D1A8F80000A068B84202DD109818B127
:1025F00017B16FF00100A1E730469FE730BCBDE89E
:10260000C08F2DE9FF4F4FF000089B46144645460A
:1026100083B0D2E90196CDF80080CDF804809169AD
:10262000DDF848A00498884707465BEA0A0005D011
:1026300009E0A16904986D1C88470746216A38465D
:1026400088470028F5D1781C03D05FEAC97005D00F
:102650001BE04FF0FF3007B000F047B82068011DC5
:102660002160D0F8008010E05FEAC97007D16A46A7
:102670004046B9B201F05FFB411C31D08044A169F2
:102680006D1C0498761E88470746002E14DD781CC2
:1026900012D0BBF1000007D03B46DDE9101201F07B
:1026A0008EFA0028E0D107E0BAF1000FDCD13846FD
:1026B000216A88470028D7D0E16904988847BAF191
:1026C000000F06D1002D04DD5FEAC97001D188F842
:1026D0000000A068B04203DDBAF1000F03D016B1CC
:1026E0006FF00100B7E72846B5E730BCBDE8C08F02
:1026F0002DE9FF5F9B46144600273D469169D2E9CC
:102700000196DDF840A00198884780465BEA0A0000
:1027100005D009E0A16901986D1C88478046216AAF
:10272000404688470028F5D1B8F1FF3F03D05FEA63
:10273000C97005D014E04FF0FF3004B000F040B88D
:102740002068011D216007680AE05FEAC97001D1B5
:1027500027F8028BA1696D1C0198761E8847804678
:10276000002E15DDB8F1FF3F12D0BBF1000007D0FD
:102770004346DDE90E1201F022FA0028E5D107E018
:10278000BAF1000FE1D14046216A88470028DCD029
:10279000E16901988847BAF1000F05D1002D03DDEA
:1027A0005FEAC97000D13880A068B04203DDBAF199
:1027B000000F03D016B16FF00100BEE72846BCE75A
:1027C00030BCBDE8C09F2DE9F04705460C46C868FF
:1027D00020F4201040F48000C860800602D508462E
:1027E00000F0AFF9E06841F282014FF0FF3901409B
:1027F000022903D0204600F04DF9B5E000F4204155
:10280000B1F5004F0FD1C00306D56168E06A884278
:1028100000D80846606006E02069E0626060606998
:1028200009F0B6F8A061A0680022EEB200280DDA27
:10283000E1688B050AD4C043A06041F49030226067
:10284000E0606068411C61600670A5E0E068904649
:10285000226040F40050E060206968BB606909F0C4
:10286000C1F8012704F12405A0B1A08910F4407F2C
:1028700008D0E069FEF75BF9206118B1E06840F428
:10288000006016E0E7612561E06820F4407040F4E4
:1028900080600EE0E069FEF74AF900282061F1D07F
:1028A000E06840F4006010F4407FE06002D140F442
:1028B0008070E06020696060E06825696FF0010A5F
:1028C000C1051FD56168E06A884200D80846411BEF
:1028D00004D02246284600F0E7F8F0BBE068010289
:1028E00003D5E562C4E9015854E0691CE162616006
:1028F000E16940F48030491EC4E9021030462E7070
:10290000BDE8F087010202D500F480320AE0606879
:10291000411C61600670E0680A2E40F48030E0607F
:1029200006D00022E16A6068814203D90B4602E0CA
:102930000122F7E70346A7895B1B7F0503D4E769FC
:102940009F4200DDE2B1814200D80146E5620F1AE4
:10295000C4E90158002B09DD00E005E022461946D4
:10296000284600F0A1F808B14846C9E747B1A06978
:10297000E5626560C01BA061E06840F01000E060A7
:10298000E068000208D56168A069E562491B084457
:102990006560A0615046B3E73046B1E72DE9F041EC
:1029A000044616460D464769007B80072ED0384600
:1029B00009F018F850BB3EB3012E02D0022E25D1EB
:1029C00004E0204601F078F905441DE0384608F09F
:1029D000DFFFE168002841F01001E16005DA2046E0
:1029E00000F058F80120BDE8F081C9030BD56268FA
:1029F000E16A914200D81146A26911442269891AFC
:102A0000814200DD08460544002D01DA0220EAE794
:102A1000E16A6068E268814206D29103E06203D510
:102A200022F4003141F01002A6690027AE4213DC07
:102A3000E16A814201D90B4600E0034603EB060C34
:102A40002369ACEB030CAC4506DD814201D98C4611
:102A500000E084469C4505D1A760276042F0200035
:102A6000A5620DE0AD1BE669AE1B8142A66000D9F0
:102A70000846C01A281A20605819606022F0200009
:102A800003490840E060002084F84870ABE700008C
:102A9000BFCFD7FFC16821F4001141F08001C160B0
:102AA00000218160016070472DE9F047814614469E
:102AB0000E464FF0FF383248D5685769054209D0B5
:102AC0003846A16909F074F8002811DB2C48C0438E
:102AD0000540E5602B4632464946384609F09AF8EB
:102AE000A16920F00042B21A11440028A16103D06C
:102AF0002046FFF7CFFF4046BDE8F08770B504469B
:102B00000569C06A6168884200D80846E16821F416
:102B10002011E160C90312D5A84208D02246411B0A
:102B20002846FFF7C1FF10B14FF0FF3070BD002005
:102B3000E562C4E90150E06820F48030E0600020E4
:102B400070BD10B50446C06820F02000E060A16AA6
:102B5000A06988420DD02046FFF7D0FFE06820F43E
:102B6000405040F01000E060A06AA0612069E0627F
:102B7000606044F24001E0688843E06010BD0000FE
:102B8000100002002DE9F04704461E4690460D460F
:102B9000C7684C30814608F069FEB80714D0780247
:102BA00012D44046B8F5807F09D0B0F5007F06D03A
:102BB000B8F5806F08D1012604F1240506E0701EE7
:102BC0006FF07F41884201D3012409E02561E6616D
:102BD0006560E06820F4706040EA0800E06000246E
:102BE000484608F09FFE2046BDE8F08710B56548CE
:102BF0005421FEF71EFE64485421FEF71AFE634876
:102C00005421FEF716FE62485E49624A624B01603B
:102C10005D4810605D4A1A60431C0B65511C0165DC
:102C20000120106557484C3008F032FE56484C30B1
:102C300008F02EFE55484C3008F02AFE574808F0A0
:102C400027FE58484F4A56A17844FEF726FC20B983
:102C5000544878440A3801F093F854484A4A52A13B
:102C60007844FEF71AFC20B9504878440A3801F03D
:102C700087F84F48454A4CA17844FEF70EFC20B92E
:102C80004B4878440A3801F07BF840233D48DC008B
:102C900000212246FFF776FF20B14248784454389D
:102CA00001F06EF83848224640230021FFF76AFF02
:102CB00020B13E487844543801F062F83348224647
:102CC00010230021FFF75EFF002806D03848784423
:102CD000BDE81040563801F053B810BD2B482DE91F
:102CE000F041006D2D4E20F00104304608F0BEFD8D
:102CF000244D4C35284608F0B9FD2248FEF708FB64
:102D0000284608F00FFE284608F0BBFD1E4D4C3546
:102D1000284608F0ABFD1C48FEF7FAFA284608F0F2
:102D200001FE284608F0ADFD184D4C35284608F048
:102D30009DFD1648FEF7ECFA284608F0F3FD2846FC
:102D400008F09FFD14E0206D20F0010504F14C0017
:102D5000074608F08BFD2046FEF7DAFA384608F001
:102D6000E1FD384608F08DFD2046FDF71BFF2C469F
:102D7000002CE8D1304608F0D5FD084808F081FD68
:102D8000BDE8F0814427002098270020EC27002090
:102D9000D00B0020D40B0020D80B0020DC0B00202F
:102DA0007200000045E900007700000034E90000EF
:102DB00024E9000010B500F0F1FFBDE8104000F07C
:102DC000DABF431A28BF9A427EF6DFAC104410F0F7
:102DD000030F11441EBF11F8013D521E00F8013DC2
:102DE00010F0030F7FF4F6AF103AC0F00A8010B570
:102DF00031E91850103A20E91850BFF4F9AFBDE896
:102E00001040530724BF31E9081020E9081044BFDF
:102E100051F8043D40F8043D12F0030F08BF70471D
:102E2000D20728BF31F8023D48BF11F8012C28BF56
:102E300020F8023D48BF00F8012C704730B404462A
:102E40008C464368002B18BF634538BF1846F8D33B
:102E500003681844604507D0C81C20F0070000F143
:102E6000040CACEB0100121A2146CCF8002030BC57
:102E700000220CF10400FDF764BE30B5B0F10A0287
:102E80004FEA900E71F100034EEA817EB0EB0E0026
:102E900061EB91014FEA101E4EEA017E10EB0E002D
:102EA00041EB11114FEA102E4EEA016E10EB0E00AD
:102EB00041EB11214FEA104E4EEA014E10EB0E008D
:102EC00041EB1141401841F100014FEAD00040EAC6
:102ED00041704FEAD10110EB80054FEA810444EACA
:102EE000907444EB01046D1944EB0404521BA3419C
:102EF0004FF0000348BF0A3200D530BD401C41F1FD
:102F0000000130BD2DE9F04F04460D46D21D22F0E0
:102F1000070089B0D0E900974846394608F046FADC
:102F20000246F80F01D02D2307E02068810701D564
:102F30002B2302E0202101EAC0038DF820300BB1E1
:102F4000012000E00020032A824601D0072A04DB8A
:102F50002946204600F058F93FE12078800601D448
:102F60000D2500E0E569C7F30A560D2D49DA002169
:102F70004FEA175B08464FF00000002F00F44000B6
:102F800007DA00EB80004FF4400100EBD07001EA5B
:102F900060008115012901DD4FF0FF3100224FEA69
:102FA000850CBCF1180F06D31346ACF118004FF096
:102FB0008052C24003E04FF4801323FA0CF30CF16B
:102FC0000C0CBCF1200F04D3ACF1200C09FA0CF06E
:102FD00001E007FA0CF000294FF0004801DD18B9B4
:102FE0000FE00ED140450CD319EB02095F4121B926
:102FF000404502D19F4329EA0209BBEB175F00D08D
:10300000761C2088000502D57B48784402E07A4887
:103010007844193808AA302302F80A30037C0AF1F0
:103020000101002E0AF1020A53546A4602DC4FF0F5
:10303000300101E04FF031014FF001088DF8001030
:1030400002D0A6F2FF3603E059EA470100D06B4EEA
:10305000002D02DC2178090704D54FF002082E214B
:103060008DF80110C44600210BE0C7F303433F0174
:10307000C35C491C6D1E02F80830052908F10108DF
:1030800001DA002DF1DC00210CE000EB1973491C82
:103090001B786D1E082902F808304FEA091908F15B
:1030A000010801DA002DF0DC21688B0602D516E05C
:1030B000A8F10108E04505DD02EB080313F8013C27
:1030C000302BF5D0B8F1000F09DD02EB080313F83F
:1030D000013C2E2B03D1090701D4A8F10108002DD2
:1030E00005DD3E2102F808106D1E08F10108407C44
:1030F000002E02F8080008F1010804DA2D207642BB
:1031000002F8080002E02B2002F808000A214FF420
:103110007A70864208F101080BDB96FBF0F330333E
:1031200002F8083096FBF0F308F1010800FB136683
:1031300001E0642E0CDB642096FBF0F3303302F8E0
:10314000083096FBF0F308F1010800FB136601E07C
:103150000A2E06DB96FBF1F0303002F8080008F189
:10316000010896FBF1F001FB1060303002F8080016
:10317000A16908F1010808EB050202EB0A00081A30
:10318000A0612078C00602D42046FDF717FE216A10
:1031900008AE01EB0A00206204E0D4E9012116F830
:1031A000010B9047BAF1010AF7D22078C00602D588
:1031B0002046FDF703FE6E4609E016F8010B3E2897
:1031C0000FD0D4E901219047206A401C2062B8F159
:1031D0000108F2D22046FDF707FE09B0032000F0F7
:1031E0000FB8206A2844206203E0D4E9012130208E
:1031F00090476D1EEBD3F8E755EB000002FCFFFF94
:1032000030BCBDE8C08F00002DE9F0411F460446E8
:1032100003260168072A01F4006004DB08B116A543
:1032200005E016A503E008B115A500E015A521F0FD
:1032300010002060A069C01EA0610FB1401EA061F7
:103240002046FDF7BBFD4FB1D4E901213846904738
:10325000206A401C2062C01C206206E0206AFAE757
:10326000D4E9012115F8010B9047761EF8D22046CB
:10327000FDF7BAFDBDE8F0814E414E006E616E0073
:10328000494E4600696E66002DE9F04114460D4630
:10329000074601F14C06304608F0E8FA094B7B443A
:1032A000224629463846FEF772FE0446287B000671
:1032B00001D54FF0FF34304608F034FB2046BDE81E
:1032C000F0810000438D000010B5436913B1AFF3E6
:1032D000008001E0FEF792FE012010BD128800F18F
:1032E000240182840022C2840122EDE711684FF09C
:1032F000FF32E9E72DE9F34F4FF0000A0C4656463E
:103300008DB001200C9001F10C000B9062690B98BC
:1033100001219047051E2DD0252D2CD0216A8847EC
:10332000C0B162690B9801219047216A8847002843
:10333000F7D16269411E0B98904700E0761CA169A5
:103340000D988847216A88470028F7D1E1690D98D0
:103350008847DBE7A1690D988847A842074601D155
:10336000761CD3E7E1690D9888477F1C02D1BAF13A
:10337000000F6FD06BE162690B9800273D4639461C
:1033800090472A2804D162690B98012190470125B2
:10339000DFF8D08262690B9801219047A0F13001DB
:1033A0000A290AD24745E5DC07EB870100EB410714
:1033B000303FDFD445F01005ECE7E90601D46FF0AB
:1033C00000476C280AD04C2814D0682815D06A28E9
:1033D0000DD074281CD07A281AD01DE062690B9891
:1033E000012190476C2802D045F0040514E045F017
:1033F00002050DE045F020050AE062690B98012105
:103400009047682802D045F0080505E045F40065BE
:1034100062690B9801219047C4E9015765283DD0A6
:1034200019DC58287AD00CDC452837D004DC252854
:1034300026D041289ED131E046282FD0472899D167
:103440002CE05B2877D0612828D063287CD06428C2
:1034500023D15AE0F6E06F2848D008DC66281DD05A
:1034600067281BD0692821D06E2816D127E0702844
:1034700045D0732868D0752847D078280DD14DE005
:10348000A1690D988847252805463FF469AFE16991
:103490000D9888476D1C3FF46AAFD8E00D9923461C
:1034A0006A466FF001000EF054F8C5E045F04000A8
:1034B00023464FF000026060A80736D43EE0E807DC
:1034C0007FF447AF2068011D21600068290501D500
:1034D00006701BE7290701D5068017E7A90703D562
:1034E000F117C0E9006111E706600FE745F0400001
:1034F00023464FF008026060A80716D41EE040F68D
:103500000E0125EA0100606016E045F04000234608
:103510004FF00A026060A80707D40FE045F04000B2
:103520006060A80708D5234610220D996FF00100AE
:10353000FEF74AFE80E007E0102223460D996FF067
:103540000100FDF72FFE77E04FF0000963284F469A
:10355000C8464B46CB4602D05B2806D038E0E8068A
:1035600001D40120A060012732E06269D4F80CB0D8
:103570000B98012190475E2807D14FF00109494679
:103580006269D4F80CB00B989047216939B90021D1
:103590000A4603AB43F82120491C0829FADBD8B3BB
:1035A000216949B308F1010862690B98012190472C
:1035B0005D28F4D1B9F1000F09D0002003A951F81A
:1035C0002020D24341F82020401C0828F7DB03AB21
:1035D0002069002820794FEA40701ED05B462246C1
:1035E000CDF80080CDE901970D9900286FF001001A
:1035F00020DAFFF77DF81FE0C11703AA00EBD161C5
:103600004B1121F01F0102EB8302411A13680120C4
:10361000884003431360C7E719E00D99224600284C
:103620006FF00100009702DAFEF75EFF04E0FEF79C
:1036300079FE01E0FEF7E5FF00280ADA401C06D11A
:103640000C9820B14FF0FF300FB000F00DB850468D
:10365000FAE7E90701D10AF1010A064400200C90BB
:1036600054E60000CCCCCC0C30BCBDE8C08F0000D0
:103670002DE9FF4F064689B00878FF2806D0491C7F
:103680002D2805D000244FF0000908E000200CE0B0
:103690000124F8E709EB8903491C00EB430908788A
:1036A000FF28F7D114B1C9F1000081461078002538
:1036B0002C46AA4629462D2801D02B2804D1521C7D
:1036C0002D2813D0002082468B461078FF280FD07B
:1036D0004FF0000C0A21521CA5FB017804FB01816C
:1036E00005FB0C11C5194BEB0104EEE70120EAE7DD
:1036F000002108464FF00000BAF1000F02D000EBA5
:1037000080004008C0F38158B8F1010F01DD4FF08F
:10371000FF380C9809EB000755EA040009D04FF078
:10372000020917F5FA7F0BDA4FEACA70C6E900B052
:1037300012E04FEACA70C6E900B00DB000F0EAB975
:10374000B7F5FA7F0DDDF0487844D0E90010C6E9FE
:10375000001040EACA707060FDF7A2F9C0F800904E
:10376000EBE7391E02DAC8F1000200E0424600DA57
:10377000794206A800F032FA06AB93E8070003ABE3
:1037800083E8070044F23E005BEA040100905846DB
:1037900004D144F21E012C465D460091210C09041F
:1037A000014306D10099240444EA15442D0410393C
:1037B000009104F07F41014306D10099240244EABC
:1037C00015642D020839009104F07041014306D1BF
:1037D0000099240144EA15742D01091F009104F099
:1037E0004041014306D10099A40044EA9574AD001C
:1037F000891E009104F00041084304D100986D191E
:103800006441401E009042466846002FCDE90145C4
:1038100003A902DD01F065F801E001F03AF8BAF120
:10382000000F04460D4601D084F0004440F2FF77BB
:1038300024F00040284303D0C4F30A50B84212D108
:10384000FDF72EF9C0F80090C4F30A50B8420AD12F
:10385000AE487844D0E90010C6E9001004F00041F9
:103860000843706069E7C6E9005466E72DE9FF4F39
:103870001F464FF0000A4FF0FF38454691B0D7E998
:103880000146CDF83CA0FEF798F8C0680168405C9E
:103890001090B96912986D1C8847396A814688472B
:1038A0000028F6D1B9F1FF3F0AD0002E24F4D064ED
:1038B00011DDB9F12B0F08D0B9F12D0F0BD102E0BA
:1038C000404615B03AE744F48064B96912986D1C1B
:1038D0008847761E8146600504A901D52D2000E0A9
:1038E0002B20002E01F1010B0DF130088DF8100096
:1038F0003FDDB9F1690F08D0B9F1490F05D0B9F131
:103900006E0F02D0B9F14E0F1CD13B4601A80095B5
:1039100080E85002DDE912126FF002000DF01DFE8A
:10392000C11CCED10EE0B96912986D1C8847814642
:103930001398761E44F4007405600F98401C002E06
:103940000F9016DDB9F1300FEDD0B9F1780F02D03C
:10395000B9F1580F0DD10F9801280AD13B46CDE996
:103960000054DDE91212001F02960DF0F4FDC11C97
:10397000A7D1109989453ED144F0800406E01399FF
:10398000681CAAF1010A44F400740860B9696D1C4E
:103990001298761E884730288146F0D02BE0109987
:1039A000894505D1200603D4761E44F0800418E032
:1039B000484607F040FF08B3761E0DF123018B4502
:1039C00044F4007408D2A9F130000BF8010B200672
:1039D00007D5AAF1010003E0200602D40AF1010094
:1039E0008246A00502D51399681C0860B96912982F
:1039F0006D1C88478146002ED1DC53E0002E51DD3E
:103A0000B9F1650F02D0B9F1450F4BD1A00549D5E9
:103A1000B9696D1C1298761E24F440748847002EF4
:103A200081460CDD2B2804D0B9F12D0F07D144F4C9
:103A30008074B96912986D1C8847761E8146E0052E
:103A400001D52D2100E02B2108F8011BCDF80080C5
:103A500021E0761E0DF13901884544F400740CD242
:103A6000A9F1300010F0FF0088F8000002D10099A1
:103A7000884509D908F1010806E0E00501D5244888
:103A800001E042F20F708246B96912986D1C8847B6
:103A9000814613980560002E04DD484607F0CBFEF2
:103AA0000028D6D1F96912988847FF2053468BF831
:103AB000000088F8000000200A900B9004AA0CA9CE
:103AC0000AA8FFF7D5FDA00502D46FF00100F8E6C3
:103AD00014F0240F0AD0E00714D13868DDE90A1287
:103AE000031D3B600068C0E900120BE00AA96846AC
:103AF00007F04EFDE00705D13868009A011D3960D6
:103B0000006802602846DCE6E8EC0000DEEB00001E
:103B1000F1D8FFFF30BCBDE8C08F2DE9F05F8246D1
:103B200015468B4600270AF10104B9460078302873
:103B300001D09DB113E014F8010B0127782803D0C0
:103B4000582801D045B10AE00DB1102D07D100274A
:103B500014F8010B102502E0082500E00A250026D4
:103B6000B0460EE005FB080005FB06F101271FFA31
:103B700080F801EB1046B6F5803F00D3B94614F843
:103B8000010B2946FEF712FB0028EBDABBF1000F10
:103B900005D00FB1641E00E05446CBF80040B9F1E7
:103BA000000F06D0FCF77CFF02210160C81E00F068
:103BB00003B848EA0640FAE730BCBDE8C09F10B53C
:103BC00008E030F8024B9C4204D10AB1002010BD3D
:103BD000012010BD491EF4D2104610BD2DE9F0475A
:103BE000814616468AB0334878440DC88DE80D00EA
:103BF00030487844801C03AC0DC884E80D0041F6C1
:103C00009B300844372190FBF1F290FBF1F5A5F1D0
:103C1000800501FB12041B3C02D56442012000E038
:103C20000020DFF890A080460027FA44AAF1BE0ADF
:103C30000DE0E00709D03246684607EB47010AEB82
:103C4000810100F03AFE8DE8070064107F1C002C13
:103C5000EFD1184F7F44AC3F18E0E80714D007EBD2
:103C600004100DF1180A90E80E008AE80E00C068F2
:103C7000F04201D198190890324606A903A800F035
:103C80001CFE03AB83E807006D10641C002DE4D11B
:103C900032466946B8F1000F03A802D000F0E5FDF6
:103CA00001E000F00AFEC9E90001C9F808200AB0E5
:103CB000BDE8F08708E0000010B50146C268900733
:103CC00003D0900607D5886A0AE0FCF7E9FE0121D7
:103CD0000160881E10BD8B69486818440B69C01AC2
:103CE00091F848301BB191F84910401A10BD1103EA
:103CF000FCD50028FADD401E10BD70B516460C46F6
:103D00000546FCF7C5FE036893F80101012804D0BD
:103D1000185D68B101202C8070BDD3F803013246D4
:103D2000214603F2031303442846BDE870401847B8
:103D30004FF0FF3070BD70B516460C460546FCF7D7
:103D4000A7FE036893F80101012806D0FF2C0FD8C5
:103D5000185D68B101202C7070BDD3F807013246A0
:103D6000214603F2071303442846BDE87040184774
:103D70004FF0FF3070BD002801D000F027B8704729
:103D800010B500F04BF8BDE81040FFF7F4BF10B5D8
:103D900000F05EF8BDE81040FFF7EDBF10B5002160
:103DA00002A000F021F8012010BD00005349475047
:103DB00056464E3A20507572652076697274756168
:103DC0006C20666E2063616C6C656400014918208C
:103DD000ABBEFEE72600020010B5FDF7E9FD006866
:103DE000BDE8104000F064B870B505460C460A20E6
:103DF00000E06D1C00F054F835B128780028F8D1A7
:103E000002E0641C00F04CF814B120780028F8D1CE
:103E1000BDE870400A2000F043B8000010B501462C
:103E200002A0FFF7E1FF012010BD000053494752F7
:103E3000545245443A2052656469726563743A206D
:103E400063616E2774206F70656E3A200000000079
:103E500010B5012805D0002103A0FFF7C5FF012000
:103E600010BD09A1F8E7000053494752544D454D94
:103E70003A204F7574206F662068656170206D650B
:103E80006D6F7279000000003A2048656170206D06
:103E9000656D6F727920636F7272757074656400FE
:103EA00008B569468DF800000320ABBE08BD704719
:103EB00010B50C3007F0E5FC10BD10B5FCF7F0FDB7
:103EC000006810BD10B50446FCF7EAFD046010BDA3
:103ED0002DE9FF4F1F464FF03C0987B04FF00042DD
:103EE000DDE9141001F10108DDF858A002EA4050A4
:103EF0000390002005908346054604460490B96966
:103F0000461E08988847AAF1010A0290BAF1000FEC
:103F10003BDD02982E2815D01021FEF747F9002826
:103F20002EDB4FF0010B0599014317D0B9F1000FBB
:103F30000BDB4A46C117FCF7B6FE05430C43A9F15B
:103F4000040905E0012004900BE008B145F00105EB
:103F500001200590049820B9361D02E0049800B1B4
:103F6000361FB969089808F101088847BBF1000FAE
:103F7000AAF1010A0290C9D00999C1F80080C5E7E9
:103F80000298702808D0502806D0F9690898884708
:103F9000BBF1000F14D04FE0002002900120BBF1D4
:103FA000000F049009D0B969089808F10108884702
:103FB000AAF10109B9F1000F07DCF96908988847EF
:103FC0006FF001000BB000F013B92B2804D02D289E
:103FD0000CD14FF0FF300490B969089808F101083E
:103FE0008847A9F10109B9F1000FE6DD411CE4D0D1
:103FF0000A21FEF7DBF80028DFDB029908F101084F
:1040000001EB810100EB41000290B96908988847F3
:104010000A21FEF7CBF8099AA9F10109B9F1000FBD
:10402000C2F8008001DD0028E7DAF96908988847BE
:104030000499029800FB016655EA040004D004F0DC
:104040004041090002D006E0039898E0A40044EA49
:104050009574AD00B61E04F00041080002D16D1940
:104060006441761E159810F0240F03D04FF00B0911
:104070005C4803E04FF028096FF07D00824656450A
:1040800007DAAAEB06018944B9F1410F01DD4FF0CF
:10409000410901200021A9F10102FCF704FE0246BA
:1040A00028400B462140084301D0012100E00021B7
:1040B000501E029143F1FF3128402140084301D0B6
:1040C000012000E000200299834651EA0B014FD005
:1040D000002108464FF00000039900F4400039B178
:1040E00000EB80004FF4400100EBD07001EA60006B
:1040F0008015012802DD4FF0FF3000E013D0401C96
:1041000036D0029860B3BBF1000F0CD14A460120B3
:104110000021FCF7C8FD28402140084301D00120C0
:1041200000E00020E0B101204A460021FCF7BBFD81
:10413000034640190A4661412D1A8C4111D3B9F149
:10414000400F09DD159810F0240F02D0AAF13406B3
:1041500003E0AAF1170600E0761C00254FF00044AA
:1041600006E05B1E42F1FF3220EA030521EA020469
:10417000CAF10100B04206DA1B49039808430190D6
:10418000002000900EE0039AC4F3D321E80A0A430A
:10419000164940EA44500A433146CDE900026846D8
:1041A00007F0DCFA159810F0240F0BD01598C00713
:1041B00015D13868DDE90012031D3B600068C0E9D5
:1041C00000120CE002A8694607F0E2F91598C00752
:1041D00005D13868029A011D3960006802604046C6
:1041E000F0E6000002FCFFFF0000F07F0000F03F5F
:1041F00030BCBDE8C08F00002DE9FF4F92461D4640
:1042000085B04FF00041DDE9124BDDE914727F1EED
:1042100001EA4B50414940F0FF4940EA01080021C2
:1042200022F020004928049102D04E2828D04CE0EA
:104230003BA0012607C88DE80700A9690698641C01
:1042400088477F1E014606D41DF8060018B121F0EC
:10425000200181420BD0E96906988847032E34D0AB
:10426000082E32D06FF0010009B000F05FB8761C64
:10427000032E01D0082EE0D1601CCAF80000DCE754
:10428000A9690698641C88477F1E2AD420F0200064
:10429000412826D1A9690698641C88477F1E20D42E
:1042A00020F020004E281CD1A9690698641C88477C
:1042B0007F1E48F4002849F48009CAF8004001D460
:1042C000282806D0E969069888475FEACB7012D0A3
:1042D00022E0A9690698641C88477F1E01D4002843
:1042E00003DAE96906988847BCE72928F1D1641CFC
:1042F000CAF80040E9E71BF0240F07D028680499AA
:10430000031D2B600068C0E9001805E02868021D45
:104310002A600068C0F800902046A5E70000F07F02
:10432000494E46494E4954590000000030BCBDE892
:10433000C08F5FEA400C08BF91F0000F4FEA8C235A
:104340004FEAC12243EA51514FEA1C5018BF00F511
:10435000F0404FEA300018BF41F000415FEA6C5C6A
:1043600000F02980BCF1FF3F08BF40F0804070475B
:10437000130C06BF12044FF0100C4FF0000C130E7C
:1043800004BF12020CF1080C130F04BF12010CF150
:10439000040C930F04BF92000CF1020CD30F04BF66
:1043A00052000CF1010C11464FF00002A0F11F0069
:1043B000A0EB0C00704711F0004F08BF704731F0C0
:1043C00000413FF4D5AF0B0C06BF09044FF0100CB1
:1043D0004FF0000C0B0E04BF09020CF1080C0B0F80
:1043E00004BF09010CF1040C8B0F04BF89000CF110
:1043F000020CCB0F04BF49000CF1010CCCF12003DF
:10440000A0EB0C0022FA03F302FA0CF241EA0301DA
:1044100000F10100704720F07F4C80EA030023F098
:104420007F47ACEB070303F57C5300F0004003F13A
:10443000FF032DE980494FEA154B09B44FEA1443B5
:1044400025EA0B4E24EA03480FF2042606EB132755
:1044500049083E785FEA320203FB0667C7F50007AA
:1044600007FB06F64FEA54374FEAD64606F1020636
:1044700007FB066CCCF1005C4FEA1C472CEA074CAA
:1044800007FB06F40CFB06F504EB15464FEA9616FF
:1044900034BF00204FF000404FEAD13706FB07FC45
:1044A0004FEA1C4C0CFB0BF7D21B03FB0CF761EB28
:1044B00007010CFB0EF7B0EB074072EB17420CFB49
:1044C00008F734BFA2EB0742B2EB074261EB17419A
:1044D0004FEA0C444FEA910706FB07FC4FEA1C4CDD
:1044E0000CFB0BF7B0EBC74072EB573203FB0CF73A
:1044F00034BFA2EBC742B2EBC74261EB57310CFBB2
:104500000EF7B0EBC70072EB57720CFB08F734BF25
:10451000A2EBC702B2EBC70261EB5771039F4FEAF0
:10452000816141EA921104EBCC044FEAD1374FEAA2
:10453000826206FB07FC42EA90124FEA80604FEA73
:104540001C4C0CFB0BF7D21B03FB0CF761EB0701B8
:104550000CFB0EF7B0EB074072EB17420CFB08F7B1
:1045600034BFA2EB0742B2EB074261EB17414FEABF
:104570008C554FEA910704EB9C2406FB07FC4FEA9D
:104580001C4C0CFB0BF7B0EBC74072EB573203FB34
:104590000CF734BFA2EBC742B2EBC74261EB573115
:1045A0000CFB0EF7B0EBC70072EB57720CFB08F771
:1045B00034BFA2EBC702B2EBC70261EB577115EB38
:1045C0004C254FEA816141EA92114FEA82624FEA3B
:1045D000D13742EA901206FB07FC44F100044FEA8F
:1045E00080604FEA1C4C0CFB0BF7D21B03FB0CF753
:1045F00061EB07010CFB0EF7B0EB074072EB1742C3
:104600000CFB08F734BFA2EB0742B2EB074261EBA9
:10461000174115EB1C154FEA813141EA92414FEAEF
:10462000823242EA90424FEA80304FEA0C7644F1FF
:10463000000448EA03434EEA0B484FF0000EB2EB89
:10464000080C71EB030724BF624639464EEB0E0E91
:104650004FF0000B0018524149414BEB0B0BB2EBF2
:10466000080C71EB03077BF1000B24BF624639464F
:104670004EEB0E0E4FF0000B0018524149414BEB30
:104680000B0BB2EB080C71EB03077BF1000B24BFA3
:10469000624639464EEB0E0E51EA020718BF46F04D
:1046A000010616EB0E7655F1000254F1000103D518
:1046B000BDE88901BDE80088BDE88901BDE8004882
:1046C000B619524141EB0101A3F10103704780800B
:1046D0007F7E7D7C7B7A797877767675747372715C
:1046E00071706F6E6E6D6C6C6B6A6A696868676614
:1046F00066656464636362616160605F5F5E5E5DA6
:104700005D5C5C5B5B5A5A59595858575756565519
:1047100055555454535352525251515050504F4F7B
:104720004F4E4E4D4D4D4C4C4C4B4B4B4A4A4A49CB
:10473000494948484847474747464646454545440E
:1047400044444443434343424242424141410000C6
:1047500046EA0646A3F570534FEA164646EA425625
:104760004FEAD22242EA415210B54FEAD121A3F1D9
:10477000010300F017F820F0004000F1010C00F0F8
:10478000004701EB00501146BCF5006F40EA0700FE
:1047900000D210BD02484FF0000140EA070010BDF2
:1047A0000000F07F002B26D4770021D01CB54FEA03
:1047B000370703B44FF010004FF010014FF0000026
:1047C0000FBCBDE810400BF1010BBBF1010F08BF9E
:1047D0005FEA170722BF12F1010211F101014FF048
:1047E000004143F1000300F0004043EA000070473D
:1047F000F9D35708DAE746EA064613F1400F4FEAC5
:1048000016461FDD13F1200FDFBF16430A460021B5
:1048100020335B42C8D0C3F1200746EA064602FABD
:1048200007F74FEA164646EA0706C3F1200722FAC1
:1048300003F201FA07F721FA03F14FF0000342EA0D
:104840000702B1E746EA020646EA06464FEA16467E
:1048500046EA0106BCBF46EA0646360C4FF00003A6
:104860004FF000024FF000019EE72DE9C04893464B
:1048700030B491E8380007C831EA400C48BF34EA48
:10488000430C03D5FFF7C7FDFFF78CFFF0BCBDE875
:1048900000882DE9C048934630B491E8380007C835
:1048A00031EA400C48BF34EA430C03D5FFF7B3FDAF
:1048B000FFF74EFFF0BCBDE800882DE9C0489346E5
:1048C00030B491E8380007C810F0804F08BF13F0EB
:1048D000804F03D100F019F8FFF764FFF0BCBDE88A
:1048E00000882DE9C048934630B491E8380007C8E5
:1048F00010F0804F08BF13F0804F03D100F005F88F
:10490000FFF726FFF0BCBDE8008820F07F4780EA73
:10491000030023F07F4C07EB0C03A3F57C5300F05E
:104920000040A3F1FE0392F0000F00F0B38095F079
:10493000000F00F077802DE901494FEA11404FEA5E
:10494000144621EA004800FB06FC24EA064708FB5F
:1049500006F607FB08F800FB07F718EB06484CEBD8
:10496000164C4FEA124B18EB07484FEA15464CEB32
:10497000174022EA0B4E0BFB06FC25EA06470EFB0E
:1049800006F607FB0EFE0BFB07F71EEB064E4CEB85
:10499000164C4FF000061EEB074E4CEB174B18EB76
:1049A0000B0840F1000018EB0E0B58EB000840F12B
:1049B00000008F1A4FF000013CBFC943661B14BFB3
:1049C000B5EB040C00213CBFC943F61B4FEA17446A
:1049D0004EEA8E0E27EA04454FEA1C4704FB0762A5
:1049E0002CEA074C05FB07F70CFB05F604FB0CFC57
:1049F00016EB074642EB174216EB0C4642EB1C4205
:104A00001BEB060658EB0202414146EA9E0601D521
:104A1000BDE80189B619524141EB0101A3F101033F
:104A2000BDE801894FEA14454FEA114724EA0546DB
:104A300021EA074C05FB07F406FB07F70CFB06F120
:104A400005FB0CFC11EB074144EB17444FEA1247FE
:104A500011EB0C4144EB1C4422EA074C05FB07F226
:104A600006FB07F70CFB06F605FB0CFC16EB0746EE
:104A700042EB174216EB0C4642EB1C456A1854F108
:104A8000000148BF7047B619524141EB0101A3F143
:104A90000103704795F0000F37D04FEA11424FEAFB
:104AA000144721EA024624EA074C02FB07F106FB01
:104AB00007F70CFB06F402FB0CFC14EB074441EB7C
:104AC00017414FEA154714EB0C4441EB1C4125EA12
:104AD000074C02FB07F506FB07F70CFB06F602FB8B
:104AE0000CFC16EB074645EB174516EB0C4645EB61
:104AF0001C42121951F1000148BF7047B6195241CA
:104B000041EB0101A3F1010370474FEA14454FEA5D
:104B1000114724EA054621EA074C05FB07F106FB8D
:104B200007F70CFB06F24FF0000605FB0CFC12EB3E
:104B3000074241EB174112EB0C4251EB1C4148BFBD
:104B40007047921841EB0101A3F10103704710B5C2
:104B500007F0DAFD07F000FD10BD10B50446002196
:104B600020460CF0A3F810BD10B50021014807F055
:104B7000A1F810BD0064004010B50021014807F005
:104B800099F810BD0064004010B50021014807F0FD
:104B900091F810BD006400407047000010B508484F
:104BA000006820B106490968886D00F0F1F80548F1
:104BB000006820B103490968086A00F0E9F810BDEF
:104BC0009C0B0020880B002010B50C48006820B119
:104BD0000A490968486D00F0DBF80948006820B10F
:104BE00007490968086A00F0D3F80648006820B150
:104BF00004490968486A00F0CBF810BD9C0B0020FE
:104C0000980B00208C0B002010B50448006820B1E0
:104C100002490968C86A00F0BBF810BD940B002077
:104C20007047704710B50448006820B10249096810
:104C3000886A00F0ADF810BD900B002010B5044854
:104C4000006820B102490968886D00F0A1F810BD24
:104C5000A00B002010B50448006820B10249096883
:104C6000486D00F095F810BDA00B0020704770470C
:104C70007047704770472DE9F04107460E461546CC
:104C800005F0020080B905F0010030B1314607F1AE
:104C90000C00FBF754FB044615E0314607F10C000D
:104CA000FBF760FB04460EE0FC6805F0010018B15C
:104CB00004EA0600B04205D105F0010018B904EA83
:104CC000060000B900242046BDE8F08170B5044616
:104CD0000D46294604F10C00FBF71CFB0646304646
:104CE00070BD704770477047704770477047704796
:104CF00070477047704770477047704770477047FC
:104D000070477047704770477047704770477047EB
:104D100070477047704770477047704770477047DB
:104D200070477047704770477047704770477047CB
:104D300070477047704770477047704770477047BB
:104D400070477047704770477047704770477047AB
:104D500070477047704710B508F014FE04462046AF
:104D60000AF0C0FC10BD704770477047704770472D
:104D70007047704770477047704700F01F0201216D
:104D800091404211920002F1E022C2F800117047F6
:104D900070B50446206C05682068066894F84410D5
:104DA000042088402840D0B106F00400B8B1206843
:104DB000006800F0200028B92068006820F0040096
:104DC0002168086094F8441004208840216C4860F1
:104DD000206B00284ED02046216B88474AE094F88B
:104DE000441002208840284008B306F00200F0B1C9
:104DF0002068006800F0200040B92068006820F0BA
:104E00000A0021680860012084F8250094F8441005
:104E100002208840216C486000BF002084F82400F4
:104E200000BFE06A30B32046E16A884722E094F888
:104E30004410082088402840E0B106F00800C8B1BE
:104E40002068006820F00E002168086094F8441083
:104E500001208840216C48600120E06384F825002F
:104E600000BF002084F8240000BF606B10B1204612
:104E7000616B884770BD0000014800687047000002
:104E8000500B002002480068401C01490860704730
:104E9000500B002010B5032000F090F80F2000F018
:104EA00005F800F089F8002010BD000010B588B0AA
:104EB000044602A903A800F0CDFB00F0F3FB02902A
:104EC00000BF3748806D40F00100354988650846CD
:104ED000806D00F00100019000BF00BF0846806BAC
:104EE00040F0010088630846806B20F00100886371
:104EF00088042C4908604FF0FF312A48C1600698A9
:104F000040B929490298B0FBF1F080B2401E254912
:104F1000486008E0029840002349B0FBF1F080B2FD
:104F2000401E2049486000211E48016181604161A6
:104F300001F032F81C201D491D4B1A6800F11003C6
:104F400042F8231000BF00BF002809DB00F01F0259
:104F5000012191404209920002F1E022C2F80011C1
:104F600000BF00210F4801F033F804210D4801F083
:104F70002FF80C480068406A0E490860084600682F
:104F800000F57A7007490968886306480068C068B8
:104F900040F0040003490968C860002008B010BD53
:104FA000001002400823002040420F00F9F70008DB
:104FB00008ED00E0BC0A00207047000000BF00F0D0
:104FC0000702064B19684FF6FF031940044B0B43C9
:104FD00043EA0221014B196000BF70470CED00E06D
:104FE0000000FA0500BF1148006820F480400F4A15
:104FF00010600F4800680F4AB0FBF2F0322200FB4D
:1050000002F100E0491E31B10848406900F4007027
:10501000B0F5007FF6D00548406900F40070B0F5A7
:10502000007F01D1032070470020FCE700700040A2
:10503000540B002040420F000348006840F48040B9
:105040000149086070470000007000400D49096880
:1050500021F00701891C0B4A11600B49096841F0D6
:105060000401094A1160012801D130BF02E040BFAC
:1050700020BF20BF0449096821F00401024A1160E1
:10508000704700000070004010ED00E0024800682A
:1050900000F4C060704700000070004070B5054625
:1050A0000C464DB90F48406900F40070B0F5007F20
:1050B00009D1FFF797FF06E00A484069C0F3402096
:1050C00008B9FFF7B9FF0848006820F00400064956
:1050D0000860012C01D130BF02E040BF20BF20BFDB
:1050E00070BD00000070004010ED00E00648006850
:1050F00020F0200004499039C1F8900008468069EA
:1051000020F40070886170479010024003480068E6
:1051100040F00400014908607047000000100240A0
:105120002DE9F8430446002600270025A8462088DC
:1051300000F40060B0F5006F26D1E06B68B1B0F507
:10514000000F03D0B0F5400F0ED10CE0C548C06889
:1051500040F48030C349C86008E00021201D01F000
:1051600099FC054602E001E0012500BF00BF55B9EA
:10517000BC488830006820F44000E16B0843B9491E
:10518000C1F8880000E0A846206800F40030B0F5BF
:10519000003F74D14FF00009B248806D00F080509C
:1051A00078B900BFAF48806D40F08050AD49886548
:1051B0000846806D00F08050009000BF00BF4FF0A7
:1051C0000109A948006840F48070A7490860FFF70A
:1051D00053FE074606E0FFF74FFEC01B022801D929
:1051E000032505E0A048006800F480700028F2D094
:1051F00000BF7DBB9B489030006800F44076CEB184
:10520000206DB04216D097489030006820F4407668
:105210009448D0F8900040F480309249C1F8900052
:105220000846D0F8900020F48030C1F8900008467D
:10523000C0F8906006F00100A8B1FFF71DFE074618
:1052400009E0FFF719FEC01B41F28831884202D9FC
:10525000032507E016E083489030006800F0020064
:105260000028EED000BF5DB97E489030006820F481
:105270004070216D08437B49C1F8900003E00CE0C9
:10528000A84600E0A846B9F1010F05D17548806D28
:1052900020F080507349886500BF207800F001003D
:1052A00048B170488830006820F00300216A084344
:1052B0006C49C1F88800207800F00200022809D16A
:1052C00068488830006820F00C00616A084365492E
:1052D000C1F88800207800F02000202809D161481A
:1052E0008830006820F44060A16A08435D49C1F835
:1052F0008800208800F40070B0F5007F09D159487B
:105300008830006820F44020616B08435549C1F89B
:105310008800208800F48060B0F5806F09D1514882
:105320008830006820F44010A16B08434D49C1F853
:105330008800207800F04000402809D14948883092
:10534000006820F44050E16A08434649C1F88800EB
:10535000208800F48070B0F5807F09D14148883002
:10536000006820F44030216B08433E49C1F88800B2
:10537000208800F40050B0F5005F1FD13948883014
:10538000006820F04060216C08433649883108608D
:10539000206CB0F1006F06D13248C06840F4801034
:1053A0003049C8600AE0206CB0F1806F06D101215D
:1053B000201D01F06FFB054605B1A846206800F4EA
:1053C0008020B0F5802F1FD126488830006820F05B
:1053D0004060616C0843234988310860606CB0F11B
:1053E000006F06D11F48C06840F480101D49C86096
:1053F0000AE0606CB0F1806F06D10121201D01F040
:1054000049FB054605B1A846208800F48040B0F568
:10541000804F14D113488830006820F04050A16CB0
:105420000843104988310860A06CB0F1805F06D154
:105430000221201D01F02EFB054605B1A84620885B
:1054400000F40040B0F5004F09D1064888300068EC
:1054500020F08040E16C08430249C1F888004046D2
:10546000BDE8F883001002400070004070B50446AB
:105470000D4600267348006800F00700A8420ED2CF
:105480007048006820F0070028436E49086008460D
:10549000006800F00700A84201D0012070BD20780C
:1054A00000F00200022807D16748806820F0F00071
:1054B000A168084364498860207800F00100002852
:1054C00079D06068022806D15F48006800F4003097
:1054D000D8B90120E2E76068032806D15A4800687D
:1054E00000F0007088B90120D8E7606830B95648EC
:1054F000006800F0020040B90120CFE75248006880
:1055000000F4806008B90120C8E74F48806820F0A7
:105510000300616808434C498860FFF7ADFC06460C
:105520006068022810D108E0FFF7A6FC801B41F25A
:105530008831884201D90320B0E74348806800F0F1
:105540000C000828F0D136E06068032810D108E08C
:10555000FFF792FC801B41F28831884201D9032079
:105560009CE73948806800F00C000C28F0D122E05C
:10557000606880B908E0FFF77FFC801B41F288314A
:10558000884201D9032089E72F48806800F00C0089
:105590000028F0D10FE008E0FFF76EFC801B41F21D
:1055A0008831884201D9032078E72748806800F0D5
:1055B0000C000428F0D12348006800F00700A8423E
:1055C0000ED92048006820F0070028431D490860D4
:1055D0000846006800F00700A84201D001205DE7FE
:1055E000207800F00400042807D11748806820F4D0
:1055F000E060E168084314498860207800F0080002
:10560000082808D11048806820F46050216940EAD9
:10561000C1000D49886000F071F80B49896801F0FC
:10562000F001F02292FAA2F2B2FA82F2D140074AD5
:10563000515CC840064908600F20FFF737FC002086
:105640002CE700000020024000100240341A01083C
:10565000540B00200F2202600D4A926802F00302F0
:1056600042600B4A926802F0F0028260084A926837
:1056700002F4E062C260064A926802F46052D20804
:105680000261044A126802F007020A6070470000D3
:1056900000100240002002400148006870470000EE
:1056A000540B002000B5FFF7F7FF0749896801F4A4
:1056B000E0614FF4E06292FAA2F2B2FA82F2D140D3
:1056C000024A515CC84000BD00100240441A010863
:1056D00000B5FFF7E1FF0749896801F460514FF415
:1056E000605292FAA2F2B2FA82F2D140024A515CBE
:1056F000C84000BD00100240441A0108F0B5002166
:1057000000230024022502220020554EB66806F030
:105710000C065EB1524EB66806F00C060C2E2DD16A
:105720004F4EF66806F00306012E27D14C4E366820
:1057300006F008066EB94A4E9436366806F470666E
:105740004FF4706797FAA7F7B7FA87F726FA07F1C9
:105750000AE0434E366806F0F006F02797FAA7F7FE
:10576000B7FA87F726FA07F13E4E56F821103C4E5D
:10577000B66806F00C0686B908460EE0384EB668E4
:1057800006F00C06042E01D1374806E0344EB66808
:1057900006F00C06082E00D13448314EB66806F0EB
:1057A0000C060C2E5BD12E4EF66806F003042C4E30
:1057B000F66806F07006702797FAA7F7B7FA87F72A
:1057C000FE40721C012C29D0022C02D0032C24D1C3
:1057D00011E0254EB6FBF2F6214FFF6807F4FE47B5
:1057E0004FF4FE4C9CFAACFCBCFA8CFC27FA0CF78C
:1057F00006FB07F323E01D4EB6FBF2F6184FFF68D9
:1058000007F4FE474FF4FE4C9CFAACFCBCFA8CFC4F
:1058100027FA0CF706FB07F311E000BFB1FBF2F625
:105820000F4FFF6807F4FE474FF4FE4C9CFAACFCA8
:10583000BCFA8CFC27FA0CF706FB07F300BF00BF8D
:10584000074EF66806F0C0664FF0C06797FAA7F7F4
:10585000B7FA87F7FE40761C7500B3FBF5F0F0BD94
:10586000001002404C1A01080024F40000127A00D3
:10587000F8B504460025207800F01000102874D1F7
:10588000FE48806800F00C00002870D1FB480068DA
:1058900000F0020018B1A06908B90120F8BDF7486E
:1058A000216A006800F0080020B1F448006800F0A8
:1058B000F00005E0F1489430006800F470600009E1
:1058C00081421FD9206A01F0DBF908B10120E5E728
:1058D00000BFEA48006840F00800E8490860084650
:1058E000006820F0F000216A0843E449086000BF26
:1058F0000846406820F47F40E16940EA0120DF4922
:1059000048601EE000BFDD48006840F00800DB4949
:1059100008600846006820F0F000216A0843D74973
:10592000086000BF0846406820F47F40E16940EA13
:105930000120D2494860206A01F0A2F908B1012093
:10594000ACE7FFF7DBFECD49896801F0F001F022FA
:1059500092FAA2F2B2FA82F2D140C94A515CC8402E
:10596000C84908600F20FFF7A1FA4BE0FFE7A069E4
:1059700080B3C248006840F00100C0490860FFF7EA
:105980007BFA054606E0FFF777FA401B022801D9AB
:10599000032083E7B948006800F002000028F2D035
:1059A00000BFB648006840F00800B44908600846E7
:1059B000006820F0F000216A0843B049086000BF89
:1059C0000846406820F47F40E16940EA0120AB4985
:1059D000486017E0FFE7A948006820F00100A749E8
:1059E0000860FFF749FA054606E0FFF745FA401B55
:1059F000022801D9032051E7A048006800F0020006
:105A00000028F2D1207800F00100002868D09B48DF
:105A1000806800F00C0008280BD09848806800F0DF
:105A20000C000C280ED19548C06800F00300032834
:105A300008D19248006800F4003088B3606878BBF1
:105A400001202BE700BF6068B0F5803F06D18B488E
:105A5000006840F48030894908601AE06068B0F559
:105A6000A02F0BD18548006840F48020834908604E
:105A70000846006840F4803008600AE07F4800680B
:105A800020F480307D4908600846006820F48020BA
:105A9000086000BF606890B1FFF7EEF9054607E0C7
:105AA0001EE0FFF7E9F9401BC82801D90320F5E6FD
:105AB0007248006800F400300028F2D010E0FFF7D0
:105AC000DBF9054606E0FFF7D7F9401BC82801D9E6
:105AD0000320E3E66948006800F400300028F2D1B2
