:020000040800F2
:1000000000C000204D0A0008550A0008570A0008E1
:10001000590A00085B0A00085D0A00080000000099
:100020000000000000000000000000008909000836
:10003000610A000800000000150A0008250A0008EF
:10004000670A0008670A0008670A0008670A0008CC
:10005000670A0008670A0008670A0008670A0008BC
:10006000670A0008670A0008670A00083D320008AE
:10007000413200086D320008AD320008C532000878
:10008000C7320008C9320008670A00082D3200088C
:100090000D320008670A00081D320008670A0008D0
:1000A000670A0008670A0008670A0008670A00086C
:1000B000670A00080000000000000000670A00084E
:1000C000670A00080000000000000000670A00083E
:1000D00000000000670A0008670A0008000000002E
:1000E000670A0008670A000800000000000000001E
:1000F0000000000000000000000000000000000000
:10010000000000000000000000000000670A000876
:100110000000000000000000670A0008670A0008ED
:10012000E1320008F93200081133000813330008E7
:10013000153300080000000000000000000000006F
:10014000670A0008670A0008670A0008670A0008CB
:100150001733000819330008670A0008670A000807
:10016000670A0008670A0008670A00080000000024
:10017000670A0008670A000800000000000000008D
:10018000670A0008670A0008670A000800F002F81A
:1001900007F094FF0AA090E8000C82448344AAF17F
:1001A0000107DA4501D107F089FFAFF2090EBAE87D
:1001B0000F0013F0010F18BFFB1A43F0010318479B
:1001C000B4DA0000D4DA00000A4410F8014B14F04D
:1001D0000F0508BF10F8015B240908BF10F8014B98
:1001E0006D1E05D010F8013B6D1E01F8013BF9D1E1
:1001F000641E03D0641E01F8015BFBD19142E4D37D
:10020000704700000023002400250026103A28BF74
:1002100078C1FBD8520728BF30C148BF0B60704778
:100220006E2901F0B882702900F03F8666290CF033
:10023000918765290CF08E8767290CF08B876129DF
:100240000CF08A8703681B0A28BF41F080016929E6
:1002500000F0B085642900F0AD85752900F0AA850D
:100260006F2901F0AB83782900F00B86E92901F0B2
:100270004583E42901F04283F52901F03F83EF290A
:1002800001F0A883F82900F00A860368DB0928BF7B
:1002900041F08001632901F0C282732901F0C78215
:1002A000E32902F0FA81F32902F0FF810020704770
:1002B0001FB50CF04AFF9DE8030001F0C9F901F0F9
:1002C000AAF90400002000210CF058FB401C6060DB
:1002D000002000210CF068FBE06001F0F3FC01F06D
:1002E0006DF91FBD0246D2E84F0FC2E8431F03B1AC
:1002F000F9E77047024652E8000F40EA010042E881
:10030000000303B1F7E7704710B5024652E8000F4B
:1003100020EA010442E8004303B1F7E710BD10B53D
:10032000024652E8000F00EA01048C4203D0BFF3FA
:100330002F8F002010BD20EA010442E8004303B1E2
:10034000EFE710BD10B5024652E8000F084203D196
:10035000BFF32F8F002010BD20EA010442E80043C4
:1003600003B1F1E710BD024652E8000F411C42E81C
:10037000001303B1F8E7704710B5024652E8000FCA
:10038000814202D8BFF32F8F10BD441C42E80043C6
:1003900003B1F3E710BD10B50246D2E85F0F81420A
:1003A00002D8BFF32F8F10BD441CC2E8534F03B1D6
:1003B000F3E710BD10B50246D2E85F0F441CA1421E
:1003C00000D80024C2E8534F03B1F5E710BD024640
:1003D00052E8000F10B9BFF32F8F7047411E42E85B
:1003E000001303B1F4E770470246D2E85F0F10B97B
:1003F000BFF32F8F7047411EC2E8531F03B1F4E7CC
:100400007047024652E8000F10B9BFF32F8F7047B4
:10041000016842E8001303B1F4E7704702680A601C
:10042000BFF35F8F50E8002F0B689342F6D140E88E
:10043000001303B1F2E770470246D2E84F0FC2E85B
:10044000431F03B1F9E77047024652E8000F40EA44
:10045000010042E8000303B1F7E7704710B5024618
:1004600052E8000F20EA010442E8004303B1F7E735
:1004700010BD10B5024652E8000F00EA01048C429C
:1004800003D0BFF32F8F002010BD20EA010442E803
:10049000004303B1EFE710BD10B5024652E8000F6C
:1004A000084203D1BFF32F8F002010BD20EA0104C2
:1004B00042E8004303B1F1E710BD024652E8000FE5
:1004C000411C42E8001303B1F8E7704710B502463B
:1004D00052E8000F814202D8BFF32F8F10BD441C99
:1004E00042E8004303B1F3E710BD10B50246D2E87D
:1004F0005F0F814202D8BFF32F8F10BD441CC2E8AA
:10050000534F03B1F3E710BD10B50246D2E85F0FB9
:10051000441CA14200D80024C2E8534F03B1F5E7C0
:1005200010BD024652E8000F10B9BFF32F8F70477D
:10053000411E42E8001303B1F4E770470246D2E8D7
:100540005F0F10B9BFF32F8F7047411EC2E8531FD2
:1005500003B1F4E77047024652E8000F10B9BFF349
:100560002F8F7047016842E8001303B1F4E770472A
:1005700002680A60BFF35F8F50E8002F0B68934258
:10058000F6D140E8001303B1F2E770470246D2E823
:100590004F0FC2E8431F03B1F9E77047024652E824
:1005A000000F40EA010042E8000303B1F7E770479B
:1005B00010B5024652E8000F20EA010442E8004369
:1005C00003B1F7E710BD10B5024652E8000F00EA8C
:1005D00001048C4203D0BFF32F8F002010BD20EA0E
:1005E000010442E8004303B1EFE710BD10B5024635
:1005F00052E8000F084203D1BFF32F8F002010BD37
:1006000020EA010442E8004303B1F1E710BD0246CD
:1006100052E8000F411C42E8001303B1F8E77047AD
:1006200010B5024652E8000F814202D8BFF32F8F67
:1006300010BD441C42E8004303B1F3E710BD10B500
:100640000246D2E85F0F814202D8BFF32F8F10BD60
:10065000441CC2E8534F03B1F3E710BD10B5024686
:10066000D2E85F0F441CA14200D80024C2E8534FD7
:1006700003B1F5E710BD024652E8000F10B9BFF311
:100680002F8F7047411E42E8001303B1F4E7704713
:100690000246D2E85F0F10B9BFF32F8F7047411E9B
:1006A000C2E8531F03B1F4E77047024652E8000F57
:1006B00010B9BFF32F8F7047016842E8001303B1F0
:1006C000F4E7704702680A60BFF35F8F50E8002FBD
:1006D0000B689342F6D140E8001303B1F2E770478C
:1006E0000246D2E84F0FC2E8431F03B1F9E7704753
:1006F000024652E8000F40EA010042E8000303B15D
:10070000F7E7704710B5024652E8000F20EA0104EF
:1007100042E8004303B1F7E710BD10B5024652E8C6
:10072000000F00EA01048C4203D0BFF32F8F00209A
:1007300010BD20EA010442E8004303B1EFE710BD19
:1007400010B5024652E8000F084203D1BFF32F8FC5
:10075000002010BD20EA010442E8004303B1F1E7A4
:1007600010BD024652E8000F411C42E8001303B1DD
:10077000F8E7704710B5024652E8000F814202D8F0
:10078000BFF32F8F10BD441C42E8004303B1F3E7D1
:1007900010BD10B50246D2E85F0F814202D8BFF308
:1007A0002F8F10BD441CC2E8534F03B1F3E710BDB7
:1007B00010B50246D2E85F0F441CA14200D80024C5
:1007C000C2E8534F03B1F5E710BD024652E8000FEF
:1007D00010B9BFF32F8F7047411E42E8001303B1D9
:1007E000F4E770470246D2E85F0F10B9BFF32F8FCE
:1007F0007047411EC2E8531F03B1F4E77047024639
:1008000052E8000F10B9BFF32F8F7047016842E81C
:10081000001303B1F4E7704702680A60BFF35F8F0B
:1008200050E8002F0B689342F6D140E8001303B163
:10083000F2E770470246D2E84F0FC2E8431F03B108
:10084000F9E77047024652E8000F40EA010042E82B
:10085000000303B1F7E7704710B5024652E8000FF6
:1008600020EA010442E8004303B1F7E710BD10B5E8
:10087000024652E8000F00EA01048C4203D0BFF3A5
:100880002F8F002010BD20EA010442E8004303B18D
:10089000EFE710BD10B5024652E8000F084203D141
:1008A000BFF32F8F002010BD20EA010442E800436F
:1008B00003B1F1E710BD024652E8000F411C42E8C7
:1008C000001303B1F8E7704710B5024652E8000F75
:1008D000814202D8BFF32F8F10BD441C42E8004371
:1008E00003B1F3E710BD10B50246D2E85F0F8142B5
:1008F00002D8BFF32F8F10BD441CC2E8534F03B181
:10090000F3E710BD10B50246D2E85F0F441CA142C8
:1009100000D80024C2E8534F03B1F5E710BD0246EA
:1009200052E8000F10B9BFF32F8F7047411E42E805
:10093000001303B1F4E770470246D2E85F0F10B925
:10094000BFF32F8F7047411EC2E8531F03B1F4E776
:100950007047024652E8000F10B9BFF32F8F70475F
:10096000016842E8001303B1F4E7704702680A60C7
:10097000BFF35F8F50E8002F0B689342F6D140E839
:10098000001303B1F2E77047EFF30980816911F8B2
:10099000021C91BB01B590E80F10E047BDE8005084
:1009A0008CE80300234B93E80600914208BF704790
:1009B00041B91EF0100F10D11F49086820F0010046
:1009C00008600AE02CE9F00F1EF0100F08BF2CEDB4
:1009D000108AC1F838C081F822E01A6092F822101B
:1009E000906B61F0FF0E1EF0100F08BF00F028B8EA
:1009F000B0E8F00F80F30988704710B50F4A13680C
:100A0000994206D852F821400FC8A047EFF3098455
:100A1000206010BD10B509F047FCBDE81040EFF3B1
:100A2000098CBFE710B509F025FFBDE81040EFF3D2
:100A3000098CB7E72409002034EF00E078D60008DD
:100A4000B0EC088AB0EC08CAFFF7D2BF064880476E
:100A500006480047FEE7FEE7FEE7FEE7FEE7FEE7A3
:100A6000FEE7FEE7FEE7FEE7695D00088D0100088E
:100A700010B500F0D0FD001D10BD00BF01BF00008B
:100A800007F06ABB0B3020F0070070472DE9F041FA
:100A900017460E460446FFF7F5FFA042054633D938
:100AA000002F1CBF06F10C0007F0D6FB304674681F
:100AB000F4B12168A94217D305F1080291423CBF65
:100AC0006168416007D3626861194A602268521BFD
:100AD0000A6041602560002F1CBF06F10C0007F082
:100AE00017FC201DBDE8F08120466468002CE0D191
:100AF0002946304600F098FD0028D7D1002F1CBFB2
:100B000006F10C0007F004FC0020BDE8F08110B5F0
:100B1000044600F07BFD01682046BDE8104001223C
:100B2000B4E770B516460D46041F002808BF70BD17
:100B3000002E1CBF05F10C0007F08EFB2B465868F9
:100B4000002818BFA04238BF0346F8D31968CA1856
:100B5000A24218BF5C6003D122681C461144196090
:100B600021680A19824218BF606004D1426862603D
:100B7000006808442060002E1CBF05F10C0007F03F
:100B8000C7FB70BD10B5044600F040FD016820466B
:100B9000BDE810400122C4E753EA020C00F069806E
:100BA0002DE9F04B4FF00006002B1FBFB3FA83F581
:100BB00003FA05F424FA05F65E4012BF1643B2FAB2
:100BC00082F502FA05F4C5F120051EBF22FA05FCE4
:100BD00044EA0C04203556EA044C4FEA144418BF8A
:100BE000641C4FF000084FF00009904271EB030CB9
:100BF00039D3002919BFB1FA81F701FA07F6B0FA23
:100C000080F700FA07F6C7F120071EBF20FA07FC9D
:100C100046EA0C062037B6FBF4FCA7EB0507103FAD
:100C200007F01F0BCBF120060CFA0BFB2CFA06F693
:100C300044BFB3460026202FA4BF5E464FF0000BF2
:100C40005BEA060C08BF4FF0010B19EB0B09ABFB7D
:100C5000027C48EB0608C01B06FB02CC0BFB03CC56
:100C600071EB0C01C1E70B46024641464846BDE820
:100C7000F08B13B54FF000004FF00001AFF3008090
:100C8000BDE81C40704700007CB51D4616460C00B0
:100C9000009001D02044401E074B7B442A46694601
:100CA0000190304600F091FD05461CB100206946D8
:100CB00000F09EFD28467CBD5D0B00001CB50C4677
:100CC000064B7B4469460090204600F07EFD0446BA
:100CD0000020694600F08CFD20461CBD2B0B000057
:100CE0007CB51D4616460C00009001D02044401EE5
:100CF000074B7B442A4669460190304600F065FD6B
:100D000005461CB10020694600F072FD28467CBDF6
:100D1000050B000070B5044685690068C10601D561
:100D2000302600E02026C00707D070BDD4E901219D
:100D300030469047206A401C20626D1EF6D570BD7B
:100D400070B5044685690078C00707D170BDD4E945
:100D5000012120209047206A401C20626D1EF6D59C
:100D600070BD70B50C460546012A05D0287880066E
:100D700000D5EA69002302E0012305E05B1C9342F1
:100D800002D2E05C0028F9D1A869E618C01AA8616F
:100D9000286A184428622846FFF7BCFF04E0D5E91A
:100DA000012114F8010B9047B442F8D32846FFF70D
:100DB000C7FF70BD2DE9F041064600241068752973
:100DC000314616A510D000F07BFC002802DA404224
:100DD00013A507E031688A0701D512A502E049078B
:100DE00004D511A5012401E000F073FC00210A22C2
:100DF00006F1240709E0B0FBF2FCB0FBF2F302FBC2
:100E00001C00303078541846491C0028F3D1234682
:100E10002A463046BDE8F04100F064BC0000000006
:100E20002D0000002B00000020000000F0B40D4653
:100E30000188090502D5214C7C4402E01F4C7C440A
:100E40000E34002100F1240608E002F00F07120919
:100E5000E75D42EA03721B097754491C52EA030713
:100E6000F3D102780023120704D5702D06D009B102
:100E7000022311342246F0BC00F034BC01231034AC
:100E8000F8E770B504460D462146106800F021FCD5
:100E9000024629462046BDE870400023C6E7D21D21
:100EA00022F00703D3E90023C0E70368126843F088
:100EB000200303600823C3610023B7E7DCC80000F8
:100EC0002DE9F05F894604464FF0000ADFF874B15F
:100ED000FB44C0F820A02046E1688847002874D071
:100EE000252806D0D4E901219047206A401C2062C1
:100EF000F1E700265F462046E1688847202805463E
:100F000007DB312D05D2781910F8200C08B1064303
:100F1000F1E7B00701D526F00406C4F81CA00027AD
:100F2000C4F818A02A2D09D0284607F08EF938B346
:100F300004EB8708303DC8F8185019E059F8041B35
:100F4000204604EB87029161E1688847012F05463E
:100F500018D1E069002820DA26F020061DE0D8F834
:100F6000180000EB800005EB40003038C8F818008E
:100F70002046E1688847054607F067F90028EED16A
:100F8000012F0AD02E2D08D12046E16888477F1C0A
:100F90000546022F46F02006C4DBA069002803DACC
:100FA000404246F00106A061F00701D026F010068D
:100FB0006C2D0BD0682D09D04C2D39D06A2D35D031
:100FC000742D35D07A2D33D016E038E0E1682F4605
:100FD00020468847B842054609D16C2F26D04FF4E9
:100FE0008060E168064320468847054604E06C2F90
:100FF0001AD04FF4807006430DB3A5F141001928B3
:1010000002D8203546F400664A4629462046266026
:101010004E46FFF705F980B101280BD0F61D26F0EA
:10102000070000F1080956E74020E4E78020D8E7F0
:101030000020D6E706F104094DE7284652E7206A6A
:1010400000F002B86CC8000030BCBDE8C09F70B5AD
:101050000646FFF715FD0468054630460A220021C2
:1010600000F0D0FC2C6070BD2DE9F04704464FF035
:1010700000094FF0FF37C568D4E90486A80707D0F8
:10108000204600F0A7FD304607F050F9002802DAAC
:101090003846BDE8F087280502D54046FFF772FDC7
:1010A0004C21204600F0F3F9206D20F0010020656E
:1010B0004846EEE72DE9F041044600F14C0738467A
:1010C00007F0CAF8E068810712D0800601D5A66A49
:1010D00004E0A169606808442169461A204600F0CE
:1010E00079FD002205463146204600F0C3FC00E0B1
:1010F0000025384607F00CF92846BDE8F0812DE9B7
:10110000F04118B1BDE8F041FFF7D4BF0B4E002508
:10111000304607F0A1F80A4C6F1E07E02046FFF7A3
:10112000C9FF00B13D46206D20F00104002CF5D12F
:10113000304607F0EDF82846DFE700000009002000
:10114000CC2200202DE9F04716468846814602F160
:101150004C07384607F080F83046FFF785FF18F84F
:10116000010B61280AD0722802D077283FD102E013
:101170000125002405E00225042402E0082448F2A9
:10118000020518F8010B2B2806D0622809D018F8A0
:10119000010C74280AD00BE045F0030544F002046A
:1011A000EFE745F0040544F00104EAE744F01004D9
:1011B0004846214607F02EF9411C18D00021316124
:1011C00071604FF40071F560F1617061200704D522
:1011D00030460222002100F04DFC306D40F001004D
:1011E0003065384607F094F83046BDE8F0870026B1
:1011F000F7E72DE9F04115460E460746204C2046FC
:1012000007F02AF82A4631463846FFF79BFF054685
:10121000204607F07DF82846BDE8F0812DE9F04131
:101220000E468046164D284607F016F8154C206DE0
:10123000C10704D0410804D020F00104F7E722469A
:1012400012E05420FFF763FC070017D0206D47F031
:101250000101084354212065384600F018F907F1D0
:101260004C0007F00BF83A4631464046FFF76AFF5C
:101270000446284607F04CF82046CDE70024F8E75E
:1012800000090020CC22002010B5431C02E010F819
:10129000011B71B18107FAD14FF0013202C88C1ADB
:1012A0008C4314EAC211F9D0C01A0A0603D0C01E3A
:1012B00010BDC01A10BD0A0401D0801E10BD090265
:1012C000FCD0401E10BD40EA010370B59B072ED133
:1012D0004FF00136042A2AD308C810C99D1B9D432C
:1012E000121F15EAC61517D0D8B2E1B2401A50EA5B
:1012F000056110D198B2A1B2401A50EA05410AD155
:1013000023F07F4024F07F41401A50EA052102D1AA
:10131000180EA0EB146070BDA342DBD018BA21BA3E
:10132000884201D9012070BD4FF0FF3070BD0AB96D
:10133000002070BD10F8013B11F8014B63B1A342CE
:101340000AD1521E08D010F8013B11F8014B1BB115
:10135000A34201D1521EEDD1181B70BD032A40F2E9
:10136000308010F0030C00F0158011F8013BBCF147
:10137000020F624498BF11F801CB00F8013B38BF5F
:1013800011F8013BA2F1040298BF00F801CB38BF6D
:1013900000F8013B11F0030300F02580083AC0F08B
:1013A000088051F8043B083A51F804CBA0E8081033
:1013B000F5E7121D5CBF51F8043B40F8043BAFF366
:1013C0000080D20724BF11F8013B11F801CB48BFC0
:1013D00011F8012B24BF00F8013B00F801CB48BFF6
:1013E00000F8012B704710B5203AC0F00B80B1E82F
:1013F0001850203AA0E81850B1E81850A0E818504A
:10140000BFF4F5AF5FEA027C24BFB1E81850A0E852
:10141000185044BF18C918C0BDE810405FEA827C6C
:1014200024BF51F8043B40F8043B08BF7047D20783
:1014300028BF31F8023B48BF11F8012B28BF20F824
:10144000023B48BF00F8012B70474FF0000204290F
:10145000C0F0128010F0030C00F01B80CCF1040CE3
:10146000BCF1020F18BF00F8012BA8BF20F8022B17
:10147000A1EB0C0100F00DB85FEAC17C24BF00F8BD
:10148000012B00F8012B48BF00F8012B70474FF0EB
:10149000000200B5134694469646203922BFA0E8C4
:1014A0000C50A0E80C50B1F12001BFF4F7AF0907D0
:1014B00028BFA0E80C5048BF0CC05DF804EB8900C1
:1014C00028BF40F8042B08BF704748BF20F8022B04
:1014D00011F0804F18BF00F8012B704710B504467B
:1014E00010F0030F08BF11F0030F40F015804FF00C
:1014F000013E121FC0F20E8051F8043BA3EB0E0C0C
:101500002CEA030C1CEACE1C08BF40F8043BF0D0C8
:10151000A1F1040102F10402521E08DB11F8013BA3
:10152000002B00F8013BF7D11146FFF78EFF204654
:1015300010BD00004FF0013C50F8042B51F8043B63
:101540009A4221D1A2EB0C03934313EACC1317D197
:1015500050F8042B51F8043B9A4215D1A2EB0C032E
:10156000934313EACC130BD150F8042B51F8043BEE
:101570009A4209D1A2EB0C03934313EACC13DBD0BC
:101580004FF00000704700BFD01A01BAB1FA81F1E4
:1015900001F0180122FA01F0CB40C1F12001DBB2C9
:1015A000C0B2C01A2CFA01F3D11A914311EAC31147
:1015B000E6D17047704770477047000070B5064C21
:1015C0007C44064D7D4403E0206820448047241D70
:1015D000AC42F9D170BD0000FCC7000004C8000097
:1015E0002DE9F04117460E46054633B107FB03547B
:1015F000E41B2046B047A542FAD1A5F10800BDE89A
:10160000F081000000487047C823002010B5FFF7A4
:10161000F9FF083010BD10B5FFF7F4FF203010BD02
:10162000704770477047704738B504460A46002037
:101630006946AFF30080002808BF38BD0246009914
:10164000204600F02AFC012038BD012001F0D0B86E
:10165000F8B5AFF30080054600200C46102000BF0F
:101660000646A819A0420DD9324669460020AFF3BC
:101670000080070008BF01F0BBF80098A04218BF27
:101680000546C419FFF7C2FF05600746F01D20F0AC
:1016900007004619284600F00AF8B44208BFF8BD12
:1016A000A21B31463868BDE8F84000F0F6BB0021C7
:1016B0000160C0E901100C3006F0E0BD1020704759
:1016C00009684A0501D540B27047C905FCD500B28A
:1016D000704709684A0501D5C0B27047C905FCD5F5
:1016E00080B270472DE9F0470D4699469246044670
:1016F00000F124080168880604D5E06921F0100192
:10170000216000E00120A84201DD471B00E0002726
:10171000A1697A1902EB0900081AA0612078C006B5
:1017200002D42046FFF7F6FA002608E0D4E90121AA
:101730001AF806009047206A401C761C20624E452D
:10174000F4DB2078C0060AD52046FFF7E3FA06E06E
:10175000D4E9012130209047206A401C2062381EC5
:10176000A7F10107F4DC07E0D4E9012118F805002E
:101770009047206A401C2062281EA5F10105F3DC79
:101780002046FFF7DDFA2078000602D50220BDE8EA
:10179000F0870120FBE711680268006A530501D554
:1017A00008700AE0D30501D5088006E0130603D5CA
:1017B000C217C1E9000200E0086001207047000084
:1017C00001694A1C02610878704700B58FB0CDE905
:1017D00001310021059105497944CDE903101146F5
:1017E0006846FFF76DFB0FB000BD0000E5FFFFFF8F
:1017F0000A6802F8010B0A607047D1E900239A4297
:1018000002D2531C0B601070704710B5436913B1BE
:10181000AFF3008001E0FFF7A4FA012010BD1278B9
:1018200000F124010A7000224A700122EDE71168DC
:101830004FF0FF32E9E700002DE9FF5F15468A46C9
:101840000446DFF8AC80F8440027D8E900103E4693
:10185000CDE9001010E03AF816106A4602A800F030
:101860009BFF411C07D02178890603D5E26939180E
:1018700091420DD80744761C2078800602D5E06995
:10188000B84205DDAE42E6DB3AF816000028E2D1A8
:10189000A069C01BA0612046FFF73CFAD8E9001000
:1018A000CDE90010002017E03AF818106A4602A8A7
:1018B00000F072FFB0F1FF3F81460BD000250DF123
:1018C000080B05E0D4E901211BF8050090476D1CC9
:1018D0004D45F7D308F10100B0428046E4DB206AB1
:1018E000384420622046FFF72BFA00F003B80000CE
:1018F0000ABF00003FBCBDE8C09F00002DE9F041D9
:101900008046D21D22F007020025D2E90002F52907
:1019100015A614D0011E72F1000106DA0023D0EBE7
:10192000030063EB020211A608E0D8F800108B0751
:1019300001D50FA602E0490701D50EA601251146E3
:10194000002408F1240704E000F0C6FA30323A55CA
:10195000641C50EA0102F7D12B463246214640462C
:10196000BDE8F041FFF7BEBE000000002D00000002
:101970002B0000002000000030B4002100F12404FE
:1019800008E002F00705D208303542EA4372DB086E
:101990006554491C52EA0305F3D10468002310A2E0
:1019A000250708D504F020040C4304D0C4690123A2
:1019B0000CA2641EC46130BCFFF794BE10B504468F
:1019C00021461068FFF785FE02462046BDE810401C
:1019D0000023D1E7D21D22F00701D1E90023CBE794
:1019E00000000000300000003A2800D2303820F01B
:1019F0002002412A01D3A2F13700884201D34FF0DF
:101A0000FF3070472DE9F04791460F468046044667
:101A1000002614F8015B2DB1FFF72AF80068405D3D
:101A2000C007F6D12B2D02D02D2D18D0641E4A46AA
:101A30003946204600F03DFE27B13968A14201D168
:101A4000C7F800804FF0020471050BD54042002812
:101A500003DDFFF715F80460A007BDE8F08746F442
:101A60008066E4E70028F8DAFFF70AF804606FF010
:101A70000040F2E72DE9F041044616460D4647695D
:101A8000007B80072ED0384606F0A2FC50BB3EB348
:101A9000012E02D0022E25D104E0204600F05BFE8C
:101AA00005441DE0384606F069FCE168002841F075
:101AB0001001E16005DA204600F058F80120BDE889
:101AC000F081C9030BD56268E16A914200D81146E2
:101AD000A26911442269891A814200DD0846054441
:101AE000002D01DA0220EAE7E16A6068E2688142DB
:101AF00006D29103E06203D522F4003141F01002D6
:101B0000A6690027AE4213DCE16A814201D90B4687
:101B100000E0034603EB060C2369ACEB030CAC4579
:101B200006DD814201D98C4600E084469C4505D102
:101B3000A760276042F02000A5620DE0AD1BE669BA
:101B4000AE1B8142A66000D90846C01A281A206040
:101B50005819606022F0200003490840E06000202E
:101B600084F84870ABE70000BFCFD7FFC16821F40D
:101B7000001141F08001C160002181600160704767
:101B80002DE9F047814614460E464FF0FF383248A3
:101B9000D5685769054209D03846A16906F0FEFCB0
:101BA000002811DB2C48C0430540E5602B46324637
:101BB0004946384606F024FDA16920F00042B21AD9
:101BC00011440028A16103D02046FFF7CFFF404613
:101BD000BDE8F08770B504460569C06A616888424F
:101BE00000D80846E16821F42011E160C90312D54C
:101BF000A84208D02246411B2846FFF7C1FF10B17A
:101C00004FF0FF3070BD0020E562C4E90150E0688C
:101C100020F48030E060002070BD10B50446C0683C
:101C200020F02000E060A16AA06988420DD0204623
:101C3000FFF7D0FFE06820F4405040F01000E06073
:101C4000A06AA0612069E062606044F24001E0683F
:101C50008843E06010BD0000100002002DE9F0474D
:101C600004461E4690460D46C7684C30814606F035
:101C7000F3FAB80714D0780212D44046B8F5807F42
:101C800009D0B0F5007F06D0B8F5806F08D10126E5
:101C900004F1240506E0701E6FF07F41884201D3F5
:101CA000012409E02561E6616560E06820F4706068
:101CB00040EA0800E0600024484606F029FB204680
:101CC000BDE8F08710B565485421FFF7E0FB644894
:101CD0005421FFF7DCFB63485421FFF7D8FB62482F
:101CE0005E49624A624B01605D4810605D4A1A605D
:101CF000431C0B65511C01650120106557484C3091
:101D000006F0BCFA56484C3006F0B8FA55484C304C
:101D100006F0B4FA574806F0B1FA58484F4A56A1AF
:101D20007844FFF766FA20B9544878440A3800F03E
:101D300058FD54484A4A52A17844FFF75AFA20B94C
:101D4000504878440A3800F04CFD4F48454A4CA1B1
:101D50007844FFF74EFA20B94B4878440A3800F02F
:101D600040FD40233D48DC0000212246FFF776FF7E
:101D700020B142487844543800F033FD38482246B8
:101D800040230021FFF76AFF20B13E4878445438D1
:101D900000F027FD3348224610230021FFF75EFFA5
:101DA000002806D038487844BDE81040563800F086
:101DB00018BD10BD2B482DE9F041006D2D4E20F0CF
:101DC0000104304606F048FA244D4C35284606F00A
:101DD00043FA2248FFF748F9284606F099FA2846C0
:101DE00006F045FA1E4D4C35284606F035FA1C48DB
:101DF000FFF73AF9284606F08BFA284606F037FA3C
:101E0000184D4C35284606F027FA1648FFF72CF9EE
:101E1000284606F07DFA284606F029FA14E0206DDF
:101E200020F0010504F14C00074606F015FA2046A3
:101E3000FFF71AF9384606F06BFA384606F017FA3B
:101E40002046FEF79FFE2C46002CE8D1304606F0D7
:101E50005FFA084806F00BFABDE8F081CC220020BA
:101E60002023002074230020F4080020F80800201C
:101E7000FC080020000900207200000009B50000E5
:101E800077000000F8B40000E8B4000010B500F0DE
:101E9000B7FCBDE8104000F09FBC30B404468C464F
:101EA0004368002B18BF634538BF1846F8D3036852
:101EB0001844604507D0C81C20F0070000F1040C4E
:101EC000ACEB0100121A2146CCF8002030BC0022F5
:101ED0000CF10400FEF725BE30B5B0F10A024FEA5E
:101EE000900E71F100034EEA817EB0EB0E0061EBC3
:101EF00091014FEA101E4EEA017E10EB0E0041EBFD
:101F000011114FEA102E4EEA016E10EB0E0041EB5C
:101F100011214FEA104E4EEA014E10EB0E0041EB3C
:101F20001141401841F100014FEAD00040EA4170F0
:101F30004FEAD10110EB80054FEA810444EA907426
:101F400044EB01046D1944EB0404521BA3414FF010
:101F5000000348BF0A3200D530BD401C41F10001EA
:101F600030BD70472DE9FF4F0C461E464FF0FF373E
:101F70008BB0D2E90001DDF860800A908A46C1F397
:101F80000A5505B93D46002108464FF00000BAF158
:101F9000000F00F4400005DA00EB80004FF4400130
:101FA00001EA50004FEA9059B9F1010F00DDB9463E
:101FB0000A9850EA4A000ED044F61050A5F2FF35B8
:101FC00045432F14B8F1000F1ED07542291E1EDDA7
:101FD000C9F100021CE0B8F1010F4FF0000001D080
:101FE000302103E0F24305E02154401CB042FBDB0A
:101FF00030460022002121540B99C1F80880C1E924
:1020000000200FB000F0BAB9BD1B6D1CDEE74A46D8
:1020100000DA694206A800F059FC06AB93E8070015
:1020200003AB83E8070050460A9900F026FD8DE8CF
:102030000700A0F500501F3800900398002D09DD1F
:1020400042F21F014A46084403A90390684600F083
:1020500085FF08E0A0F500504A461F3803A9039009
:10206000684600F08FFF8DE807000004000C03D0E5
:102070004FF0FF30410800E01046B8F1000F03D0E8
:102080000022009215461EE0751E05D4FFF724FFBE
:10209000303262556D1EF9D5B3460122084302D095
:1020A00000227F1C04E02078302801D100227F1E0E
:1020B000002A099786D01DE0112D07DAFFF70CFFE3
:1020C000303262556D1C50EA0102F5D1084302D04E
:1020D0000098C8B10EE00021681E05E0235C625C38
:1020E00063542254401E491C8142F7DBAB46A81BB7
:1020F000401E0990002004F80B000B98099AC0F8C4
:102100000880C0E9002B7CE711264FF0000859E752
:102110002DE9F04F88460446D21D22F0070191B008
:10212000D1E90001CDE90A0105F03CFF02460B9818
:10213000C00F01D02D2007E02068810701D52B209A
:1021400002E0202101EAC000032A099001D0072AF9
:1021500005DB03464146204600F078FB0BE1207882
:10216000800601D5E06900E00620B8F1650F8146E0
:1021700006D0B8F1660F18D0B8F1670F70D131E012
:102180000020B9F1110F009001DB112301E009F1EA
:1021900001030AAA01A90CA8FFF7E4FEDDE90C700F
:1021A000002609F10105834647E001204B460090D7
:1021B0004FF000470AAA01A90CA8FFF7D3FEDDE9FA
:1021C0000DB00C995D46002610B909F101000D18FB
:1021D000B9EB050003D4C0F1FF3609F10105A5EB09
:1021E00009002BE0B9F1010F01DA4FF001090020DD
:1021F000B9F1110F0090484601DD112300E00346BC
:102200000AAA01A90CA8FFF7ADFEDDE90C704D4646
:1022100000268346207800070AD4AB4500DA5D46E5
:1022200001A8012D04DD411911F8011C302907D046
:102230004F4502DA17F1040F04DA012082460FE05D
:102240006D1EEEE7002F02DCED1B3E4403E0781C20
:10225000A84200DD7D1CB81B00F1010A4FF00047C9
:102260002078000703D4AA4501DB4FF0FF3A002194
:10227000B7F1004F0DF143088DF8431024D0022030
:102280002B23002F01DA7F422D230A21021EA0F109
:10229000010000DC5FB197FBF1FC97FBF1F201FB61
:1022A0001C7C17460CF1300C08F801CDEEE7A8F1C4
:1022B000010003702188090501D5452100E0652151
:1022C000A0F1010800F8011C09980FA9A1EB08076B
:1022D000FF1D00B10120411901EBEA70A1693844EA
:1022E000081A401EA0612078C00602D42046FEF7DE
:1022F00011FD099828B1D4E901219047206A401CBA
:1023000020622078C00622D52046FEF703FD1EE09D
:10231000002E04DBB34502DD01A8805D00E0302023
:10232000D4E901219047206A401C2062761CAAF162
:1023300001005FEA000A0AD1FFF76DF9C068016881
:10234000405CD4E901219047206A401C2062281E8D
:10235000A5F10105DCDC07E0D4E9012118F8010B47
:102360009047206A401C2062381EA7F10107F3DC69
:102370002046FEF7E5FC032011B043E630BCBDE883
:10238000C08F00002DE9F04F04460D46D21D22F00B
:10239000070089B0D0E900974846394605F002FEAB
:1023A0000246F80F01D02D2307E02068810701D5F0
:1023B0002B2302E0202101EAC0038DF820300BB16D
:1023C000012000E00020032A824601D0072A04DB16
:1023D0002946204600F03AFA3FE12078800601D4F1
:1023E0000D2500E0E569C7F30A560D2D49DA0021F5
:1023F0004FEA175B08464FF00000002F00F4400042
:1024000007DA00EB80004FF4400100EBD07001EAE6
:1024100060008115012901DD4FF0FF3100224FEAF4
:10242000850CBCF1180F06D31346ACF118004FF021
:102430008052C24003E04FF4801323FA0CF30CF1F6
:102440000C0CBCF1200F04D3ACF1200C09FA0CF0F9
:1024500001E007FA0CF000294FF0004801DD18B93F
:102460000FE00ED140450CD319EB02095F4121B9B1
:10247000404502D19F4329EA0209BBEB175F00D018
:10248000761C2088000502D57B48784402E07A4813
:102490007844193808AA302302F80A30037C0AF17C
:1024A0000101002E0AF1020A53546A4602DC4FF081
:1024B000300101E04FF031014FF001088DF80010BC
:1024C00002D0A6F2FF3603E059EA470100D06B4E76
:1024D000002D02DC2178090704D54FF002082E21D7
:1024E0008DF80110C44600210BE0C7F303433F0100
:1024F000C35C491C6D1E02F80830052908F101086B
:1025000001DA002DF1DC00210CE000EB1973491C0D
:102510001B786D1E082902F808304FEA091908F1E6
:10252000010801DA002DF0DC21688B0602D516E0E7
:10253000A8F10108E04505DD02EB080313F8013CB2
:10254000302BF5D0B8F1000F09DD02EB080313F8CA
:10255000013C2E2B03D1090701D4A8F10108002D5D
:1025600005DD3E2102F808106D1E08F10108407CCF
:10257000002E02F8080008F1010804DA2D20764246
:1025800002F8080002E02B2002F808000A214FF4AC
:102590007A70864208F101080BDB96FBF0F33033CA
:1025A00002F8083096FBF0F308F1010800FB13660F
:1025B00001E0642E0CDB642096FBF0F3303302F86C
:1025C000083096FBF0F308F1010800FB136601E008
:1025D0000A2E06DB96FBF1F0303002F8080008F115
:1025E000010896FBF1F001FB1060303002F80800A2
:1025F000A16908F1010808EB050202EB0A00081ABC
:10260000A0612078C00602D42046FEF783FB216A31
:1026100008AE01EB0A00206204E0D4E9012116F8BB
:10262000010B9047BAF1010AF7D22078C00602D513
:102630002046FEF76FFB6E4609E016F8010B3E28B8
:102640000FD0D4E901219047206A401C2062B8F1E4
:102650000108F2D22046FEF773FB09B0032000F018
:102660000FB8206A2844206203E0D4E90121302019
:1026700090476D1EEBD3F8E7E1B2000002FCFFFFCC
:1026800030BCBDE8C08F10B5436913B1AFF3008013
:1026900001E0FFF7D1F8012010BD128800F12401FC
:1026A00082840022C2840122EDE711684FF0FF32DC
:1026B000E9E72DE9F05F824615468B4600270AF1CF
:1026C0000104B9460078302801D09DB113E014F818
:1026D000010B0127782803D0582801D045B10AE022
:1026E0000DB1102D07D1002714F8010B102502E0C1
:1026F000082500E00A250026B0460EE005FB08008C
:1027000005FB06F101271FFA80F801EB1046B6F52C
:10271000803F00D3B94614F8010B2946FFF764F94E
:102720000028EBDABBF1000F05D00FB1641E00E00A
:102730005446CBF80040B9F1000F06D0FEF7A0F9DF
:1027400002210160C81E00F003B848EA0640FAE71B
:1027500030BCBDE8C09F10B50146C268900703D0E9
:10276000900607D5886A0AE0FEF78AF90121016020
:10277000881E10BD8B69486818440B69C01A91F80F
:1027800048301BB191F84910401A10BD1103FCD517
:102790000028FADD401E10BD70B516460C460546F1
:1027A000FEF766F9036893F80101012806D0FF2CB3
:1027B0000FD8185D68B101202C7070BDD3F80701E7
:1027C0003246214603F2071303442846BDE8704011
:1027D00018474FF0FF3070BD002801D000F028B836
:1027E000704710B500F0FAF8BDE81040FFF7F4BFED
:1027F00010B500F00DF9BDE81040FFF7EDBF000087
:1028000010B5002102A000F0CFF8012010BD00009B
:102810005349475056464E3A2050757265207669A6
:10282000727475616C20666E2063616C6C65640007
:1028300001491820ABBEFEE72600020010B5FEF7E6
:10284000E5FE0068BDE8104000F012B92DE9F04146
:102850001F46044603260168072A01F4006004DBD2
:1028600008B116A505E016A503E008B115A500E01E
:1028700015A521F010002060A069C01EA0610FB155
:10288000401EA0612046FEF745FA4FB1D4E9012170
:1028900038469047206A401C2062C01C206206E037
:1028A000206AFAE7D4E9012115F8010B9047761E5A
:1028B000F8D22046FEF744FABDE8F0814E414E00C2
:1028C0006E616E00494E4600696E66002DE9F04764
:1028D000814616468AB0334878440DC88DE80D000D
:1028E00030487844801C03AC0DC884E80D0041F6E4
:1028F0009B300844372190FBF1F290FBF1F5A5F1F4
:10290000800501FB12041B3C02D56442012000E05B
:102910000020DFF890A080460027FA44AAF1BE0A02
:102920000DE0E00709D03246684607EB47010AEBA5
:10293000810100F027FB8DE8070064107F1C002C4C
:10294000EFD1184F7F44AC3F18E0E80714D007EBF5
:1029500004100DF1180A90E80E008AE80E00C06815
:10296000F04201D198190890324606A903A800F058
:1029700009FB03AB83E807006D10641C002DE4D154
:1029800032466946B8F1000F03A802D000F0E6FA1B
:1029900001E000F0F7FAC9E90001C9F808200AB01F
:1029A000BDE8F08724AF000070B505460C460A204C
:1029B00000E06D1C00F054F835B128780028F8D1FB
:1029C00002E0641C00F04CF814B120780028F8D123
:1029D000BDE870400A2000F043B8000010B5014681
:1029E00002A0FFF7E1FF012010BD0000534947524C
:1029F000545245443A2052656469726563743A20C2
:102A000063616E2774206F70656E3A2000000000CD
:102A100010B5012805D0002103A0FFF7C5FF012054
:102A200010BD09A1F8E7000053494752544D454DE8
:102A30003A204F7574206F662068656170206D655F
:102A40006D6F7279000000003A2048656170206D5A
:102A5000656D6F727920636F727275707465640052
:102A600008B569468DF800000320ABBE08BD70476D
:102A700010B50C3005F0FBFB10BD5FEA400C08BF41
:102A800091F0000F4FEA8C234FEAC12243EA5151E3
:102A90004FEA1C5018BF00F5F0404FEA300018BF55
:102AA00041F000415FEA6C5C00F02980BCF1FF3F1F
:102AB00008BF40F080407047130C06BF12044FF06F
:102AC000100C4FF0000C130E04BF12020CF1080C96
:102AD000130F04BF12010CF1040C930F04BF9200FA
:102AE0000CF1020CD30F04BF52000CF1010C114683
:102AF0004FF00002A0F11F00A0EB0C00704711F096
:102B0000004F08BF704731F000413FF4D5AF0B0CC8
:102B100006BF09044FF0100C4FF0000C0B0E04BF61
:102B200009020CF1080C0B0F04BF09010CF1040C95
:102B30008B0F04BF89000CF1020CCB0F04BF4900BE
:102B40000CF1010CCCF12003A0EB0C0022FA03F3F2
:102B500002FA0CF241EA030100F10100704720F093
:102B60007F4C80EA030023F07F47ACEB070303F5BB
:102B70007C5300F0004003F1FF032DE980494FEA48
:102B8000154B09B44FEA144325EA0B4E24EA0348D7
:102B90000FF2042606EB132749083E785FEA32025B
:102BA00003FB0667C7F5000707FB06F64FEA543735
:102BB0004FEAD64606F1020607FB066CCCF1005C34
:102BC0004FEA1C472CEA074C07FB06F40CFB06F502
:102BD00004EB15464FEA961634BF00204FF0004034
:102BE0004FEAD13706FB07FC4FEA1C4C0CFB0BF7F6
:102BF000D21B03FB0CF761EB07010CFB0EF7B0EBEC
:102C0000074072EB17420CFB08F734BFA2EB0742F8
:102C1000B2EB074261EB17414FEA0C444FEA9107D0
:102C200006FB07FC4FEA1C4C0CFB0BF7B0EBC74054
:102C300072EB573203FB0CF734BFA2EBC742B2EB87
:102C4000C74261EB57310CFB0EF7B0EBC70072EBDC
:102C500057720CFB08F734BFA2EBC702B2EBC702F6
:102C600061EB5771039F4FEA816141EA921104EBD6
:102C7000CC044FEAD1374FEA826206FB07FC42EAF6
:102C800090124FEA80604FEA1C4C0CFB0BF7D21BF2
:102C900003FB0CF761EB07010CFB0EF7B0EB0740F1
:102CA00072EB17420CFB08F734BFA2EB0742B2EB02
:102CB000074261EB17414FEA8C554FEA910704EB4D
:102CC0009C2406FB07FC4FEA1C4C0CFB0BF7B0EBFB
:102CD000C74072EB573203FB0CF734BFA2EBC7427D
:102CE000B2EBC74261EB57310CFB0EF7B0EBC700FC
:102CF00072EB57720CFB08F734BFA2EBC702B2EBC2
:102D0000C70261EB577115EB4C254FEA816141EA2F
:102D100092114FEA82624FEAD13742EA901206FBE3
:102D200007FC44F100044FEA80604FEA1C4C0CFBA6
:102D30000BF7D21B03FB0CF761EB07010CFB0EF743
:102D4000B0EB074072EB17420CFB08F734BFA2EB65
:102D50000742B2EB074261EB174115EB1C154FEA36
:102D6000813141EA92414FEA823242EA90424FEA8F
:102D700080304FEA0C7644F1000448EA03434EEAFF
:102D80000B484FF0000EB2EB080C71EB030724BFA9
:102D9000624639464EEB0E0E4FF0000B00185241C2
:102DA00049414BEB0B0BB2EB080C71EB03077BF1CA
:102DB000000B24BF624639464EEB0E0E4FF0000B5F
:102DC0000018524149414BEB0B0BB2EB080C71EB75
:102DD00003077BF1000B24BF624639464EEB0E0E13
:102DE00051EA020718BF46F0010616EB0E7655F1C0
:102DF000000254F1000103D5BDE88901BDE8008857
:102E0000BDE88901BDE80048B619524141EB010116
:102E1000A3F10103704780807F7E7D7C7B7A797887
:102E2000777676757473727171706F6E6E6D6C6C8F
:102E30006B6A6A6968686766666564646363626131
:102E40006160605F5F5E5E5D5D5C5C5B5B5A5A59B2
:102E5000595858575756565555555454535352521E
:102E60005251515050504F4F4F4E4E4D4D4D4C4C76
:102E70004C4B4B4B4A4A4A494949484848474747BF
:102E800047464646454545444444444343434342FC
:102E9000424242414141002B26D4770021D01CB54B
:102EA0004FEA370703B44FF010004FF010014FF016
:102EB00000000FBCBDE810400BF1010BBBF1010F8E
:102EC00008BF5FEA170722BF12F1010211F10101E9
:102ED0004FF0004143F1000300F0004043EA0000DE
:102EE0007047F9D35708DAE746EA064613F1400F70
:102EF0004FEA16461FDD13F1200FDFBF16430A46C7
:102F0000002120335B42C8D0C3F1200746EA0646C1
:102F100002FA07F74FEA164646EA0706C3F120070A
:102F200022FA03F201FA07F721FA03F14FF0000346
:102F300042EA0702B1E746EA020646EA06464FEAD7
:102F4000164646EA0106BCBF46EA0646360C4FF076
:102F500000034FF000024FF000019EE72DE9C0484A
:102F6000934630B491E8380007C831EA400C48BFB6
:102F700034EA430C03D5FFF7F2FDFFF78CFFF0BCFA
:102F8000BDE800882DE9C048934630B491E8380088
:102F900007C810F0804F08BF13F0804F03D100F036
:102FA00005F8FFF778FFF0BCBDE8008820F07F4708
:102FB00080EA030023F07F4C07EB0C03A3F57C535E
:102FC00000F00040A3F1FE0392F0000F00F0B38088
:102FD00095F0000F00F077802DE901494FEA11408C
:102FE0004FEA144621EA004800FB06FC24EA0647A3
:102FF00008FB06F607FB08F800FB07F718EB064886
:103000004CEB164C4FEA124B18EB07484FEA1546AB
:103010004CEB174022EA0B4E0BFB06FC25EA064759
:103020000EFB06F607FB0EFE0BFB07F71EEB064E2C
:103030004CEB164C4FF000061EEB074E4CEB174BBB
:1030400018EB0B0840F1000018EB0E0B58EB0008D2
:1030500040F100008F1A4FF000013CBFC943661BCE
:1030600014BFB5EB040C00213CBFC943F61B4FEA6B
:1030700017444EEA8E0E27EA04454FEA1C4704FB2C
:1030800007622CEA074C05FB07F70CFB05F604FB6F
:103090000CFC16EB074642EB174216EB0C4642EBD4
:1030A0001C421BEB060658EB0202414146EA9E0613
:1030B00001D5BDE80189B619524141EB0101A3F1E7
:1030C0000103BDE801894FEA14454FEA114724EA9C
:1030D000054621EA074C05FB07F406FB07F70CFB46
:1030E00006F105FB0CFC11EB074144EB17444FEADA
:1030F000124711EB0C4144EB1C4422EA074C05FB40
:1031000007F206FB07F70CFB06F605FB0CFC16EBBB
:10311000074642EB174216EB0C4642EB1C456A1879
:1031200054F1000148BF7047B619524141EB01010B
:10313000A3F10103704795F0000F37D04FEA114219
:103140004FEA144721EA024624EA074C02FB07F142
:1031500006FB07F70CFB06F402FB0CFC14EB074420
:1031600041EB17414FEA154714EB0C4441EB1C416E
:1031700025EA074C02FB07F506FB07F70CFB06F6F2
:1031800002FB0CFC16EB074645EB174516EB0C460D
:1031900045EB1C42121951F1000148BF7047B619A6
:1031A000524141EB0101A3F1010370474FEA14457D
:1031B0004FEA114724EA054621EA074C05FB07F1CF
:1031C00006FB07F70CFB06F24FF0000605FB0CFCB4
:1031D00012EB074241EB174112EB0C4251EB1C4141
:1031E00048BF7047921841EB0101A3F101037047FA
:1031F00010B506F0D3FB06F023FB10BD10B5044656
:103200000021204609F048FE10BD000010B5002145
:10321000014805F031FA10BD0064004010B50021EE
:10322000014805F029FA10BD0064004010B50021E6
:10323000014805F021FA10BD00640040704700000D
:1032400010B50848006820B106490968886D00F08B
:10325000DEF80548006820B103490968086A00F0F3
:10326000D6F810BDC0080020AC08002010B50C48EE
:10327000006820B10A490968486D00F0C8F809489B
:10328000006820B107490968086A00F0C0F80648DC
:10329000006820B104490968486A00F0B8F810BD18
:1032A000C0080020BC080020B008002010B5044869
:1032B000006820B102490968C86A00F0A8F810BD8A
:1032C000B80800207047704710B50448006820B166
:1032D00002490968886A00F09AF810BDB408002015
:1032E00010B50448006820B102490968886D00F0F3
:1032F0008EF810BDC408002010B50448006820B145
:1033000002490968486D00F082F810BDC408002029
:1033100070477047704770477047704770477047F5
:1033200070477047704770477047704770477047E5
:1033300070477047704770477047704770477047D5
:1033400070477047704770477047704770477047C5
:1033500070477047704770477047704770477047B5
:1033600070477047704770477047704770477047A5
:103370007047704770477047704770477047704795
:103380007047704770477047704770477047704785
:103390007047704770477047704770477047704775
:1033A00000F01F02012191404211920002F1E0223F
:1033B000C2F80011704770B50446002594F8250046
:1033C000022803D00420E06301251EE02068006885
:1033D00020F00E00216808602068006820F00100DD
:1033E0002168086094F8441001208840216C4860EE
:1033F000012084F8250000BF002084F8240000BFCD
:10340000A06B10B12046A16B8847284670BD70B5EF
:103410000446206C05682068066894F8441004206F
:1034200088402840D0B106F00400B8B12068006898
:1034300000F0200028B92068006820F0040021680E
:10344000086094F8441004208840216C4860206B88
:1034500000284ED02046216B88474AE094F844105B
:1034600002208840284008B306F00200F0B120682E
:10347000006800F0200040B92068006820F00A00D1
:1034800021680860012084F8250094F84410022087
:103490008840216C486000BF002084F8240000BFF1
:1034A000E06A30B32046E16A884722E094F844108D
:1034B000082088402840E0B106F00800C8B1206824
:1034C000006820F00E002168086094F84410012084
:1034D0008840216C48600120E06384F8250000BF2B
:1034E000002084F8240000BF606B10B12046616B9F
:1034F000884770BD014800687047000078080020C8
:10350000024692F8410020282DD100BF92F84000D9
:10351000012801D102207047012082F8400000BF3D
:10352000242082F841001068006820F00100136830
:1035300018601068006820F48050136818601068E4
:1035400000680843136818601068006840F00100C4
:1035500013681860202082F8410000BF002082F824
:10356000400000BFD7E70220D5E7000008B500BF44
:103570000949096E41F00101074A11661146096EB9
:1035800001F00101009100BF00BF044949680143F7
:10359000024A516008BD00000010024000000140D6
:1035A0002DE9F0410746384605F0FAF9044625466C
:1035B0002E1D3068006820F0FE003168086020464B
:1035C00005F0E6FC022085F86400BDE8F0812DE9F5
:1035D000F04106460C469046304605F0E1F90746B4
:1035E0003D46012C02D1012085F86D0014B901205F
:1035F00085F86E00BDE8F08170B5044620688569E5
:103600002068066805F4807050B106F0800038B17B
:10361000606C40F0010060644FF480702168C86104
:1036200005F4806050B106F0800038B1606C40F065
:10363000080060644FF480602168C86105F4007080
:1036400050B106F0800038B1606C40F00200606458
:103650004FF400702168C861606C00F00B0018B175
:10366000616C204601F0BEFB70BD70B50446206859
:10367000856920680668606B20B13246294620467D
:10368000636B984770BD000010B5044694F8410084
:1036900020280AD1282084F84100054860630421CD
:1036A000204601F0DBFA002010BD0220FCE70000FC
:1036B000615500082DE9F0410746384605F070F9DC
:1036C00005462C4604F10408002694F86C0008B165
:1036D000D8F80860B4F95A20B4F95810284605F013
:1036E00095FD46B1012084F86C000023324619464E
:1036F000284605F0DAFE022084F86400BDE8F08177
:1037000010B504460CB9012010BD94F8410028B949
:10371000002084F84000204600F037F9242084F887
:1037200041002068006820F001002168086060689E
:1037300020F07060216808612068806820F40040F3
:1037400021688860E068012805D1A06840F4004045
:103750002168886004E0A06840F404402168886023
:10376000E068022802D18002216848602068406831
:1037700013490843216848602068C06820F400406D
:103780002168C860D4E904010843A16940EA012026
:103790002168C860D4E907010843216808602068EF
:1037A000006840F00100216808600020606420206B
:1037B00084F841000020206384F8420000BFA3E7A2
:1037C0000080000210B504462046FFF75DFF10BDE3
:1037D00070B50546284605F0E3F80446264608205D
:1037E00086F8640070BDF8B50646304605F0D8F896
:1037F00005462C46E86FD0B18C204059B8B194F8FA
:10380000740018B14FF00070206602E04FF0807035
:103810002066206E00908C20405B83B2B4F870006C
:1038200081B23046D5F8882000F006F802E0082082
:1038300084F86400F8BD00002DE9F84F04460F46F7
:1038400015461E46DDF828804FF000094FF4105A47
:1038500094F8410020283AD100BF94F84000012894
:1038600002D1022000F038B8012084F8400000BFE7
:10387000222084F84100102084F842000020606477
:103880006562668528F08070E06212486063608D32
:10389000FF2804D9FF2020854FF0807903E0608D58
:1038A0002085D4F82C90CDF800A094F828204B4621
:1038B0003946204601F0F4FE00BF002084F84000A5
:1038C00000BF0221204601F0C9F90020CAE702200A
:1038D000C8E700004353000818BCBDE8E08F0000B3
:1038E0002DE9F84F04460F4615461E46DDF82880A0
:1038F0004FF000094FF4005A94F8410020283AD1C3
:1039000000BF94F84000012802D1022000F038B82E
:10391000012084F8400000BF212084F841001020DD
:1039200084F84200002060646562668528F080703B
:10393000E06212486063608DFF2804D9FF20208573
:103940004FF0807903E0608D2085D4F82C90CDF87D
:1039500000A094F828204B463946204601F0A0FEEE
:1039600000BF002084F8400000BF0121204601F084
:1039700075F90020CAE70220C8E700004353000899
:1039800018BCBDE8E08F70477047704770B50546BA
:10399000284605F005F804462646002086F86E0005
:1039A00070BD70B50546284604F0FAFF0446264669
:1039B000002086F86D0070BD02480068401C014977
:1039C000086070477808002010B5032000F0B2F8B6
:1039D0000F2000F005F800F089F8002010BD00006D
:1039E00010B588B0044602A903A800F0CFFB00F090
:1039F000F5FB029000BF3748806D40F0010035496B
:103A000088650846806D00F00100019000BF00BF8E
:103A10000846806B40F0010088630846806B20F008
:103A20000100886388042C4908604FF0FF312A4860
:103A3000C160069840B929490298B0FBF1F080B204
:103A4000401E2549486008E0029840002349B0FB29
:103A5000F1F080B2401E2049486000211E480161FB
:103A60008160416101F01AF81C201D491D4B1A6844
:103A700000F1100342F8231000BF00BF002809DB4B
:103A800000F01F02012191404209920002F1E02260
:103A9000C2F8001100BF00210F4801F01BF80421FB
:103AA0000D4801F017F80C480068406A0E4908609C
:103AB0000846006800F57A70074909688863064877
:103AC0000068C06840F0040003490968C86000202D
:103AD00008B010BD001002404422002040420F00F8
:103AE00029C7000808ED00E03808002070470000F2
:103AF00010B501460846002817DB00F01F0301221D
:103B00009A400B4B440943F8242000BF00BF00BF7C
:103B1000BFF34F8F00BF00BF00BF00BF00BF00BF9B
:103B2000BFF36F8F00BF00BF00BF00BF10BD00001C
:103B300080E100E000BF00F00702064B19684FF675
:103B4000FF031940044B0B4343EA0221014B196068
:103B500000BF70470CED00E00000FA0500BF1148FF
:103B6000006820F480400F4A10600F4800680F4A38
:103B7000B0FBF2F0322200FB02F100E0491E31B14D
:103B80000848406900F40070B0F5007FF6D00548A1
:103B9000406900F40070B0F5007F01D10320704748
:103BA0000020FCE7007000407C08002040420F002D
:103BB0000348006840F480400149086070470000F5
:103BC000007000400248006800F4C06070470000C8
:103BD0000070004070B505460C464DB90F4840696D
:103BE00000F40070B0F5007F09D1FFF7B7FF06E0E1
:103BF0000A484069C0F3402008B9FFF7D9FF0848D8
:103C0000006820F0040006490860012C01D130BF93
:103C100002E040BF20BF20BF70BD00000070004028
:103C200010ED00E00648006820F0200004499039BB
:103C3000C1F890000846806920F4007088617047E0
:103C4000901002400348006840F0040001490860F9
:103C500070470000001002402DE9F843044600269A
:103C600000270025A846208800F40060B0F5006F0A
:103C700026D1E06B68B1B0F5000F03D0B0F5400F6E
:103C80000ED10CE0C548C06840F48030C349C8601C
:103C900008E00021201D01F0BDFD054602E001E025
:103CA000012500BF00BF55B9BC488830006820F42A
:103CB0004000E16B0843B949C1F8880000E0A8461C
:103CC000206800F40030B0F5003F74D14FF00009D7
:103CD000B248806D00F0805078B900BFAF48806D69
:103CE00040F08050AD4988650846806D00F08050F6
:103CF000009000BF00BF4FF00109A948006840F4E0
:103D00008070A7490860FFF7F5FB074606E0FFF75C
:103D1000F1FBC01B022801D9032505E0A04800687B
:103D200000F480700028F2D000BF7DBB9B4890302B
:103D3000006800F44076CEB1206DB04216D09748AE
:103D40009030006820F440769448D0F8900040F419
:103D500080309249C1F890000846D0F8900020F4D5
:103D60008030C1F890000846C0F8906006F001006D
:103D7000A8B1FFF7BFFB074609E0FFF7BBFBC01B7D
:103D800041F28831884202D9032507E016E08348D2
:103D90009030006800F002000028EED000BF5DB94E
:103DA0007E489030006820F44070216D08437B49C4
:103DB000C1F8900003E00CE0A84600E0A846B9F185
:103DC000010F05D17548806D20F0805073498865DA
:103DD00000BF207800F0010048B1704888300068CA
:103DE00020F00300216A08436C49C1F8880020785C
:103DF00000F00200022809D168488830006820F0ED
:103E00000C00616A08436549C1F88800207800F019
:103E10002000202809D161488830006820F44060E3
:103E2000A16A08435D49C1F88800208800F4007049
:103E3000B0F5007F09D159488830006820F440204F
:103E4000616B08435549C1F88800208800F4806000
:103E5000B0F5806F09D151488830006820F44010D7
:103E6000A16B08434D49C1F88800207800F040005C
:103E7000402809D149488830006820F44050E16A60
:103E800008434649C1F88800208800F48070B0F5E6
:103E9000807F09D141488830006820F44030216B90
:103EA00008433E49C1F88800208800F40050B0F56E
:103EB000005F1FD139488830006820F04060216CD5
:103EC0000843364988310860206CB0F1006F06D194
:103ED0003248C06840F480103049C8600AE0206C65
:103EE000B0F1806F06D10121201D01F093FC054641
:103EF00005B1A846206800F48020B0F5802F1FD1BE
:103F000026488830006820F04060616C08432349EF
:103F100088310860606CB0F1006F06D11F48C0683E
:103F200040F480101D49C8600AE0606CB0F1806FF9
:103F300006D10121201D01F06DFC054605B1A84602
:103F4000208800F48040B0F5804F14D113488830A9
:103F5000006820F04050A16C084310498831086087
:103F6000A06CB0F1805F06D10221201D01F052FC4F
:103F7000054605B1A846208800F40040B0F5004F82
:103F800009D106488830006820F08040E16C084381
:103F90000249C1F888004046BDE8F883001002409D
:103FA0000070004070B504460D4600267348006856
:103FB00000F00700A8420ED27048006820F0070009
:103FC00028436E4908600846006800F00700A842D0
:103FD00001D0012070BD207800F00200022807D136
:103FE0006748806820F0F000A16808436449886051
:103FF000207800F00100002879D06068022806D1FE
:104000005F48006800F40030D8B90120E2E760683A
:10401000032806D15A48006800F0007088B90120D2
:10402000D8E7606830B95648006800F0020040B92F
:104030000120CFE75248006800F4806008B90120F1
:10404000C8E74F48806820F00300616808434C4986
:104050008860FFF74FFA06466068022810D108E032
:10406000FFF748FA801B41F28831884201D90320CA
:10407000B0E74348806800F00C000828F0D136E033
:104080006068032810D108E0FFF734FA801B41F282
:104090008831884201D903209CE73948806800F0C4
:1040A0000C000C28F0D122E0606880B908E0FFF72E
:1040B00021FA801B41F28831884201D9032089E727
:1040C0002F48806800F00C000028F0D10FE008E0D5
:1040D000FFF710FA801B41F28831884201D9032092
:1040E00078E72748806800F00C000428F0D12348C6
:1040F000006800F00700A8420ED92048006820F0B0
:10410000070028431D4908600846006800F00700C2
:10411000A84201D001205DE7207800F004000428C7
:1041200007D11748806820F4E060E168084314492B
:104130008860207800F00800082808D110488068BE
:1041400020F46050216940EAC1000D49886000F008
:1041500071F80B49896801F0F001F02292FAA2F29D
:10416000B2FA82F2D140074A515CC8400649086061
:104170000F20FFF735FC00202CE700000020024054
:10418000001002407CD600087C0800200F2202604C
:104190000D4A926802F0030242600B4A926802F0F4
:1041A000F0028260084A926802F4E062C260064A45
:1041B000926802F46052D2080261044A126802F066
:1041C00007020A6070470000001002400020024011
:1041D00001480068704700007C08002000B5FFF728
:1041E000F7FF0749896801F4E0614FF4E06292FA51
:1041F000A2F2B2FA82F2D140024A515CC84000BD3C
:10420000001002408CD6000800B5FFF7E1FF074917
:10421000896801F460514FF4605292FAA2F2B2FA46
:1042200082F2D140024A515CC84000BD00100240F9
:104230008CD60008F0B500210023002402250222BC
:104240000020554EB66806F00C065EB1524EB668B8
:1042500006F00C060C2E2DD14F4EF66806F0030624
:10426000012E27D14C4E366806F008066EB94A4E2C
:104270009436366806F470664FF4706797FAA7F7BD
:10428000B7FA87F726FA07F10AE0434E366806F0D8
:10429000F006F02797FAA7F7B7FA87F726FA07F19B
:1042A0003E4E56F821103C4EB66806F00C0686B914
:1042B00008460EE0384EB66806F00C06042E01D112
:1042C000374806E0344EB66806F00C06082E00D1DA
:1042D0003448314EB66806F00C060C2E5BD12E4EDB
:1042E000F66806F003042C4EF66806F07006702798
:1042F00097FAA7F7B7FA87F7FE40721C012C29D06E
:10430000022C02D0032C24D111E0254EB6FBF2F68C
:10431000214FFF6807F4FE474FF4FE4C9CFAACFCBB
:10432000BCFA8CFC27FA0CF706FB07F323E01D4EC2
:10433000B6FBF2F6184FFF6807F4FE474FF4FE4C49
:104340009CFAACFCBCFA8CFC27FA0CF706FB07F3D2
:1043500011E000BFB1FBF2F60F4FFF6807F4FE4714
:104360004FF4FE4C9CFAACFCBCFA8CFC27FA0CF720
:1043700006FB07F300BF00BF074EF66806F0C066F5
:104380004FF0C06797FAA7F7B7FA87F7FE40761C99
:104390007500B3FBF5F0F0BD0010024094D60008A4
:1043A0000024F40000127A00F8B5044600252078B5
:1043B00000F01000102874D1FE48806800F00C0056
:1043C000002870D1FB48006800F0020018B1A06915
:1043D00008B90120F8BDF748216A006800F008001C
:1043E00020B1F448006800F0F00005E0F148943096
:1043F000006800F47060000981421FD9206A01F052
:10440000FFFA08B10120E5E700BFEA48006840F084
:104410000800E84908600846006820F0F000216ABA
:104420000843E449086000BF0846406820F47F4024
:10443000E16940EA0120DF4948601EE000BFDD4835
:10444000006840F00800DB4908600846006820F07A
:10445000F000216A0843D749086000BF0846406859
:1044600020F47F40E16940EA0120D2494860206A97
:1044700001F0C6FA08B10120ACE7FFF7DBFECD4939
:10448000896801F0F001F02292FAA2F2B2FA82F207
:10449000D140C94A515CC840C84908600F20FFF7A5
:1044A0009FFA4BE0FFE7A06980B3C248006840F084
:1044B0000100C0490860FFF71DF8054606E0FFF758
:1044C00019F8401B022801D9032083E7B948006886
:1044D00000F002000028F2D000BFB648006840F0AB
:1044E0000800B44908600846006820F0F000216A1E
:1044F0000843B049086000BF0846406820F47F4088
:10450000E16940EA0120AB49486017E0FFE7A948AC
:10451000006820F00100A7490860FEF7EBFF0546A0
:1045200006E0FEF7E7FF401B022801D9032051E710
:10453000A048006800F002000028F2D1207800F0C6
:104540000100002868D09B48806800F00C00082813
:104550000BD09848806800F00C000C280ED19548CC
:10456000C06800F00300032808D19248006800F4F6
:10457000003088B3606878BB01202BE700BF60681B
:10458000B0F5803F06D18B48006840F480308949FF
:1045900008601AE06068B0F5A02F0BD1854800686C
:1045A00040F48020834908600846006840F4803069
:1045B00008600AE07F48006820F480307D49086088
:1045C0000846006820F48020086000BF606890B151
:1045D000FEF790FF054607E01EE0FEF78BFF401B4D
:1045E000C82801D90320F5E67248006800F40030BD
:1045F0000028F2D010E0FEF77DFF054606E0FEF74A
:1046000079FF401BC82801D90320E3E66948006808
:1046100000F400300028F2D1207800F002000228D7
:104620006AD16448806800F00C0004280BD061480F
:10463000806800F00C000C281ED15E48C06800F0B5
:104640000300022818D15B48006800F4806018B1AC
:10465000E06808B90120BDE65648406820F0F850EF
:104660004FF0F85292FAA2F2B2FA82F22169914026
:104670000843504948603FE0E06830B34D48006867
:1046800040F480704B490860FEF734FF054606E0B1
:10469000FEF730FF401B022801D903209AE6454867
:1046A000006800F480600028F2D04248406820F0A2
:1046B000F8504FF0F85292FAA2F2B2FA82F221695F
:1046C000914008433B49486016E03A48006820F4AE
:1046D000807038490860FEF70DFF054606E0FEF7DA
:1046E00009FF401B022801D9032073E63148006806
:1046F00000F480600028F2D1207800F0080008283B
:1047000036D16069D0B12B489430006840F0010088
:104710002849C1F89400FEF7EDFE054606E0FEF7D5
:10472000E9FE401B022801D9032053E621489430BA
:10473000006800F002000028F1D019E01D48943014
:10474000006820F001001B49C1F89400FEF7D2FE7A
:10475000054606E0FEF7CEFE401B022801D90320E5
:1047600038E614489430006800F002000028F1D1C7
:10477000207800F0040004286FD100260D48806DD9
:1047800000F0805070B900BF0A48806D40F0805042
:10479000084988650846806D00F08050009000BF91
:1047A00000BF01260648006800F48070F8B904488C
:1047B000006807E0001002407CD600087C0800205A
:1047C0000070004040F48070A3490860FEF792FE3C
:1047D000054606E0FEF78EFE401B022801D90320A5
:1047E000F8E59D48006800F480700028F2D000BF12
:1047F000A068012808D19948006840F00100974955
:104800009039C1F8900021E0A06805280FD19348A5
:10481000006840F0040091499039C1F890000846C2
:10482000D0F8900040F00100C1F890000EE08B48F5
:10483000006820F0010089499039C1F890000846CD
:10484000D0F8900020F00400C1F8900000BFA068EC
:10485000A0B1FEF74FFE054609E02DE0FEF74AFE47
:10486000401B41F28831884201D90320B2E57B48E0
:10487000006800F002000028F0D012E0FEF73AFED7
:10488000054608E0FEF736FE401B41F288318842BB
:1048900001D903209EE57148006800F0020000285D
:1048A000F0D1012E07D16D489038806D20F08050F6
:1048B0006A499039886500BF207800F020002028E0
:1048C00038D1606AD8B165480830006840F001000E
:1048D00062499039C1F89800FEF70CFE054606E0E3
:1048E000FEF708FE401B022801D9032072E55B4851
:1048F0000830006800F002000028F1D01AE05748A4
:104900000830006820F0010054499039C1F898003F
:10491000FEF7F0FD054606E0FEF7ECFD401B022821
:1049200001D9032056E54D480830006800F0020028
:104930000028F1D1A06AE8B348489038806800F0B8
:104940000C000C2874D0A06A022853D14348903838
:10495000006820F08070414990390860FEF7CAFD78
:10496000054606E0FEF7C6FD401B022801D90320DC
:1049700030E53A489038006800F000700028F1D126
:10498000206B401E0101606B41EA0020E16A084390
:10499000A18F0122C2EB510140EA41514020005D4C
:1049A000C2EB500041EA40613820005D41EAC0603E
:1049B0002A4900E04EE09039C8600846006840F09F
:1049C000807008600846C06840F08070C860FEF7DC
:1049D00091FD054606E0FEF78DFD401B022801D93A
:1049E0000320F7E41D489038006800F000700028AC
:1049F000F1D02FE019489038006820F080701749F6
:104A0000903908600846006800F0006020B9084648
:104A1000C06820F00300C86010489038C068104992
:104A200008400E499039C860FEF764FD054607E06E
:104A30000EE0FEF75FFD401B022801D90320C9E408
:104A400006489038006800F000700028F1D101E0BD
:104A50000120BFE40020BDE400700040901002403F
:104A6000FFFFEEFE4FF080400449086008460068F2
:104A7000C06840F004000968C86070474422002004
:104A80004FF080400449086008460068C06820F084
:104A900004000968C86070474422002010B504462D
:104AA0000CB9012010BD94F8390028B9002084F811
:104AB0003800204600F00CF8022084F83900211D4F
:104AC000206801F079F9012084F839000020E9E735
:104AD0007047000030B504460D4601222946206883
:104AE00001F0A0F90E492068884207D00D492068DE
:104AF000884203D00C492068884201D1012000E09F
:104B0000002028B12068406C40F4004021684864CF
:104B10002068006840F0010021680860002030BD76
:104B2000002C0140004001400044014010B5044603
:104B30000CB9012010BDA06900B100E000BF94F8DD
:104B4000690028B9002084F86800204600F02AF89F
:104B5000242084F869002068006820F001002168A2
:104B60000860204601F07AFA012800D1E2E7606A85
:104B700010B1204601F0BCF92068406820F4904054
:104B8000216848602068806820F02A0021688860D9
:104B90002068006840F0010021680860204601F0AC
:104BA00023FAC7E7704770B50546AC6A20684068CD
:104BB00040F40040216848600020A16B8863E16BED
:104BC000886394F84100602806D1202084F84100D1
:104BD0002046FEF7E5FC02E02046FEF76BFD70BDC7
:104BE00010B503460A46002102F0010048B141F029
:104BF000420193F8410000F02800282801D041F03C
:104C0000B00102F00200022809D141F0440193F8FA
:104C1000410000F02800282801D041F0B00102F046
:104C20000400042801D141F0B80102F0110011285C
:104C300001D141F0900102F01200122801D141F09F
:104C4000200102F01200122801D141F04001186841
:104C5000006888431C682060002010BD10B5034622
:104C600000221F4C586BA04203D01E4C586BA04230
:104C700018D101F00400042801D142F0B80201F07B
:104C80001100112801D142F0900201F01200122807
:104C900001D142F0200201F01200122819D142F095
:104CA000400216E001F00400042801D142F0B802ED
:104CB00001F0010008B142F0F20201F00200022806
:104CC00001D142F0F40201F01200122801D142F0A9
:104CD00020021868006810431C682060002010BD86
:104CE00047520008D154000801688969C1F34001A6
:104CF00011B10021026891620168896901F0010126
:104D000029B90168896941F0010102689161704720
:104D10002DE9F04704468946002700250026A846CD
:104D200094F8410000F02800282850D120688069BC
:104D3000C0F300472068806900F47E00050C2068FD
:104D40008068C0F309062068C06800F0FE08E068CB
:104D500002282DD105F00600062101EAE61188425D
:104D600016D13546A06C401CA064A06C022836D138
:104D70000020A06408202168C86100BF002084F8DA
:104D8000400000BF2A4639462046FEF720FC26E0B8
:104D9000454604212046FFF723FF00BF002084F88A
:104DA000400000BF2A4639462046FEF710FC16E0B8
:104DB00004212046FFF714FF00BF002084F84000C4
:104DC00000BF2A4639462046FEF701FC07E00820CE
:104DD0002168C86100BF002084F8400000BFBDE822
:104DE000F087000070B504460D46002084F84200AC
:104DF0003F48E06200206085606C2843606494F85E
:104E00004100282807D094F84100292803D094F8BD
:104E100041002A280BD103212046FFF7E1FE28207C
:104E200084F8410000202063324860630DE00721D0
:104E30002046FFF7D5FE94F84100602802D02020DC
:104E400084F841000020206360632068006800F45B
:104E50008040B0F5804F15D12068006820F4804074
:104E6000216808602448A16B886300BF002084F893
:104E7000400000BFA06BFEF79EFAF8B1A06B816BFB
:104E8000884734E02068006800F40040B0F5004F27
:104E900015D12068006820F4004021680860164899
:104EA000E16B886300BF002084F8400000BFE06B26
:104EB000FEF781FA10B1E06B816B884717E094F838
:104EC000410060280BD1202084F8410000BF002061
:104ED00084F8400000BF2046FEF762FB07E000BFF9
:104EE000002084F8400000BF2046FEF7E3FB70BDC1
:104EF0000000FFFF61550008A74B000870B504468D
:104F00000D461848E06200202063202084F841000C
:104F1000002084F84200606305F0040090B120682E
:104F2000406AC1B2626A501C60621170208D48B143
:104F3000208D401E2085608D401E6085606C40F095
:104F40000400606407212046FFF74AFE1020216814
:104F5000C86100BF002084F8400000BF2046FEF773
:104F600031FC70BD0000FFFF70B504460D462020E7
:104F70002168C8612068406833490840216848605A
:104F80000020206360633148E06205F0100030B11A
:104F900010202168C861606C40F004006064204605
:104FA000FFF7A2FE03212046FFF71AFE606C18B936
:104FB00094F84100602804D1616C2046FFF712FF8D
:104FC00040E094F8410021281CD1202084F84100C1
:104FD00094F8420040280AD1002084F8420000BF23
:104FE00084F8400000BF2046FEF7CEFC2AE00020F7
:104FF00084F8420000BF84F8400000BF2046FEF75E
:10500000F2FB1FE094F8410022281BD1202084F8F5
:10501000410094F8420040280AD1002084F8420060
:1050200000BF84F8400000BF2046FEF7ACFC09E05A
:10503000002084F8420000BF84F8400000BF2046F2
:10504000FEF7C6FB70BD000000E800FE0000FFFF99
:1050500010B50446002084F8420094F8410021284D
:1050600013D1202084F841001120206300206063C8
:1050700001212046FFF7B4FD00BF002084F8400066
:1050800000BF2046FEF7AFFB12E0202084F841006D
:10509000122020630020606302212046FFF7A0FD5C
:1050A00000BF002084F8400000BF2046FEF790FBC0
:1050B00010BD000070B504460D4620202168C8616F
:1050C00008202168C86107212046FFF789FD206874
:1050D000406840F4004021684860206840683F49CB
:1050E0000840216848602046FFF7FEFD2068006800
:1050F00000F48040B0F5804F06D02068006800F4CE
:105100000040B0F5004F0BD194F84100212803D1A5
:10511000A06B0068406802E0E06B00684068608552
:10512000608D18B1606C40F00400606405F004000C
:1051300090B12068406AC1B2626A501C606211700E
:10514000208D48B1208D401E2085608D401E6085D9
:10515000606C40F0040060640020206384F842002A
:105160006063606C60B1616C2046FFF73BFE94F8B1
:105170004100282831D129462046FFF7BFFE2CE008
:10518000E06A10F5803F0DD01548E062202084F8D9
:10519000410000BF002084F8400000BF2046FEF719
:1051A00011FB1AE094F8410022280BD1202084F84A
:1051B000410000BF002084F8400000BF2046FEF7F9
:1051C000E5FB0AE0202084F8410000BF002084F8BD
:1051D000400000BF2046FEF7E4FB70BD00E800FE83
:1051E0000000FFFF10B50446002084F8420094F848
:1051F0004100292811D1282084F841002120206372
:1052000001212046FFF7ECFC00BF002084F840009D
:1052100000BF2046FEF7C5FB14E094F841002A28A1
:1052200010D1282084F8410022202063022120464A
:10523000FFF7D6FC00BF002084F8400000BF2046E6
:10524000FEF7A4FB10BD2DE9F84304460D461646B3
:105250000027B84600BF94F84000012802D1022080
:10526000BDE8F883012084F8400000BF05F010007D
:1052700088B106F0100070B110202168C861606C20
:1052800040F00400606412212046FFF7E7FC20464E
:10529000FFF72AFD4EE005F08000002840D006F020
:1052A000400078B32068006820F040002168086062
:1052B000608D40B320684068C0F30907608DFF2807
:1052C00004D9FF2020854FF0807803E0608D208591
:1052D0004FF000780020009094F82820434639468B
:1052E000204600F0DDF9608D218D401A608594F82C
:1052F0004100222808D12068006840F4004021685D
:10530000086017E00CE006E02068006840F4804088
:10531000216808600EE040212046FFF763FD09E0A8
:1053200005F0200030B106F0200018B129462046D3
:10533000FFF71AFE00BF002084F8400000BF00BF46
:105340008EE7F8B504460D461646002700BF94F8D0
:105350004000012801D10220F8BD012084F840005E
:1053600000BF05F0100068B106F0100050B1102029
:105370002168C861606C40F0040060642046FFF75B
:10538000B3FC94E005F0040080B106F0040068B1BD
:105390002068406AC1B2626A501C60621170208D40
:1053A000401E2085608D401E608580E005F0020073
:1053B00078B106F0020060B1616A481C606208784A
:1053C00021688862208D401E2085608D401E60858A
:1053D0006DE005F08000002847D006F0400090B353
:1053E000208D88BB608D78B320684068C0F30907C2
:1053F000608DFF280CD9FF2020850020009094F8B4
:1054000028204FF080733946204600F049F94EE0DD
:10541000608D2085E06A10F5803F09D00020009063
:10542000E36A94F828203946204600F039F93EE036
:105430000020009094F828204FF000733946204651
:1054400000F02EF933E010E0FFE72068406800F03C
:105450000070B0F1007F03D02046FFF7F9FD26E091
:1054600040212046FFF7BEFC21E005F04000F0B1EE
:1054700006F04000D8B1608DA8B92068406800F0FF
:105480000070B0F1007F12D0E06A10F5803F06D1C5
:105490002068406840F480402168486007E020466A
:1054A000FFF7D6FD03E040212046FFF79BFC05F007
:1054B000200030B106F0200018B129462046FFF741
:1054C00053FD00BF002084F8400000BF00BF43E749
:1054D00070B504460D46164600BF94F840000128FA
:1054E00001D1022070BD012084F8400000BF05F00A
:1054F0001000D0B106F01000B8B194F84100212896
:1055000003D1A06B0068406802E0E06B006840686F
:1055100018B910202168C8611BE010202168C861FB
:10552000606C40F00400606413E005F0080030B1E6
:1055300006F0080018B108202168C86109E005F0EC
:10554000200030B106F0200018B129462046FFF7B0
:10555000B1FD00BF002084F8400000BF00BFC1E7DC
:1055600070B504460D46164600BF94F84000012869
:1055700001D1022070BD012084F8400000BF05F079
:10558000100098B306F0100080B3608D30BBE06A65
:10559000B0F1007F03D0E06AB0F1007F08D194F849
:1055A0004100282804D129462046FFF7A7FC66E0E1
:1055B000E06A10F5803F0DD094F84100292809D108
:1055C00010202168C8612046FFF78EFB2046FFF7B8
:1055D00009FE54E010202168C86150E010202168C5
:1055E000C861606C40F00400606448E0FFE705F0CB
:1055F0000400D8B106F00400C0B1608D60B120682D
:10560000406AC1B2626A501C60621170208D401EF7
:105610002085608D401E6085608D30BBE06A10F58E
:10562000803F2CD02046FFF7DDFD28E005F0080084
:1056300038B106F0080020B129462046FFF768FB84
:105640001DE005F0020080B106F0020068B1608D37
:1056500060B1616A481C6062087821688862608D68
:10566000401E6085208D401E208508E0E06AB0F174
:10567000807F01D0E06A10B92046FFF7B3FD05F046
:10568000200030B106F0200018B129462046FFF76F
:1056900011FD00BF002084F8400000BF00BF69E793
:1056A000F0B50C46059D002106687168074E314033
:1056B000C4F309064FF47F0707EA02473E431E433F
:1056C0002E43314306687160F0BD0000009800FC75
:1056D000024909688143014A116070470C04014086
:1056E000024909688143014A11607047080401407A
:1056F000024909680143014A116070470C040140E6
:10570000024909680143014A1160704708040140D9
:1057100030B5036891FAA1F4B4FA84F46500032467
:10572000AC40A34391FAA1F4B4FA84F4640002FA01
:1057300004F42343036030BD10B543688B4301FB81
:1057400002F42343436010BD30B5C36891FAA1F45D
:10575000B4FA84F465000324AC40A34391FAA1F4A5
:10576000B4FA84F4640002FA04F42343C36030BD45
:105770002DE9F041054605F12800FAF7D2FE07466B
:1057800017B90020BDE8F081EC6A07E00121A01CF8
:10579000FAF752FE064606B902E0A468002CF5D1DD
:1057A00000BF2046EEE72DE9F04105460C46286B88
:1057B000A0B12E6B002701E0374676681EB1F07865
:1057C000E1788842F8DB6660A7600EB1B46000E063
:1057D000EC620FB17C6006E02C6304E000206060A6
:1057E000A060EC622C6305F12800FAF766FEBDE8C4
:1057F000F0814A681AB1D1E901329A6001E08A6801
:10580000C2628A681AB1D1E901235A6001E04A688C
:10581000026370472DE9F04104460E46002700253B
:105820007348C06800F00300C0B17148C06800F060
:105830000300216888420FD1206868B16C48C068B5
:1058400000F07000702191FAA1F1B1FA81F1C84025
:10585000401C6168884238D0012536E02068012864
:1058600004D0022809D003281AD10DE0604800684E
:1058700000F0020000B9012514E05D48006800F462
:10588000806000B901250DE05948006800F400303F
:1058900028B95748006800F4802000B9012501E0CC
:1058A000012500BF00BF85B9D4E90010401E702259
:1058B00092FAA2F2B2FA82F2904008434C49C968C7
:1058C00021F0730108434A49C860002D76D1484849
:1058D000006820F0806046490860FDF70BFE07462F
:1058E00006E0FDF707FEC01B022801D9032505E0ED
:1058F0003F48006800F000600028F2D100BF002D92
:1059000072D1C6B94FF4FE4191FAA1F1B1FA81F119
:10591000A06888404FF0784292FAA2F2B2FA82F27E
:10592000E1689140084332490969324A114008430D
:105930002F49086138E0012E1BD14FF4FE4191FA46
:10594000A1F1B1FA81F1A068884001222169C2EB7E
:1059500051014FF4C00292FAA2F2B2FA82F29140DF
:10596000084323490969244A114008432049086132
:105970001AE04FF4FE4191FAA1F1B1FA81F1A06869
:10598000884001226169C2EB51014FF0C06292FA76
:10599000A2F2B2FA82F29140084315490969174A06
:1059A00011400843124908611148006840F08060C6
:1059B0000F490860FDF79EFD074607E014E0FDF77C
:1059C00099FDC01B022801D9032505E0084800689D
:1059D00000F000600028F2D000BF2DB90448006933
:1059E000A1690843024908612846BDE8F08100002A
:1059F00000100240FF80FF07FF809FFFFF80FFF93C
:105A0000F8B50446002600252348806D00F080503C
:105A100018B1FEF7D7F8064616E000BF1E48806DA5
:105A200040F080501C4988650846806D00F0805029
:105A3000009000BF00BFFEF7C5F806461648806D0F
:105A400020F0805014498865B6F5007F07D1802C7E
:105A500010D9A02C01D902250CE001250AE0802CE8
:105A600001D9032506E0802C01D1022502E0702C2B
:105A700000D101250948006820F0070028430749A4
:105A800008600846006800F00700A84201D0012025
:105A9000F8BD0020FCE7000000100240002002409A
:105AA00070B5054605F10C00FAF7F2FD08B10124C6
:105AB00000E00024204670BD70B50446E18904F181
:105AC0000C00FAF7BCFDE189884201DA012500E00B
:105AD0000025284670BD10B500F006F818B901E0A1
